{
	"currConverter.sol": {
		"currConverter": {
			"abi": [
				{
					"inputs": [
						{
							"internalType": "address",
							"name": "_token",
							"type": "address"
						}
					],
					"stateMutability": "nonpayable",
					"type": "constructor"
				},
				{
					"anonymous": false,
					"inputs": [
						{
							"indexed": true,
							"internalType": "address",
							"name": "user",
							"type": "address"
						},
						{
							"indexed": false,
							"internalType": "string",
							"name": "fromCurrency",
							"type": "string"
						},
						{
							"indexed": false,
							"internalType": "uint256",
							"name": "amount",
							"type": "uint256"
						},
						{
							"indexed": false,
							"internalType": "uint256",
							"name": "tokenAmount",
							"type": "uint256"
						}
					],
					"name": "Converted",
					"type": "event"
				},
				{
					"inputs": [],
					"name": "baseCurrency",
					"outputs": [
						{
							"internalType": "string",
							"name": "",
							"type": "string"
						}
					],
					"stateMutability": "view",
					"type": "function"
				},
				{
					"inputs": [
						{
							"internalType": "string",
							"name": "currency",
							"type": "string"
						}
					],
					"name": "getExchangeRate",
					"outputs": [
						{
							"internalType": "uint256",
							"name": "",
							"type": "uint256"
						}
					],
					"stateMutability": "view",
					"type": "function"
				},
				{
					"inputs": [
						{
							"internalType": "string",
							"name": "currency",
							"type": "string"
						},
						{
							"internalType": "address",
							"name": "priceFeedAddress",
							"type": "address"
						}
					],
					"name": "setPriceFeed",
					"outputs": [],
					"stateMutability": "nonpayable",
					"type": "function"
				},
				{
					"inputs": [],
					"name": "token",
					"outputs": [
						{
							"internalType": "contract IERC20",
							"name": "",
							"type": "address"
						}
					],
					"stateMutability": "view",
					"type": "function"
				}
			],
			"devdoc": {
				"kind": "dev",
				"methods": {},
				"version": 1
			},
			"evm": {
				"assembly": "    /* \"currConverter.sol\":200:3995  contract currConverter{... */\n  mstore(0x40, 0x80)\n    /* \"currConverter.sol\":255:289  string public baseCurrency = \"USD\" */\n  mload(0x40)\n  dup1\n  0x40\n  add\n  0x40\n  mstore\n  dup1\n  0x03\n  dup2\n  mstore\n  0x20\n  add\n  0x5553440000000000000000000000000000000000000000000000000000000000\n  dup2\n  mstore\n  pop\n  0x01\n  swap1\n  dup2\n  tag_1\n  swap2\n  swap1\n  tag_2\n  jump\t// in\ntag_1:\n  pop\n    /* \"currConverter.sol\":768:1540  constructor(address _token) {... */\n  callvalue\n  dup1\n  iszero\n  tag_3\n  jumpi\n  0x00\n  dup1\n  revert\ntag_3:\n  pop\n  mload(0x40)\n  sub(codesize, bytecodeSize)\n  dup1\n  bytecodeSize\n  dup4\n  codecopy\n  dup2\n  dup2\n  add\n  0x40\n  mstore\n  dup2\n  add\n  swap1\n  tag_4\n  swap2\n  swap1\n  tag_5\n  jump\t// in\ntag_4:\n    /* \"currConverter.sol\":822:828  _token */\n  dup1\n    /* \"currConverter.sol\":807:812  token */\n  0x00\n  dup1\n    /* \"currConverter.sol\":807:829  token = IERC20(_token) */\n  0x0100\n  exp\n  dup2\n  sload\n  dup2\n  0xffffffffffffffffffffffffffffffffffffffff\n  mul\n  not\n  and\n  swap1\n  dup4\n  0xffffffffffffffffffffffffffffffffffffffff\n  and\n  mul\n  or\n  swap1\n  sstore\n  pop\n    /* \"currConverter.sol\":963:1005  0x91FAB41F5f3bE955963a986366edAcff1aaeaa83 */\n  0x91fab41f5f3be955963a986366edacff1aaeaa83\n    /* \"currConverter.sol\":921:931  priceFeeds */\n  0x02\n    /* \"currConverter.sol\":921:938  priceFeeds[\"GBP\"] */\n  mload(0x40)\n  tag_8\n  swap1\n  tag_9\n  jump\t// in\ntag_8:\n  swap1\n  dup2\n  mstore\n  0x20\n  add\n  mload(0x40)\n  dup1\n  swap2\n  sub\n  swap1\n  keccak256\n  0x00\n    /* \"currConverter.sol\":921:1006  priceFeeds[\"GBP\"] = AggregatorV3Interface(0x91FAB41F5f3bE955963a986366edAcff1aaeaa83) */\n  0x0100\n  exp\n  dup2\n  sload\n  dup2\n  0xffffffffffffffffffffffffffffffffffffffff\n  mul\n  not\n  and\n  swap1\n  dup4\n  0xffffffffffffffffffffffffffffffffffffffff\n  and\n  mul\n  or\n  swap1\n  sstore\n  pop\n    /* \"currConverter.sol\":1070:1112  0x1a81afB8146aeFfCFc5E50e8479e826E7D55b910 */\n  0x1a81afb8146aeffcfc5e50e8479e826e7d55b910\n    /* \"currConverter.sol\":1028:1038  priceFeeds */\n  0x02\n    /* \"currConverter.sol\":1028:1045  priceFeeds[\"EUR\"] */\n  mload(0x40)\n  tag_10\n  swap1\n  tag_11\n  jump\t// in\ntag_10:\n  swap1\n  dup2\n  mstore\n  0x20\n  add\n  mload(0x40)\n  dup1\n  swap2\n  sub\n  swap1\n  keccak256\n  0x00\n    /* \"currConverter.sol\":1028:1113  priceFeeds[\"EUR\"] = AggregatorV3Interface(0x1a81afB8146aeFfCFc5E50e8479e826E7D55b910) */\n  0x0100\n  exp\n  dup2\n  sload\n  dup2\n  0xffffffffffffffffffffffffffffffffffffffff\n  mul\n  not\n  and\n  swap1\n  dup4\n  0xffffffffffffffffffffffffffffffffffffffff\n  and\n  mul\n  or\n  swap1\n  sstore\n  pop\n    /* \"currConverter.sol\":1177:1219  0x8A6af2B75F23831ADc973ce6288e5329F63D86c6 */\n  0x8a6af2b75f23831adc973ce6288e5329f63d86c6\n    /* \"currConverter.sol\":1135:1145  priceFeeds */\n  0x02\n    /* \"currConverter.sol\":1135:1152  priceFeeds[\"JPY\"] */\n  mload(0x40)\n  tag_12\n  swap1\n  tag_13\n  jump\t// in\ntag_12:\n  swap1\n  dup2\n  mstore\n  0x20\n  add\n  mload(0x40)\n  dup1\n  swap2\n  sub\n  swap1\n  keccak256\n  0x00\n    /* \"currConverter.sol\":1135:1220  priceFeeds[\"JPY\"] = AggregatorV3Interface(0x8A6af2B75F23831ADc973ce6288e5329F63D86c6) */\n  0x0100\n  exp\n  dup2\n  sload\n  dup2\n  0xffffffffffffffffffffffffffffffffffffffff\n  mul\n  not\n  and\n  swap1\n  dup4\n  0xffffffffffffffffffffffffffffffffffffffff\n  and\n  mul\n  or\n  swap1\n  sstore\n  pop\n    /* \"currConverter.sol\":1284:1326  0x694AA1769357215DE4FAC081bf1f309aDC325306 */\n  0x694aa1769357215de4fac081bf1f309adc325306\n    /* \"currConverter.sol\":1242:1252  priceFeeds */\n  0x02\n    /* \"currConverter.sol\":1242:1259  priceFeeds[\"ETH\"] */\n  mload(0x40)\n  tag_14\n  swap1\n  tag_15\n  jump\t// in\ntag_14:\n  swap1\n  dup2\n  mstore\n  0x20\n  add\n  mload(0x40)\n  dup1\n  swap2\n  sub\n  swap1\n  keccak256\n  0x00\n    /* \"currConverter.sol\":1242:1327  priceFeeds[\"ETH\"] = AggregatorV3Interface(0x694AA1769357215DE4FAC081bf1f309aDC325306) */\n  0x0100\n  exp\n  dup2\n  sload\n  dup2\n  0xffffffffffffffffffffffffffffffffffffffff\n  mul\n  not\n  and\n  swap1\n  dup4\n  0xffffffffffffffffffffffffffffffffffffffff\n  and\n  mul\n  or\n  swap1\n  sstore\n  pop\n    /* \"currConverter.sol\":1399:1400  0 */\n  0x00\n    /* \"currConverter.sol\":1349:1359  priceFeeds */\n  0x02\n    /* \"currConverter.sol\":1349:1366  priceFeeds[\"USD\"] */\n  mload(0x40)\n  tag_16\n  swap1\n  tag_17\n  jump\t// in\ntag_16:\n  swap1\n  dup2\n  mstore\n  0x20\n  add\n  mload(0x40)\n  dup1\n  swap2\n  sub\n  swap1\n  keccak256\n  0x00\n    /* \"currConverter.sol\":1349:1402  priceFeeds[\"USD\"] = AggregatorV3Interface(address(0)) */\n  0x0100\n  exp\n  dup2\n  sload\n  dup2\n  0xffffffffffffffffffffffffffffffffffffffff\n  mul\n  not\n  and\n  swap1\n  dup4\n  0xffffffffffffffffffffffffffffffffffffffff\n  and\n  mul\n  or\n  swap1\n  sstore\n  pop\n    /* \"currConverter.sol\":768:1540  constructor(address _token) {... */\n  pop\n    /* \"currConverter.sol\":200:3995  contract currConverter{... */\n  jump(tag_18)\n    /* \"#utility.yul\":7:106   */\ntag_19:\n    /* \"#utility.yul\":59:65   */\n  0x00\n    /* \"#utility.yul\":93:98   */\n  dup2\n    /* \"#utility.yul\":87:99   */\n  mload\n    /* \"#utility.yul\":77:99   */\n  swap1\n  pop\n    /* \"#utility.yul\":7:106   */\n  swap2\n  swap1\n  pop\n  jump\t// out\n    /* \"#utility.yul\":112:292   */\ntag_20:\n    /* \"#utility.yul\":160:237   */\n  0x4e487b7100000000000000000000000000000000000000000000000000000000\n    /* \"#utility.yul\":157:158   */\n  0x00\n    /* \"#utility.yul\":150:238   */\n  mstore\n    /* \"#utility.yul\":257:261   */\n  0x41\n    /* \"#utility.yul\":254:255   */\n  0x04\n    /* \"#utility.yul\":247:262   */\n  mstore\n    /* \"#utility.yul\":281:285   */\n  0x24\n    /* \"#utility.yul\":278:279   */\n  0x00\n    /* \"#utility.yul\":271:286   */\n  revert\n    /* \"#utility.yul\":298:478   */\ntag_21:\n    /* \"#utility.yul\":346:423   */\n  0x4e487b7100000000000000000000000000000000000000000000000000000000\n    /* \"#utility.yul\":343:344   */\n  0x00\n    /* \"#utility.yul\":336:424   */\n  mstore\n    /* \"#utility.yul\":443:447   */\n  0x22\n    /* \"#utility.yul\":440:441   */\n  0x04\n    /* \"#utility.yul\":433:448   */\n  mstore\n    /* \"#utility.yul\":467:471   */\n  0x24\n    /* \"#utility.yul\":464:465   */\n  0x00\n    /* \"#utility.yul\":457:472   */\n  revert\n    /* \"#utility.yul\":484:804   */\ntag_22:\n    /* \"#utility.yul\":528:534   */\n  0x00\n    /* \"#utility.yul\":565:566   */\n  0x02\n    /* \"#utility.yul\":559:563   */\n  dup3\n    /* \"#utility.yul\":555:567   */\n  div\n    /* \"#utility.yul\":545:567   */\n  swap1\n  pop\n    /* \"#utility.yul\":612:613   */\n  0x01\n    /* \"#utility.yul\":606:610   */\n  dup3\n    /* \"#utility.yul\":602:614   */\n  and\n    /* \"#utility.yul\":633:651   */\n  dup1\n    /* \"#utility.yul\":623:704   */\n  tag_62\n  jumpi\n    /* \"#utility.yul\":689:693   */\n  0x7f\n    /* \"#utility.yul\":681:687   */\n  dup3\n    /* \"#utility.yul\":677:694   */\n  and\n    /* \"#utility.yul\":667:694   */\n  swap2\n  pop\n    /* \"#utility.yul\":623:704   */\ntag_62:\n    /* \"#utility.yul\":751:753   */\n  0x20\n    /* \"#utility.yul\":743:749   */\n  dup3\n    /* \"#utility.yul\":740:754   */\n  lt\n    /* \"#utility.yul\":720:738   */\n  dup2\n    /* \"#utility.yul\":717:755   */\n  sub\n    /* \"#utility.yul\":714:798   */\n  tag_63\n  jumpi\n    /* \"#utility.yul\":770:788   */\n  tag_64\n  tag_21\n  jump\t// in\ntag_64:\n    /* \"#utility.yul\":714:798   */\ntag_63:\n    /* \"#utility.yul\":535:804   */\n  pop\n    /* \"#utility.yul\":484:804   */\n  swap2\n  swap1\n  pop\n  jump\t// out\n    /* \"#utility.yul\":810:951   */\ntag_23:\n    /* \"#utility.yul\":859:863   */\n  0x00\n    /* \"#utility.yul\":882:885   */\n  dup2\n    /* \"#utility.yul\":874:885   */\n  swap1\n  pop\n    /* \"#utility.yul\":905:908   */\n  dup2\n    /* \"#utility.yul\":902:903   */\n  0x00\n    /* \"#utility.yul\":895:909   */\n  mstore\n    /* \"#utility.yul\":939:943   */\n  0x20\n    /* \"#utility.yul\":936:937   */\n  0x00\n    /* \"#utility.yul\":926:944   */\n  keccak256\n    /* \"#utility.yul\":918:944   */\n  swap1\n  pop\n    /* \"#utility.yul\":810:951   */\n  swap2\n  swap1\n  pop\n  jump\t// out\n    /* \"#utility.yul\":957:1050   */\ntag_24:\n    /* \"#utility.yul\":994:1000   */\n  0x00\n    /* \"#utility.yul\":1041:1043   */\n  0x20\n    /* \"#utility.yul\":1036:1038   */\n  0x1f\n    /* \"#utility.yul\":1029:1034   */\n  dup4\n    /* \"#utility.yul\":1025:1039   */\n  add\n    /* \"#utility.yul\":1021:1044   */\n  div\n    /* \"#utility.yul\":1011:1044   */\n  swap1\n  pop\n    /* \"#utility.yul\":957:1050   */\n  swap2\n  swap1\n  pop\n  jump\t// out\n    /* \"#utility.yul\":1056:1163   */\ntag_25:\n    /* \"#utility.yul\":1100:1108   */\n  0x00\n    /* \"#utility.yul\":1150:1155   */\n  dup3\n    /* \"#utility.yul\":1144:1148   */\n  dup3\n    /* \"#utility.yul\":1140:1156   */\n  shl\n    /* \"#utility.yul\":1119:1156   */\n  swap1\n  pop\n    /* \"#utility.yul\":1056:1163   */\n  swap3\n  swap2\n  pop\n  pop\n  jump\t// out\n    /* \"#utility.yul\":1169:1562   */\ntag_26:\n    /* \"#utility.yul\":1238:1244   */\n  0x00\n    /* \"#utility.yul\":1288:1289   */\n  0x08\n    /* \"#utility.yul\":1276:1286   */\n  dup4\n    /* \"#utility.yul\":1272:1290   */\n  mul\n    /* \"#utility.yul\":1311:1408   */\n  tag_69\n    /* \"#utility.yul\":1341:1407   */\n  0xffffffffffffffffffffffffffffffffffffffffffffffffffffffffffffffff\n    /* \"#utility.yul\":1330:1339   */\n  dup3\n    /* \"#utility.yul\":1311:1408   */\n  tag_25\n  jump\t// in\ntag_69:\n    /* \"#utility.yul\":1429:1468   */\n  tag_70\n    /* \"#utility.yul\":1459:1467   */\n  dup7\n    /* \"#utility.yul\":1448:1457   */\n  dup4\n    /* \"#utility.yul\":1429:1468   */\n  tag_25\n  jump\t// in\ntag_70:\n    /* \"#utility.yul\":1417:1468   */\n  swap6\n  pop\n    /* \"#utility.yul\":1501:1505   */\n  dup1\n    /* \"#utility.yul\":1497:1506   */\n  not\n    /* \"#utility.yul\":1490:1495   */\n  dup5\n    /* \"#utility.yul\":1486:1507   */\n  and\n    /* \"#utility.yul\":1477:1507   */\n  swap4\n  pop\n    /* \"#utility.yul\":1550:1554   */\n  dup1\n    /* \"#utility.yul\":1540:1548   */\n  dup7\n    /* \"#utility.yul\":1536:1555   */\n  and\n    /* \"#utility.yul\":1529:1534   */\n  dup5\n    /* \"#utility.yul\":1526:1556   */\n  or\n    /* \"#utility.yul\":1516:1556   */\n  swap3\n  pop\n    /* \"#utility.yul\":1245:1562   */\n  pop\n  pop\n    /* \"#utility.yul\":1169:1562   */\n  swap4\n  swap3\n  pop\n  pop\n  pop\n  jump\t// out\n    /* \"#utility.yul\":1568:1645   */\ntag_27:\n    /* \"#utility.yul\":1605:1612   */\n  0x00\n    /* \"#utility.yul\":1634:1639   */\n  dup2\n    /* \"#utility.yul\":1623:1639   */\n  swap1\n  pop\n    /* \"#utility.yul\":1568:1645   */\n  swap2\n  swap1\n  pop\n  jump\t// out\n    /* \"#utility.yul\":1651:1711   */\ntag_28:\n    /* \"#utility.yul\":1679:1682   */\n  0x00\n    /* \"#utility.yul\":1700:1705   */\n  dup2\n    /* \"#utility.yul\":1693:1705   */\n  swap1\n  pop\n    /* \"#utility.yul\":1651:1711   */\n  swap2\n  swap1\n  pop\n  jump\t// out\n    /* \"#utility.yul\":1717:1859   */\ntag_29:\n    /* \"#utility.yul\":1767:1776   */\n  0x00\n    /* \"#utility.yul\":1800:1853   */\n  tag_74\n    /* \"#utility.yul\":1818:1852   */\n  tag_75\n    /* \"#utility.yul\":1827:1851   */\n  tag_76\n    /* \"#utility.yul\":1845:1850   */\n  dup5\n    /* \"#utility.yul\":1827:1851   */\n  tag_27\n  jump\t// in\ntag_76:\n    /* \"#utility.yul\":1818:1852   */\n  tag_28\n  jump\t// in\ntag_75:\n    /* \"#utility.yul\":1800:1853   */\n  tag_27\n  jump\t// in\ntag_74:\n    /* \"#utility.yul\":1787:1853   */\n  swap1\n  pop\n    /* \"#utility.yul\":1717:1859   */\n  swap2\n  swap1\n  pop\n  jump\t// out\n    /* \"#utility.yul\":1865:1940   */\ntag_30:\n    /* \"#utility.yul\":1908:1911   */\n  0x00\n    /* \"#utility.yul\":1929:1934   */\n  dup2\n    /* \"#utility.yul\":1922:1934   */\n  swap1\n  pop\n    /* \"#utility.yul\":1865:1940   */\n  swap2\n  swap1\n  pop\n  jump\t// out\n    /* \"#utility.yul\":1946:2215   */\ntag_31:\n    /* \"#utility.yul\":2056:2095   */\n  tag_79\n    /* \"#utility.yul\":2087:2094   */\n  dup4\n    /* \"#utility.yul\":2056:2095   */\n  tag_29\n  jump\t// in\ntag_79:\n    /* \"#utility.yul\":2117:2208   */\n  tag_80\n    /* \"#utility.yul\":2166:2207   */\n  tag_81\n    /* \"#utility.yul\":2190:2206   */\n  dup3\n    /* \"#utility.yul\":2166:2207   */\n  tag_30\n  jump\t// in\ntag_81:\n    /* \"#utility.yul\":2158:2164   */\n  dup5\n    /* \"#utility.yul\":2151:2155   */\n  dup5\n    /* \"#utility.yul\":2145:2156   */\n  sload\n    /* \"#utility.yul\":2117:2208   */\n  tag_26\n  jump\t// in\ntag_80:\n    /* \"#utility.yul\":2111:2115   */\n  dup3\n    /* \"#utility.yul\":2104:2209   */\n  sstore\n    /* \"#utility.yul\":2022:2215   */\n  pop\n    /* \"#utility.yul\":1946:2215   */\n  pop\n  pop\n  pop\n  jump\t// out\n    /* \"#utility.yul\":2221:2294   */\ntag_32:\n    /* \"#utility.yul\":2266:2269   */\n  0x00\n    /* \"#utility.yul\":2221:2294   */\n  swap1\n  jump\t// out\n    /* \"#utility.yul\":2300:2489   */\ntag_33:\n    /* \"#utility.yul\":2377:2409   */\n  tag_84\n  tag_32\n  jump\t// in\ntag_84:\n    /* \"#utility.yul\":2418:2483   */\n  tag_85\n    /* \"#utility.yul\":2476:2482   */\n  dup2\n    /* \"#utility.yul\":2468:2474   */\n  dup5\n    /* \"#utility.yul\":2462:2466   */\n  dup5\n    /* \"#utility.yul\":2418:2483   */\n  tag_31\n  jump\t// in\ntag_85:\n    /* \"#utility.yul\":2353:2489   */\n  pop\n    /* \"#utility.yul\":2300:2489   */\n  pop\n  pop\n  jump\t// out\n    /* \"#utility.yul\":2495:2681   */\ntag_34:\n    /* \"#utility.yul\":2555:2675   */\ntag_87:\n    /* \"#utility.yul\":2572:2575   */\n  dup2\n    /* \"#utility.yul\":2565:2570   */\n  dup2\n    /* \"#utility.yul\":2562:2576   */\n  lt\n    /* \"#utility.yul\":2555:2675   */\n  iszero\n  tag_89\n  jumpi\n    /* \"#utility.yul\":2626:2665   */\n  tag_90\n    /* \"#utility.yul\":2663:2664   */\n  0x00\n    /* \"#utility.yul\":2656:2661   */\n  dup3\n    /* \"#utility.yul\":2626:2665   */\n  tag_33\n  jump\t// in\ntag_90:\n    /* \"#utility.yul\":2599:2600   */\n  0x01\n    /* \"#utility.yul\":2592:2597   */\n  dup2\n    /* \"#utility.yul\":2588:2601   */\n  add\n    /* \"#utility.yul\":2579:2601   */\n  swap1\n  pop\n    /* \"#utility.yul\":2555:2675   */\n  jump(tag_87)\ntag_89:\n    /* \"#utility.yul\":2495:2681   */\n  pop\n  pop\n  jump\t// out\n    /* \"#utility.yul\":2687:3230   */\ntag_35:\n    /* \"#utility.yul\":2788:2790   */\n  0x1f\n    /* \"#utility.yul\":2783:2786   */\n  dup3\n    /* \"#utility.yul\":2780:2791   */\n  gt\n    /* \"#utility.yul\":2777:3223   */\n  iszero\n  tag_92\n  jumpi\n    /* \"#utility.yul\":2822:2860   */\n  tag_93\n    /* \"#utility.yul\":2854:2859   */\n  dup2\n    /* \"#utility.yul\":2822:2860   */\n  tag_23\n  jump\t// in\ntag_93:\n    /* \"#utility.yul\":2906:2935   */\n  tag_94\n    /* \"#utility.yul\":2924:2934   */\n  dup5\n    /* \"#utility.yul\":2906:2935   */\n  tag_24\n  jump\t// in\ntag_94:\n    /* \"#utility.yul\":2896:2904   */\n  dup2\n    /* \"#utility.yul\":2892:2936   */\n  add\n    /* \"#utility.yul\":3089:3091   */\n  0x20\n    /* \"#utility.yul\":3077:3087   */\n  dup6\n    /* \"#utility.yul\":3074:3092   */\n  lt\n    /* \"#utility.yul\":3071:3120   */\n  iszero\n  tag_95\n  jumpi\n    /* \"#utility.yul\":3110:3118   */\n  dup2\n    /* \"#utility.yul\":3095:3118   */\n  swap1\n  pop\n    /* \"#utility.yul\":3071:3120   */\ntag_95:\n    /* \"#utility.yul\":3133:3213   */\n  tag_96\n    /* \"#utility.yul\":3189:3211   */\n  tag_97\n    /* \"#utility.yul\":3207:3210   */\n  dup6\n    /* \"#utility.yul\":3189:3211   */\n  tag_24\n  jump\t// in\ntag_97:\n    /* \"#utility.yul\":3179:3187   */\n  dup4\n    /* \"#utility.yul\":3175:3212   */\n  add\n    /* \"#utility.yul\":3162:3173   */\n  dup3\n    /* \"#utility.yul\":3133:3213   */\n  tag_34\n  jump\t// in\ntag_96:\n    /* \"#utility.yul\":2792:3223   */\n  pop\n  pop\n    /* \"#utility.yul\":2777:3223   */\ntag_92:\n    /* \"#utility.yul\":2687:3230   */\n  pop\n  pop\n  pop\n  jump\t// out\n    /* \"#utility.yul\":3236:3353   */\ntag_36:\n    /* \"#utility.yul\":3290:3298   */\n  0x00\n    /* \"#utility.yul\":3340:3345   */\n  dup3\n    /* \"#utility.yul\":3334:3338   */\n  dup3\n    /* \"#utility.yul\":3330:3346   */\n  shr\n    /* \"#utility.yul\":3309:3346   */\n  swap1\n  pop\n    /* \"#utility.yul\":3236:3353   */\n  swap3\n  swap2\n  pop\n  pop\n  jump\t// out\n    /* \"#utility.yul\":3359:3528   */\ntag_37:\n    /* \"#utility.yul\":3403:3409   */\n  0x00\n    /* \"#utility.yul\":3436:3487   */\n  tag_100\n    /* \"#utility.yul\":3484:3485   */\n  0x00\n    /* \"#utility.yul\":3480:3486   */\n  not\n    /* \"#utility.yul\":3472:3477   */\n  dup5\n    /* \"#utility.yul\":3469:3470   */\n  0x08\n    /* \"#utility.yul\":3465:3478   */\n  mul\n    /* \"#utility.yul\":3436:3487   */\n  tag_36\n  jump\t// in\ntag_100:\n    /* \"#utility.yul\":3432:3488   */\n  not\n    /* \"#utility.yul\":3517:3521   */\n  dup1\n    /* \"#utility.yul\":3511:3515   */\n  dup4\n    /* \"#utility.yul\":3507:3522   */\n  and\n    /* \"#utility.yul\":3497:3522   */\n  swap2\n  pop\n    /* \"#utility.yul\":3410:3528   */\n  pop\n    /* \"#utility.yul\":3359:3528   */\n  swap3\n  swap2\n  pop\n  pop\n  jump\t// out\n    /* \"#utility.yul\":3533:3828   */\ntag_38:\n    /* \"#utility.yul\":3609:3613   */\n  0x00\n    /* \"#utility.yul\":3755:3784   */\n  tag_102\n    /* \"#utility.yul\":3780:3783   */\n  dup4\n    /* \"#utility.yul\":3774:3778   */\n  dup4\n    /* \"#utility.yul\":3755:3784   */\n  tag_37\n  jump\t// in\ntag_102:\n    /* \"#utility.yul\":3747:3784   */\n  swap2\n  pop\n    /* \"#utility.yul\":3817:3820   */\n  dup3\n    /* \"#utility.yul\":3814:3815   */\n  0x02\n    /* \"#utility.yul\":3810:3821   */\n  mul\n    /* \"#utility.yul\":3804:3808   */\n  dup3\n    /* \"#utility.yul\":3801:3822   */\n  or\n    /* \"#utility.yul\":3793:3822   */\n  swap1\n  pop\n    /* \"#utility.yul\":3533:3828   */\n  swap3\n  swap2\n  pop\n  pop\n  jump\t// out\n    /* \"#utility.yul\":3833:5228   */\ntag_2:\n    /* \"#utility.yul\":3950:3987   */\n  tag_104\n    /* \"#utility.yul\":3983:3986   */\n  dup3\n    /* \"#utility.yul\":3950:3987   */\n  tag_19\n  jump\t// in\ntag_104:\n    /* \"#utility.yul\":4052:4070   */\n  0xffffffffffffffff\n    /* \"#utility.yul\":4044:4050   */\n  dup2\n    /* \"#utility.yul\":4041:4071   */\n  gt\n    /* \"#utility.yul\":4038:4094   */\n  iszero\n  tag_105\n  jumpi\n    /* \"#utility.yul\":4074:4092   */\n  tag_106\n  tag_20\n  jump\t// in\ntag_106:\n    /* \"#utility.yul\":4038:4094   */\ntag_105:\n    /* \"#utility.yul\":4118:4156   */\n  tag_107\n    /* \"#utility.yul\":4150:4154   */\n  dup3\n    /* \"#utility.yul\":4144:4155   */\n  sload\n    /* \"#utility.yul\":4118:4156   */\n  tag_22\n  jump\t// in\ntag_107:\n    /* \"#utility.yul\":4203:4270   */\n  tag_108\n    /* \"#utility.yul\":4263:4269   */\n  dup3\n    /* \"#utility.yul\":4255:4261   */\n  dup3\n    /* \"#utility.yul\":4249:4253   */\n  dup6\n    /* \"#utility.yul\":4203:4270   */\n  tag_35\n  jump\t// in\ntag_108:\n    /* \"#utility.yul\":4297:4298   */\n  0x00\n    /* \"#utility.yul\":4321:4325   */\n  0x20\n    /* \"#utility.yul\":4308:4325   */\n  swap1\n  pop\n    /* \"#utility.yul\":4353:4355   */\n  0x1f\n    /* \"#utility.yul\":4345:4351   */\n  dup4\n    /* \"#utility.yul\":4342:4356   */\n  gt\n    /* \"#utility.yul\":4370:4371   */\n  0x01\n    /* \"#utility.yul\":4365:4983   */\n  dup2\n  eq\n  tag_110\n  jumpi\n    /* \"#utility.yul\":5027:5028   */\n  0x00\n    /* \"#utility.yul\":5044:5050   */\n  dup5\n    /* \"#utility.yul\":5041:5118   */\n  iszero\n  tag_111\n  jumpi\n    /* \"#utility.yul\":5093:5102   */\n  dup3\n    /* \"#utility.yul\":5088:5091   */\n  dup8\n    /* \"#utility.yul\":5084:5103   */\n  add\n    /* \"#utility.yul\":5078:5104   */\n  mload\n    /* \"#utility.yul\":5069:5104   */\n  swap1\n  pop\n    /* \"#utility.yul\":5041:5118   */\ntag_111:\n    /* \"#utility.yul\":5144:5211   */\n  tag_112\n    /* \"#utility.yul\":5204:5210   */\n  dup6\n    /* \"#utility.yul\":5197:5202   */\n  dup3\n    /* \"#utility.yul\":5144:5211   */\n  tag_38\n  jump\t// in\ntag_112:\n    /* \"#utility.yul\":5138:5142   */\n  dup7\n    /* \"#utility.yul\":5131:5212   */\n  sstore\n    /* \"#utility.yul\":5000:5222   */\n  pop\n    /* \"#utility.yul\":4335:5222   */\n  jump(tag_109)\n    /* \"#utility.yul\":4365:4983   */\ntag_110:\n    /* \"#utility.yul\":4417:4421   */\n  0x1f\n    /* \"#utility.yul\":4413:4422   */\n  not\n    /* \"#utility.yul\":4405:4411   */\n  dup5\n    /* \"#utility.yul\":4401:4423   */\n  and\n    /* \"#utility.yul\":4451:4488   */\n  tag_113\n    /* \"#utility.yul\":4483:4487   */\n  dup7\n    /* \"#utility.yul\":4451:4488   */\n  tag_23\n  jump\t// in\ntag_113:\n    /* \"#utility.yul\":4510:4511   */\n  0x00\n    /* \"#utility.yul\":4524:4732   */\ntag_114:\n    /* \"#utility.yul\":4538:4545   */\n  dup3\n    /* \"#utility.yul\":4535:4536   */\n  dup2\n    /* \"#utility.yul\":4532:4546   */\n  lt\n    /* \"#utility.yul\":4524:4732   */\n  iszero\n  tag_116\n  jumpi\n    /* \"#utility.yul\":4617:4626   */\n  dup5\n    /* \"#utility.yul\":4612:4615   */\n  dup10\n    /* \"#utility.yul\":4608:4627   */\n  add\n    /* \"#utility.yul\":4602:4628   */\n  mload\n    /* \"#utility.yul\":4594:4600   */\n  dup3\n    /* \"#utility.yul\":4587:4629   */\n  sstore\n    /* \"#utility.yul\":4668:4669   */\n  0x01\n    /* \"#utility.yul\":4660:4666   */\n  dup3\n    /* \"#utility.yul\":4656:4670   */\n  add\n    /* \"#utility.yul\":4646:4670   */\n  swap2\n  pop\n    /* \"#utility.yul\":4715:4717   */\n  0x20\n    /* \"#utility.yul\":4704:4713   */\n  dup6\n    /* \"#utility.yul\":4700:4718   */\n  add\n    /* \"#utility.yul\":4687:4718   */\n  swap5\n  pop\n    /* \"#utility.yul\":4561:4565   */\n  0x20\n    /* \"#utility.yul\":4558:4559   */\n  dup2\n    /* \"#utility.yul\":4554:4566   */\n  add\n    /* \"#utility.yul\":4549:4566   */\n  swap1\n  pop\n    /* \"#utility.yul\":4524:4732   */\n  jump(tag_114)\ntag_116:\n    /* \"#utility.yul\":4760:4766   */\n  dup7\n    /* \"#utility.yul\":4751:4758   */\n  dup4\n    /* \"#utility.yul\":4748:4767   */\n  lt\n    /* \"#utility.yul\":4745:4924   */\n  iszero\n  tag_117\n  jumpi\n    /* \"#utility.yul\":4818:4827   */\n  dup5\n    /* \"#utility.yul\":4813:4816   */\n  dup10\n    /* \"#utility.yul\":4809:4828   */\n  add\n    /* \"#utility.yul\":4803:4829   */\n  mload\n    /* \"#utility.yul\":4861:4909   */\n  tag_118\n    /* \"#utility.yul\":4903:4907   */\n  0x1f\n    /* \"#utility.yul\":4895:4901   */\n  dup10\n    /* \"#utility.yul\":4891:4908   */\n  and\n    /* \"#utility.yul\":4880:4889   */\n  dup3\n    /* \"#utility.yul\":4861:4909   */\n  tag_37\n  jump\t// in\ntag_118:\n    /* \"#utility.yul\":4853:4859   */\n  dup4\n    /* \"#utility.yul\":4846:4910   */\n  sstore\n    /* \"#utility.yul\":4768:4924   */\n  pop\n    /* \"#utility.yul\":4745:4924   */\ntag_117:\n    /* \"#utility.yul\":4970:4971   */\n  0x01\n    /* \"#utility.yul\":4966:4967   */\n  0x02\n    /* \"#utility.yul\":4958:4964   */\n  dup9\n    /* \"#utility.yul\":4954:4968   */\n  mul\n    /* \"#utility.yul\":4950:4972   */\n  add\n    /* \"#utility.yul\":4944:4948   */\n  dup9\n    /* \"#utility.yul\":4937:4973   */\n  sstore\n    /* \"#utility.yul\":4372:4983   */\n  pop\n  pop\n  pop\n    /* \"#utility.yul\":4335:5222   */\ntag_109:\n  pop\n    /* \"#utility.yul\":3925:5228   */\n  pop\n  pop\n  pop\n    /* \"#utility.yul\":3833:5228   */\n  pop\n  pop\n  jump\t// out\n    /* \"#utility.yul\":5315:5432   */\ntag_40:\n    /* \"#utility.yul\":5424:5425   */\n  0x00\n    /* \"#utility.yul\":5421:5422   */\n  dup1\n    /* \"#utility.yul\":5414:5426   */\n  revert\n    /* \"#utility.yul\":5561:5687   */\ntag_42:\n    /* \"#utility.yul\":5598:5605   */\n  0x00\n    /* \"#utility.yul\":5638:5680   */\n  0xffffffffffffffffffffffffffffffffffffffff\n    /* \"#utility.yul\":5631:5636   */\n  dup3\n    /* \"#utility.yul\":5627:5681   */\n  and\n    /* \"#utility.yul\":5616:5681   */\n  swap1\n  pop\n    /* \"#utility.yul\":5561:5687   */\n  swap2\n  swap1\n  pop\n  jump\t// out\n    /* \"#utility.yul\":5693:5789   */\ntag_43:\n    /* \"#utility.yul\":5730:5737   */\n  0x00\n    /* \"#utility.yul\":5759:5783   */\n  tag_124\n    /* \"#utility.yul\":5777:5782   */\n  dup3\n    /* \"#utility.yul\":5759:5783   */\n  tag_42\n  jump\t// in\ntag_124:\n    /* \"#utility.yul\":5748:5783   */\n  swap1\n  pop\n    /* \"#utility.yul\":5693:5789   */\n  swap2\n  swap1\n  pop\n  jump\t// out\n    /* \"#utility.yul\":5795:5917   */\ntag_44:\n    /* \"#utility.yul\":5868:5892   */\n  tag_126\n    /* \"#utility.yul\":5886:5891   */\n  dup2\n    /* \"#utility.yul\":5868:5892   */\n  tag_43\n  jump\t// in\ntag_126:\n    /* \"#utility.yul\":5861:5866   */\n  dup2\n    /* \"#utility.yul\":5858:5893   */\n  eq\n    /* \"#utility.yul\":5848:5911   */\n  tag_127\n  jumpi\n    /* \"#utility.yul\":5907:5908   */\n  0x00\n    /* \"#utility.yul\":5904:5905   */\n  dup1\n    /* \"#utility.yul\":5897:5909   */\n  revert\n    /* \"#utility.yul\":5848:5911   */\ntag_127:\n    /* \"#utility.yul\":5795:5917   */\n  pop\n  jump\t// out\n    /* \"#utility.yul\":5923:6066   */\ntag_45:\n    /* \"#utility.yul\":5980:5985   */\n  0x00\n    /* \"#utility.yul\":6011:6017   */\n  dup2\n    /* \"#utility.yul\":6005:6018   */\n  mload\n    /* \"#utility.yul\":5996:6018   */\n  swap1\n  pop\n    /* \"#utility.yul\":6027:6060   */\n  tag_129\n    /* \"#utility.yul\":6054:6059   */\n  dup2\n    /* \"#utility.yul\":6027:6060   */\n  tag_44\n  jump\t// in\ntag_129:\n    /* \"#utility.yul\":5923:6066   */\n  swap3\n  swap2\n  pop\n  pop\n  jump\t// out\n    /* \"#utility.yul\":6072:6423   */\ntag_5:\n    /* \"#utility.yul\":6142:6148   */\n  0x00\n    /* \"#utility.yul\":6191:6193   */\n  0x20\n    /* \"#utility.yul\":6179:6188   */\n  dup3\n    /* \"#utility.yul\":6170:6177   */\n  dup5\n    /* \"#utility.yul\":6166:6189   */\n  sub\n    /* \"#utility.yul\":6162:6194   */\n  slt\n    /* \"#utility.yul\":6159:6278   */\n  iszero\n  tag_131\n  jumpi\n    /* \"#utility.yul\":6197:6276   */\n  tag_132\n  tag_40\n  jump\t// in\ntag_132:\n    /* \"#utility.yul\":6159:6278   */\ntag_131:\n    /* \"#utility.yul\":6317:6318   */\n  0x00\n    /* \"#utility.yul\":6342:6406   */\n  tag_133\n    /* \"#utility.yul\":6398:6405   */\n  dup5\n    /* \"#utility.yul\":6389:6395   */\n  dup3\n    /* \"#utility.yul\":6378:6387   */\n  dup6\n    /* \"#utility.yul\":6374:6396   */\n  add\n    /* \"#utility.yul\":6342:6406   */\n  tag_45\n  jump\t// in\ntag_133:\n    /* \"#utility.yul\":6332:6406   */\n  swap2\n  pop\n    /* \"#utility.yul\":6288:6416   */\n  pop\n    /* \"#utility.yul\":6072:6423   */\n  swap3\n  swap2\n  pop\n  pop\n  jump\t// out\n    /* \"#utility.yul\":6429:6577   */\ntag_46:\n    /* \"#utility.yul\":6531:6542   */\n  0x00\n    /* \"#utility.yul\":6568:6571   */\n  dup2\n    /* \"#utility.yul\":6553:6571   */\n  swap1\n  pop\n    /* \"#utility.yul\":6429:6577   */\n  swap3\n  swap2\n  pop\n  pop\n  jump\t// out\n    /* \"#utility.yul\":6583:6736   */\ntag_47:\n    /* \"#utility.yul\":6723:6728   */\n  0x4742500000000000000000000000000000000000000000000000000000000000\n    /* \"#utility.yul\":6719:6720   */\n  0x00\n    /* \"#utility.yul\":6711:6717   */\n  dup3\n    /* \"#utility.yul\":6707:6721   */\n  add\n    /* \"#utility.yul\":6700:6729   */\n  mstore\n    /* \"#utility.yul\":6583:6736   */\n  pop\n  jump\t// out\n    /* \"#utility.yul\":6742:7142   */\ntag_48:\n    /* \"#utility.yul\":6902:6905   */\n  0x00\n    /* \"#utility.yul\":6923:7007   */\n  tag_137\n    /* \"#utility.yul\":7005:7006   */\n  0x03\n    /* \"#utility.yul\":7000:7003   */\n  dup4\n    /* \"#utility.yul\":6923:7007   */\n  tag_46\n  jump\t// in\ntag_137:\n    /* \"#utility.yul\":6916:7007   */\n  swap2\n  pop\n    /* \"#utility.yul\":7016:7109   */\n  tag_138\n    /* \"#utility.yul\":7105:7108   */\n  dup3\n    /* \"#utility.yul\":7016:7109   */\n  tag_47\n  jump\t// in\ntag_138:\n    /* \"#utility.yul\":7134:7135   */\n  0x03\n    /* \"#utility.yul\":7129:7132   */\n  dup3\n    /* \"#utility.yul\":7125:7136   */\n  add\n    /* \"#utility.yul\":7118:7136   */\n  swap1\n  pop\n    /* \"#utility.yul\":6742:7142   */\n  swap2\n  swap1\n  pop\n  jump\t// out\n    /* \"#utility.yul\":7148:7529   */\ntag_9:\n    /* \"#utility.yul\":7333:7336   */\n  0x00\n    /* \"#utility.yul\":7355:7503   */\n  tag_140\n    /* \"#utility.yul\":7499:7502   */\n  dup3\n    /* \"#utility.yul\":7355:7503   */\n  tag_48\n  jump\t// in\ntag_140:\n    /* \"#utility.yul\":7348:7503   */\n  swap2\n  pop\n    /* \"#utility.yul\":7520:7523   */\n  dup2\n    /* \"#utility.yul\":7513:7523   */\n  swap1\n  pop\n    /* \"#utility.yul\":7148:7529   */\n  swap2\n  swap1\n  pop\n  jump\t// out\n    /* \"#utility.yul\":7535:7688   */\ntag_49:\n    /* \"#utility.yul\":7675:7680   */\n  0x4555520000000000000000000000000000000000000000000000000000000000\n    /* \"#utility.yul\":7671:7672   */\n  0x00\n    /* \"#utility.yul\":7663:7669   */\n  dup3\n    /* \"#utility.yul\":7659:7673   */\n  add\n    /* \"#utility.yul\":7652:7681   */\n  mstore\n    /* \"#utility.yul\":7535:7688   */\n  pop\n  jump\t// out\n    /* \"#utility.yul\":7694:8094   */\ntag_50:\n    /* \"#utility.yul\":7854:7857   */\n  0x00\n    /* \"#utility.yul\":7875:7959   */\n  tag_143\n    /* \"#utility.yul\":7957:7958   */\n  0x03\n    /* \"#utility.yul\":7952:7955   */\n  dup4\n    /* \"#utility.yul\":7875:7959   */\n  tag_46\n  jump\t// in\ntag_143:\n    /* \"#utility.yul\":7868:7959   */\n  swap2\n  pop\n    /* \"#utility.yul\":7968:8061   */\n  tag_144\n    /* \"#utility.yul\":8057:8060   */\n  dup3\n    /* \"#utility.yul\":7968:8061   */\n  tag_49\n  jump\t// in\ntag_144:\n    /* \"#utility.yul\":8086:8087   */\n  0x03\n    /* \"#utility.yul\":8081:8084   */\n  dup3\n    /* \"#utility.yul\":8077:8088   */\n  add\n    /* \"#utility.yul\":8070:8088   */\n  swap1\n  pop\n    /* \"#utility.yul\":7694:8094   */\n  swap2\n  swap1\n  pop\n  jump\t// out\n    /* \"#utility.yul\":8100:8481   */\ntag_11:\n    /* \"#utility.yul\":8285:8288   */\n  0x00\n    /* \"#utility.yul\":8307:8455   */\n  tag_146\n    /* \"#utility.yul\":8451:8454   */\n  dup3\n    /* \"#utility.yul\":8307:8455   */\n  tag_50\n  jump\t// in\ntag_146:\n    /* \"#utility.yul\":8300:8455   */\n  swap2\n  pop\n    /* \"#utility.yul\":8472:8475   */\n  dup2\n    /* \"#utility.yul\":8465:8475   */\n  swap1\n  pop\n    /* \"#utility.yul\":8100:8481   */\n  swap2\n  swap1\n  pop\n  jump\t// out\n    /* \"#utility.yul\":8487:8640   */\ntag_51:\n    /* \"#utility.yul\":8627:8632   */\n  0x4a50590000000000000000000000000000000000000000000000000000000000\n    /* \"#utility.yul\":8623:8624   */\n  0x00\n    /* \"#utility.yul\":8615:8621   */\n  dup3\n    /* \"#utility.yul\":8611:8625   */\n  add\n    /* \"#utility.yul\":8604:8633   */\n  mstore\n    /* \"#utility.yul\":8487:8640   */\n  pop\n  jump\t// out\n    /* \"#utility.yul\":8646:9046   */\ntag_52:\n    /* \"#utility.yul\":8806:8809   */\n  0x00\n    /* \"#utility.yul\":8827:8911   */\n  tag_149\n    /* \"#utility.yul\":8909:8910   */\n  0x03\n    /* \"#utility.yul\":8904:8907   */\n  dup4\n    /* \"#utility.yul\":8827:8911   */\n  tag_46\n  jump\t// in\ntag_149:\n    /* \"#utility.yul\":8820:8911   */\n  swap2\n  pop\n    /* \"#utility.yul\":8920:9013   */\n  tag_150\n    /* \"#utility.yul\":9009:9012   */\n  dup3\n    /* \"#utility.yul\":8920:9013   */\n  tag_51\n  jump\t// in\ntag_150:\n    /* \"#utility.yul\":9038:9039   */\n  0x03\n    /* \"#utility.yul\":9033:9036   */\n  dup3\n    /* \"#utility.yul\":9029:9040   */\n  add\n    /* \"#utility.yul\":9022:9040   */\n  swap1\n  pop\n    /* \"#utility.yul\":8646:9046   */\n  swap2\n  swap1\n  pop\n  jump\t// out\n    /* \"#utility.yul\":9052:9433   */\ntag_13:\n    /* \"#utility.yul\":9237:9240   */\n  0x00\n    /* \"#utility.yul\":9259:9407   */\n  tag_152\n    /* \"#utility.yul\":9403:9406   */\n  dup3\n    /* \"#utility.yul\":9259:9407   */\n  tag_52\n  jump\t// in\ntag_152:\n    /* \"#utility.yul\":9252:9407   */\n  swap2\n  pop\n    /* \"#utility.yul\":9424:9427   */\n  dup2\n    /* \"#utility.yul\":9417:9427   */\n  swap1\n  pop\n    /* \"#utility.yul\":9052:9433   */\n  swap2\n  swap1\n  pop\n  jump\t// out\n    /* \"#utility.yul\":9439:9592   */\ntag_53:\n    /* \"#utility.yul\":9579:9584   */\n  0x4554480000000000000000000000000000000000000000000000000000000000\n    /* \"#utility.yul\":9575:9576   */\n  0x00\n    /* \"#utility.yul\":9567:9573   */\n  dup3\n    /* \"#utility.yul\":9563:9577   */\n  add\n    /* \"#utility.yul\":9556:9585   */\n  mstore\n    /* \"#utility.yul\":9439:9592   */\n  pop\n  jump\t// out\n    /* \"#utility.yul\":9598:9998   */\ntag_54:\n    /* \"#utility.yul\":9758:9761   */\n  0x00\n    /* \"#utility.yul\":9779:9863   */\n  tag_155\n    /* \"#utility.yul\":9861:9862   */\n  0x03\n    /* \"#utility.yul\":9856:9859   */\n  dup4\n    /* \"#utility.yul\":9779:9863   */\n  tag_46\n  jump\t// in\ntag_155:\n    /* \"#utility.yul\":9772:9863   */\n  swap2\n  pop\n    /* \"#utility.yul\":9872:9965   */\n  tag_156\n    /* \"#utility.yul\":9961:9964   */\n  dup3\n    /* \"#utility.yul\":9872:9965   */\n  tag_53\n  jump\t// in\ntag_156:\n    /* \"#utility.yul\":9990:9991   */\n  0x03\n    /* \"#utility.yul\":9985:9988   */\n  dup3\n    /* \"#utility.yul\":9981:9992   */\n  add\n    /* \"#utility.yul\":9974:9992   */\n  swap1\n  pop\n    /* \"#utility.yul\":9598:9998   */\n  swap2\n  swap1\n  pop\n  jump\t// out\n    /* \"#utility.yul\":10004:10385   */\ntag_15:\n    /* \"#utility.yul\":10189:10192   */\n  0x00\n    /* \"#utility.yul\":10211:10359   */\n  tag_158\n    /* \"#utility.yul\":10355:10358   */\n  dup3\n    /* \"#utility.yul\":10211:10359   */\n  tag_54\n  jump\t// in\ntag_158:\n    /* \"#utility.yul\":10204:10359   */\n  swap2\n  pop\n    /* \"#utility.yul\":10376:10379   */\n  dup2\n    /* \"#utility.yul\":10369:10379   */\n  swap1\n  pop\n    /* \"#utility.yul\":10004:10385   */\n  swap2\n  swap1\n  pop\n  jump\t// out\n    /* \"#utility.yul\":10391:10544   */\ntag_55:\n    /* \"#utility.yul\":10531:10536   */\n  0x5553440000000000000000000000000000000000000000000000000000000000\n    /* \"#utility.yul\":10527:10528   */\n  0x00\n    /* \"#utility.yul\":10519:10525   */\n  dup3\n    /* \"#utility.yul\":10515:10529   */\n  add\n    /* \"#utility.yul\":10508:10537   */\n  mstore\n    /* \"#utility.yul\":10391:10544   */\n  pop\n  jump\t// out\n    /* \"#utility.yul\":10550:10950   */\ntag_56:\n    /* \"#utility.yul\":10710:10713   */\n  0x00\n    /* \"#utility.yul\":10731:10815   */\n  tag_161\n    /* \"#utility.yul\":10813:10814   */\n  0x03\n    /* \"#utility.yul\":10808:10811   */\n  dup4\n    /* \"#utility.yul\":10731:10815   */\n  tag_46\n  jump\t// in\ntag_161:\n    /* \"#utility.yul\":10724:10815   */\n  swap2\n  pop\n    /* \"#utility.yul\":10824:10917   */\n  tag_162\n    /* \"#utility.yul\":10913:10916   */\n  dup3\n    /* \"#utility.yul\":10824:10917   */\n  tag_55\n  jump\t// in\ntag_162:\n    /* \"#utility.yul\":10942:10943   */\n  0x03\n    /* \"#utility.yul\":10937:10940   */\n  dup3\n    /* \"#utility.yul\":10933:10944   */\n  add\n    /* \"#utility.yul\":10926:10944   */\n  swap1\n  pop\n    /* \"#utility.yul\":10550:10950   */\n  swap2\n  swap1\n  pop\n  jump\t// out\n    /* \"#utility.yul\":10956:11337   */\ntag_17:\n    /* \"#utility.yul\":11141:11144   */\n  0x00\n    /* \"#utility.yul\":11163:11311   */\n  tag_164\n    /* \"#utility.yul\":11307:11310   */\n  dup3\n    /* \"#utility.yul\":11163:11311   */\n  tag_56\n  jump\t// in\ntag_164:\n    /* \"#utility.yul\":11156:11311   */\n  swap2\n  pop\n    /* \"#utility.yul\":11328:11331   */\n  dup2\n    /* \"#utility.yul\":11321:11331   */\n  swap1\n  pop\n    /* \"#utility.yul\":10956:11337   */\n  swap2\n  swap1\n  pop\n  jump\t// out\n    /* \"currConverter.sol\":200:3995  contract currConverter{... */\ntag_18:\n  dataSize(sub_0)\n  dup1\n  dataOffset(sub_0)\n  0x00\n  codecopy\n  0x00\n  return\nstop\n\nsub_0: assembly {\n        /* \"currConverter.sol\":200:3995  contract currConverter{... */\n      mstore(0x40, 0x80)\n      callvalue\n      dup1\n      iszero\n      tag_1\n      jumpi\n      0x00\n      dup1\n      revert\n    tag_1:\n      pop\n      jumpi(tag_2, lt(calldatasize, 0x04))\n      shr(0xe0, calldataload(0x00))\n      dup1\n      0x92a85fde\n      eq\n      tag_3\n      jumpi\n      dup1\n      0xf3b3347e\n      eq\n      tag_4\n      jumpi\n      dup1\n      0xf4b54314\n      eq\n      tag_5\n      jumpi\n      dup1\n      0xfc0c546a\n      eq\n      tag_6\n      jumpi\n    tag_2:\n      0x00\n      dup1\n      revert\n        /* \"currConverter.sol\":255:289  string public baseCurrency = \"USD\" */\n    tag_3:\n      tag_7\n      tag_8\n      jump\t// in\n    tag_7:\n      mload(0x40)\n      tag_9\n      swap2\n      swap1\n      tag_10\n      jump\t// in\n    tag_9:\n      mload(0x40)\n      dup1\n      swap2\n      sub\n      swap1\n      return\n        /* \"currConverter.sol\":1615:1783  function setPriceFeed(string memory currency, address priceFeedAddress) public virtual {... */\n    tag_4:\n      tag_11\n      0x04\n      dup1\n      calldatasize\n      sub\n      dup2\n      add\n      swap1\n      tag_12\n      swap2\n      swap1\n      tag_13\n      jump\t// in\n    tag_12:\n      tag_14\n      jump\t// in\n    tag_11:\n      stop\n        /* \"currConverter.sol\":2039:2699  function getExchangeRate(string memory currency) public view virtual returns (uint256) {... */\n    tag_5:\n      tag_15\n      0x04\n      dup1\n      calldatasize\n      sub\n      dup2\n      add\n      swap1\n      tag_16\n      swap2\n      swap1\n      tag_17\n      jump\t// in\n    tag_16:\n      tag_18\n      jump\t// in\n    tag_15:\n      mload(0x40)\n      tag_19\n      swap2\n      swap1\n      tag_20\n      jump\t// in\n    tag_19:\n      mload(0x40)\n      dup1\n      swap2\n      sub\n      swap1\n      return\n        /* \"currConverter.sol\":229:248  IERC20 public token */\n    tag_6:\n      tag_21\n      tag_22\n      jump\t// in\n    tag_21:\n      mload(0x40)\n      tag_23\n      swap2\n      swap1\n      tag_24\n      jump\t// in\n    tag_23:\n      mload(0x40)\n      dup1\n      swap2\n      sub\n      swap1\n      return\n        /* \"currConverter.sol\":255:289  string public baseCurrency = \"USD\" */\n    tag_8:\n      0x01\n      dup1\n      sload\n      tag_25\n      swap1\n      tag_26\n      jump\t// in\n    tag_25:\n      dup1\n      0x1f\n      add\n      0x20\n      dup1\n      swap2\n      div\n      mul\n      0x20\n      add\n      mload(0x40)\n      swap1\n      dup2\n      add\n      0x40\n      mstore\n      dup1\n      swap3\n      swap2\n      swap1\n      dup2\n      dup2\n      mstore\n      0x20\n      add\n      dup3\n      dup1\n      sload\n      tag_27\n      swap1\n      tag_26\n      jump\t// in\n    tag_27:\n      dup1\n      iszero\n      tag_28\n      jumpi\n      dup1\n      0x1f\n      lt\n      tag_29\n      jumpi\n      0x0100\n      dup1\n      dup4\n      sload\n      div\n      mul\n      dup4\n      mstore\n      swap2\n      0x20\n      add\n      swap2\n      jump(tag_28)\n    tag_29:\n      dup3\n      add\n      swap2\n      swap1\n      0x00\n      mstore\n      keccak256(0x00, 0x20)\n      swap1\n    tag_30:\n      dup2\n      sload\n      dup2\n      mstore\n      swap1\n      0x01\n      add\n      swap1\n      0x20\n      add\n      dup1\n      dup4\n      gt\n      tag_30\n      jumpi\n      dup3\n      swap1\n      sub\n      0x1f\n      and\n      dup3\n      add\n      swap2\n    tag_28:\n      pop\n      pop\n      pop\n      pop\n      pop\n      dup2\n      jump\t// out\n        /* \"currConverter.sol\":1615:1783  function setPriceFeed(string memory currency, address priceFeedAddress) public virtual {... */\n    tag_14:\n        /* \"currConverter.sol\":1758:1774  priceFeedAddress */\n      dup1\n        /* \"currConverter.sol\":1713:1723  priceFeeds */\n      0x02\n        /* \"currConverter.sol\":1724:1732  currency */\n      dup4\n        /* \"currConverter.sol\":1713:1733  priceFeeds[currency] */\n      mload(0x40)\n      tag_32\n      swap2\n      swap1\n      tag_33\n      jump\t// in\n    tag_32:\n      swap1\n      dup2\n      mstore\n      0x20\n      add\n      mload(0x40)\n      dup1\n      swap2\n      sub\n      swap1\n      keccak256\n      0x00\n        /* \"currConverter.sol\":1713:1775  priceFeeds[currency] = AggregatorV3Interface(priceFeedAddress) */\n      0x0100\n      exp\n      dup2\n      sload\n      dup2\n      0xffffffffffffffffffffffffffffffffffffffff\n      mul\n      not\n      and\n      swap1\n      dup4\n      0xffffffffffffffffffffffffffffffffffffffff\n      and\n      mul\n      or\n      swap1\n      sstore\n      pop\n        /* \"currConverter.sol\":1615:1783  function setPriceFeed(string memory currency, address priceFeedAddress) public virtual {... */\n      pop\n      pop\n      jump\t// out\n        /* \"currConverter.sol\":2039:2699  function getExchangeRate(string memory currency) public view virtual returns (uint256) {... */\n    tag_18:\n        /* \"currConverter.sol\":2117:2124  uint256 */\n      0x00\n        /* \"currConverter.sol\":2209:2221  baseCurrency */\n      0x01\n        /* \"currConverter.sol\":2192:2222  abi.encodePacked(baseCurrency) */\n      add(0x20, mload(0x40))\n      tag_35\n      swap2\n      swap1\n      tag_36\n      jump\t// in\n    tag_35:\n      mload(0x40)\n      0x20\n      dup2\n      dup4\n      sub\n      sub\n      dup2\n      mstore\n      swap1\n      0x40\n      mstore\n        /* \"currConverter.sol\":2182:2223  keccak256(abi.encodePacked(baseCurrency)) */\n      dup1\n      mload\n      swap1\n      0x20\n      add\n      keccak256\n        /* \"currConverter.sol\":2168:2176  currency */\n      dup3\n        /* \"currConverter.sol\":2151:2177  abi.encodePacked(currency) */\n      add(0x20, mload(0x40))\n      tag_37\n      swap2\n      swap1\n      tag_33\n      jump\t// in\n    tag_37:\n      mload(0x40)\n      0x20\n      dup2\n      dup4\n      sub\n      sub\n      dup2\n      mstore\n      swap1\n      0x40\n      mstore\n        /* \"currConverter.sol\":2141:2178  keccak256(abi.encodePacked(currency)) */\n      dup1\n      mload\n      swap1\n      0x20\n      add\n      keccak256\n        /* \"currConverter.sol\":2141:2223  keccak256(abi.encodePacked(currency)) == keccak256(abi.encodePacked(baseCurrency)) */\n      sub\n        /* \"currConverter.sol\":2137:2305  if (keccak256(abi.encodePacked(currency)) == keccak256(abi.encodePacked(baseCurrency))) {... */\n      tag_38\n      jumpi\n        /* \"currConverter.sol\":342:347  10**2 */\n      0x64\n        /* \"currConverter.sol\":2240:2264  return DISPLAY_PRECISION */\n      swap1\n      pop\n      jump(tag_34)\n        /* \"currConverter.sol\":2137:2305  if (keccak256(abi.encodePacked(currency)) == keccak256(abi.encodePacked(baseCurrency))) {... */\n    tag_38:\n        /* \"currConverter.sol\":2318:2349  AggregatorV3Interface priceFeed */\n      0x00\n        /* \"currConverter.sol\":2352:2362  priceFeeds */\n      0x02\n        /* \"currConverter.sol\":2363:2371  currency */\n      dup4\n        /* \"currConverter.sol\":2352:2372  priceFeeds[currency] */\n      mload(0x40)\n      tag_39\n      swap2\n      swap1\n      tag_33\n      jump\t// in\n    tag_39:\n      swap1\n      dup2\n      mstore\n      0x20\n      add\n      mload(0x40)\n      dup1\n      swap2\n      sub\n      swap1\n      keccak256\n      0x00\n      swap1\n      sload\n      swap1\n      0x0100\n      exp\n      swap1\n      div\n      0xffffffffffffffffffffffffffffffffffffffff\n      and\n        /* \"currConverter.sol\":2318:2372  AggregatorV3Interface priceFeed = priceFeeds[currency] */\n      swap1\n      pop\n        /* \"currConverter.sol\":2421:2422  0 */\n      0x00\n        /* \"currConverter.sol\":2391:2423  address(priceFeed) != address(0) */\n      0xffffffffffffffffffffffffffffffffffffffff\n      and\n        /* \"currConverter.sol\":2399:2408  priceFeed */\n      dup2\n        /* \"currConverter.sol\":2391:2423  address(priceFeed) != address(0) */\n      0xffffffffffffffffffffffffffffffffffffffff\n      and\n      sub\n        /* \"currConverter.sol\":2383:2459  require(address(priceFeed) != address(0), \"Price feed not set for currency\") */\n      tag_40\n      jumpi\n      mload(0x40)\n      0x08c379a000000000000000000000000000000000000000000000000000000000\n      dup2\n      mstore\n      0x04\n      add\n      tag_41\n      swap1\n      tag_42\n      jump\t// in\n    tag_41:\n      mload(0x40)\n      dup1\n      swap2\n      sub\n      swap1\n      revert\n    tag_40:\n        /* \"currConverter.sol\":2476:2488  int256 price */\n      0x00\n        /* \"currConverter.sol\":2498:2507  priceFeed */\n      dup2\n        /* \"currConverter.sol\":2498:2523  priceFeed.latestRoundData */\n      0xffffffffffffffffffffffffffffffffffffffff\n      and\n      0xfeaf968c\n        /* \"currConverter.sol\":2498:2525  priceFeed.latestRoundData() */\n      mload(0x40)\n      dup2\n      0xffffffff\n      and\n      0xe0\n      shl\n      dup2\n      mstore\n      0x04\n      add\n      0xa0\n      mload(0x40)\n      dup1\n      dup4\n      sub\n      dup2\n      dup7\n      gas\n      staticcall\n      iszero\n      dup1\n      iszero\n      tag_44\n      jumpi\n      returndatasize\n      0x00\n      dup1\n      returndatacopy\n      revert(0x00, returndatasize)\n    tag_44:\n      pop\n      pop\n      pop\n      pop\n      mload(0x40)\n      returndatasize\n      not(0x1f)\n      0x1f\n      dup3\n      add\n      and\n      dup3\n      add\n      dup1\n      0x40\n      mstore\n      pop\n      dup2\n      add\n      swap1\n      tag_45\n      swap2\n      swap1\n      tag_46\n      jump\t// in\n    tag_45:\n        /* \"currConverter.sol\":2473:2525  (, int256 price, , , ) = priceFeed.latestRoundData() */\n      pop\n      pop\n      pop\n      swap2\n      pop\n      pop\n        /* \"currConverter.sol\":2552:2553  0 */\n      0x00\n        /* \"currConverter.sol\":2544:2549  price */\n      dup2\n        /* \"currConverter.sol\":2544:2553  price > 0 */\n      sgt\n        /* \"currConverter.sol\":2536:2576  require(price > 0, \"Invalid price data\") */\n      tag_47\n      jumpi\n      mload(0x40)\n      0x08c379a000000000000000000000000000000000000000000000000000000000\n      dup2\n      mstore\n      0x04\n      add\n      tag_48\n      swap1\n      tag_49\n      jump\t// in\n    tag_48:\n      mload(0x40)\n      dup1\n      swap2\n      sub\n      swap1\n      revert\n    tag_47:\n        /* \"currConverter.sol\":2590:2602  uint256 rate */\n      0x00\n        /* \"currConverter.sol\":2613:2618  price */\n      dup2\n        /* \"currConverter.sol\":2590:2619  uint256 rate = uint256(price) */\n      swap1\n      pop\n        /* \"currConverter.sol\":2666:2671  10**8 */\n      0x05f5e100\n        /* \"currConverter.sol\":342:347  10**2 */\n      0x64\n        /* \"currConverter.sol\":2638:2642  rate */\n      dup3\n        /* \"currConverter.sol\":2638:2662  rate * DISPLAY_PRECISION */\n      tag_50\n      swap2\n      swap1\n      tag_51\n      jump\t// in\n    tag_50:\n        /* \"currConverter.sol\":2637:2671  (rate * DISPLAY_PRECISION) / 10**8 */\n      tag_52\n      swap2\n      swap1\n      tag_53\n      jump\t// in\n    tag_52:\n        /* \"currConverter.sol\":2630:2671  return (rate * DISPLAY_PRECISION) / 10**8 */\n      swap4\n      pop\n      pop\n      pop\n      pop\n        /* \"currConverter.sol\":2039:2699  function getExchangeRate(string memory currency) public view virtual returns (uint256) {... */\n    tag_34:\n      swap2\n      swap1\n      pop\n      jump\t// out\n        /* \"currConverter.sol\":229:248  IERC20 public token */\n    tag_22:\n      0x00\n      dup1\n      sload\n      swap1\n      0x0100\n      exp\n      swap1\n      div\n      0xffffffffffffffffffffffffffffffffffffffff\n      and\n      dup2\n      jump\t// out\n        /* \"#utility.yul\":7:106   */\n    tag_54:\n        /* \"#utility.yul\":59:65   */\n      0x00\n        /* \"#utility.yul\":93:98   */\n      dup2\n        /* \"#utility.yul\":87:99   */\n      mload\n        /* \"#utility.yul\":77:99   */\n      swap1\n      pop\n        /* \"#utility.yul\":7:106   */\n      swap2\n      swap1\n      pop\n      jump\t// out\n        /* \"#utility.yul\":112:281   */\n    tag_55:\n        /* \"#utility.yul\":196:207   */\n      0x00\n        /* \"#utility.yul\":230:236   */\n      dup3\n        /* \"#utility.yul\":225:228   */\n      dup3\n        /* \"#utility.yul\":218:237   */\n      mstore\n        /* \"#utility.yul\":270:274   */\n      0x20\n        /* \"#utility.yul\":265:268   */\n      dup3\n        /* \"#utility.yul\":261:275   */\n      add\n        /* \"#utility.yul\":246:275   */\n      swap1\n      pop\n        /* \"#utility.yul\":112:281   */\n      swap3\n      swap2\n      pop\n      pop\n      jump\t// out\n        /* \"#utility.yul\":287:426   */\n    tag_56:\n        /* \"#utility.yul\":376:382   */\n      dup3\n        /* \"#utility.yul\":371:374   */\n      dup2\n        /* \"#utility.yul\":366:369   */\n      dup4\n        /* \"#utility.yul\":360:383   */\n      mcopy\n        /* \"#utility.yul\":417:418   */\n      0x00\n        /* \"#utility.yul\":408:414   */\n      dup4\n        /* \"#utility.yul\":403:406   */\n      dup4\n        /* \"#utility.yul\":399:415   */\n      add\n        /* \"#utility.yul\":392:419   */\n      mstore\n        /* \"#utility.yul\":287:426   */\n      pop\n      pop\n      pop\n      jump\t// out\n        /* \"#utility.yul\":432:534   */\n    tag_57:\n        /* \"#utility.yul\":473:479   */\n      0x00\n        /* \"#utility.yul\":524:526   */\n      0x1f\n        /* \"#utility.yul\":520:527   */\n      not\n        /* \"#utility.yul\":515:517   */\n      0x1f\n        /* \"#utility.yul\":508:513   */\n      dup4\n        /* \"#utility.yul\":504:518   */\n      add\n        /* \"#utility.yul\":500:528   */\n      and\n        /* \"#utility.yul\":490:528   */\n      swap1\n      pop\n        /* \"#utility.yul\":432:534   */\n      swap2\n      swap1\n      pop\n      jump\t// out\n        /* \"#utility.yul\":540:917   */\n    tag_58:\n        /* \"#utility.yul\":628:631   */\n      0x00\n        /* \"#utility.yul\":656:695   */\n      tag_107\n        /* \"#utility.yul\":689:694   */\n      dup3\n        /* \"#utility.yul\":656:695   */\n      tag_54\n      jump\t// in\n    tag_107:\n        /* \"#utility.yul\":711:782   */\n      tag_108\n        /* \"#utility.yul\":775:781   */\n      dup2\n        /* \"#utility.yul\":770:773   */\n      dup6\n        /* \"#utility.yul\":711:782   */\n      tag_55\n      jump\t// in\n    tag_108:\n        /* \"#utility.yul\":704:782   */\n      swap4\n      pop\n        /* \"#utility.yul\":791:856   */\n      tag_109\n        /* \"#utility.yul\":849:855   */\n      dup2\n        /* \"#utility.yul\":844:847   */\n      dup6\n        /* \"#utility.yul\":837:841   */\n      0x20\n        /* \"#utility.yul\":830:835   */\n      dup7\n        /* \"#utility.yul\":826:842   */\n      add\n        /* \"#utility.yul\":791:856   */\n      tag_56\n      jump\t// in\n    tag_109:\n        /* \"#utility.yul\":881:910   */\n      tag_110\n        /* \"#utility.yul\":903:909   */\n      dup2\n        /* \"#utility.yul\":881:910   */\n      tag_57\n      jump\t// in\n    tag_110:\n        /* \"#utility.yul\":876:879   */\n      dup5\n        /* \"#utility.yul\":872:911   */\n      add\n        /* \"#utility.yul\":865:911   */\n      swap2\n      pop\n        /* \"#utility.yul\":632:917   */\n      pop\n        /* \"#utility.yul\":540:917   */\n      swap3\n      swap2\n      pop\n      pop\n      jump\t// out\n        /* \"#utility.yul\":923:1236   */\n    tag_10:\n        /* \"#utility.yul\":1036:1040   */\n      0x00\n        /* \"#utility.yul\":1074:1076   */\n      0x20\n        /* \"#utility.yul\":1063:1072   */\n      dup3\n        /* \"#utility.yul\":1059:1077   */\n      add\n        /* \"#utility.yul\":1051:1077   */\n      swap1\n      pop\n        /* \"#utility.yul\":1123:1132   */\n      dup2\n        /* \"#utility.yul\":1117:1121   */\n      dup2\n        /* \"#utility.yul\":1113:1133   */\n      sub\n        /* \"#utility.yul\":1109:1110   */\n      0x00\n        /* \"#utility.yul\":1098:1107   */\n      dup4\n        /* \"#utility.yul\":1094:1111   */\n      add\n        /* \"#utility.yul\":1087:1134   */\n      mstore\n        /* \"#utility.yul\":1151:1229   */\n      tag_112\n        /* \"#utility.yul\":1224:1228   */\n      dup2\n        /* \"#utility.yul\":1215:1221   */\n      dup5\n        /* \"#utility.yul\":1151:1229   */\n      tag_58\n      jump\t// in\n    tag_112:\n        /* \"#utility.yul\":1143:1229   */\n      swap1\n      pop\n        /* \"#utility.yul\":923:1236   */\n      swap3\n      swap2\n      pop\n      pop\n      jump\t// out\n        /* \"#utility.yul\":1242:1317   */\n    tag_59:\n        /* \"#utility.yul\":1275:1281   */\n      0x00\n        /* \"#utility.yul\":1308:1310   */\n      0x40\n        /* \"#utility.yul\":1302:1311   */\n      mload\n        /* \"#utility.yul\":1292:1311   */\n      swap1\n      pop\n        /* \"#utility.yul\":1242:1317   */\n      swap1\n      jump\t// out\n        /* \"#utility.yul\":1323:1440   */\n    tag_60:\n        /* \"#utility.yul\":1432:1433   */\n      0x00\n        /* \"#utility.yul\":1429:1430   */\n      dup1\n        /* \"#utility.yul\":1422:1434   */\n      revert\n        /* \"#utility.yul\":1446:1563   */\n    tag_61:\n        /* \"#utility.yul\":1555:1556   */\n      0x00\n        /* \"#utility.yul\":1552:1553   */\n      dup1\n        /* \"#utility.yul\":1545:1557   */\n      revert\n        /* \"#utility.yul\":1569:1686   */\n    tag_62:\n        /* \"#utility.yul\":1678:1679   */\n      0x00\n        /* \"#utility.yul\":1675:1676   */\n      dup1\n        /* \"#utility.yul\":1668:1680   */\n      revert\n        /* \"#utility.yul\":1692:1809   */\n    tag_63:\n        /* \"#utility.yul\":1801:1802   */\n      0x00\n        /* \"#utility.yul\":1798:1799   */\n      dup1\n        /* \"#utility.yul\":1791:1803   */\n      revert\n        /* \"#utility.yul\":1815:1995   */\n    tag_64:\n        /* \"#utility.yul\":1863:1940   */\n      0x4e487b7100000000000000000000000000000000000000000000000000000000\n        /* \"#utility.yul\":1860:1861   */\n      0x00\n        /* \"#utility.yul\":1853:1941   */\n      mstore\n        /* \"#utility.yul\":1960:1964   */\n      0x41\n        /* \"#utility.yul\":1957:1958   */\n      0x04\n        /* \"#utility.yul\":1950:1965   */\n      mstore\n        /* \"#utility.yul\":1984:1988   */\n      0x24\n        /* \"#utility.yul\":1981:1982   */\n      0x00\n        /* \"#utility.yul\":1974:1989   */\n      revert\n        /* \"#utility.yul\":2001:2282   */\n    tag_65:\n        /* \"#utility.yul\":2084:2111   */\n      tag_120\n        /* \"#utility.yul\":2106:2110   */\n      dup3\n        /* \"#utility.yul\":2084:2111   */\n      tag_57\n      jump\t// in\n    tag_120:\n        /* \"#utility.yul\":2076:2082   */\n      dup2\n        /* \"#utility.yul\":2072:2112   */\n      add\n        /* \"#utility.yul\":2214:2220   */\n      dup2\n        /* \"#utility.yul\":2202:2212   */\n      dup2\n        /* \"#utility.yul\":2199:2221   */\n      lt\n        /* \"#utility.yul\":2178:2196   */\n      0xffffffffffffffff\n        /* \"#utility.yul\":2166:2176   */\n      dup3\n        /* \"#utility.yul\":2163:2197   */\n      gt\n        /* \"#utility.yul\":2160:2222   */\n      or\n        /* \"#utility.yul\":2157:2245   */\n      iszero\n      tag_121\n      jumpi\n        /* \"#utility.yul\":2225:2243   */\n      tag_122\n      tag_64\n      jump\t// in\n    tag_122:\n        /* \"#utility.yul\":2157:2245   */\n    tag_121:\n        /* \"#utility.yul\":2265:2275   */\n      dup1\n        /* \"#utility.yul\":2261:2263   */\n      0x40\n        /* \"#utility.yul\":2254:2276   */\n      mstore\n        /* \"#utility.yul\":2044:2282   */\n      pop\n        /* \"#utility.yul\":2001:2282   */\n      pop\n      pop\n      jump\t// out\n        /* \"#utility.yul\":2288:2417   */\n    tag_66:\n        /* \"#utility.yul\":2322:2328   */\n      0x00\n        /* \"#utility.yul\":2349:2369   */\n      tag_124\n      tag_59\n      jump\t// in\n    tag_124:\n        /* \"#utility.yul\":2339:2369   */\n      swap1\n      pop\n        /* \"#utility.yul\":2378:2411   */\n      tag_125\n        /* \"#utility.yul\":2406:2410   */\n      dup3\n        /* \"#utility.yul\":2398:2404   */\n      dup3\n        /* \"#utility.yul\":2378:2411   */\n      tag_65\n      jump\t// in\n    tag_125:\n        /* \"#utility.yul\":2288:2417   */\n      swap2\n      swap1\n      pop\n      jump\t// out\n        /* \"#utility.yul\":2423:2731   */\n    tag_67:\n        /* \"#utility.yul\":2485:2489   */\n      0x00\n        /* \"#utility.yul\":2575:2593   */\n      0xffffffffffffffff\n        /* \"#utility.yul\":2567:2573   */\n      dup3\n        /* \"#utility.yul\":2564:2594   */\n      gt\n        /* \"#utility.yul\":2561:2617   */\n      iszero\n      tag_127\n      jumpi\n        /* \"#utility.yul\":2597:2615   */\n      tag_128\n      tag_64\n      jump\t// in\n    tag_128:\n        /* \"#utility.yul\":2561:2617   */\n    tag_127:\n        /* \"#utility.yul\":2635:2664   */\n      tag_129\n        /* \"#utility.yul\":2657:2663   */\n      dup3\n        /* \"#utility.yul\":2635:2664   */\n      tag_57\n      jump\t// in\n    tag_129:\n        /* \"#utility.yul\":2627:2664   */\n      swap1\n      pop\n        /* \"#utility.yul\":2719:2723   */\n      0x20\n        /* \"#utility.yul\":2713:2717   */\n      dup2\n        /* \"#utility.yul\":2709:2724   */\n      add\n        /* \"#utility.yul\":2701:2724   */\n      swap1\n      pop\n        /* \"#utility.yul\":2423:2731   */\n      swap2\n      swap1\n      pop\n      jump\t// out\n        /* \"#utility.yul\":2737:2885   */\n    tag_68:\n        /* \"#utility.yul\":2835:2841   */\n      dup3\n        /* \"#utility.yul\":2830:2833   */\n      dup2\n        /* \"#utility.yul\":2825:2828   */\n      dup4\n        /* \"#utility.yul\":2812:2842   */\n      calldatacopy\n        /* \"#utility.yul\":2876:2877   */\n      0x00\n        /* \"#utility.yul\":2867:2873   */\n      dup4\n        /* \"#utility.yul\":2862:2865   */\n      dup4\n        /* \"#utility.yul\":2858:2874   */\n      add\n        /* \"#utility.yul\":2851:2878   */\n      mstore\n        /* \"#utility.yul\":2737:2885   */\n      pop\n      pop\n      pop\n      jump\t// out\n        /* \"#utility.yul\":2891:3316   */\n    tag_69:\n        /* \"#utility.yul\":2969:2974   */\n      0x00\n        /* \"#utility.yul\":2994:3060   */\n      tag_132\n        /* \"#utility.yul\":3010:3059   */\n      tag_133\n        /* \"#utility.yul\":3052:3058   */\n      dup5\n        /* \"#utility.yul\":3010:3059   */\n      tag_67\n      jump\t// in\n    tag_133:\n        /* \"#utility.yul\":2994:3060   */\n      tag_66\n      jump\t// in\n    tag_132:\n        /* \"#utility.yul\":2985:3060   */\n      swap1\n      pop\n        /* \"#utility.yul\":3083:3089   */\n      dup3\n        /* \"#utility.yul\":3076:3081   */\n      dup2\n        /* \"#utility.yul\":3069:3090   */\n      mstore\n        /* \"#utility.yul\":3121:3125   */\n      0x20\n        /* \"#utility.yul\":3114:3119   */\n      dup2\n        /* \"#utility.yul\":3110:3126   */\n      add\n        /* \"#utility.yul\":3159:3162   */\n      dup5\n        /* \"#utility.yul\":3150:3156   */\n      dup5\n        /* \"#utility.yul\":3145:3148   */\n      dup5\n        /* \"#utility.yul\":3141:3157   */\n      add\n        /* \"#utility.yul\":3138:3163   */\n      gt\n        /* \"#utility.yul\":3135:3247   */\n      iszero\n      tag_134\n      jumpi\n        /* \"#utility.yul\":3166:3245   */\n      tag_135\n      tag_63\n      jump\t// in\n    tag_135:\n        /* \"#utility.yul\":3135:3247   */\n    tag_134:\n        /* \"#utility.yul\":3256:3310   */\n      tag_136\n        /* \"#utility.yul\":3303:3309   */\n      dup5\n        /* \"#utility.yul\":3298:3301   */\n      dup3\n        /* \"#utility.yul\":3293:3296   */\n      dup6\n        /* \"#utility.yul\":3256:3310   */\n      tag_68\n      jump\t// in\n    tag_136:\n        /* \"#utility.yul\":2975:3316   */\n      pop\n        /* \"#utility.yul\":2891:3316   */\n      swap4\n      swap3\n      pop\n      pop\n      pop\n      jump\t// out\n        /* \"#utility.yul\":3336:3676   */\n    tag_70:\n        /* \"#utility.yul\":3392:3397   */\n      0x00\n        /* \"#utility.yul\":3441:3444   */\n      dup3\n        /* \"#utility.yul\":3434:3438   */\n      0x1f\n        /* \"#utility.yul\":3426:3432   */\n      dup4\n        /* \"#utility.yul\":3422:3439   */\n      add\n        /* \"#utility.yul\":3418:3445   */\n      slt\n        /* \"#utility.yul\":3408:3530   */\n      tag_138\n      jumpi\n        /* \"#utility.yul\":3449:3528   */\n      tag_139\n      tag_62\n      jump\t// in\n    tag_139:\n        /* \"#utility.yul\":3408:3530   */\n    tag_138:\n        /* \"#utility.yul\":3566:3572   */\n      dup2\n        /* \"#utility.yul\":3553:3573   */\n      calldataload\n        /* \"#utility.yul\":3591:3670   */\n      tag_140\n        /* \"#utility.yul\":3666:3669   */\n      dup5\n        /* \"#utility.yul\":3658:3664   */\n      dup3\n        /* \"#utility.yul\":3651:3655   */\n      0x20\n        /* \"#utility.yul\":3643:3649   */\n      dup7\n        /* \"#utility.yul\":3639:3656   */\n      add\n        /* \"#utility.yul\":3591:3670   */\n      tag_69\n      jump\t// in\n    tag_140:\n        /* \"#utility.yul\":3582:3670   */\n      swap2\n      pop\n        /* \"#utility.yul\":3398:3676   */\n      pop\n        /* \"#utility.yul\":3336:3676   */\n      swap3\n      swap2\n      pop\n      pop\n      jump\t// out\n        /* \"#utility.yul\":3682:3808   */\n    tag_71:\n        /* \"#utility.yul\":3719:3726   */\n      0x00\n        /* \"#utility.yul\":3759:3801   */\n      0xffffffffffffffffffffffffffffffffffffffff\n        /* \"#utility.yul\":3752:3757   */\n      dup3\n        /* \"#utility.yul\":3748:3802   */\n      and\n        /* \"#utility.yul\":3737:3802   */\n      swap1\n      pop\n        /* \"#utility.yul\":3682:3808   */\n      swap2\n      swap1\n      pop\n      jump\t// out\n        /* \"#utility.yul\":3814:3910   */\n    tag_72:\n        /* \"#utility.yul\":3851:3858   */\n      0x00\n        /* \"#utility.yul\":3880:3904   */\n      tag_143\n        /* \"#utility.yul\":3898:3903   */\n      dup3\n        /* \"#utility.yul\":3880:3904   */\n      tag_71\n      jump\t// in\n    tag_143:\n        /* \"#utility.yul\":3869:3904   */\n      swap1\n      pop\n        /* \"#utility.yul\":3814:3910   */\n      swap2\n      swap1\n      pop\n      jump\t// out\n        /* \"#utility.yul\":3916:4038   */\n    tag_73:\n        /* \"#utility.yul\":3989:4013   */\n      tag_145\n        /* \"#utility.yul\":4007:4012   */\n      dup2\n        /* \"#utility.yul\":3989:4013   */\n      tag_72\n      jump\t// in\n    tag_145:\n        /* \"#utility.yul\":3982:3987   */\n      dup2\n        /* \"#utility.yul\":3979:4014   */\n      eq\n        /* \"#utility.yul\":3969:4032   */\n      tag_146\n      jumpi\n        /* \"#utility.yul\":4028:4029   */\n      0x00\n        /* \"#utility.yul\":4025:4026   */\n      dup1\n        /* \"#utility.yul\":4018:4030   */\n      revert\n        /* \"#utility.yul\":3969:4032   */\n    tag_146:\n        /* \"#utility.yul\":3916:4038   */\n      pop\n      jump\t// out\n        /* \"#utility.yul\":4044:4183   */\n    tag_74:\n        /* \"#utility.yul\":4090:4095   */\n      0x00\n        /* \"#utility.yul\":4128:4134   */\n      dup2\n        /* \"#utility.yul\":4115:4135   */\n      calldataload\n        /* \"#utility.yul\":4106:4135   */\n      swap1\n      pop\n        /* \"#utility.yul\":4144:4177   */\n      tag_148\n        /* \"#utility.yul\":4171:4176   */\n      dup2\n        /* \"#utility.yul\":4144:4177   */\n      tag_73\n      jump\t// in\n    tag_148:\n        /* \"#utility.yul\":4044:4183   */\n      swap3\n      swap2\n      pop\n      pop\n      jump\t// out\n        /* \"#utility.yul\":4189:4843   */\n    tag_13:\n        /* \"#utility.yul\":4267:4273   */\n      0x00\n        /* \"#utility.yul\":4275:4281   */\n      dup1\n        /* \"#utility.yul\":4324:4326   */\n      0x40\n        /* \"#utility.yul\":4312:4321   */\n      dup4\n        /* \"#utility.yul\":4303:4310   */\n      dup6\n        /* \"#utility.yul\":4299:4322   */\n      sub\n        /* \"#utility.yul\":4295:4327   */\n      slt\n        /* \"#utility.yul\":4292:4411   */\n      iszero\n      tag_150\n      jumpi\n        /* \"#utility.yul\":4330:4409   */\n      tag_151\n      tag_60\n      jump\t// in\n    tag_151:\n        /* \"#utility.yul\":4292:4411   */\n    tag_150:\n        /* \"#utility.yul\":4478:4479   */\n      0x00\n        /* \"#utility.yul\":4467:4476   */\n      dup4\n        /* \"#utility.yul\":4463:4480   */\n      add\n        /* \"#utility.yul\":4450:4481   */\n      calldataload\n        /* \"#utility.yul\":4508:4526   */\n      0xffffffffffffffff\n        /* \"#utility.yul\":4500:4506   */\n      dup2\n        /* \"#utility.yul\":4497:4527   */\n      gt\n        /* \"#utility.yul\":4494:4611   */\n      iszero\n      tag_152\n      jumpi\n        /* \"#utility.yul\":4530:4609   */\n      tag_153\n      tag_61\n      jump\t// in\n    tag_153:\n        /* \"#utility.yul\":4494:4611   */\n    tag_152:\n        /* \"#utility.yul\":4635:4698   */\n      tag_154\n        /* \"#utility.yul\":4690:4697   */\n      dup6\n        /* \"#utility.yul\":4681:4687   */\n      dup3\n        /* \"#utility.yul\":4670:4679   */\n      dup7\n        /* \"#utility.yul\":4666:4688   */\n      add\n        /* \"#utility.yul\":4635:4698   */\n      tag_70\n      jump\t// in\n    tag_154:\n        /* \"#utility.yul\":4625:4698   */\n      swap3\n      pop\n        /* \"#utility.yul\":4421:4708   */\n      pop\n        /* \"#utility.yul\":4747:4749   */\n      0x20\n        /* \"#utility.yul\":4773:4826   */\n      tag_155\n        /* \"#utility.yul\":4818:4825   */\n      dup6\n        /* \"#utility.yul\":4809:4815   */\n      dup3\n        /* \"#utility.yul\":4798:4807   */\n      dup7\n        /* \"#utility.yul\":4794:4816   */\n      add\n        /* \"#utility.yul\":4773:4826   */\n      tag_74\n      jump\t// in\n    tag_155:\n        /* \"#utility.yul\":4763:4826   */\n      swap2\n      pop\n        /* \"#utility.yul\":4718:4836   */\n      pop\n        /* \"#utility.yul\":4189:4843   */\n      swap3\n      pop\n      swap3\n      swap1\n      pop\n      jump\t// out\n        /* \"#utility.yul\":4849:5358   */\n    tag_17:\n        /* \"#utility.yul\":4918:4924   */\n      0x00\n        /* \"#utility.yul\":4967:4969   */\n      0x20\n        /* \"#utility.yul\":4955:4964   */\n      dup3\n        /* \"#utility.yul\":4946:4953   */\n      dup5\n        /* \"#utility.yul\":4942:4965   */\n      sub\n        /* \"#utility.yul\":4938:4970   */\n      slt\n        /* \"#utility.yul\":4935:5054   */\n      iszero\n      tag_157\n      jumpi\n        /* \"#utility.yul\":4973:5052   */\n      tag_158\n      tag_60\n      jump\t// in\n    tag_158:\n        /* \"#utility.yul\":4935:5054   */\n    tag_157:\n        /* \"#utility.yul\":5121:5122   */\n      0x00\n        /* \"#utility.yul\":5110:5119   */\n      dup3\n        /* \"#utility.yul\":5106:5123   */\n      add\n        /* \"#utility.yul\":5093:5124   */\n      calldataload\n        /* \"#utility.yul\":5151:5169   */\n      0xffffffffffffffff\n        /* \"#utility.yul\":5143:5149   */\n      dup2\n        /* \"#utility.yul\":5140:5170   */\n      gt\n        /* \"#utility.yul\":5137:5254   */\n      iszero\n      tag_159\n      jumpi\n        /* \"#utility.yul\":5173:5252   */\n      tag_160\n      tag_61\n      jump\t// in\n    tag_160:\n        /* \"#utility.yul\":5137:5254   */\n    tag_159:\n        /* \"#utility.yul\":5278:5341   */\n      tag_161\n        /* \"#utility.yul\":5333:5340   */\n      dup5\n        /* \"#utility.yul\":5324:5330   */\n      dup3\n        /* \"#utility.yul\":5313:5322   */\n      dup6\n        /* \"#utility.yul\":5309:5331   */\n      add\n        /* \"#utility.yul\":5278:5341   */\n      tag_70\n      jump\t// in\n    tag_161:\n        /* \"#utility.yul\":5268:5341   */\n      swap2\n      pop\n        /* \"#utility.yul\":5064:5351   */\n      pop\n        /* \"#utility.yul\":4849:5358   */\n      swap3\n      swap2\n      pop\n      pop\n      jump\t// out\n        /* \"#utility.yul\":5364:5441   */\n    tag_75:\n        /* \"#utility.yul\":5401:5408   */\n      0x00\n        /* \"#utility.yul\":5430:5435   */\n      dup2\n        /* \"#utility.yul\":5419:5435   */\n      swap1\n      pop\n        /* \"#utility.yul\":5364:5441   */\n      swap2\n      swap1\n      pop\n      jump\t// out\n        /* \"#utility.yul\":5447:5565   */\n    tag_76:\n        /* \"#utility.yul\":5534:5558   */\n      tag_164\n        /* \"#utility.yul\":5552:5557   */\n      dup2\n        /* \"#utility.yul\":5534:5558   */\n      tag_75\n      jump\t// in\n    tag_164:\n        /* \"#utility.yul\":5529:5532   */\n      dup3\n        /* \"#utility.yul\":5522:5559   */\n      mstore\n        /* \"#utility.yul\":5447:5565   */\n      pop\n      pop\n      jump\t// out\n        /* \"#utility.yul\":5571:5793   */\n    tag_20:\n        /* \"#utility.yul\":5664:5668   */\n      0x00\n        /* \"#utility.yul\":5702:5704   */\n      0x20\n        /* \"#utility.yul\":5691:5700   */\n      dup3\n        /* \"#utility.yul\":5687:5705   */\n      add\n        /* \"#utility.yul\":5679:5705   */\n      swap1\n      pop\n        /* \"#utility.yul\":5715:5786   */\n      tag_166\n        /* \"#utility.yul\":5783:5784   */\n      0x00\n        /* \"#utility.yul\":5772:5781   */\n      dup4\n        /* \"#utility.yul\":5768:5785   */\n      add\n        /* \"#utility.yul\":5759:5765   */\n      dup5\n        /* \"#utility.yul\":5715:5786   */\n      tag_76\n      jump\t// in\n    tag_166:\n        /* \"#utility.yul\":5571:5793   */\n      swap3\n      swap2\n      pop\n      pop\n      jump\t// out\n        /* \"#utility.yul\":5799:5859   */\n    tag_77:\n        /* \"#utility.yul\":5827:5830   */\n      0x00\n        /* \"#utility.yul\":5848:5853   */\n      dup2\n        /* \"#utility.yul\":5841:5853   */\n      swap1\n      pop\n        /* \"#utility.yul\":5799:5859   */\n      swap2\n      swap1\n      pop\n      jump\t// out\n        /* \"#utility.yul\":5865:6007   */\n    tag_78:\n        /* \"#utility.yul\":5915:5924   */\n      0x00\n        /* \"#utility.yul\":5948:6001   */\n      tag_169\n        /* \"#utility.yul\":5966:6000   */\n      tag_170\n        /* \"#utility.yul\":5975:5999   */\n      tag_171\n        /* \"#utility.yul\":5993:5998   */\n      dup5\n        /* \"#utility.yul\":5975:5999   */\n      tag_71\n      jump\t// in\n    tag_171:\n        /* \"#utility.yul\":5966:6000   */\n      tag_77\n      jump\t// in\n    tag_170:\n        /* \"#utility.yul\":5948:6001   */\n      tag_71\n      jump\t// in\n    tag_169:\n        /* \"#utility.yul\":5935:6001   */\n      swap1\n      pop\n        /* \"#utility.yul\":5865:6007   */\n      swap2\n      swap1\n      pop\n      jump\t// out\n        /* \"#utility.yul\":6013:6139   */\n    tag_79:\n        /* \"#utility.yul\":6063:6072   */\n      0x00\n        /* \"#utility.yul\":6096:6133   */\n      tag_173\n        /* \"#utility.yul\":6127:6132   */\n      dup3\n        /* \"#utility.yul\":6096:6133   */\n      tag_78\n      jump\t// in\n    tag_173:\n        /* \"#utility.yul\":6083:6133   */\n      swap1\n      pop\n        /* \"#utility.yul\":6013:6139   */\n      swap2\n      swap1\n      pop\n      jump\t// out\n        /* \"#utility.yul\":6145:6285   */\n    tag_80:\n        /* \"#utility.yul\":6209:6218   */\n      0x00\n        /* \"#utility.yul\":6242:6279   */\n      tag_175\n        /* \"#utility.yul\":6273:6278   */\n      dup3\n        /* \"#utility.yul\":6242:6279   */\n      tag_79\n      jump\t// in\n    tag_175:\n        /* \"#utility.yul\":6229:6279   */\n      swap1\n      pop\n        /* \"#utility.yul\":6145:6285   */\n      swap2\n      swap1\n      pop\n      jump\t// out\n        /* \"#utility.yul\":6291:6450   */\n    tag_81:\n        /* \"#utility.yul\":6392:6443   */\n      tag_177\n        /* \"#utility.yul\":6437:6442   */\n      dup2\n        /* \"#utility.yul\":6392:6443   */\n      tag_80\n      jump\t// in\n    tag_177:\n        /* \"#utility.yul\":6387:6390   */\n      dup3\n        /* \"#utility.yul\":6380:6444   */\n      mstore\n        /* \"#utility.yul\":6291:6450   */\n      pop\n      pop\n      jump\t// out\n        /* \"#utility.yul\":6456:6706   */\n    tag_24:\n        /* \"#utility.yul\":6563:6567   */\n      0x00\n        /* \"#utility.yul\":6601:6603   */\n      0x20\n        /* \"#utility.yul\":6590:6599   */\n      dup3\n        /* \"#utility.yul\":6586:6604   */\n      add\n        /* \"#utility.yul\":6578:6604   */\n      swap1\n      pop\n        /* \"#utility.yul\":6614:6699   */\n      tag_179\n        /* \"#utility.yul\":6696:6697   */\n      0x00\n        /* \"#utility.yul\":6685:6694   */\n      dup4\n        /* \"#utility.yul\":6681:6698   */\n      add\n        /* \"#utility.yul\":6672:6678   */\n      dup5\n        /* \"#utility.yul\":6614:6699   */\n      tag_81\n      jump\t// in\n    tag_179:\n        /* \"#utility.yul\":6456:6706   */\n      swap3\n      swap2\n      pop\n      pop\n      jump\t// out\n        /* \"#utility.yul\":6712:6892   */\n    tag_82:\n        /* \"#utility.yul\":6760:6837   */\n      0x4e487b7100000000000000000000000000000000000000000000000000000000\n        /* \"#utility.yul\":6757:6758   */\n      0x00\n        /* \"#utility.yul\":6750:6838   */\n      mstore\n        /* \"#utility.yul\":6857:6861   */\n      0x22\n        /* \"#utility.yul\":6854:6855   */\n      0x04\n        /* \"#utility.yul\":6847:6862   */\n      mstore\n        /* \"#utility.yul\":6881:6885   */\n      0x24\n        /* \"#utility.yul\":6878:6879   */\n      0x00\n        /* \"#utility.yul\":6871:6886   */\n      revert\n        /* \"#utility.yul\":6898:7218   */\n    tag_26:\n        /* \"#utility.yul\":6942:6948   */\n      0x00\n        /* \"#utility.yul\":6979:6980   */\n      0x02\n        /* \"#utility.yul\":6973:6977   */\n      dup3\n        /* \"#utility.yul\":6969:6981   */\n      div\n        /* \"#utility.yul\":6959:6981   */\n      swap1\n      pop\n        /* \"#utility.yul\":7026:7027   */\n      0x01\n        /* \"#utility.yul\":7020:7024   */\n      dup3\n        /* \"#utility.yul\":7016:7028   */\n      and\n        /* \"#utility.yul\":7047:7065   */\n      dup1\n        /* \"#utility.yul\":7037:7118   */\n      tag_182\n      jumpi\n        /* \"#utility.yul\":7103:7107   */\n      0x7f\n        /* \"#utility.yul\":7095:7101   */\n      dup3\n        /* \"#utility.yul\":7091:7108   */\n      and\n        /* \"#utility.yul\":7081:7108   */\n      swap2\n      pop\n        /* \"#utility.yul\":7037:7118   */\n    tag_182:\n        /* \"#utility.yul\":7165:7167   */\n      0x20\n        /* \"#utility.yul\":7157:7163   */\n      dup3\n        /* \"#utility.yul\":7154:7168   */\n      lt\n        /* \"#utility.yul\":7134:7152   */\n      dup2\n        /* \"#utility.yul\":7131:7169   */\n      sub\n        /* \"#utility.yul\":7128:7212   */\n      tag_183\n      jumpi\n        /* \"#utility.yul\":7184:7202   */\n      tag_184\n      tag_82\n      jump\t// in\n    tag_184:\n        /* \"#utility.yul\":7128:7212   */\n    tag_183:\n        /* \"#utility.yul\":6949:7218   */\n      pop\n        /* \"#utility.yul\":6898:7218   */\n      swap2\n      swap1\n      pop\n      jump\t// out\n        /* \"#utility.yul\":7224:7372   */\n    tag_83:\n        /* \"#utility.yul\":7326:7337   */\n      0x00\n        /* \"#utility.yul\":7363:7366   */\n      dup2\n        /* \"#utility.yul\":7348:7366   */\n      swap1\n      pop\n        /* \"#utility.yul\":7224:7372   */\n      swap3\n      swap2\n      pop\n      pop\n      jump\t// out\n        /* \"#utility.yul\":7378:7768   */\n    tag_84:\n        /* \"#utility.yul\":7484:7487   */\n      0x00\n        /* \"#utility.yul\":7512:7551   */\n      tag_187\n        /* \"#utility.yul\":7545:7550   */\n      dup3\n        /* \"#utility.yul\":7512:7551   */\n      tag_54\n      jump\t// in\n    tag_187:\n        /* \"#utility.yul\":7567:7656   */\n      tag_188\n        /* \"#utility.yul\":7649:7655   */\n      dup2\n        /* \"#utility.yul\":7644:7647   */\n      dup6\n        /* \"#utility.yul\":7567:7656   */\n      tag_83\n      jump\t// in\n    tag_188:\n        /* \"#utility.yul\":7560:7656   */\n      swap4\n      pop\n        /* \"#utility.yul\":7665:7730   */\n      tag_189\n        /* \"#utility.yul\":7723:7729   */\n      dup2\n        /* \"#utility.yul\":7718:7721   */\n      dup6\n        /* \"#utility.yul\":7711:7715   */\n      0x20\n        /* \"#utility.yul\":7704:7709   */\n      dup7\n        /* \"#utility.yul\":7700:7716   */\n      add\n        /* \"#utility.yul\":7665:7730   */\n      tag_56\n      jump\t// in\n    tag_189:\n        /* \"#utility.yul\":7755:7761   */\n      dup1\n        /* \"#utility.yul\":7750:7753   */\n      dup5\n        /* \"#utility.yul\":7746:7762   */\n      add\n        /* \"#utility.yul\":7739:7762   */\n      swap2\n      pop\n        /* \"#utility.yul\":7488:7768   */\n      pop\n        /* \"#utility.yul\":7378:7768   */\n      swap3\n      swap2\n      pop\n      pop\n      jump\t// out\n        /* \"#utility.yul\":7774:8049   */\n    tag_33:\n        /* \"#utility.yul\":7906:7909   */\n      0x00\n        /* \"#utility.yul\":7928:8023   */\n      tag_191\n        /* \"#utility.yul\":8019:8022   */\n      dup3\n        /* \"#utility.yul\":8010:8016   */\n      dup5\n        /* \"#utility.yul\":7928:8023   */\n      tag_84\n      jump\t// in\n    tag_191:\n        /* \"#utility.yul\":7921:8023   */\n      swap2\n      pop\n        /* \"#utility.yul\":8040:8043   */\n      dup2\n        /* \"#utility.yul\":8033:8043   */\n      swap1\n      pop\n        /* \"#utility.yul\":7774:8049   */\n      swap3\n      swap2\n      pop\n      pop\n      jump\t// out\n        /* \"#utility.yul\":8055:8196   */\n    tag_85:\n        /* \"#utility.yul\":8104:8108   */\n      0x00\n        /* \"#utility.yul\":8127:8130   */\n      dup2\n        /* \"#utility.yul\":8119:8130   */\n      swap1\n      pop\n        /* \"#utility.yul\":8150:8153   */\n      dup2\n        /* \"#utility.yul\":8147:8148   */\n      0x00\n        /* \"#utility.yul\":8140:8154   */\n      mstore\n        /* \"#utility.yul\":8184:8188   */\n      0x20\n        /* \"#utility.yul\":8181:8182   */\n      0x00\n        /* \"#utility.yul\":8171:8189   */\n      keccak256\n        /* \"#utility.yul\":8163:8189   */\n      swap1\n      pop\n        /* \"#utility.yul\":8055:8196   */\n      swap2\n      swap1\n      pop\n      jump\t// out\n        /* \"#utility.yul\":8226:9100   */\n    tag_86:\n        /* \"#utility.yul\":8329:8332   */\n      0x00\n        /* \"#utility.yul\":8366:8371   */\n      dup2\n        /* \"#utility.yul\":8360:8372   */\n      sload\n        /* \"#utility.yul\":8395:8431   */\n      tag_194\n        /* \"#utility.yul\":8421:8430   */\n      dup2\n        /* \"#utility.yul\":8395:8431   */\n      tag_26\n      jump\t// in\n    tag_194:\n        /* \"#utility.yul\":8447:8536   */\n      tag_195\n        /* \"#utility.yul\":8529:8535   */\n      dup2\n        /* \"#utility.yul\":8524:8527   */\n      dup7\n        /* \"#utility.yul\":8447:8536   */\n      tag_83\n      jump\t// in\n    tag_195:\n        /* \"#utility.yul\":8440:8536   */\n      swap5\n      pop\n        /* \"#utility.yul\":8567:8568   */\n      0x01\n        /* \"#utility.yul\":8556:8565   */\n      dup3\n        /* \"#utility.yul\":8552:8569   */\n      and\n        /* \"#utility.yul\":8583:8584   */\n      0x00\n        /* \"#utility.yul\":8578:8744   */\n      dup2\n      eq\n      tag_197\n      jumpi\n        /* \"#utility.yul\":8758:8759   */\n      0x01\n        /* \"#utility.yul\":8753:9094   */\n      dup2\n      eq\n      tag_198\n      jumpi\n        /* \"#utility.yul\":8545:9094   */\n      jump(tag_196)\n        /* \"#utility.yul\":8578:8744   */\n    tag_197:\n        /* \"#utility.yul\":8662:8666   */\n      0xff\n        /* \"#utility.yul\":8658:8667   */\n      not\n        /* \"#utility.yul\":8647:8656   */\n      dup4\n        /* \"#utility.yul\":8643:8668   */\n      and\n        /* \"#utility.yul\":8638:8641   */\n      dup7\n        /* \"#utility.yul\":8631:8669   */\n      mstore\n        /* \"#utility.yul\":8724:8730   */\n      dup2\n        /* \"#utility.yul\":8717:8731   */\n      iszero\n        /* \"#utility.yul\":8710:8732   */\n      iszero\n        /* \"#utility.yul\":8702:8708   */\n      dup3\n        /* \"#utility.yul\":8698:8733   */\n      mul\n        /* \"#utility.yul\":8693:8696   */\n      dup7\n        /* \"#utility.yul\":8689:8734   */\n      add\n        /* \"#utility.yul\":8682:8734   */\n      swap4\n      pop\n        /* \"#utility.yul\":8578:8744   */\n      jump(tag_196)\n        /* \"#utility.yul\":8753:9094   */\n    tag_198:\n        /* \"#utility.yul\":8820:8858   */\n      tag_199\n        /* \"#utility.yul\":8852:8857   */\n      dup6\n        /* \"#utility.yul\":8820:8858   */\n      tag_85\n      jump\t// in\n    tag_199:\n        /* \"#utility.yul\":8880:8881   */\n      0x00\n        /* \"#utility.yul\":8894:9048   */\n    tag_200:\n        /* \"#utility.yul\":8908:8914   */\n      dup4\n        /* \"#utility.yul\":8905:8906   */\n      dup2\n        /* \"#utility.yul\":8902:8915   */\n      lt\n        /* \"#utility.yul\":8894:9048   */\n      iszero\n      tag_202\n      jumpi\n        /* \"#utility.yul\":8982:8989   */\n      dup2\n        /* \"#utility.yul\":8976:8990   */\n      sload\n        /* \"#utility.yul\":8972:8973   */\n      dup2\n        /* \"#utility.yul\":8967:8970   */\n      dup10\n        /* \"#utility.yul\":8963:8974   */\n      add\n        /* \"#utility.yul\":8956:8991   */\n      mstore\n        /* \"#utility.yul\":9032:9033   */\n      0x01\n        /* \"#utility.yul\":9023:9030   */\n      dup3\n        /* \"#utility.yul\":9019:9034   */\n      add\n        /* \"#utility.yul\":9008:9034   */\n      swap2\n      pop\n        /* \"#utility.yul\":8930:8934   */\n      0x20\n        /* \"#utility.yul\":8927:8928   */\n      dup2\n        /* \"#utility.yul\":8923:8935   */\n      add\n        /* \"#utility.yul\":8918:8935   */\n      swap1\n      pop\n        /* \"#utility.yul\":8894:9048   */\n      jump(tag_200)\n    tag_202:\n        /* \"#utility.yul\":9077:9083   */\n      dup4\n        /* \"#utility.yul\":9072:9075   */\n      dup9\n        /* \"#utility.yul\":9068:9084   */\n      add\n        /* \"#utility.yul\":9061:9084   */\n      swap6\n      pop\n        /* \"#utility.yul\":8760:9094   */\n      pop\n      pop\n        /* \"#utility.yul\":8545:9094   */\n    tag_196:\n      pop\n        /* \"#utility.yul\":8333:9100   */\n      pop\n      pop\n        /* \"#utility.yul\":8226:9100   */\n      swap3\n      swap2\n      pop\n      pop\n      jump\t// out\n        /* \"#utility.yul\":9106:9375   */\n    tag_36:\n        /* \"#utility.yul\":9235:9238   */\n      0x00\n        /* \"#utility.yul\":9257:9349   */\n      tag_204\n        /* \"#utility.yul\":9345:9348   */\n      dup3\n        /* \"#utility.yul\":9336:9342   */\n      dup5\n        /* \"#utility.yul\":9257:9349   */\n      tag_86\n      jump\t// in\n    tag_204:\n        /* \"#utility.yul\":9250:9349   */\n      swap2\n      pop\n        /* \"#utility.yul\":9366:9369   */\n      dup2\n        /* \"#utility.yul\":9359:9369   */\n      swap1\n      pop\n        /* \"#utility.yul\":9106:9375   */\n      swap3\n      swap2\n      pop\n      pop\n      jump\t// out\n        /* \"#utility.yul\":9381:9562   */\n    tag_87:\n        /* \"#utility.yul\":9521:9554   */\n      0x50726963652066656564206e6f742073657420666f722063757272656e637900\n        /* \"#utility.yul\":9517:9518   */\n      0x00\n        /* \"#utility.yul\":9509:9515   */\n      dup3\n        /* \"#utility.yul\":9505:9519   */\n      add\n        /* \"#utility.yul\":9498:9555   */\n      mstore\n        /* \"#utility.yul\":9381:9562   */\n      pop\n      jump\t// out\n        /* \"#utility.yul\":9568:9934   */\n    tag_88:\n        /* \"#utility.yul\":9710:9713   */\n      0x00\n        /* \"#utility.yul\":9731:9798   */\n      tag_207\n        /* \"#utility.yul\":9795:9797   */\n      0x1f\n        /* \"#utility.yul\":9790:9793   */\n      dup4\n        /* \"#utility.yul\":9731:9798   */\n      tag_55\n      jump\t// in\n    tag_207:\n        /* \"#utility.yul\":9724:9798   */\n      swap2\n      pop\n        /* \"#utility.yul\":9807:9900   */\n      tag_208\n        /* \"#utility.yul\":9896:9899   */\n      dup3\n        /* \"#utility.yul\":9807:9900   */\n      tag_87\n      jump\t// in\n    tag_208:\n        /* \"#utility.yul\":9925:9927   */\n      0x20\n        /* \"#utility.yul\":9920:9923   */\n      dup3\n        /* \"#utility.yul\":9916:9928   */\n      add\n        /* \"#utility.yul\":9909:9928   */\n      swap1\n      pop\n        /* \"#utility.yul\":9568:9934   */\n      swap2\n      swap1\n      pop\n      jump\t// out\n        /* \"#utility.yul\":9940:10359   */\n    tag_42:\n        /* \"#utility.yul\":10106:10110   */\n      0x00\n        /* \"#utility.yul\":10144:10146   */\n      0x20\n        /* \"#utility.yul\":10133:10142   */\n      dup3\n        /* \"#utility.yul\":10129:10147   */\n      add\n        /* \"#utility.yul\":10121:10147   */\n      swap1\n      pop\n        /* \"#utility.yul\":10193:10202   */\n      dup2\n        /* \"#utility.yul\":10187:10191   */\n      dup2\n        /* \"#utility.yul\":10183:10203   */\n      sub\n        /* \"#utility.yul\":10179:10180   */\n      0x00\n        /* \"#utility.yul\":10168:10177   */\n      dup4\n        /* \"#utility.yul\":10164:10181   */\n      add\n        /* \"#utility.yul\":10157:10204   */\n      mstore\n        /* \"#utility.yul\":10221:10352   */\n      tag_210\n        /* \"#utility.yul\":10347:10351   */\n      dup2\n        /* \"#utility.yul\":10221:10352   */\n      tag_88\n      jump\t// in\n    tag_210:\n        /* \"#utility.yul\":10213:10352   */\n      swap1\n      pop\n        /* \"#utility.yul\":9940:10359   */\n      swap2\n      swap1\n      pop\n      jump\t// out\n        /* \"#utility.yul\":10365:10470   */\n    tag_89:\n        /* \"#utility.yul\":10401:10408   */\n      0x00\n        /* \"#utility.yul\":10441:10463   */\n      0xffffffffffffffffffff\n        /* \"#utility.yul\":10434:10439   */\n      dup3\n        /* \"#utility.yul\":10430:10464   */\n      and\n        /* \"#utility.yul\":10419:10464   */\n      swap1\n      pop\n        /* \"#utility.yul\":10365:10470   */\n      swap2\n      swap1\n      pop\n      jump\t// out\n        /* \"#utility.yul\":10476:10596   */\n    tag_90:\n        /* \"#utility.yul\":10548:10571   */\n      tag_213\n        /* \"#utility.yul\":10565:10570   */\n      dup2\n        /* \"#utility.yul\":10548:10571   */\n      tag_89\n      jump\t// in\n    tag_213:\n        /* \"#utility.yul\":10541:10546   */\n      dup2\n        /* \"#utility.yul\":10538:10572   */\n      eq\n        /* \"#utility.yul\":10528:10590   */\n      tag_214\n      jumpi\n        /* \"#utility.yul\":10586:10587   */\n      0x00\n        /* \"#utility.yul\":10583:10584   */\n      dup1\n        /* \"#utility.yul\":10576:10588   */\n      revert\n        /* \"#utility.yul\":10528:10590   */\n    tag_214:\n        /* \"#utility.yul\":10476:10596   */\n      pop\n      jump\t// out\n        /* \"#utility.yul\":10602:10743   */\n    tag_91:\n        /* \"#utility.yul\":10658:10663   */\n      0x00\n        /* \"#utility.yul\":10689:10695   */\n      dup2\n        /* \"#utility.yul\":10683:10696   */\n      mload\n        /* \"#utility.yul\":10674:10696   */\n      swap1\n      pop\n        /* \"#utility.yul\":10705:10737   */\n      tag_216\n        /* \"#utility.yul\":10731:10736   */\n      dup2\n        /* \"#utility.yul\":10705:10737   */\n      tag_90\n      jump\t// in\n    tag_216:\n        /* \"#utility.yul\":10602:10743   */\n      swap3\n      swap2\n      pop\n      pop\n      jump\t// out\n        /* \"#utility.yul\":10749:10825   */\n    tag_92:\n        /* \"#utility.yul\":10785:10792   */\n      0x00\n        /* \"#utility.yul\":10814:10819   */\n      dup2\n        /* \"#utility.yul\":10803:10819   */\n      swap1\n      pop\n        /* \"#utility.yul\":10749:10825   */\n      swap2\n      swap1\n      pop\n      jump\t// out\n        /* \"#utility.yul\":10831:10951   */\n    tag_93:\n        /* \"#utility.yul\":10903:10926   */\n      tag_219\n        /* \"#utility.yul\":10920:10925   */\n      dup2\n        /* \"#utility.yul\":10903:10926   */\n      tag_92\n      jump\t// in\n    tag_219:\n        /* \"#utility.yul\":10896:10901   */\n      dup2\n        /* \"#utility.yul\":10893:10927   */\n      eq\n        /* \"#utility.yul\":10883:10945   */\n      tag_220\n      jumpi\n        /* \"#utility.yul\":10941:10942   */\n      0x00\n        /* \"#utility.yul\":10938:10939   */\n      dup1\n        /* \"#utility.yul\":10931:10943   */\n      revert\n        /* \"#utility.yul\":10883:10945   */\n    tag_220:\n        /* \"#utility.yul\":10831:10951   */\n      pop\n      jump\t// out\n        /* \"#utility.yul\":10957:11098   */\n    tag_94:\n        /* \"#utility.yul\":11013:11018   */\n      0x00\n        /* \"#utility.yul\":11044:11050   */\n      dup2\n        /* \"#utility.yul\":11038:11051   */\n      mload\n        /* \"#utility.yul\":11029:11051   */\n      swap1\n      pop\n        /* \"#utility.yul\":11060:11092   */\n      tag_222\n        /* \"#utility.yul\":11086:11091   */\n      dup2\n        /* \"#utility.yul\":11060:11092   */\n      tag_93\n      jump\t// in\n    tag_222:\n        /* \"#utility.yul\":10957:11098   */\n      swap3\n      swap2\n      pop\n      pop\n      jump\t// out\n        /* \"#utility.yul\":11104:11226   */\n    tag_95:\n        /* \"#utility.yul\":11177:11201   */\n      tag_224\n        /* \"#utility.yul\":11195:11200   */\n      dup2\n        /* \"#utility.yul\":11177:11201   */\n      tag_75\n      jump\t// in\n    tag_224:\n        /* \"#utility.yul\":11170:11175   */\n      dup2\n        /* \"#utility.yul\":11167:11202   */\n      eq\n        /* \"#utility.yul\":11157:11220   */\n      tag_225\n      jumpi\n        /* \"#utility.yul\":11216:11217   */\n      0x00\n        /* \"#utility.yul\":11213:11214   */\n      dup1\n        /* \"#utility.yul\":11206:11218   */\n      revert\n        /* \"#utility.yul\":11157:11220   */\n    tag_225:\n        /* \"#utility.yul\":11104:11226   */\n      pop\n      jump\t// out\n        /* \"#utility.yul\":11232:11375   */\n    tag_96:\n        /* \"#utility.yul\":11289:11294   */\n      0x00\n        /* \"#utility.yul\":11320:11326   */\n      dup2\n        /* \"#utility.yul\":11314:11327   */\n      mload\n        /* \"#utility.yul\":11305:11327   */\n      swap1\n      pop\n        /* \"#utility.yul\":11336:11369   */\n      tag_227\n        /* \"#utility.yul\":11363:11368   */\n      dup2\n        /* \"#utility.yul\":11336:11369   */\n      tag_95\n      jump\t// in\n    tag_227:\n        /* \"#utility.yul\":11232:11375   */\n      swap3\n      swap2\n      pop\n      pop\n      jump\t// out\n        /* \"#utility.yul\":11381:12352   */\n    tag_46:\n        /* \"#utility.yul\":11484:11490   */\n      0x00\n        /* \"#utility.yul\":11492:11498   */\n      dup1\n        /* \"#utility.yul\":11500:11506   */\n      0x00\n        /* \"#utility.yul\":11508:11514   */\n      dup1\n        /* \"#utility.yul\":11516:11522   */\n      0x00\n        /* \"#utility.yul\":11565:11568   */\n      0xa0\n        /* \"#utility.yul\":11553:11562   */\n      dup7\n        /* \"#utility.yul\":11544:11551   */\n      dup9\n        /* \"#utility.yul\":11540:11563   */\n      sub\n        /* \"#utility.yul\":11536:11569   */\n      slt\n        /* \"#utility.yul\":11533:11653   */\n      iszero\n      tag_229\n      jumpi\n        /* \"#utility.yul\":11572:11651   */\n      tag_230\n      tag_60\n      jump\t// in\n    tag_230:\n        /* \"#utility.yul\":11533:11653   */\n    tag_229:\n        /* \"#utility.yul\":11692:11693   */\n      0x00\n        /* \"#utility.yul\":11717:11780   */\n      tag_231\n        /* \"#utility.yul\":11772:11779   */\n      dup9\n        /* \"#utility.yul\":11763:11769   */\n      dup3\n        /* \"#utility.yul\":11752:11761   */\n      dup10\n        /* \"#utility.yul\":11748:11770   */\n      add\n        /* \"#utility.yul\":11717:11780   */\n      tag_91\n      jump\t// in\n    tag_231:\n        /* \"#utility.yul\":11707:11780   */\n      swap6\n      pop\n        /* \"#utility.yul\":11663:11790   */\n      pop\n        /* \"#utility.yul\":11829:11831   */\n      0x20\n        /* \"#utility.yul\":11855:11918   */\n      tag_232\n        /* \"#utility.yul\":11910:11917   */\n      dup9\n        /* \"#utility.yul\":11901:11907   */\n      dup3\n        /* \"#utility.yul\":11890:11899   */\n      dup10\n        /* \"#utility.yul\":11886:11908   */\n      add\n        /* \"#utility.yul\":11855:11918   */\n      tag_94\n      jump\t// in\n    tag_232:\n        /* \"#utility.yul\":11845:11918   */\n      swap5\n      pop\n        /* \"#utility.yul\":11800:11928   */\n      pop\n        /* \"#utility.yul\":11967:11969   */\n      0x40\n        /* \"#utility.yul\":11993:12057   */\n      tag_233\n        /* \"#utility.yul\":12049:12056   */\n      dup9\n        /* \"#utility.yul\":12040:12046   */\n      dup3\n        /* \"#utility.yul\":12029:12038   */\n      dup10\n        /* \"#utility.yul\":12025:12047   */\n      add\n        /* \"#utility.yul\":11993:12057   */\n      tag_96\n      jump\t// in\n    tag_233:\n        /* \"#utility.yul\":11983:12057   */\n      swap4\n      pop\n        /* \"#utility.yul\":11938:12067   */\n      pop\n        /* \"#utility.yul\":12106:12108   */\n      0x60\n        /* \"#utility.yul\":12132:12196   */\n      tag_234\n        /* \"#utility.yul\":12188:12195   */\n      dup9\n        /* \"#utility.yul\":12179:12185   */\n      dup3\n        /* \"#utility.yul\":12168:12177   */\n      dup10\n        /* \"#utility.yul\":12164:12186   */\n      add\n        /* \"#utility.yul\":12132:12196   */\n      tag_96\n      jump\t// in\n    tag_234:\n        /* \"#utility.yul\":12122:12196   */\n      swap3\n      pop\n        /* \"#utility.yul\":12077:12206   */\n      pop\n        /* \"#utility.yul\":12245:12248   */\n      0x80\n        /* \"#utility.yul\":12272:12335   */\n      tag_235\n        /* \"#utility.yul\":12327:12334   */\n      dup9\n        /* \"#utility.yul\":12318:12324   */\n      dup3\n        /* \"#utility.yul\":12307:12316   */\n      dup10\n        /* \"#utility.yul\":12303:12325   */\n      add\n        /* \"#utility.yul\":12272:12335   */\n      tag_91\n      jump\t// in\n    tag_235:\n        /* \"#utility.yul\":12262:12335   */\n      swap2\n      pop\n        /* \"#utility.yul\":12216:12345   */\n      pop\n        /* \"#utility.yul\":11381:12352   */\n      swap3\n      swap6\n      pop\n      swap3\n      swap6\n      swap1\n      swap4\n      pop\n      jump\t// out\n        /* \"#utility.yul\":12358:12526   */\n    tag_97:\n        /* \"#utility.yul\":12498:12518   */\n      0x496e76616c696420707269636520646174610000000000000000000000000000\n        /* \"#utility.yul\":12494:12495   */\n      0x00\n        /* \"#utility.yul\":12486:12492   */\n      dup3\n        /* \"#utility.yul\":12482:12496   */\n      add\n        /* \"#utility.yul\":12475:12519   */\n      mstore\n        /* \"#utility.yul\":12358:12526   */\n      pop\n      jump\t// out\n        /* \"#utility.yul\":12532:12898   */\n    tag_98:\n        /* \"#utility.yul\":12674:12677   */\n      0x00\n        /* \"#utility.yul\":12695:12762   */\n      tag_238\n        /* \"#utility.yul\":12759:12761   */\n      0x12\n        /* \"#utility.yul\":12754:12757   */\n      dup4\n        /* \"#utility.yul\":12695:12762   */\n      tag_55\n      jump\t// in\n    tag_238:\n        /* \"#utility.yul\":12688:12762   */\n      swap2\n      pop\n        /* \"#utility.yul\":12771:12864   */\n      tag_239\n        /* \"#utility.yul\":12860:12863   */\n      dup3\n        /* \"#utility.yul\":12771:12864   */\n      tag_97\n      jump\t// in\n    tag_239:\n        /* \"#utility.yul\":12889:12891   */\n      0x20\n        /* \"#utility.yul\":12884:12887   */\n      dup3\n        /* \"#utility.yul\":12880:12892   */\n      add\n        /* \"#utility.yul\":12873:12892   */\n      swap1\n      pop\n        /* \"#utility.yul\":12532:12898   */\n      swap2\n      swap1\n      pop\n      jump\t// out\n        /* \"#utility.yul\":12904:13323   */\n    tag_49:\n        /* \"#utility.yul\":13070:13074   */\n      0x00\n        /* \"#utility.yul\":13108:13110   */\n      0x20\n        /* \"#utility.yul\":13097:13106   */\n      dup3\n        /* \"#utility.yul\":13093:13111   */\n      add\n        /* \"#utility.yul\":13085:13111   */\n      swap1\n      pop\n        /* \"#utility.yul\":13157:13166   */\n      dup2\n        /* \"#utility.yul\":13151:13155   */\n      dup2\n        /* \"#utility.yul\":13147:13167   */\n      sub\n        /* \"#utility.yul\":13143:13144   */\n      0x00\n        /* \"#utility.yul\":13132:13141   */\n      dup4\n        /* \"#utility.yul\":13128:13145   */\n      add\n        /* \"#utility.yul\":13121:13168   */\n      mstore\n        /* \"#utility.yul\":13185:13316   */\n      tag_241\n        /* \"#utility.yul\":13311:13315   */\n      dup2\n        /* \"#utility.yul\":13185:13316   */\n      tag_98\n      jump\t// in\n    tag_241:\n        /* \"#utility.yul\":13177:13316   */\n      swap1\n      pop\n        /* \"#utility.yul\":12904:13323   */\n      swap2\n      swap1\n      pop\n      jump\t// out\n        /* \"#utility.yul\":13329:13509   */\n    tag_99:\n        /* \"#utility.yul\":13377:13454   */\n      0x4e487b7100000000000000000000000000000000000000000000000000000000\n        /* \"#utility.yul\":13374:13375   */\n      0x00\n        /* \"#utility.yul\":13367:13455   */\n      mstore\n        /* \"#utility.yul\":13474:13478   */\n      0x11\n        /* \"#utility.yul\":13471:13472   */\n      0x04\n        /* \"#utility.yul\":13464:13479   */\n      mstore\n        /* \"#utility.yul\":13498:13502   */\n      0x24\n        /* \"#utility.yul\":13495:13496   */\n      0x00\n        /* \"#utility.yul\":13488:13503   */\n      revert\n        /* \"#utility.yul\":13515:13925   */\n    tag_51:\n        /* \"#utility.yul\":13555:13562   */\n      0x00\n        /* \"#utility.yul\":13578:13598   */\n      tag_244\n        /* \"#utility.yul\":13596:13597   */\n      dup3\n        /* \"#utility.yul\":13578:13598   */\n      tag_75\n      jump\t// in\n    tag_244:\n        /* \"#utility.yul\":13573:13598   */\n      swap2\n      pop\n        /* \"#utility.yul\":13612:13632   */\n      tag_245\n        /* \"#utility.yul\":13630:13631   */\n      dup4\n        /* \"#utility.yul\":13612:13632   */\n      tag_75\n      jump\t// in\n    tag_245:\n        /* \"#utility.yul\":13607:13632   */\n      swap3\n      pop\n        /* \"#utility.yul\":13667:13668   */\n      dup3\n        /* \"#utility.yul\":13664:13665   */\n      dup3\n        /* \"#utility.yul\":13660:13669   */\n      mul\n        /* \"#utility.yul\":13689:13719   */\n      tag_246\n        /* \"#utility.yul\":13707:13718   */\n      dup2\n        /* \"#utility.yul\":13689:13719   */\n      tag_75\n      jump\t// in\n    tag_246:\n        /* \"#utility.yul\":13678:13719   */\n      swap2\n      pop\n        /* \"#utility.yul\":13868:13869   */\n      dup3\n        /* \"#utility.yul\":13859:13866   */\n      dup3\n        /* \"#utility.yul\":13855:13870   */\n      div\n        /* \"#utility.yul\":13852:13853   */\n      dup5\n        /* \"#utility.yul\":13849:13871   */\n      eq\n        /* \"#utility.yul\":13829:13830   */\n      dup4\n        /* \"#utility.yul\":13822:13831   */\n      iszero\n        /* \"#utility.yul\":13802:13885   */\n      or\n        /* \"#utility.yul\":13779:13918   */\n      tag_247\n      jumpi\n        /* \"#utility.yul\":13898:13916   */\n      tag_248\n      tag_99\n      jump\t// in\n    tag_248:\n        /* \"#utility.yul\":13779:13918   */\n    tag_247:\n        /* \"#utility.yul\":13563:13925   */\n      pop\n        /* \"#utility.yul\":13515:13925   */\n      swap3\n      swap2\n      pop\n      pop\n      jump\t// out\n        /* \"#utility.yul\":13931:14111   */\n    tag_100:\n        /* \"#utility.yul\":13979:14056   */\n      0x4e487b7100000000000000000000000000000000000000000000000000000000\n        /* \"#utility.yul\":13976:13977   */\n      0x00\n        /* \"#utility.yul\":13969:14057   */\n      mstore\n        /* \"#utility.yul\":14076:14080   */\n      0x12\n        /* \"#utility.yul\":14073:14074   */\n      0x04\n        /* \"#utility.yul\":14066:14081   */\n      mstore\n        /* \"#utility.yul\":14100:14104   */\n      0x24\n        /* \"#utility.yul\":14097:14098   */\n      0x00\n        /* \"#utility.yul\":14090:14105   */\n      revert\n        /* \"#utility.yul\":14117:14302   */\n    tag_53:\n        /* \"#utility.yul\":14157:14158   */\n      0x00\n        /* \"#utility.yul\":14174:14194   */\n      tag_251\n        /* \"#utility.yul\":14192:14193   */\n      dup3\n        /* \"#utility.yul\":14174:14194   */\n      tag_75\n      jump\t// in\n    tag_251:\n        /* \"#utility.yul\":14169:14194   */\n      swap2\n      pop\n        /* \"#utility.yul\":14208:14228   */\n      tag_252\n        /* \"#utility.yul\":14226:14227   */\n      dup4\n        /* \"#utility.yul\":14208:14228   */\n      tag_75\n      jump\t// in\n    tag_252:\n        /* \"#utility.yul\":14203:14228   */\n      swap3\n      pop\n        /* \"#utility.yul\":14247:14248   */\n      dup3\n        /* \"#utility.yul\":14237:14272   */\n      tag_253\n      jumpi\n        /* \"#utility.yul\":14252:14270   */\n      tag_254\n      tag_100\n      jump\t// in\n    tag_254:\n        /* \"#utility.yul\":14237:14272   */\n    tag_253:\n        /* \"#utility.yul\":14294:14295   */\n      dup3\n        /* \"#utility.yul\":14291:14292   */\n      dup3\n        /* \"#utility.yul\":14287:14296   */\n      div\n        /* \"#utility.yul\":14282:14296   */\n      swap1\n      pop\n        /* \"#utility.yul\":14117:14302   */\n      swap3\n      swap2\n      pop\n      pop\n      jump\t// out\n\n    auxdata: 0xa26469706673582212208a73b204c4c647f90c514ecff2dae8579d93a9c7c2cdfeb0e8bee88f298e1d6d64736f6c634300081a0033\n}\n",
				"bytecode": {
					"linkReferences": {},
					"object": "60806040526040518060400160405280600381526020017f5553440000000000000000000000000000000000000000000000000000000000815250600190816100489190610507565b50348015610054575f80fd5b506040516113c53803806113c583398181016040528101906100769190610634565b805f806101000a81548173ffffffffffffffffffffffffffffffffffffffff021916908373ffffffffffffffffffffffffffffffffffffffff1602179055507391fab41f5f3be955963a986366edacff1aaeaa8360026040516100d8906106b3565b90815260200160405180910390205f6101000a81548173ffffffffffffffffffffffffffffffffffffffff021916908373ffffffffffffffffffffffffffffffffffffffff160217905550731a81afb8146aeffcfc5e50e8479e826e7d55b910600260405161014690610711565b90815260200160405180910390205f6101000a81548173ffffffffffffffffffffffffffffffffffffffff021916908373ffffffffffffffffffffffffffffffffffffffff160217905550738a6af2b75f23831adc973ce6288e5329f63d86c660026040516101b49061076f565b90815260200160405180910390205f6101000a81548173ffffffffffffffffffffffffffffffffffffffff021916908373ffffffffffffffffffffffffffffffffffffffff16021790555073694aa1769357215de4fac081bf1f309adc3253066002604051610222906107cd565b90815260200160405180910390205f6101000a81548173ffffffffffffffffffffffffffffffffffffffff021916908373ffffffffffffffffffffffffffffffffffffffff1602179055505f600260405161027c9061082b565b90815260200160405180910390205f6101000a81548173ffffffffffffffffffffffffffffffffffffffff021916908373ffffffffffffffffffffffffffffffffffffffff1602179055505061083f565b5f81519050919050565b7f4e487b71000000000000000000000000000000000000000000000000000000005f52604160045260245ffd5b7f4e487b71000000000000000000000000000000000000000000000000000000005f52602260045260245ffd5b5f600282049050600182168061034857607f821691505b60208210810361035b5761035a610304565b5b50919050565b5f819050815f5260205f209050919050565b5f6020601f8301049050919050565b5f82821b905092915050565b5f600883026103bd7fffffffffffffffffffffffffffffffffffffffffffffffffffffffffffffffff82610382565b6103c78683610382565b95508019841693508086168417925050509392505050565b5f819050919050565b5f819050919050565b5f61040b610406610401846103df565b6103e8565b6103df565b9050919050565b5f819050919050565b610424836103f1565b61043861043082610412565b84845461038e565b825550505050565b5f90565b61044c610440565b61045781848461041b565b505050565b5b8181101561047a5761046f5f82610444565b60018101905061045d565b5050565b601f8211156104bf5761049081610361565b61049984610373565b810160208510156104a8578190505b6104bc6104b485610373565b83018261045c565b50505b505050565b5f82821c905092915050565b5f6104df5f19846008026104c4565b1980831691505092915050565b5f6104f783836104d0565b9150826002028217905092915050565b610510826102cd565b67ffffffffffffffff811115610529576105286102d7565b5b6105338254610331565b61053e82828561047e565b5f60209050601f83116001811461056f575f841561055d578287015190505b61056785826104ec565b8655506105ce565b601f19841661057d86610361565b5f5b828110156105a45784890151825560018201915060208501945060208101905061057f565b868310156105c157848901516105bd601f8916826104d0565b8355505b6001600288020188555050505b505050505050565b5f80fd5b5f73ffffffffffffffffffffffffffffffffffffffff82169050919050565b5f610603826105da565b9050919050565b610613816105f9565b811461061d575f80fd5b50565b5f8151905061062e8161060a565b92915050565b5f60208284031215610649576106486105d6565b5b5f61065684828501610620565b91505092915050565b5f81905092915050565b7f47425000000000000000000000000000000000000000000000000000000000005f82015250565b5f61069d60038361065f565b91506106a882610669565b600382019050919050565b5f6106bd82610691565b9150819050919050565b7f45555200000000000000000000000000000000000000000000000000000000005f82015250565b5f6106fb60038361065f565b9150610706826106c7565b600382019050919050565b5f61071b826106ef565b9150819050919050565b7f4a505900000000000000000000000000000000000000000000000000000000005f82015250565b5f61075960038361065f565b915061076482610725565b600382019050919050565b5f6107798261074d565b9150819050919050565b7f45544800000000000000000000000000000000000000000000000000000000005f82015250565b5f6107b760038361065f565b91506107c282610783565b600382019050919050565b5f6107d7826107ab565b9150819050919050565b7f55534400000000000000000000000000000000000000000000000000000000005f82015250565b5f61081560038361065f565b9150610820826107e1565b600382019050919050565b5f61083582610809565b9150819050919050565b610b798061084c5f395ff3fe608060405234801561000f575f80fd5b506004361061004a575f3560e01c806392a85fde1461004e578063f3b3347e1461006c578063f4b5431414610088578063fc0c546a146100b8575b5f80fd5b6100566100d6565b6040516100639190610443565b60405180910390f35b610086600480360381019061008191906105fa565b610162565b005b6100a2600480360381019061009d9190610654565b6101c2565b6040516100af91906106b3565b60405180910390f35b6100c06103b0565b6040516100cd9190610727565b60405180910390f35b600180546100e39061076d565b80601f016020809104026020016040519081016040528092919081815260200182805461010f9061076d565b801561015a5780601f106101315761010080835404028352916020019161015a565b820191905f5260205f20905b81548152906001019060200180831161013d57829003601f168201915b505050505081565b8060028360405161017391906107d7565b90815260200160405180910390205f6101000a81548173ffffffffffffffffffffffffffffffffffffffff021916908373ffffffffffffffffffffffffffffffffffffffff1602179055505050565b5f60016040516020016101d5919061087f565b60405160208183030381529060405280519060200120826040516020016101fc91906107d7565b604051602081830303815290604052805190602001200361022057606490506103ab565b5f60028360405161023191906107d7565b90815260200160405180910390205f9054906101000a900473ffffffffffffffffffffffffffffffffffffffff1690505f73ffffffffffffffffffffffffffffffffffffffff168173ffffffffffffffffffffffffffffffffffffffff16036102cf576040517f08c379a00000000000000000000000000000000000000000000000000000000081526004016102c6906108df565b60405180910390fd5b5f8173ffffffffffffffffffffffffffffffffffffffff1663feaf968c6040518163ffffffff1660e01b815260040160a060405180830381865afa158015610319573d5f803e3d5ffd5b505050506040513d601f19601f8201168201806040525081019061033d9190610999565b5050509150505f8113610385576040517f08c379a000000000000000000000000000000000000000000000000000000000815260040161037c90610a5a565b60405180910390fd5b5f8190506305f5e10060648261039b9190610aa5565b6103a59190610b13565b93505050505b919050565b5f8054906101000a900473ffffffffffffffffffffffffffffffffffffffff1681565b5f81519050919050565b5f82825260208201905092915050565b8281835e5f83830152505050565b5f601f19601f8301169050919050565b5f610415826103d3565b61041f81856103dd565b935061042f8185602086016103ed565b610438816103fb565b840191505092915050565b5f6020820190508181035f83015261045b818461040b565b905092915050565b5f604051905090565b5f80fd5b5f80fd5b5f80fd5b5f80fd5b7f4e487b71000000000000000000000000000000000000000000000000000000005f52604160045260245ffd5b6104b2826103fb565b810181811067ffffffffffffffff821117156104d1576104d061047c565b5b80604052505050565b5f6104e3610463565b90506104ef82826104a9565b919050565b5f67ffffffffffffffff82111561050e5761050d61047c565b5b610517826103fb565b9050602081019050919050565b828183375f83830152505050565b5f61054461053f846104f4565b6104da565b9050828152602081018484840111156105605761055f610478565b5b61056b848285610524565b509392505050565b5f82601f83011261058757610586610474565b5b8135610597848260208601610532565b91505092915050565b5f73ffffffffffffffffffffffffffffffffffffffff82169050919050565b5f6105c9826105a0565b9050919050565b6105d9816105bf565b81146105e3575f80fd5b50565b5f813590506105f4816105d0565b92915050565b5f80604083850312156106105761060f61046c565b5b5f83013567ffffffffffffffff81111561062d5761062c610470565b5b61063985828601610573565b925050602061064a858286016105e6565b9150509250929050565b5f602082840312156106695761066861046c565b5b5f82013567ffffffffffffffff81111561068657610685610470565b5b61069284828501610573565b91505092915050565b5f819050919050565b6106ad8161069b565b82525050565b5f6020820190506106c65f8301846106a4565b92915050565b5f819050919050565b5f6106ef6106ea6106e5846105a0565b6106cc565b6105a0565b9050919050565b5f610700826106d5565b9050919050565b5f610711826106f6565b9050919050565b61072181610707565b82525050565b5f60208201905061073a5f830184610718565b92915050565b7f4e487b71000000000000000000000000000000000000000000000000000000005f52602260045260245ffd5b5f600282049050600182168061078457607f821691505b60208210810361079757610796610740565b5b50919050565b5f81905092915050565b5f6107b1826103d3565b6107bb818561079d565b93506107cb8185602086016103ed565b80840191505092915050565b5f6107e282846107a7565b915081905092915050565b5f819050815f5260205f209050919050565b5f815461080b8161076d565b610815818661079d565b9450600182165f811461082f576001811461084457610876565b60ff1983168652811515820286019350610876565b61084d856107ed565b5f5b8381101561086e5781548189015260018201915060208101905061084f565b838801955050505b50505092915050565b5f61088a82846107ff565b915081905092915050565b7f50726963652066656564206e6f742073657420666f722063757272656e6379005f82015250565b5f6108c9601f836103dd565b91506108d482610895565b602082019050919050565b5f6020820190508181035f8301526108f6816108bd565b9050919050565b5f69ffffffffffffffffffff82169050919050565b61091b816108fd565b8114610925575f80fd5b50565b5f8151905061093681610912565b92915050565b5f819050919050565b61094e8161093c565b8114610958575f80fd5b50565b5f8151905061096981610945565b92915050565b6109788161069b565b8114610982575f80fd5b50565b5f815190506109938161096f565b92915050565b5f805f805f60a086880312156109b2576109b161046c565b5b5f6109bf88828901610928565b95505060206109d08882890161095b565b94505060406109e188828901610985565b93505060606109f288828901610985565b9250506080610a0388828901610928565b9150509295509295909350565b7f496e76616c6964207072696365206461746100000000000000000000000000005f82015250565b5f610a446012836103dd565b9150610a4f82610a10565b602082019050919050565b5f6020820190508181035f830152610a7181610a38565b9050919050565b7f4e487b71000000000000000000000000000000000000000000000000000000005f52601160045260245ffd5b5f610aaf8261069b565b9150610aba8361069b565b9250828202610ac88161069b565b91508282048414831517610adf57610ade610a78565b5b5092915050565b7f4e487b71000000000000000000000000000000000000000000000000000000005f52601260045260245ffd5b5f610b1d8261069b565b9150610b288361069b565b925082610b3857610b37610ae6565b5b82820490509291505056fea26469706673582212208a73b204c4c647f90c514ecff2dae8579d93a9c7c2cdfeb0e8bee88f298e1d6d64736f6c634300081a0033",
					"opcodes": "PUSH1 0x80 PUSH1 0x40 MSTORE PUSH1 0x40 MLOAD DUP1 PUSH1 0x40 ADD PUSH1 0x40 MSTORE DUP1 PUSH1 0x3 DUP2 MSTORE PUSH1 0x20 ADD PUSH32 0x5553440000000000000000000000000000000000000000000000000000000000 DUP2 MSTORE POP PUSH1 0x1 SWAP1 DUP2 PUSH2 0x48 SWAP2 SWAP1 PUSH2 0x507 JUMP JUMPDEST POP CALLVALUE DUP1 ISZERO PUSH2 0x54 JUMPI PUSH0 DUP1 REVERT JUMPDEST POP PUSH1 0x40 MLOAD PUSH2 0x13C5 CODESIZE SUB DUP1 PUSH2 0x13C5 DUP4 CODECOPY DUP2 DUP2 ADD PUSH1 0x40 MSTORE DUP2 ADD SWAP1 PUSH2 0x76 SWAP2 SWAP1 PUSH2 0x634 JUMP JUMPDEST DUP1 PUSH0 DUP1 PUSH2 0x100 EXP DUP2 SLOAD DUP2 PUSH20 0xFFFFFFFFFFFFFFFFFFFFFFFFFFFFFFFFFFFFFFFF MUL NOT AND SWAP1 DUP4 PUSH20 0xFFFFFFFFFFFFFFFFFFFFFFFFFFFFFFFFFFFFFFFF AND MUL OR SWAP1 SSTORE POP PUSH20 0x91FAB41F5F3BE955963A986366EDACFF1AAEAA83 PUSH1 0x2 PUSH1 0x40 MLOAD PUSH2 0xD8 SWAP1 PUSH2 0x6B3 JUMP JUMPDEST SWAP1 DUP2 MSTORE PUSH1 0x20 ADD PUSH1 0x40 MLOAD DUP1 SWAP2 SUB SWAP1 KECCAK256 PUSH0 PUSH2 0x100 EXP DUP2 SLOAD DUP2 PUSH20 0xFFFFFFFFFFFFFFFFFFFFFFFFFFFFFFFFFFFFFFFF MUL NOT AND SWAP1 DUP4 PUSH20 0xFFFFFFFFFFFFFFFFFFFFFFFFFFFFFFFFFFFFFFFF AND MUL OR SWAP1 SSTORE POP PUSH20 0x1A81AFB8146AEFFCFC5E50E8479E826E7D55B910 PUSH1 0x2 PUSH1 0x40 MLOAD PUSH2 0x146 SWAP1 PUSH2 0x711 JUMP JUMPDEST SWAP1 DUP2 MSTORE PUSH1 0x20 ADD PUSH1 0x40 MLOAD DUP1 SWAP2 SUB SWAP1 KECCAK256 PUSH0 PUSH2 0x100 EXP DUP2 SLOAD DUP2 PUSH20 0xFFFFFFFFFFFFFFFFFFFFFFFFFFFFFFFFFFFFFFFF MUL NOT AND SWAP1 DUP4 PUSH20 0xFFFFFFFFFFFFFFFFFFFFFFFFFFFFFFFFFFFFFFFF AND MUL OR SWAP1 SSTORE POP PUSH20 0x8A6AF2B75F23831ADC973CE6288E5329F63D86C6 PUSH1 0x2 PUSH1 0x40 MLOAD PUSH2 0x1B4 SWAP1 PUSH2 0x76F JUMP JUMPDEST SWAP1 DUP2 MSTORE PUSH1 0x20 ADD PUSH1 0x40 MLOAD DUP1 SWAP2 SUB SWAP1 KECCAK256 PUSH0 PUSH2 0x100 EXP DUP2 SLOAD DUP2 PUSH20 0xFFFFFFFFFFFFFFFFFFFFFFFFFFFFFFFFFFFFFFFF MUL NOT AND SWAP1 DUP4 PUSH20 0xFFFFFFFFFFFFFFFFFFFFFFFFFFFFFFFFFFFFFFFF AND MUL OR SWAP1 SSTORE POP PUSH20 0x694AA1769357215DE4FAC081BF1F309ADC325306 PUSH1 0x2 PUSH1 0x40 MLOAD PUSH2 0x222 SWAP1 PUSH2 0x7CD JUMP JUMPDEST SWAP1 DUP2 MSTORE PUSH1 0x20 ADD PUSH1 0x40 MLOAD DUP1 SWAP2 SUB SWAP1 KECCAK256 PUSH0 PUSH2 0x100 EXP DUP2 SLOAD DUP2 PUSH20 0xFFFFFFFFFFFFFFFFFFFFFFFFFFFFFFFFFFFFFFFF MUL NOT AND SWAP1 DUP4 PUSH20 0xFFFFFFFFFFFFFFFFFFFFFFFFFFFFFFFFFFFFFFFF AND MUL OR SWAP1 SSTORE POP PUSH0 PUSH1 0x2 PUSH1 0x40 MLOAD PUSH2 0x27C SWAP1 PUSH2 0x82B JUMP JUMPDEST SWAP1 DUP2 MSTORE PUSH1 0x20 ADD PUSH1 0x40 MLOAD DUP1 SWAP2 SUB SWAP1 KECCAK256 PUSH0 PUSH2 0x100 EXP DUP2 SLOAD DUP2 PUSH20 0xFFFFFFFFFFFFFFFFFFFFFFFFFFFFFFFFFFFFFFFF MUL NOT AND SWAP1 DUP4 PUSH20 0xFFFFFFFFFFFFFFFFFFFFFFFFFFFFFFFFFFFFFFFF AND MUL OR SWAP1 SSTORE POP POP PUSH2 0x83F JUMP JUMPDEST PUSH0 DUP2 MLOAD SWAP1 POP SWAP2 SWAP1 POP JUMP JUMPDEST PUSH32 0x4E487B7100000000000000000000000000000000000000000000000000000000 PUSH0 MSTORE PUSH1 0x41 PUSH1 0x4 MSTORE PUSH1 0x24 PUSH0 REVERT JUMPDEST PUSH32 0x4E487B7100000000000000000000000000000000000000000000000000000000 PUSH0 MSTORE PUSH1 0x22 PUSH1 0x4 MSTORE PUSH1 0x24 PUSH0 REVERT JUMPDEST PUSH0 PUSH1 0x2 DUP3 DIV SWAP1 POP PUSH1 0x1 DUP3 AND DUP1 PUSH2 0x348 JUMPI PUSH1 0x7F DUP3 AND SWAP2 POP JUMPDEST PUSH1 0x20 DUP3 LT DUP2 SUB PUSH2 0x35B JUMPI PUSH2 0x35A PUSH2 0x304 JUMP JUMPDEST JUMPDEST POP SWAP2 SWAP1 POP JUMP JUMPDEST PUSH0 DUP2 SWAP1 POP DUP2 PUSH0 MSTORE PUSH1 0x20 PUSH0 KECCAK256 SWAP1 POP SWAP2 SWAP1 POP JUMP JUMPDEST PUSH0 PUSH1 0x20 PUSH1 0x1F DUP4 ADD DIV SWAP1 POP SWAP2 SWAP1 POP JUMP JUMPDEST PUSH0 DUP3 DUP3 SHL SWAP1 POP SWAP3 SWAP2 POP POP JUMP JUMPDEST PUSH0 PUSH1 0x8 DUP4 MUL PUSH2 0x3BD PUSH32 0xFFFFFFFFFFFFFFFFFFFFFFFFFFFFFFFFFFFFFFFFFFFFFFFFFFFFFFFFFFFFFFFF DUP3 PUSH2 0x382 JUMP JUMPDEST PUSH2 0x3C7 DUP7 DUP4 PUSH2 0x382 JUMP JUMPDEST SWAP6 POP DUP1 NOT DUP5 AND SWAP4 POP DUP1 DUP7 AND DUP5 OR SWAP3 POP POP POP SWAP4 SWAP3 POP POP POP JUMP JUMPDEST PUSH0 DUP2 SWAP1 POP SWAP2 SWAP1 POP JUMP JUMPDEST PUSH0 DUP2 SWAP1 POP SWAP2 SWAP1 POP JUMP JUMPDEST PUSH0 PUSH2 0x40B PUSH2 0x406 PUSH2 0x401 DUP5 PUSH2 0x3DF JUMP JUMPDEST PUSH2 0x3E8 JUMP JUMPDEST PUSH2 0x3DF JUMP JUMPDEST SWAP1 POP SWAP2 SWAP1 POP JUMP JUMPDEST PUSH0 DUP2 SWAP1 POP SWAP2 SWAP1 POP JUMP JUMPDEST PUSH2 0x424 DUP4 PUSH2 0x3F1 JUMP JUMPDEST PUSH2 0x438 PUSH2 0x430 DUP3 PUSH2 0x412 JUMP JUMPDEST DUP5 DUP5 SLOAD PUSH2 0x38E JUMP JUMPDEST DUP3 SSTORE POP POP POP POP JUMP JUMPDEST PUSH0 SWAP1 JUMP JUMPDEST PUSH2 0x44C PUSH2 0x440 JUMP JUMPDEST PUSH2 0x457 DUP2 DUP5 DUP5 PUSH2 0x41B JUMP JUMPDEST POP POP POP JUMP JUMPDEST JUMPDEST DUP2 DUP2 LT ISZERO PUSH2 0x47A JUMPI PUSH2 0x46F PUSH0 DUP3 PUSH2 0x444 JUMP JUMPDEST PUSH1 0x1 DUP2 ADD SWAP1 POP PUSH2 0x45D JUMP JUMPDEST POP POP JUMP JUMPDEST PUSH1 0x1F DUP3 GT ISZERO PUSH2 0x4BF JUMPI PUSH2 0x490 DUP2 PUSH2 0x361 JUMP JUMPDEST PUSH2 0x499 DUP5 PUSH2 0x373 JUMP JUMPDEST DUP2 ADD PUSH1 0x20 DUP6 LT ISZERO PUSH2 0x4A8 JUMPI DUP2 SWAP1 POP JUMPDEST PUSH2 0x4BC PUSH2 0x4B4 DUP6 PUSH2 0x373 JUMP JUMPDEST DUP4 ADD DUP3 PUSH2 0x45C JUMP JUMPDEST POP POP JUMPDEST POP POP POP JUMP JUMPDEST PUSH0 DUP3 DUP3 SHR SWAP1 POP SWAP3 SWAP2 POP POP JUMP JUMPDEST PUSH0 PUSH2 0x4DF PUSH0 NOT DUP5 PUSH1 0x8 MUL PUSH2 0x4C4 JUMP JUMPDEST NOT DUP1 DUP4 AND SWAP2 POP POP SWAP3 SWAP2 POP POP JUMP JUMPDEST PUSH0 PUSH2 0x4F7 DUP4 DUP4 PUSH2 0x4D0 JUMP JUMPDEST SWAP2 POP DUP3 PUSH1 0x2 MUL DUP3 OR SWAP1 POP SWAP3 SWAP2 POP POP JUMP JUMPDEST PUSH2 0x510 DUP3 PUSH2 0x2CD JUMP JUMPDEST PUSH8 0xFFFFFFFFFFFFFFFF DUP2 GT ISZERO PUSH2 0x529 JUMPI PUSH2 0x528 PUSH2 0x2D7 JUMP JUMPDEST JUMPDEST PUSH2 0x533 DUP3 SLOAD PUSH2 0x331 JUMP JUMPDEST PUSH2 0x53E DUP3 DUP3 DUP6 PUSH2 0x47E JUMP JUMPDEST PUSH0 PUSH1 0x20 SWAP1 POP PUSH1 0x1F DUP4 GT PUSH1 0x1 DUP2 EQ PUSH2 0x56F JUMPI PUSH0 DUP5 ISZERO PUSH2 0x55D JUMPI DUP3 DUP8 ADD MLOAD SWAP1 POP JUMPDEST PUSH2 0x567 DUP6 DUP3 PUSH2 0x4EC JUMP JUMPDEST DUP7 SSTORE POP PUSH2 0x5CE JUMP JUMPDEST PUSH1 0x1F NOT DUP5 AND PUSH2 0x57D DUP7 PUSH2 0x361 JUMP JUMPDEST PUSH0 JUMPDEST DUP3 DUP2 LT ISZERO PUSH2 0x5A4 JUMPI DUP5 DUP10 ADD MLOAD DUP3 SSTORE PUSH1 0x1 DUP3 ADD SWAP2 POP PUSH1 0x20 DUP6 ADD SWAP5 POP PUSH1 0x20 DUP2 ADD SWAP1 POP PUSH2 0x57F JUMP JUMPDEST DUP7 DUP4 LT ISZERO PUSH2 0x5C1 JUMPI DUP5 DUP10 ADD MLOAD PUSH2 0x5BD PUSH1 0x1F DUP10 AND DUP3 PUSH2 0x4D0 JUMP JUMPDEST DUP4 SSTORE POP JUMPDEST PUSH1 0x1 PUSH1 0x2 DUP9 MUL ADD DUP9 SSTORE POP POP POP JUMPDEST POP POP POP POP POP POP JUMP JUMPDEST PUSH0 DUP1 REVERT JUMPDEST PUSH0 PUSH20 0xFFFFFFFFFFFFFFFFFFFFFFFFFFFFFFFFFFFFFFFF DUP3 AND SWAP1 POP SWAP2 SWAP1 POP JUMP JUMPDEST PUSH0 PUSH2 0x603 DUP3 PUSH2 0x5DA JUMP JUMPDEST SWAP1 POP SWAP2 SWAP1 POP JUMP JUMPDEST PUSH2 0x613 DUP2 PUSH2 0x5F9 JUMP JUMPDEST DUP2 EQ PUSH2 0x61D JUMPI PUSH0 DUP1 REVERT JUMPDEST POP JUMP JUMPDEST PUSH0 DUP2 MLOAD SWAP1 POP PUSH2 0x62E DUP2 PUSH2 0x60A JUMP JUMPDEST SWAP3 SWAP2 POP POP JUMP JUMPDEST PUSH0 PUSH1 0x20 DUP3 DUP5 SUB SLT ISZERO PUSH2 0x649 JUMPI PUSH2 0x648 PUSH2 0x5D6 JUMP JUMPDEST JUMPDEST PUSH0 PUSH2 0x656 DUP5 DUP3 DUP6 ADD PUSH2 0x620 JUMP JUMPDEST SWAP2 POP POP SWAP3 SWAP2 POP POP JUMP JUMPDEST PUSH0 DUP2 SWAP1 POP SWAP3 SWAP2 POP POP JUMP JUMPDEST PUSH32 0x4742500000000000000000000000000000000000000000000000000000000000 PUSH0 DUP3 ADD MSTORE POP JUMP JUMPDEST PUSH0 PUSH2 0x69D PUSH1 0x3 DUP4 PUSH2 0x65F JUMP JUMPDEST SWAP2 POP PUSH2 0x6A8 DUP3 PUSH2 0x669 JUMP JUMPDEST PUSH1 0x3 DUP3 ADD SWAP1 POP SWAP2 SWAP1 POP JUMP JUMPDEST PUSH0 PUSH2 0x6BD DUP3 PUSH2 0x691 JUMP JUMPDEST SWAP2 POP DUP2 SWAP1 POP SWAP2 SWAP1 POP JUMP JUMPDEST PUSH32 0x4555520000000000000000000000000000000000000000000000000000000000 PUSH0 DUP3 ADD MSTORE POP JUMP JUMPDEST PUSH0 PUSH2 0x6FB PUSH1 0x3 DUP4 PUSH2 0x65F JUMP JUMPDEST SWAP2 POP PUSH2 0x706 DUP3 PUSH2 0x6C7 JUMP JUMPDEST PUSH1 0x3 DUP3 ADD SWAP1 POP SWAP2 SWAP1 POP JUMP JUMPDEST PUSH0 PUSH2 0x71B DUP3 PUSH2 0x6EF JUMP JUMPDEST SWAP2 POP DUP2 SWAP1 POP SWAP2 SWAP1 POP JUMP JUMPDEST PUSH32 0x4A50590000000000000000000000000000000000000000000000000000000000 PUSH0 DUP3 ADD MSTORE POP JUMP JUMPDEST PUSH0 PUSH2 0x759 PUSH1 0x3 DUP4 PUSH2 0x65F JUMP JUMPDEST SWAP2 POP PUSH2 0x764 DUP3 PUSH2 0x725 JUMP JUMPDEST PUSH1 0x3 DUP3 ADD SWAP1 POP SWAP2 SWAP1 POP JUMP JUMPDEST PUSH0 PUSH2 0x779 DUP3 PUSH2 0x74D JUMP JUMPDEST SWAP2 POP DUP2 SWAP1 POP SWAP2 SWAP1 POP JUMP JUMPDEST PUSH32 0x4554480000000000000000000000000000000000000000000000000000000000 PUSH0 DUP3 ADD MSTORE POP JUMP JUMPDEST PUSH0 PUSH2 0x7B7 PUSH1 0x3 DUP4 PUSH2 0x65F JUMP JUMPDEST SWAP2 POP PUSH2 0x7C2 DUP3 PUSH2 0x783 JUMP JUMPDEST PUSH1 0x3 DUP3 ADD SWAP1 POP SWAP2 SWAP1 POP JUMP JUMPDEST PUSH0 PUSH2 0x7D7 DUP3 PUSH2 0x7AB JUMP JUMPDEST SWAP2 POP DUP2 SWAP1 POP SWAP2 SWAP1 POP JUMP JUMPDEST PUSH32 0x5553440000000000000000000000000000000000000000000000000000000000 PUSH0 DUP3 ADD MSTORE POP JUMP JUMPDEST PUSH0 PUSH2 0x815 PUSH1 0x3 DUP4 PUSH2 0x65F JUMP JUMPDEST SWAP2 POP PUSH2 0x820 DUP3 PUSH2 0x7E1 JUMP JUMPDEST PUSH1 0x3 DUP3 ADD SWAP1 POP SWAP2 SWAP1 POP JUMP JUMPDEST PUSH0 PUSH2 0x835 DUP3 PUSH2 0x809 JUMP JUMPDEST SWAP2 POP DUP2 SWAP1 POP SWAP2 SWAP1 POP JUMP JUMPDEST PUSH2 0xB79 DUP1 PUSH2 0x84C PUSH0 CODECOPY PUSH0 RETURN INVALID PUSH1 0x80 PUSH1 0x40 MSTORE CALLVALUE DUP1 ISZERO PUSH2 0xF JUMPI PUSH0 DUP1 REVERT JUMPDEST POP PUSH1 0x4 CALLDATASIZE LT PUSH2 0x4A JUMPI PUSH0 CALLDATALOAD PUSH1 0xE0 SHR DUP1 PUSH4 0x92A85FDE EQ PUSH2 0x4E JUMPI DUP1 PUSH4 0xF3B3347E EQ PUSH2 0x6C JUMPI DUP1 PUSH4 0xF4B54314 EQ PUSH2 0x88 JUMPI DUP1 PUSH4 0xFC0C546A EQ PUSH2 0xB8 JUMPI JUMPDEST PUSH0 DUP1 REVERT JUMPDEST PUSH2 0x56 PUSH2 0xD6 JUMP JUMPDEST PUSH1 0x40 MLOAD PUSH2 0x63 SWAP2 SWAP1 PUSH2 0x443 JUMP JUMPDEST PUSH1 0x40 MLOAD DUP1 SWAP2 SUB SWAP1 RETURN JUMPDEST PUSH2 0x86 PUSH1 0x4 DUP1 CALLDATASIZE SUB DUP2 ADD SWAP1 PUSH2 0x81 SWAP2 SWAP1 PUSH2 0x5FA JUMP JUMPDEST PUSH2 0x162 JUMP JUMPDEST STOP JUMPDEST PUSH2 0xA2 PUSH1 0x4 DUP1 CALLDATASIZE SUB DUP2 ADD SWAP1 PUSH2 0x9D SWAP2 SWAP1 PUSH2 0x654 JUMP JUMPDEST PUSH2 0x1C2 JUMP JUMPDEST PUSH1 0x40 MLOAD PUSH2 0xAF SWAP2 SWAP1 PUSH2 0x6B3 JUMP JUMPDEST PUSH1 0x40 MLOAD DUP1 SWAP2 SUB SWAP1 RETURN JUMPDEST PUSH2 0xC0 PUSH2 0x3B0 JUMP JUMPDEST PUSH1 0x40 MLOAD PUSH2 0xCD SWAP2 SWAP1 PUSH2 0x727 JUMP JUMPDEST PUSH1 0x40 MLOAD DUP1 SWAP2 SUB SWAP1 RETURN JUMPDEST PUSH1 0x1 DUP1 SLOAD PUSH2 0xE3 SWAP1 PUSH2 0x76D JUMP JUMPDEST DUP1 PUSH1 0x1F ADD PUSH1 0x20 DUP1 SWAP2 DIV MUL PUSH1 0x20 ADD PUSH1 0x40 MLOAD SWAP1 DUP2 ADD PUSH1 0x40 MSTORE DUP1 SWAP3 SWAP2 SWAP1 DUP2 DUP2 MSTORE PUSH1 0x20 ADD DUP3 DUP1 SLOAD PUSH2 0x10F SWAP1 PUSH2 0x76D JUMP JUMPDEST DUP1 ISZERO PUSH2 0x15A JUMPI DUP1 PUSH1 0x1F LT PUSH2 0x131 JUMPI PUSH2 0x100 DUP1 DUP4 SLOAD DIV MUL DUP4 MSTORE SWAP2 PUSH1 0x20 ADD SWAP2 PUSH2 0x15A JUMP JUMPDEST DUP3 ADD SWAP2 SWAP1 PUSH0 MSTORE PUSH1 0x20 PUSH0 KECCAK256 SWAP1 JUMPDEST DUP2 SLOAD DUP2 MSTORE SWAP1 PUSH1 0x1 ADD SWAP1 PUSH1 0x20 ADD DUP1 DUP4 GT PUSH2 0x13D JUMPI DUP3 SWAP1 SUB PUSH1 0x1F AND DUP3 ADD SWAP2 JUMPDEST POP POP POP POP POP DUP2 JUMP JUMPDEST DUP1 PUSH1 0x2 DUP4 PUSH1 0x40 MLOAD PUSH2 0x173 SWAP2 SWAP1 PUSH2 0x7D7 JUMP JUMPDEST SWAP1 DUP2 MSTORE PUSH1 0x20 ADD PUSH1 0x40 MLOAD DUP1 SWAP2 SUB SWAP1 KECCAK256 PUSH0 PUSH2 0x100 EXP DUP2 SLOAD DUP2 PUSH20 0xFFFFFFFFFFFFFFFFFFFFFFFFFFFFFFFFFFFFFFFF MUL NOT AND SWAP1 DUP4 PUSH20 0xFFFFFFFFFFFFFFFFFFFFFFFFFFFFFFFFFFFFFFFF AND MUL OR SWAP1 SSTORE POP POP POP JUMP JUMPDEST PUSH0 PUSH1 0x1 PUSH1 0x40 MLOAD PUSH1 0x20 ADD PUSH2 0x1D5 SWAP2 SWAP1 PUSH2 0x87F JUMP JUMPDEST PUSH1 0x40 MLOAD PUSH1 0x20 DUP2 DUP4 SUB SUB DUP2 MSTORE SWAP1 PUSH1 0x40 MSTORE DUP1 MLOAD SWAP1 PUSH1 0x20 ADD KECCAK256 DUP3 PUSH1 0x40 MLOAD PUSH1 0x20 ADD PUSH2 0x1FC SWAP2 SWAP1 PUSH2 0x7D7 JUMP JUMPDEST PUSH1 0x40 MLOAD PUSH1 0x20 DUP2 DUP4 SUB SUB DUP2 MSTORE SWAP1 PUSH1 0x40 MSTORE DUP1 MLOAD SWAP1 PUSH1 0x20 ADD KECCAK256 SUB PUSH2 0x220 JUMPI PUSH1 0x64 SWAP1 POP PUSH2 0x3AB JUMP JUMPDEST PUSH0 PUSH1 0x2 DUP4 PUSH1 0x40 MLOAD PUSH2 0x231 SWAP2 SWAP1 PUSH2 0x7D7 JUMP JUMPDEST SWAP1 DUP2 MSTORE PUSH1 0x20 ADD PUSH1 0x40 MLOAD DUP1 SWAP2 SUB SWAP1 KECCAK256 PUSH0 SWAP1 SLOAD SWAP1 PUSH2 0x100 EXP SWAP1 DIV PUSH20 0xFFFFFFFFFFFFFFFFFFFFFFFFFFFFFFFFFFFFFFFF AND SWAP1 POP PUSH0 PUSH20 0xFFFFFFFFFFFFFFFFFFFFFFFFFFFFFFFFFFFFFFFF AND DUP2 PUSH20 0xFFFFFFFFFFFFFFFFFFFFFFFFFFFFFFFFFFFFFFFF AND SUB PUSH2 0x2CF JUMPI PUSH1 0x40 MLOAD PUSH32 0x8C379A000000000000000000000000000000000000000000000000000000000 DUP2 MSTORE PUSH1 0x4 ADD PUSH2 0x2C6 SWAP1 PUSH2 0x8DF JUMP JUMPDEST PUSH1 0x40 MLOAD DUP1 SWAP2 SUB SWAP1 REVERT JUMPDEST PUSH0 DUP2 PUSH20 0xFFFFFFFFFFFFFFFFFFFFFFFFFFFFFFFFFFFFFFFF AND PUSH4 0xFEAF968C PUSH1 0x40 MLOAD DUP2 PUSH4 0xFFFFFFFF AND PUSH1 0xE0 SHL DUP2 MSTORE PUSH1 0x4 ADD PUSH1 0xA0 PUSH1 0x40 MLOAD DUP1 DUP4 SUB DUP2 DUP7 GAS STATICCALL ISZERO DUP1 ISZERO PUSH2 0x319 JUMPI RETURNDATASIZE PUSH0 DUP1 RETURNDATACOPY RETURNDATASIZE PUSH0 REVERT JUMPDEST POP POP POP POP PUSH1 0x40 MLOAD RETURNDATASIZE PUSH1 0x1F NOT PUSH1 0x1F DUP3 ADD AND DUP3 ADD DUP1 PUSH1 0x40 MSTORE POP DUP2 ADD SWAP1 PUSH2 0x33D SWAP2 SWAP1 PUSH2 0x999 JUMP JUMPDEST POP POP POP SWAP2 POP POP PUSH0 DUP2 SGT PUSH2 0x385 JUMPI PUSH1 0x40 MLOAD PUSH32 0x8C379A000000000000000000000000000000000000000000000000000000000 DUP2 MSTORE PUSH1 0x4 ADD PUSH2 0x37C SWAP1 PUSH2 0xA5A JUMP JUMPDEST PUSH1 0x40 MLOAD DUP1 SWAP2 SUB SWAP1 REVERT JUMPDEST PUSH0 DUP2 SWAP1 POP PUSH4 0x5F5E100 PUSH1 0x64 DUP3 PUSH2 0x39B SWAP2 SWAP1 PUSH2 0xAA5 JUMP JUMPDEST PUSH2 0x3A5 SWAP2 SWAP1 PUSH2 0xB13 JUMP JUMPDEST SWAP4 POP POP POP POP JUMPDEST SWAP2 SWAP1 POP JUMP JUMPDEST PUSH0 DUP1 SLOAD SWAP1 PUSH2 0x100 EXP SWAP1 DIV PUSH20 0xFFFFFFFFFFFFFFFFFFFFFFFFFFFFFFFFFFFFFFFF AND DUP2 JUMP JUMPDEST PUSH0 DUP2 MLOAD SWAP1 POP SWAP2 SWAP1 POP JUMP JUMPDEST PUSH0 DUP3 DUP3 MSTORE PUSH1 0x20 DUP3 ADD SWAP1 POP SWAP3 SWAP2 POP POP JUMP JUMPDEST DUP3 DUP2 DUP4 MCOPY PUSH0 DUP4 DUP4 ADD MSTORE POP POP POP JUMP JUMPDEST PUSH0 PUSH1 0x1F NOT PUSH1 0x1F DUP4 ADD AND SWAP1 POP SWAP2 SWAP1 POP JUMP JUMPDEST PUSH0 PUSH2 0x415 DUP3 PUSH2 0x3D3 JUMP JUMPDEST PUSH2 0x41F DUP2 DUP6 PUSH2 0x3DD JUMP JUMPDEST SWAP4 POP PUSH2 0x42F DUP2 DUP6 PUSH1 0x20 DUP7 ADD PUSH2 0x3ED JUMP JUMPDEST PUSH2 0x438 DUP2 PUSH2 0x3FB JUMP JUMPDEST DUP5 ADD SWAP2 POP POP SWAP3 SWAP2 POP POP JUMP JUMPDEST PUSH0 PUSH1 0x20 DUP3 ADD SWAP1 POP DUP2 DUP2 SUB PUSH0 DUP4 ADD MSTORE PUSH2 0x45B DUP2 DUP5 PUSH2 0x40B JUMP JUMPDEST SWAP1 POP SWAP3 SWAP2 POP POP JUMP JUMPDEST PUSH0 PUSH1 0x40 MLOAD SWAP1 POP SWAP1 JUMP JUMPDEST PUSH0 DUP1 REVERT JUMPDEST PUSH0 DUP1 REVERT JUMPDEST PUSH0 DUP1 REVERT JUMPDEST PUSH0 DUP1 REVERT JUMPDEST PUSH32 0x4E487B7100000000000000000000000000000000000000000000000000000000 PUSH0 MSTORE PUSH1 0x41 PUSH1 0x4 MSTORE PUSH1 0x24 PUSH0 REVERT JUMPDEST PUSH2 0x4B2 DUP3 PUSH2 0x3FB JUMP JUMPDEST DUP2 ADD DUP2 DUP2 LT PUSH8 0xFFFFFFFFFFFFFFFF DUP3 GT OR ISZERO PUSH2 0x4D1 JUMPI PUSH2 0x4D0 PUSH2 0x47C JUMP JUMPDEST JUMPDEST DUP1 PUSH1 0x40 MSTORE POP POP POP JUMP JUMPDEST PUSH0 PUSH2 0x4E3 PUSH2 0x463 JUMP JUMPDEST SWAP1 POP PUSH2 0x4EF DUP3 DUP3 PUSH2 0x4A9 JUMP JUMPDEST SWAP2 SWAP1 POP JUMP JUMPDEST PUSH0 PUSH8 0xFFFFFFFFFFFFFFFF DUP3 GT ISZERO PUSH2 0x50E JUMPI PUSH2 0x50D PUSH2 0x47C JUMP JUMPDEST JUMPDEST PUSH2 0x517 DUP3 PUSH2 0x3FB JUMP JUMPDEST SWAP1 POP PUSH1 0x20 DUP2 ADD SWAP1 POP SWAP2 SWAP1 POP JUMP JUMPDEST DUP3 DUP2 DUP4 CALLDATACOPY PUSH0 DUP4 DUP4 ADD MSTORE POP POP POP JUMP JUMPDEST PUSH0 PUSH2 0x544 PUSH2 0x53F DUP5 PUSH2 0x4F4 JUMP JUMPDEST PUSH2 0x4DA JUMP JUMPDEST SWAP1 POP DUP3 DUP2 MSTORE PUSH1 0x20 DUP2 ADD DUP5 DUP5 DUP5 ADD GT ISZERO PUSH2 0x560 JUMPI PUSH2 0x55F PUSH2 0x478 JUMP JUMPDEST JUMPDEST PUSH2 0x56B DUP5 DUP3 DUP6 PUSH2 0x524 JUMP JUMPDEST POP SWAP4 SWAP3 POP POP POP JUMP JUMPDEST PUSH0 DUP3 PUSH1 0x1F DUP4 ADD SLT PUSH2 0x587 JUMPI PUSH2 0x586 PUSH2 0x474 JUMP JUMPDEST JUMPDEST DUP2 CALLDATALOAD PUSH2 0x597 DUP5 DUP3 PUSH1 0x20 DUP7 ADD PUSH2 0x532 JUMP JUMPDEST SWAP2 POP POP SWAP3 SWAP2 POP POP JUMP JUMPDEST PUSH0 PUSH20 0xFFFFFFFFFFFFFFFFFFFFFFFFFFFFFFFFFFFFFFFF DUP3 AND SWAP1 POP SWAP2 SWAP1 POP JUMP JUMPDEST PUSH0 PUSH2 0x5C9 DUP3 PUSH2 0x5A0 JUMP JUMPDEST SWAP1 POP SWAP2 SWAP1 POP JUMP JUMPDEST PUSH2 0x5D9 DUP2 PUSH2 0x5BF JUMP JUMPDEST DUP2 EQ PUSH2 0x5E3 JUMPI PUSH0 DUP1 REVERT JUMPDEST POP JUMP JUMPDEST PUSH0 DUP2 CALLDATALOAD SWAP1 POP PUSH2 0x5F4 DUP2 PUSH2 0x5D0 JUMP JUMPDEST SWAP3 SWAP2 POP POP JUMP JUMPDEST PUSH0 DUP1 PUSH1 0x40 DUP4 DUP6 SUB SLT ISZERO PUSH2 0x610 JUMPI PUSH2 0x60F PUSH2 0x46C JUMP JUMPDEST JUMPDEST PUSH0 DUP4 ADD CALLDATALOAD PUSH8 0xFFFFFFFFFFFFFFFF DUP2 GT ISZERO PUSH2 0x62D JUMPI PUSH2 0x62C PUSH2 0x470 JUMP JUMPDEST JUMPDEST PUSH2 0x639 DUP6 DUP3 DUP7 ADD PUSH2 0x573 JUMP JUMPDEST SWAP3 POP POP PUSH1 0x20 PUSH2 0x64A DUP6 DUP3 DUP7 ADD PUSH2 0x5E6 JUMP JUMPDEST SWAP2 POP POP SWAP3 POP SWAP3 SWAP1 POP JUMP JUMPDEST PUSH0 PUSH1 0x20 DUP3 DUP5 SUB SLT ISZERO PUSH2 0x669 JUMPI PUSH2 0x668 PUSH2 0x46C JUMP JUMPDEST JUMPDEST PUSH0 DUP3 ADD CALLDATALOAD PUSH8 0xFFFFFFFFFFFFFFFF DUP2 GT ISZERO PUSH2 0x686 JUMPI PUSH2 0x685 PUSH2 0x470 JUMP JUMPDEST JUMPDEST PUSH2 0x692 DUP5 DUP3 DUP6 ADD PUSH2 0x573 JUMP JUMPDEST SWAP2 POP POP SWAP3 SWAP2 POP POP JUMP JUMPDEST PUSH0 DUP2 SWAP1 POP SWAP2 SWAP1 POP JUMP JUMPDEST PUSH2 0x6AD DUP2 PUSH2 0x69B JUMP JUMPDEST DUP3 MSTORE POP POP JUMP JUMPDEST PUSH0 PUSH1 0x20 DUP3 ADD SWAP1 POP PUSH2 0x6C6 PUSH0 DUP4 ADD DUP5 PUSH2 0x6A4 JUMP JUMPDEST SWAP3 SWAP2 POP POP JUMP JUMPDEST PUSH0 DUP2 SWAP1 POP SWAP2 SWAP1 POP JUMP JUMPDEST PUSH0 PUSH2 0x6EF PUSH2 0x6EA PUSH2 0x6E5 DUP5 PUSH2 0x5A0 JUMP JUMPDEST PUSH2 0x6CC JUMP JUMPDEST PUSH2 0x5A0 JUMP JUMPDEST SWAP1 POP SWAP2 SWAP1 POP JUMP JUMPDEST PUSH0 PUSH2 0x700 DUP3 PUSH2 0x6D5 JUMP JUMPDEST SWAP1 POP SWAP2 SWAP1 POP JUMP JUMPDEST PUSH0 PUSH2 0x711 DUP3 PUSH2 0x6F6 JUMP JUMPDEST SWAP1 POP SWAP2 SWAP1 POP JUMP JUMPDEST PUSH2 0x721 DUP2 PUSH2 0x707 JUMP JUMPDEST DUP3 MSTORE POP POP JUMP JUMPDEST PUSH0 PUSH1 0x20 DUP3 ADD SWAP1 POP PUSH2 0x73A PUSH0 DUP4 ADD DUP5 PUSH2 0x718 JUMP JUMPDEST SWAP3 SWAP2 POP POP JUMP JUMPDEST PUSH32 0x4E487B7100000000000000000000000000000000000000000000000000000000 PUSH0 MSTORE PUSH1 0x22 PUSH1 0x4 MSTORE PUSH1 0x24 PUSH0 REVERT JUMPDEST PUSH0 PUSH1 0x2 DUP3 DIV SWAP1 POP PUSH1 0x1 DUP3 AND DUP1 PUSH2 0x784 JUMPI PUSH1 0x7F DUP3 AND SWAP2 POP JUMPDEST PUSH1 0x20 DUP3 LT DUP2 SUB PUSH2 0x797 JUMPI PUSH2 0x796 PUSH2 0x740 JUMP JUMPDEST JUMPDEST POP SWAP2 SWAP1 POP JUMP JUMPDEST PUSH0 DUP2 SWAP1 POP SWAP3 SWAP2 POP POP JUMP JUMPDEST PUSH0 PUSH2 0x7B1 DUP3 PUSH2 0x3D3 JUMP JUMPDEST PUSH2 0x7BB DUP2 DUP6 PUSH2 0x79D JUMP JUMPDEST SWAP4 POP PUSH2 0x7CB DUP2 DUP6 PUSH1 0x20 DUP7 ADD PUSH2 0x3ED JUMP JUMPDEST DUP1 DUP5 ADD SWAP2 POP POP SWAP3 SWAP2 POP POP JUMP JUMPDEST PUSH0 PUSH2 0x7E2 DUP3 DUP5 PUSH2 0x7A7 JUMP JUMPDEST SWAP2 POP DUP2 SWAP1 POP SWAP3 SWAP2 POP POP JUMP JUMPDEST PUSH0 DUP2 SWAP1 POP DUP2 PUSH0 MSTORE PUSH1 0x20 PUSH0 KECCAK256 SWAP1 POP SWAP2 SWAP1 POP JUMP JUMPDEST PUSH0 DUP2 SLOAD PUSH2 0x80B DUP2 PUSH2 0x76D JUMP JUMPDEST PUSH2 0x815 DUP2 DUP7 PUSH2 0x79D JUMP JUMPDEST SWAP5 POP PUSH1 0x1 DUP3 AND PUSH0 DUP2 EQ PUSH2 0x82F JUMPI PUSH1 0x1 DUP2 EQ PUSH2 0x844 JUMPI PUSH2 0x876 JUMP JUMPDEST PUSH1 0xFF NOT DUP4 AND DUP7 MSTORE DUP2 ISZERO ISZERO DUP3 MUL DUP7 ADD SWAP4 POP PUSH2 0x876 JUMP JUMPDEST PUSH2 0x84D DUP6 PUSH2 0x7ED JUMP JUMPDEST PUSH0 JUMPDEST DUP4 DUP2 LT ISZERO PUSH2 0x86E JUMPI DUP2 SLOAD DUP2 DUP10 ADD MSTORE PUSH1 0x1 DUP3 ADD SWAP2 POP PUSH1 0x20 DUP2 ADD SWAP1 POP PUSH2 0x84F JUMP JUMPDEST DUP4 DUP9 ADD SWAP6 POP POP POP JUMPDEST POP POP POP SWAP3 SWAP2 POP POP JUMP JUMPDEST PUSH0 PUSH2 0x88A DUP3 DUP5 PUSH2 0x7FF JUMP JUMPDEST SWAP2 POP DUP2 SWAP1 POP SWAP3 SWAP2 POP POP JUMP JUMPDEST PUSH32 0x50726963652066656564206E6F742073657420666F722063757272656E637900 PUSH0 DUP3 ADD MSTORE POP JUMP JUMPDEST PUSH0 PUSH2 0x8C9 PUSH1 0x1F DUP4 PUSH2 0x3DD JUMP JUMPDEST SWAP2 POP PUSH2 0x8D4 DUP3 PUSH2 0x895 JUMP JUMPDEST PUSH1 0x20 DUP3 ADD SWAP1 POP SWAP2 SWAP1 POP JUMP JUMPDEST PUSH0 PUSH1 0x20 DUP3 ADD SWAP1 POP DUP2 DUP2 SUB PUSH0 DUP4 ADD MSTORE PUSH2 0x8F6 DUP2 PUSH2 0x8BD JUMP JUMPDEST SWAP1 POP SWAP2 SWAP1 POP JUMP JUMPDEST PUSH0 PUSH10 0xFFFFFFFFFFFFFFFFFFFF DUP3 AND SWAP1 POP SWAP2 SWAP1 POP JUMP JUMPDEST PUSH2 0x91B DUP2 PUSH2 0x8FD JUMP JUMPDEST DUP2 EQ PUSH2 0x925 JUMPI PUSH0 DUP1 REVERT JUMPDEST POP JUMP JUMPDEST PUSH0 DUP2 MLOAD SWAP1 POP PUSH2 0x936 DUP2 PUSH2 0x912 JUMP JUMPDEST SWAP3 SWAP2 POP POP JUMP JUMPDEST PUSH0 DUP2 SWAP1 POP SWAP2 SWAP1 POP JUMP JUMPDEST PUSH2 0x94E DUP2 PUSH2 0x93C JUMP JUMPDEST DUP2 EQ PUSH2 0x958 JUMPI PUSH0 DUP1 REVERT JUMPDEST POP JUMP JUMPDEST PUSH0 DUP2 MLOAD SWAP1 POP PUSH2 0x969 DUP2 PUSH2 0x945 JUMP JUMPDEST SWAP3 SWAP2 POP POP JUMP JUMPDEST PUSH2 0x978 DUP2 PUSH2 0x69B JUMP JUMPDEST DUP2 EQ PUSH2 0x982 JUMPI PUSH0 DUP1 REVERT JUMPDEST POP JUMP JUMPDEST PUSH0 DUP2 MLOAD SWAP1 POP PUSH2 0x993 DUP2 PUSH2 0x96F JUMP JUMPDEST SWAP3 SWAP2 POP POP JUMP JUMPDEST PUSH0 DUP1 PUSH0 DUP1 PUSH0 PUSH1 0xA0 DUP7 DUP9 SUB SLT ISZERO PUSH2 0x9B2 JUMPI PUSH2 0x9B1 PUSH2 0x46C JUMP JUMPDEST JUMPDEST PUSH0 PUSH2 0x9BF DUP9 DUP3 DUP10 ADD PUSH2 0x928 JUMP JUMPDEST SWAP6 POP POP PUSH1 0x20 PUSH2 0x9D0 DUP9 DUP3 DUP10 ADD PUSH2 0x95B JUMP JUMPDEST SWAP5 POP POP PUSH1 0x40 PUSH2 0x9E1 DUP9 DUP3 DUP10 ADD PUSH2 0x985 JUMP JUMPDEST SWAP4 POP POP PUSH1 0x60 PUSH2 0x9F2 DUP9 DUP3 DUP10 ADD PUSH2 0x985 JUMP JUMPDEST SWAP3 POP POP PUSH1 0x80 PUSH2 0xA03 DUP9 DUP3 DUP10 ADD PUSH2 0x928 JUMP JUMPDEST SWAP2 POP POP SWAP3 SWAP6 POP SWAP3 SWAP6 SWAP1 SWAP4 POP JUMP JUMPDEST PUSH32 0x496E76616C696420707269636520646174610000000000000000000000000000 PUSH0 DUP3 ADD MSTORE POP JUMP JUMPDEST PUSH0 PUSH2 0xA44 PUSH1 0x12 DUP4 PUSH2 0x3DD JUMP JUMPDEST SWAP2 POP PUSH2 0xA4F DUP3 PUSH2 0xA10 JUMP JUMPDEST PUSH1 0x20 DUP3 ADD SWAP1 POP SWAP2 SWAP1 POP JUMP JUMPDEST PUSH0 PUSH1 0x20 DUP3 ADD SWAP1 POP DUP2 DUP2 SUB PUSH0 DUP4 ADD MSTORE PUSH2 0xA71 DUP2 PUSH2 0xA38 JUMP JUMPDEST SWAP1 POP SWAP2 SWAP1 POP JUMP JUMPDEST PUSH32 0x4E487B7100000000000000000000000000000000000000000000000000000000 PUSH0 MSTORE PUSH1 0x11 PUSH1 0x4 MSTORE PUSH1 0x24 PUSH0 REVERT JUMPDEST PUSH0 PUSH2 0xAAF DUP3 PUSH2 0x69B JUMP JUMPDEST SWAP2 POP PUSH2 0xABA DUP4 PUSH2 0x69B JUMP JUMPDEST SWAP3 POP DUP3 DUP3 MUL PUSH2 0xAC8 DUP2 PUSH2 0x69B JUMP JUMPDEST SWAP2 POP DUP3 DUP3 DIV DUP5 EQ DUP4 ISZERO OR PUSH2 0xADF JUMPI PUSH2 0xADE PUSH2 0xA78 JUMP JUMPDEST JUMPDEST POP SWAP3 SWAP2 POP POP JUMP JUMPDEST PUSH32 0x4E487B7100000000000000000000000000000000000000000000000000000000 PUSH0 MSTORE PUSH1 0x12 PUSH1 0x4 MSTORE PUSH1 0x24 PUSH0 REVERT JUMPDEST PUSH0 PUSH2 0xB1D DUP3 PUSH2 0x69B JUMP JUMPDEST SWAP2 POP PUSH2 0xB28 DUP4 PUSH2 0x69B JUMP JUMPDEST SWAP3 POP DUP3 PUSH2 0xB38 JUMPI PUSH2 0xB37 PUSH2 0xAE6 JUMP JUMPDEST JUMPDEST DUP3 DUP3 DIV SWAP1 POP SWAP3 SWAP2 POP POP JUMP INVALID LOG2 PUSH5 0x6970667358 0x22 SLT KECCAK256 DUP11 PUSH20 0xB204C4C647F90C514ECFF2DAE8579D93A9C7C2CD INVALID 0xB0 0xE8 0xBE 0xE8 DUP16 0x29 DUP15 SAR PUSH14 0x64736F6C634300081A0033000000 "
				},
				"gasEstimates": {
					"creation": {
						"codeDepositCost": "587400",
						"executionCost": "infinite",
						"totalCost": "infinite"
					},
					"external": {
						"baseCurrency()": "infinite",
						"getExchangeRate(string)": "infinite",
						"setPriceFeed(string,address)": "infinite",
						"token()": "infinite"
					},
					"internal": {
						"calculateConversion(string memory,string memory,uint256)": "infinite",
						"convert(string memory,uint256)": "infinite"
					}
				},
				"methodIdentifiers": {
					"baseCurrency()": "92a85fde",
					"getExchangeRate(string)": "f4b54314",
					"setPriceFeed(string,address)": "f3b3347e",
					"token()": "fc0c546a"
				}
			},
			"storageLayout": {
				"storage": [
					{
						"astId": 130,
						"contract": "currConverter.sol:currConverter",
						"label": "token",
						"offset": 0,
						"slot": "0",
						"type": "t_contract(IERC20)123"
					},
					{
						"astId": 133,
						"contract": "currConverter.sol:currConverter",
						"label": "baseCurrency",
						"offset": 0,
						"slot": "1",
						"type": "t_string_storage"
					},
					{
						"astId": 143,
						"contract": "currConverter.sol:currConverter",
						"label": "priceFeeds",
						"offset": 0,
						"slot": "2",
						"type": "t_mapping(t_string_memory_ptr,t_contract(AggregatorV3Interface)45)"
					}
				],
				"types": {
					"t_contract(AggregatorV3Interface)45": {
						"encoding": "inplace",
						"label": "contract AggregatorV3Interface",
						"numberOfBytes": "20"
					},
					"t_contract(IERC20)123": {
						"encoding": "inplace",
						"label": "contract IERC20",
						"numberOfBytes": "20"
					},
					"t_mapping(t_string_memory_ptr,t_contract(AggregatorV3Interface)45)": {
						"encoding": "mapping",
						"key": "t_string_memory_ptr",
						"label": "mapping(string => contract AggregatorV3Interface)",
						"numberOfBytes": "32",
						"value": "t_contract(AggregatorV3Interface)45"
					},
					"t_string_memory_ptr": {
						"encoding": "bytes",
						"label": "string",
						"numberOfBytes": "32"
					},
					"t_string_storage": {
						"encoding": "bytes",
						"label": "string",
						"numberOfBytes": "32"
					}
				}
			},
			"userdoc": {
				"kind": "user",
				"methods": {},
				"version": 1
			}
		}
	}
}