{"contracts/FTGPtoken.sol":{"FTGPtoken":{"abi":[{"inputs":[],"stateMutability":"nonpayable","type":"constructor"},{"inputs":[{"internalType":"address","name":"spender","type":"address"},{"internalType":"uint256","name":"allowance","type":"uint256"},{"internalType":"uint256","name":"needed","type":"uint256"}],"name":"ERC20InsufficientAllowance","type":"error"},{"inputs":[{"internalType":"address","name":"sender","type":"address"},{"internalType":"uint256","name":"balance","type":"uint256"},{"internalType":"uint256","name":"needed","type":"uint256"}],"name":"ERC20InsufficientBalance","type":"error"},{"inputs":[{"internalType":"address","name":"approver","type":"address"}],"name":"ERC20InvalidApprover","type":"error"},{"inputs":[{"internalType":"address","name":"receiver","type":"address"}],"name":"ERC20InvalidReceiver","type":"error"},{"inputs":[{"internalType":"address","name":"sender","type":"address"}],"name":"ERC20InvalidSender","type":"error"},{"inputs":[{"internalType":"address","name":"spender","type":"address"}],"name":"ERC20InvalidSpender","type":"error"},{"inputs":[{"internalType":"address","name":"owner","type":"address"}],"name":"OwnableInvalidOwner","type":"error"},{"inputs":[{"internalType":"address","name":"account","type":"address"}],"name":"OwnableUnauthorizedAccount","type":"error"},{"anonymous":false,"inputs":[{"indexed":true,"internalType":"address","name":"owner","type":"address"},{"indexed":true,"internalType":"address","name":"spender","type":"address"},{"indexed":false,"internalType":"uint256","name":"value","type":"uint256"}],"name":"Approval","type":"event"},{"anonymous":false,"inputs":[{"indexed":true,"internalType":"address","name":"user","type":"address"},{"indexed":false,"internalType":"string","name":"fromCurrency","type":"string"},{"indexed":false,"internalType":"uint256","name":"amount","type":"uint256"},{"indexed":false,"internalType":"uint256","name":"tokenAmount","type":"uint256"}],"name":"Converted","type":"event"},{"anonymous":false,"inputs":[{"indexed":false,"internalType":"string","name":"message","type":"string"},{"indexed":false,"internalType":"uint256","name":"value","type":"uint256"},{"indexed":false,"internalType":"string","name":"unit","type":"string"}],"name":"Debug","type":"event"},{"anonymous":false,"inputs":[{"indexed":true,"internalType":"address","name":"borrower","type":"address"},{"indexed":false,"internalType":"uint256","name":"collateralETH","type":"uint256"},{"indexed":false,"internalType":"uint256","name":"loanFTGP","type":"uint256"},{"indexed":false,"internalType":"uint256","name":"timestamp","type":"uint256"}],"name":"LoanIssued","type":"event"},{"anonymous":false,"inputs":[{"indexed":true,"internalType":"address","name":"borrower","type":"address"},{"indexed":false,"internalType":"uint256","name":"totalRepaid","type":"uint256"},{"indexed":false,"internalType":"uint256","name":"timestamp","type":"uint256"}],"name":"LoanRepaid","type":"event"},{"anonymous":false,"inputs":[{"indexed":true,"internalType":"address","name":"previousOwner","type":"address"},{"indexed":true,"internalType":"address","name":"newOwner","type":"address"}],"name":"OwnershipTransferred","type":"event"},{"anonymous":false,"inputs":[{"indexed":true,"internalType":"address","name":"user","type":"address"},{"indexed":false,"internalType":"string","name":"toCurrency","type":"string"},{"indexed":false,"internalType":"uint256","name":"tokenAmount","type":"uint256"},{"indexed":false,"internalType":"uint256","name":"currencyAmount","type":"uint256"}],"name":"Redeemed","type":"event"},{"anonymous":false,"inputs":[{"indexed":true,"internalType":"address","name":"user","type":"address"},{"indexed":false,"internalType":"string","name":"toCurrency","type":"string"},{"indexed":false,"internalType":"uint256","name":"tokenAmount","type":"uint256"},{"indexed":false,"internalType":"uint256","name":"currencyAmount","type":"uint256"}],"name":"TokensRedeemed","type":"event"},{"anonymous":false,"inputs":[{"indexed":true,"internalType":"address","name":"from","type":"address"},{"indexed":true,"internalType":"address","name":"to","type":"address"},{"indexed":false,"internalType":"uint256","name":"value","type":"uint256"}],"name":"Transfer","type":"event"},{"anonymous":false,"inputs":[{"indexed":true,"internalType":"address","name":"from","type":"address"},{"indexed":true,"internalType":"address","name":"to","type":"address"},{"indexed":false,"internalType":"uint256","name":"amount","type":"uint256"}],"name":"TransferRequested","type":"event"},{"inputs":[],"name":"ETH_TO_USD_RATE","outputs":[{"internalType":"uint256","name":"","type":"uint256"}],"stateMutability":"view","type":"function"},{"inputs":[],"name":"INTEREST_RATE","outputs":[{"internalType":"uint256","name":"","type":"uint256"}],"stateMutability":"view","type":"function"},{"inputs":[],"name":"LOAN_DURATION","outputs":[{"internalType":"uint256","name":"","type":"uint256"}],"stateMutability":"view","type":"function"},{"inputs":[],"name":"LTV_RATIO","outputs":[{"internalType":"uint256","name":"","type":"uint256"}],"stateMutability":"view","type":"function"},{"inputs":[],"name":"MIN_LOCK_PERIOD","outputs":[{"internalType":"uint256","name":"","type":"uint256"}],"stateMutability":"view","type":"function"},{"inputs":[],"name":"TOKEN_PRICE_IN_USD","outputs":[{"internalType":"uint256","name":"","type":"uint256"}],"stateMutability":"view","type":"function"},{"inputs":[{"internalType":"address","name":"owner","type":"address"},{"internalType":"address","name":"spender","type":"address"}],"name":"allowance","outputs":[{"internalType":"uint256","name":"","type":"uint256"}],"stateMutability":"view","type":"function"},{"inputs":[{"internalType":"address","name":"spender","type":"address"},{"internalType":"uint256","name":"value","type":"uint256"}],"name":"approve","outputs":[{"internalType":"bool","name":"","type":"bool"}],"stateMutability":"nonpayable","type":"function"},{"inputs":[{"internalType":"address","name":"account","type":"address"}],"name":"balanceOf","outputs":[{"internalType":"uint256","name":"","type":"uint256"}],"stateMutability":"view","type":"function"},{"inputs":[],"name":"baseCurrency","outputs":[{"internalType":"string","name":"","type":"string"}],"stateMutability":"view","type":"function"},{"inputs":[{"internalType":"address","name":"user","type":"address"}],"name":"calculateInterest","outputs":[{"internalType":"uint256","name":"totalInterest","type":"uint256"}],"stateMutability":"view","type":"function"},{"inputs":[{"internalType":"address","name":"user","type":"address"},{"internalType":"uint256","name":"index","type":"uint256"}],"name":"calculateInterestForDeposit","outputs":[{"internalType":"uint256","name":"","type":"uint256"}],"stateMutability":"view","type":"function"},{"inputs":[{"internalType":"address","name":"borrower","type":"address"}],"name":"calculateRepaymentAmounts","outputs":[{"internalType":"uint256","name":"monthly","type":"uint256"},{"internalType":"uint256","name":"total","type":"uint256"}],"stateMutability":"view","type":"function"},{"inputs":[{"internalType":"string","name":"fromCurrency","type":"string"},{"internalType":"uint256","name":"amount","type":"uint256"}],"name":"convertAndMint","outputs":[],"stateMutability":"nonpayable","type":"function"},{"inputs":[{"internalType":"string","name":"fromCurrency","type":"string"},{"internalType":"uint256","name":"amountInCurrency","type":"uint256"}],"name":"convertAndRepay","outputs":[],"stateMutability":"nonpayable","type":"function"},{"inputs":[{"internalType":"address","name":"","type":"address"},{"internalType":"string","name":"","type":"string"}],"name":"currencyLockedBalances","outputs":[{"internalType":"uint256","name":"","type":"uint256"}],"stateMutability":"view","type":"function"},{"inputs":[],"name":"decimals","outputs":[{"internalType":"uint8","name":"","type":"uint8"}],"stateMutability":"view","type":"function"},{"inputs":[{"internalType":"uint256","name":"amount","type":"uint256"}],"name":"depositFlexible","outputs":[],"stateMutability":"nonpayable","type":"function"},{"inputs":[{"internalType":"uint256","name":"amount","type":"uint256"},{"internalType":"uint256","name":"period","type":"uint256"}],"name":"depositLockup","outputs":[],"stateMutability":"nonpayable","type":"function"},{"inputs":[{"internalType":"address","name":"user","type":"address"}],"name":"getActiveDeposits","outputs":[{"internalType":"uint256[]","name":"indexes","type":"uint256[]"},{"internalType":"uint256[]","name":"amounts","type":"uint256[]"},{"internalType":"uint256[]","name":"startTimes","type":"uint256[]"},{"internalType":"uint256[]","name":"lockPeriods","type":"uint256[]"}],"stateMutability":"view","type":"function"},{"inputs":[{"internalType":"address","name":"user","type":"address"}],"name":"getAllUserDeposits","outputs":[{"internalType":"uint256[]","name":"indexes","type":"uint256[]"},{"internalType":"uint256[]","name":"amounts","type":"uint256[]"},{"internalType":"uint256[]","name":"startTimes","type":"uint256[]"},{"internalType":"uint256[]","name":"lockPeriods","type":"uint256[]"},{"internalType":"bool[]","name":"withdrawnFlags","type":"bool[]"}],"stateMutability":"view","type":"function"},{"inputs":[{"internalType":"address","name":"account","type":"address"}],"name":"getBalanceOfAccount","outputs":[{"internalType":"uint256","name":"","type":"uint256"}],"stateMutability":"view","type":"function"},{"inputs":[{"internalType":"address","name":"user","type":"address"}],"name":"getDepositCount","outputs":[{"internalType":"uint256","name":"","type":"uint256"}],"stateMutability":"view","type":"function"},{"inputs":[{"internalType":"string","name":"currency","type":"string"}],"name":"getExchangeRate","outputs":[{"internalType":"uint256","name":"","type":"uint256"}],"stateMutability":"view","type":"function"},{"inputs":[],"name":"getLoan","outputs":[],"stateMutability":"payable","type":"function"},{"inputs":[{"internalType":"string","name":"currency","type":"string"}],"name":"getPriceFeedAddress","outputs":[{"internalType":"address","name":"","type":"address"}],"stateMutability":"view","type":"function"},{"inputs":[{"internalType":"string","name":"currency","type":"string"}],"name":"getRateForCurrency","outputs":[{"internalType":"uint256","name":"","type":"uint256"}],"stateMutability":"view","type":"function"},{"inputs":[],"name":"getTotalSupplyInTokens","outputs":[{"internalType":"uint256","name":"","type":"uint256"}],"stateMutability":"view","type":"function"},{"inputs":[{"internalType":"address","name":"user","type":"address"},{"internalType":"uint256","name":"index","type":"uint256"}],"name":"getUserDeposit","outputs":[{"internalType":"uint256","name":"amount","type":"uint256"},{"internalType":"uint256","name":"startTime","type":"uint256"},{"internalType":"uint256","name":"lockPeriod","type":"uint256"},{"internalType":"bool","name":"withdrawn","type":"bool"}],"stateMutability":"view","type":"function"},{"inputs":[{"internalType":"address","name":"user","type":"address"},{"internalType":"uint256","name":"index","type":"uint256"}],"name":"interestForDepositCalculation","outputs":[{"internalType":"uint256","name":"","type":"uint256"}],"stateMutability":"view","type":"function"},{"inputs":[{"internalType":"uint256","name":"amount","type":"uint256"},{"internalType":"uint256","name":"period","type":"uint256"}],"name":"lockupDeposit","outputs":[],"stateMutability":"nonpayable","type":"function"},{"inputs":[{"internalType":"address","name":"to","type":"address"},{"internalType":"uint256","name":"amount","type":"uint256"}],"name":"mint","outputs":[],"stateMutability":"nonpayable","type":"function"},{"inputs":[],"name":"name","outputs":[{"internalType":"string","name":"","type":"string"}],"stateMutability":"view","type":"function"},{"inputs":[{"internalType":"uint256","name":"amount","type":"uint256"}],"name":"openDeposit","outputs":[],"stateMutability":"nonpayable","type":"function"},{"inputs":[],"name":"owner","outputs":[{"internalType":"address","name":"","type":"address"}],"stateMutability":"view","type":"function"},{"inputs":[{"internalType":"string","name":"fromCurrency","type":"string"},{"internalType":"string","name":"toCurrency","type":"string"},{"internalType":"uint256","name":"amount","type":"uint256"}],"name":"previewConversion","outputs":[{"internalType":"uint256","name":"displayAmount","type":"uint256"}],"stateMutability":"view","type":"function"},{"inputs":[{"internalType":"string","name":"toCurrency","type":"string"},{"internalType":"uint256","name":"amount","type":"uint256"}],"name":"redeemTokens","outputs":[{"internalType":"uint256","name":"","type":"uint256"}],"stateMutability":"nonpayable","type":"function"},{"inputs":[],"name":"renounceOwnership","outputs":[],"stateMutability":"nonpayable","type":"function"},{"inputs":[{"internalType":"string","name":"currency","type":"string"},{"internalType":"address","name":"priceFeedAddress","type":"address"}],"name":"setPriceFeed","outputs":[],"stateMutability":"nonpayable","type":"function"},{"inputs":[],"name":"symbol","outputs":[{"internalType":"string","name":"","type":"string"}],"stateMutability":"view","type":"function"},{"inputs":[],"name":"token","outputs":[{"internalType":"contract IERC20","name":"","type":"address"}],"stateMutability":"view","type":"function"},{"inputs":[],"name":"totalSupply","outputs":[{"internalType":"uint256","name":"","type":"uint256"}],"stateMutability":"view","type":"function"},{"inputs":[{"internalType":"address","name":"to","type":"address"},{"internalType":"uint256","name":"value","type":"uint256"}],"name":"transfer","outputs":[{"internalType":"bool","name":"","type":"bool"}],"stateMutability":"nonpayable","type":"function"},{"inputs":[{"internalType":"address","name":"from","type":"address"},{"internalType":"address","name":"to","type":"address"},{"internalType":"uint256","name":"value","type":"uint256"}],"name":"transferFrom","outputs":[{"internalType":"bool","name":"","type":"bool"}],"stateMutability":"nonpayable","type":"function"},{"inputs":[{"internalType":"address","name":"newOwner","type":"address"}],"name":"transferOwnership","outputs":[],"stateMutability":"nonpayable","type":"function"},{"inputs":[{"internalType":"address","name":"receiver","type":"address"},{"internalType":"uint256","name":"amount","type":"uint256"}],"name":"transferTokens","outputs":[{"internalType":"bool","name":"","type":"bool"}],"stateMutability":"nonpayable","type":"function"},{"inputs":[{"internalType":"address","name":"","type":"address"}],"name":"userLoans","outputs":[{"internalType":"uint256","name":"collateralAmountInETH","type":"uint256"},{"internalType":"uint256","name":"loanAmountInFTGP","type":"uint256"},{"internalType":"uint256","name":"timestamp","type":"uint256"},{"internalType":"uint256","name":"repaymentDue","type":"uint256"},{"internalType":"uint256","name":"monthlyInstallment","type":"uint256"},{"internalType":"uint256","name":"repaidAmount","type":"uint256"},{"internalType":"address","name":"borrower","type":"address"}],"stateMutability":"view","type":"function"},{"inputs":[{"internalType":"uint256","name":"index","type":"uint256"}],"name":"withdraw","outputs":[],"stateMutability":"nonpayable","type":"function"},{"inputs":[{"internalType":"uint256","name":"index","type":"uint256"}],"name":"withdrawDeposit","outputs":[],"stateMutability":"nonpayable","type":"function"}],"evm":{"bytecode":{"linkReferences":{},"object":"60c060405260036080908152621554d160ea1b60a05260069062000024908262000398565b506003600b553480156200003757600080fd5b50333060405180604001604052806009815260200168232a23a83a37b5b2b760b91b815250604051806040016040528060048152602001630465447560e41b81525081600390816200008a919062000398565b50600462000099828262000398565b5050600580546001600160a01b039384166001600160a01b031991821617909155604080516204742560ec1b815260076003808301829052835160239381900384018120805487167391fab41f5f3be955963a986366edacff1aaeaa831790556222aaa960e91b81528082018390528451908190038401812080548716731a81afb8146aeffcfc5e50e8479e826e7d55b910179055624a505960e81b81528082018390528451908190038401812080548716738a6af2b75f23831adc973ce6288e5329f63d86c61790556208aa8960eb1b8152808201839052845190819003840181208054871673694aa1769357215de4fac081bf1f309adc325306179055621554d160ea1b81529081019190915291519182900301902080549091169055508116620001e057604051631e4fbdf760e01b81526000600482015260240160405180910390fd5b620001eb81620002a1565b50600980546001600160a01b03191630179055600c602081905260037fdf85b3b91db3fc0d5ce237a54e22266da0607fef5fbe5daeffa9610eb8ae119c5560057fef0f79a2dbcdff9a8ebe19b620af73660a85b3df3e0778f807cdf83ae1e805c85560087f6c82d3a57cebfec9927f2aabad409518216852df1f4c0220fd7ba03937e50ebc556301e133806000527f0ea1e207dda072346d0ec8dbc69c075dcc6dbf6a2606f1245552e3e0f7c397a25562000464565b600880546001600160a01b038381166001600160a01b0319831681179093556040519116919082907f8be0079c531659141344cd1fd0a4f28419497f9722a3daafe3b4186f6b6457e090600090a35050565b634e487b7160e01b600052604160045260246000fd5b600181811c908216806200031e57607f821691505b6020821081036200033f57634e487b7160e01b600052602260045260246000fd5b50919050565b601f8211156200039357600081815260208120601f850160051c810160208610156200036e5750805b601f850160051c820191505b818110156200038f578281556001016200037a565b5050505b505050565b81516001600160401b03811115620003b457620003b4620002f3565b620003cc81620003c5845462000309565b8462000345565b602080601f831160018114620004045760008415620003eb5750858301515b600019600386901b1c1916600185901b1785556200038f565b600085815260208120601f198616915b82811015620004355788860151825594840194600190910190840162000414565b5085821015620004545787850151600019600388901b60f8161c191681555b5050505050600190811b01905550565b61396780620004746000396000f3fe6080604052600436106102ae5760003560e01c806392a85fde11610175578063dd62ed3e116100dc578063f3b3347e11610095578063f6ccbadd1161006f578063f6ccbadd1461093d578063f92881a31461095d578063fc0c546a1461097d578063fe4e61df1461099d57600080fd5b8063f3b3347e146108dd578063f4b54314146108fd578063f500d9da1461091d57600080fd5b8063dd62ed3e14610780578063e02a4dfd146107c6578063e11932cf146107de578063e9e190a3146107fe578063eb9d794a1461089d578063f2fde38b146108bd57600080fd5b8063a9059cbb1161012e578063a9059cbb146106d0578063bec3fa17146106f0578063c053158014610710578063d1d9558814610730578063d2d48ee314610750578063db40f8281461069057600080fd5b806392a85fde14610626578063936710bf1461063b57806395d89b411461065b57806398fb5fc814610670578063a11e685a14610690578063a8fbdd3a146106b057600080fd5b806333289a461161021957806360711058116101d2578063607110581461052f57806370a0823114610571578063715018a6146105a75780637fc35ceb146105bc57806382d5e7b8146105dc5780638da5cb5b146105f457600080fd5b806333289a46146104a6578063385dc3df146104c657806340c10f19146104dd5780634859b3f4146104fd5780635696b189146105055780635b72a33a1461051a57600080fd5b806323b872dd1161026b57806323b872dd146103b85780632516b3c1146103d8578063287749941461040957806329c9cead1461041f5780632e1a7d4d14610468578063313ce5671461048a57600080fd5b8063046ad586146102b357806306fdde03146102ed578063095ea7b31461030f578063136a2ca71461033f57806313fcaf541461036d57806318160ddd146103a3575b600080fd5b3480156102bf57600080fd5b506102d36102ce366004613131565b6109b2565b604080519283526020830191909152015b60405180910390f35b3480156102f957600080fd5b50610302610a75565b6040516102e4919061319c565b34801561031b57600080fd5b5061032f61032a3660046131af565b610b07565b60405190151581526020016102e4565b34801561034b57600080fd5b5061035f61035a36600461327b565b610b21565b6040519081526020016102e4565b34801561037957600080fd5b5061035f610388366004613131565b6001600160a01b03166000908152600a602052604090205490565b3480156103af57600080fd5b5060025461035f565b3480156103c457600080fd5b5061032f6103d33660046132bf565b610b9c565b3480156103e457600080fd5b506103f86103f3366004613131565b610bc2565b6040516102e4959493929190613336565b34801561041557600080fd5b5061035f6103e881565b34801561042b57600080fd5b5061035f61043a3660046133cb565b600e602090815260009283526040909220815180830184018051928152908401929093019190912091525481565b34801561047457600080fd5b50610488610483366004613418565b610e53565b005b34801561049657600080fd5b50604051601281526020016102e4565b3480156104b257600080fd5b506104886104c1366004613418565b61105d565b3480156104d257600080fd5b5061035f62278d0081565b3480156104e957600080fd5b506104886104f83660046131af565b611069565b61048861107f565b34801561051157600080fd5b5061035f602881565b34801561052657600080fd5b5061035f600c81565b34801561053b57600080fd5b5061054f61054a3660046131af565b6112a2565b60408051948552602085019390935291830152151560608201526080016102e4565b34801561057d57600080fd5b5061035f61058c366004613131565b6001600160a01b031660009081526020819052604090205490565b3480156105b357600080fd5b5061048861130a565b3480156105c857600080fd5b506104886105d7366004613418565b61131e565b3480156105e857600080fd5b5061035f6305f5e10081565b34801561060057600080fd5b506008546001600160a01b03165b6040516001600160a01b0390911681526020016102e4565b34801561063257600080fd5b50610302611327565b34801561064757600080fd5b5061035f610656366004613131565b6113b5565b34801561066757600080fd5b506103026113e6565b34801561067c57600080fd5b5061048861068b36600461327b565b6113f5565b34801561069c57600080fd5b5061035f6106ab3660046131af565b61159a565b3480156106bc57600080fd5b506104886106cb366004613431565b611684565b3480156106dc57600080fd5b5061032f6106eb3660046131af565b611813565b3480156106fc57600080fd5b5061032f61070b3660046131af565b611821565b34801561071c57600080fd5b5061035f61072b366004613453565b611844565b34801561073c57600080fd5b5061048861074b366004613418565b61184f565b34801561075c57600080fd5b5061077061076b366004613131565b611989565b6040516102e49493929190613487565b34801561078c57600080fd5b5061035f61079b3660046134d4565b6001600160a01b03918216600090815260016020908152604080832093909416825291909152205490565b3480156107d257600080fd5b5061035f6301da9c0081565b3480156107ea57600080fd5b5061035f6107f9366004613131565b611d0c565b34801561080a57600080fd5b5061085f610819366004613131565b600d60205260009081526040902080546001820154600283015460038401546004850154600586015460069096015494959394929391929091906001600160a01b031687565b604080519788526020880196909652948601939093526060850191909152608084015260a08301526001600160a01b031660c082015260e0016102e4565b3480156108a957600080fd5b5061035f6108b8366004613507565b611e14565b3480156108c957600080fd5b506104886108d8366004613131565b611e21565b3480156108e957600080fd5b506104886108f8366004613573565b611e5c565b34801561090957600080fd5b5061035f610918366004613453565b611ea8565b34801561092957600080fd5b50610488610938366004613431565b612053565b34801561094957600080fd5b5061060e610958366004613453565b61205d565b34801561096957600080fd5b5061048861097836600461327b565b61208e565b34801561098957600080fd5b5060055461060e906001600160a01b031681565b3480156109a957600080fd5b5061035f612137565b6001600160a01b038082166000908152600d60209081526040808320815160e0810183528154815260018201549381018490526002820154928101929092526003810154606083015260048101546080830152600581015460a08301526006015490931660c084015290918291610a615760405162461bcd60e51b815260206004820152600e60248201526d27379030b1ba34bb32903637b0b760911b60448201526064015b60405180910390fd5b806080015181606001519250925050915091565b606060038054610a84906135b7565b80601f0160208091040260200160405190810160405280929190818152602001828054610ab0906135b7565b8015610afd5780601f10610ad257610100808354040283529160200191610afd565b820191906000526020600020905b815481529060010190602001808311610ae057829003601f168201915b5050505050905090565b600033610b15818585612157565b60019150505b92915050565b600080610b306012600a6136eb565b610b3a90846136fa565b90506000610b4d30338785611ea8612169565b9050336001600160a01b03167f5b5ec4f516dc748cdc19eaed1f8e52be9e3dbf46768e90c539fcada6b82a6046868484604051610b8c93929190613711565b60405180910390a2949350505050565b600033610baa85828561262b565b610bb58585856126a4565b60019150505b9392505050565b6001600160a01b0381166000908152600a60205260409020546060908190819081908190806001600160401b03811115610bfe57610bfe6131d9565b604051908082528060200260200182016040528015610c27578160200160208202803683370190505b509550806001600160401b03811115610c4257610c426131d9565b604051908082528060200260200182016040528015610c6b578160200160208202803683370190505b509450806001600160401b03811115610c8657610c866131d9565b604051908082528060200260200182016040528015610caf578160200160208202803683370190505b509350806001600160401b03811115610cca57610cca6131d9565b604051908082528060200260200182016040528015610cf3578160200160208202803683370190505b509250806001600160401b03811115610d0e57610d0e6131d9565b604051908082528060200260200182016040528015610d37578160200160208202803683370190505b50915060005b81811015610e48576001600160a01b0388166000908152600a60205260408120805483908110610d6f57610d6f613736565b9060005260206000209060040201905081888381518110610d9257610d92613736565b6020026020010181815250508060000154878381518110610db557610db5613736565b6020026020010181815250508060010154868381518110610dd857610dd8613736565b6020026020010181815250508060020154858381518110610dfb57610dfb613736565b60209081029190910101526003810154845160ff90911690859084908110610e2557610e25613736565b911515602092830291909101909101525080610e408161374c565b915050610d3d565b505091939590929450565b336000908152600a60205260409020548110610ea15760405162461bcd60e51b815260206004820152600d60248201526c092dcecc2d8d2c840d2dcc8caf609b1b6044820152606401610a58565b336000908152600a60205260408120805483908110610ec257610ec2613736565b60009182526020909120600490910201600381015490915060ff1615610f1e5760405162461bcd60e51b815260206004820152601160248201527020b63932b0b23c903bb4ba34323930bbb760791b6044820152606401610a58565b600281015415610f7e5780600201548160010154610f3c9190613765565b421015610f7e5760405162461bcd60e51b815260206004820152601060248201526f131bd8dadd5c081b9bdd08195b99195960821b6044820152606401610a58565b604080516080810182528254815260018301546020820152600283015491810191909152600382015460ff1615156060820152600090610fbd90612703565b90506000818360000154610fd19190613765565b60038401805460ff1916600117905560095460405163a9059cbb60e01b8152336004820152602481018390529192506001600160a01b03169063a9059cbb906044016020604051808303816000875af1158015611032573d6000803e3d6000fd5b505050506040513d601f19601f820116820180604052508101906110569190613778565b5050505050565b61106681610e53565b50565b61107161276d565b61107b828261279a565b5050565b600034116110d95760405162461bcd60e51b815260206004820152602160248201527f436f6c6c61746572616c206d7573742062652067726561746572207468616e206044820152600360fc1b6064820152608401610a58565b336000908152600d60205260409020600101541561112f5760405162461bcd60e51b81526020600482015260136024820152724c6f616e20616c72656164792065786973747360681b6044820152606401610a58565b346000670de0b6b3a76400006111476103e8846136fa565b611151919061379a565b9050600060646111626028846136fa565b61116c919061379a565b9050600061117c6012600a6136eb565b61118690836136fa565b905060006064611197600c846136fa565b6111a1919061379a565b905060006111af8284613765565b905060006111be600c8361379a565b90506111ca338561279a565b6040805160e081018252888152602080820187815242838501818152606080860189815260808701898152600060a089018181523360c08b01818152818452600d8b52928c90209a518b55975160018b0155945160028a015591516003890155516004880155915160058701559051600690950180546001600160a01b0319166001600160a01b039096169590951790945584518c8152928301899052938201939093527f03cd57c87bbf542b3c5edcc7801148ea7d9a169cb16849e0a523ea18eadc58d3910160405180910390a250505050505050565b6001600160a01b0382166000908152600a6020526040812080548291829182918291879081106112d4576112d4613736565b60009182526020909120600490910201805460018201546002830154600390930154919a90995091975060ff1695509350505050565b61131261276d565b61131c60006127d0565b565b6110668161184f565b60068054611334906135b7565b80601f0160208091040260200160405190810160405280929190818152602001828054611360906135b7565b80156113ad5780601f10611382576101008083540402835291602001916113ad565b820191906000526020600020905b81548152906001019060200180831161139057829003601f168201915b505050505081565b60006113c36012600a6136eb565b6001600160a01b038316600090815260208190526040902054610b1b919061379a565b606060048054610a84906135b7565b336000908152600d6020526040902060018101546114465760405162461bcd60e51b815260206004820152600e60248201526d27379030b1ba34bb32903637b0b760911b6044820152606401610a58565b60006114528484612822565b9050600081116114a45760405162461bcd60e51b815260206004820181905260248201527f436f6e76657273696f6e206661696c6564206f72207a65726f20616d6f756e746044820152606401610a58565b6114ae308261279a565b808260050160008282546114c29190613765565b909155506114d2905030826128a4565b8160030154826005015410611594578154336000818152600d6020526040808220828155600181018390556002810183905560038101839055600481018390556005810183905560060180546001600160a01b03191690555183156108fc0291849190818181858888f19350505050158015611552573d6000803e3d6000fd5b5060058301546040805191825242602083015233917fc7ce0a35f17b490de2a317e7fecb2cae86b1abffb03800b2f492823521382698910160405180910390a2505b50505050565b6001600160a01b0382166000908152600a602052604081205482106115f15760405162461bcd60e51b815260206004820152600d60248201526c092dcecc2d8d2c840d2dcc8caf609b1b6044820152606401610a58565b6001600160a01b0383166000908152600a6020526040812080548490811061161b5761161b613736565b60009182526020918290206040805160808101825260049093029091018054835260018101549383019390935260028301549082015260039091015460ff161580156060830152909150611673576000915050610b1b565b61167c81612703565b949350505050565b600082116116d45760405162461bcd60e51b815260206004820152601d60248201527f416d6f756e74206d7573742062652067726561746572207468616e20300000006044820152606401610a58565b6000818152600c60205260409020546117275760405162461bcd60e51b8152602060048201526015602482015274125b9d985b1a59081b1bd8dadd5c081c195c9a5bd9605a1b6044820152606401610a58565b6009546040516323b872dd60e01b81526001600160a01b03909116906323b872dd9061175b903390309087906004016137bc565b6020604051808303816000875af115801561177a573d6000803e3d6000fd5b505050506040513d601f19601f8201168201806040525081019061179e9190613778565b50336000908152600a60209081526040808320815160808101835295865242868401908152918601948552606086018481528154600180820184559286529390942095516004909302909501918255519381019390935590516002830155516003909101805460ff1916911515919091179055565b600033610b158185856126a4565b60008061183683670de0b6b3a76400006136fa565b905061167c303386846128da565b6000610b1b82611ea8565b6000811161189f5760405162461bcd60e51b815260206004820152601d60248201527f416d6f756e74206d7573742062652067726561746572207468616e20300000006044820152606401610a58565b6009546040516323b872dd60e01b81526001600160a01b03909116906323b872dd906118d3903390309086906004016137bc565b6020604051808303816000875af11580156118f2573d6000803e3d6000fd5b505050506040513d601f19601f820116820180604052508101906119169190613778565b50336000908152600a6020908152604080832081516080810183529485524285840190815291850184815260608601858152825460018082018555938752949095209551600490940290950192835590519082015591516002830155516003909101805460ff1916911515919091179055565b6060806060806000805b6001600160a01b0387166000908152600a6020526040902054811015611a18576001600160a01b0387166000908152600a602052604090208054829081106119dd576119dd613736565b600091825260209091206003600490920201015460ff16611a065781611a028161374c565b9250505b80611a108161374c565b915050611993565b50806001600160401b03811115611a3157611a316131d9565b604051908082528060200260200182016040528015611a5a578160200160208202803683370190505b509450806001600160401b03811115611a7557611a756131d9565b604051908082528060200260200182016040528015611a9e578160200160208202803683370190505b509350806001600160401b03811115611ab957611ab96131d9565b604051908082528060200260200182016040528015611ae2578160200160208202803683370190505b509250806001600160401b03811115611afd57611afd6131d9565b604051908082528060200260200182016040528015611b26578160200160208202803683370190505b5091506000805b6001600160a01b0388166000908152600a6020526040902054811015611d02576001600160a01b0388166000908152600a60205260409020805482908110611b7757611b77613736565b600091825260209091206003600490920201015460ff16611cf05780878381518110611ba557611ba5613736565b602002602001018181525050600a6000896001600160a01b03166001600160a01b031681526020019081526020016000208181548110611be757611be7613736565b906000526020600020906004020160000154868381518110611c0b57611c0b613736565b602002602001018181525050600a6000896001600160a01b03166001600160a01b031681526020019081526020016000208181548110611c4d57611c4d613736565b906000526020600020906004020160010154858381518110611c7157611c71613736565b602002602001018181525050600a6000896001600160a01b03166001600160a01b031681526020019081526020016000208181548110611cb357611cb3613736565b906000526020600020906004020160020154848381518110611cd757611cd7613736565b602090810291909101015281611cec8161374c565b9250505b80611cfa8161374c565b915050611b2d565b5050509193509193565b6001600160a01b0381166000908152600a6020908152604080832080548251818502810185019093528083528493849084015b82821015611d98576000848152602090819020604080516080810182526004860290920180548352600180820154848601526002820154928401929092526003015460ff16151560608301529083529092019101611d3f565b50505050905060005b8151811015611e0d57818181518110611dbc57611dbc613736565b602002602001015160600151611dfb57611dee828281518110611de157611de1613736565b6020026020010151612703565b611df89084613765565b92505b80611e058161374c565b915050611da1565b5050919050565b600061167c848484612cd2565b611e2961276d565b6001600160a01b038116611e5357604051631e4fbdf760e01b815260006004820152602401610a58565b611066816127d0565b611e6461276d565b80600783604051611e7591906137e0565b90815260405190819003602001902080546001600160a01b03929092166001600160a01b03199092169190911790555050565b60006006604051602001611ebc91906137fc565b6040516020818303038152906040528051906020012082604051602001611ee391906137e0565b6040516020818303038152906040528051906020012003611f0657506064919050565b6000600783604051611f1891906137e0565b908152604051908190036020019020546001600160a01b0316905080611f805760405162461bcd60e51b815260206004820152601f60248201527f50726963652066656564206e6f742073657420666f722063757272656e6379006044820152606401610a58565b6000816001600160a01b031663feaf968c6040518163ffffffff1660e01b815260040160a060405180830381865afa158015611fc0573d6000803e3d6000fd5b505050506040513d601f19601f82011682018060405250810190611fe491906138b5565b5050509150506000811361202f5760405162461bcd60e51b8152602060048201526012602482015271496e76616c6964207072696365206461746160701b6044820152606401610a58565b806305f5e1006120406064836136fa565b61204a919061379a565b95945050505050565b61107b8282611684565b600060078260405161206f91906137e0565b908152604051908190036020019020546001600160a01b031692915050565b600061209a8383612822565b9050600081116120e35760405162461bcd60e51b8152602060048201526014602482015273125b9d985b1a59081d1bdad95b88185b5bdd5b9d60621b6044820152606401610a58565b6120ed338261279a565b336001600160a01b03167fa8aeac0eb8c033dd01d0d9e327398d0796ca1b6a3c7da711bb589dfa0826f59384848460405161212a93929190613711565b60405180910390a2505050565b60006121456012600a6136eb565b600254612152919061379a565b905090565b6121648383836001612e20565b505050565b60006001600160a01b0385166121d45760405162461bcd60e51b815260206004820152602a60248201527f526564656d7074696f6e4c69623a20557365722063616e6e6f74206265207a65604482015269726f206164647265737360b01b6064820152608401610a58565b600083116122425760405162461bcd60e51b815260206004820152603560248201527f526564656d7074696f6e4c69623a20546f6b656e20616d6f756e74206d7573746044820152742062652067726561746572207468616e207a65726f60581b6064820152608401610a58565b6040516370a0823160e01b81526001600160a01b038681166004830152600091908816906370a0823190602401602060405180830381865afa15801561228c573d6000803e3d6000fd5b505050506040513d601f19601f820116820180604052508101906122b09190613905565b90507f817c85939c8c80a8ee41296e0a484553967004247b4da59fb0581ee209235f368160405161232591906060808252600c908201526b557365722062616c616e636560a01b6080820152602081019190915260a0604082018190526003908201526277656960e81b60c082015260e00190565b60405180910390a18381101561238f5760405162461bcd60e51b815260206004820152602960248201527f526564656d7074696f6e4c69623a20496e73756666696369656e7420746f6b656044820152686e2062616c616e636560b81b6064820152608401610a58565b600061239c868686612ef5565b90507f817c85939c8c80a8ee41296e0a484553967004247b4da59fb0581ee209235f368160405161241f91906060808252600f908201526e10dd5c9c995b98de48185b5bdd5b9d608a1b6080820152602081019190915260a060408201819052600e908201526d63757272656e637920756e69747360901b60c082015260e00190565b60405180910390a1600081116124885760405162461bcd60e51b815260206004820152602860248201527f526564656d7074696f6e4c69623a20496e76616c696420636f6e76657273696f6044820152671b88185b5bdd5b9d60c21b6064820152608401610a58565b6040516323b872dd60e01b81526000906001600160a01b038a16906323b872dd906124bd908b9061dead908b906004016137bc565b6020604051808303816000875af11580156124dc573d6000803e3d6000fd5b505050506040513d601f19601f820116820180604052508101906125009190613778565b90507f817c85939c8c80a8ee41296e0a484553967004247b4da59fb0581ee209235f368161252f576000612532565b60015b6040805160608082526010908201526f5472616e73666572207375636365737360801b608082015260ff909216602083015260a0908201819052600790820152663137b7b632b0b760c91b60c082015260e00160405180910390a1806125da5760405162461bcd60e51b815260206004820181905260248201527f526564656d7074696f6e4c69623a20546f6b656e206275726e206661696c65646044820152606401610a58565b876001600160a01b03167f602556849fd4874db76dc9a629159a721346d607a995229cd6af9f03e904b47c88888560405161261793929190613711565b60405180910390a250979650505050505050565b6001600160a01b03838116600090815260016020908152604080832093861683529290522054600019811015611594578181101561269557604051637dc7a0d960e11b81526001600160a01b03841660048201526024810182905260448101839052606401610a58565b61159484848484036000612e20565b6001600160a01b0383166126ce57604051634b637e8f60e11b815260006004820152602401610a58565b6001600160a01b0382166126f85760405163ec442f0560e01b815260006004820152602401610a58565b612164838383612feb565b600080600083604001511161271a57600b5461272d565b6040808401516000908152600c60205220545b90506000836020015142612741919061391e565b905063bbf81e008183866000015161275991906136fa565b61276391906136fa565b61167c919061379a565b6008546001600160a01b0316331461131c5760405163118cdaa760e01b8152336004820152602401610a58565b6001600160a01b0382166127c45760405163ec442f0560e01b815260006004820152602401610a58565b61107b60008383612feb565b600880546001600160a01b038381166001600160a01b0319831681179093556040519116919082907f8be0079c531659141344cd1fd0a4f28419497f9722a3daafe3b4186f6b6457e090600090a35050565b60008061282e84611ea8565b9050600081116128785760405162461bcd60e51b8152602060048201526015602482015274496e76616c69642065786368616e6765207261746560581b6044820152606401610a58565b6000606461288683866136fa565b612890919061379a565b905061204a81670de0b6b3a76400006136fa565b6001600160a01b0382166128ce57604051634b637e8f60e11b815260006004820152602401610a58565b61107b82600083612feb565b60006001600160a01b0384166129455760405162461bcd60e51b815260206004820152602a60248201527f5472616e736665724c69623a2053656e6465722063616e6e6f74206265207a65604482015269726f206164647265737360b01b6064820152608401610a58565b6001600160a01b0383166129b05760405162461bcd60e51b815260206004820152602c60248201527f5472616e736665724c69623a2052656365697665722063616e6e6f742062652060448201526b7a65726f206164647265737360a01b6064820152608401610a58565b60008211612a165760405162461bcd60e51b815260206004820152602d60248201527f5472616e736665724c69623a20416d6f756e74206d757374206265206772656160448201526c746572207468616e207a65726f60981b6064820152608401610a58565b6040516370a0823160e01b81526001600160a01b038581166004830152600091908716906370a0823190602401602060405180830381865afa158015612a60573d6000803e3d6000fd5b505050506040513d601f19601f82011682018060405250810190612a849190613905565b905082811015612ae05760405162461bcd60e51b815260206004820152602160248201527f5472616e736665724c69623a20496e73756666696369656e742062616c616e636044820152606560f81b6064820152608401610a58565b604051636eb1769f60e11b81526001600160a01b0386811660048301523060248301526000919088169063dd62ed3e90604401602060405180830381865afa158015612b30573d6000803e3d6000fd5b505050506040513d601f19601f82011682018060405250810190612b549190613905565b905083811015612bb25760405162461bcd60e51b815260206004820152602360248201527f5472616e736665724c69623a20496e73756666696369656e7420616c6c6f77616044820152626e636560e81b6064820152608401610a58565b6040516323b872dd60e01b81526000906001600160a01b038916906323b872dd90612be5908a908a908a906004016137bc565b6020604051808303816000875af1158015612c04573d6000803e3d6000fd5b505050506040513d601f19601f82011682018060405250810190612c289190613778565b905080612c775760405162461bcd60e51b815260206004820152601c60248201527f5472616e736665724c69623a205472616e73666572206661696c6564000000006044820152606401610a58565b856001600160a01b0316876001600160a01b03167f68d8b242061749353081922c3f317f3f4eb148ef7afa77145efa32e9b3c7b93687604051612cbc91815260200190565b60405180910390a3506001979650505050505050565b600082604051602001612ce591906137e0565b6040516020818303038152906040528051906020012084604051602001612d0c91906137e0565b6040516020818303038152906040528051906020012003612d7b5760405162461bcd60e51b815260206004820152602360248201527f43616e6e6f7420636f6e7665727420746f207468652073616d652063757272656044820152626e637960e81b6064820152608401610a58565b6000612d8685611ea8565b905060006064612d9683866136fa565b612da0919061379a565b90506000612dad86611ea8565b905060008111612dff5760405162461bcd60e51b815260206004820152601c60248201527f5461726765742063757272656e63792072617465206973207a65726f000000006044820152606401610a58565b80612e0b8360646136fa565b612e15919061379a565b979650505050505050565b6001600160a01b038416612e4a5760405163e602df0560e01b815260006004820152602401610a58565b6001600160a01b038316612e7457604051634a1406b160e11b815260006004820152602401610a58565b6001600160a01b038085166000908152600160209081526040808320938716835292905220829055801561159457826001600160a01b0316846001600160a01b03167f8c5be1e5ebec7d5bd14f71427d1e84f3dd0314c0f7b2291e5b200ac8c7c3b92584604051612ee791815260200190565b60405180910390a350505050565b600080612f0a670de0b6b3a76400008561379a565b604051621554d160ea1b60208201529091506023016040516020818303038152906040528051906020012085604051602001612f4691906137e0565b6040516020818303038152906040528051906020012003612f68579050610bbb565b6000612f77868563ffffffff16565b905060008111612fdd5760405162461bcd60e51b815260206004820152602b60248201527f526564656d7074696f6e4c69623a20496e76616c69642074617267657420637560448201526a7272656e6379207261746560a81b6064820152608401610a58565b600081612e0b8460646136fa565b6001600160a01b03831661301657806002600082825461300b9190613765565b909155506130889050565b6001600160a01b038316600090815260208190526040902054818110156130695760405163391434e360e21b81526001600160a01b03851660048201526024810182905260448101839052606401610a58565b6001600160a01b03841660009081526020819052604090209082900390555b6001600160a01b0382166130a4576002805482900390556130c3565b6001600160a01b03821660009081526020819052604090208054820190555b816001600160a01b0316836001600160a01b03167fddf252ad1be2c89b69c2b068fc378daa952ba7f163c4a11628f55a4df523b3ef8360405161310891815260200190565b60405180910390a3505050565b80356001600160a01b038116811461312c57600080fd5b919050565b60006020828403121561314357600080fd5b610bbb82613115565b60005b8381101561316757818101518382015260200161314f565b50506000910152565b6000815180845261318881602086016020860161314c565b601f01601f19169290920160200192915050565b602081526000610bbb6020830184613170565b600080604083850312156131c257600080fd5b6131cb83613115565b946020939093013593505050565b634e487b7160e01b600052604160045260246000fd5b600082601f83011261320057600080fd5b81356001600160401b038082111561321a5761321a6131d9565b604051601f8301601f19908116603f01168101908282118183101715613242576132426131d9565b8160405283815286602085880101111561325b57600080fd5b836020870160208301376000602085830101528094505050505092915050565b6000806040838503121561328e57600080fd5b82356001600160401b038111156132a457600080fd5b6132b0858286016131ef565b95602094909401359450505050565b6000806000606084860312156132d457600080fd5b6132dd84613115565b92506132eb60208501613115565b9150604084013590509250925092565b600081518084526020808501945080840160005b8381101561332b5781518752958201959082019060010161330f565b509495945050505050565b60a08152600061334960a08301886132fb565b60208382038185015261335c82896132fb565b9150838203604085015261337082886132fb565b9150838203606085015261338482876132fb565b8481036080860152855180825282870193509082019060005b818110156133bb57845115158352938301939183019160010161339d565b50909a9950505050505050505050565b600080604083850312156133de57600080fd5b6133e783613115565b915060208301356001600160401b0381111561340257600080fd5b61340e858286016131ef565b9150509250929050565b60006020828403121561342a57600080fd5b5035919050565b6000806040838503121561344457600080fd5b50508035926020909101359150565b60006020828403121561346557600080fd5b81356001600160401b0381111561347b57600080fd5b61167c848285016131ef565b60808152600061349a60808301876132fb565b82810360208401526134ac81876132fb565b905082810360408401526134c081866132fb565b90508281036060840152612e1581856132fb565b600080604083850312156134e757600080fd5b6134f083613115565b91506134fe60208401613115565b90509250929050565b60008060006060848603121561351c57600080fd5b83356001600160401b038082111561353357600080fd5b61353f878388016131ef565b9450602086013591508082111561355557600080fd5b50613562868287016131ef565b925050604084013590509250925092565b6000806040838503121561358657600080fd5b82356001600160401b0381111561359c57600080fd5b6135a8858286016131ef565b9250506134fe60208401613115565b600181811c908216806135cb57607f821691505b6020821081036135eb57634e487b7160e01b600052602260045260246000fd5b50919050565b634e487b7160e01b600052601160045260246000fd5b600181815b80851115613642578160001904821115613628576136286135f1565b8085161561363557918102915b93841c939080029061360c565b509250929050565b60008261365957506001610b1b565b8161366657506000610b1b565b816001811461367c5760028114613686576136a2565b6001915050610b1b565b60ff841115613697576136976135f1565b50506001821b610b1b565b5060208310610133831016604e8410600b84101617156136c5575081810a610b1b565b6136cf8383613607565b80600019048211156136e3576136e36135f1565b029392505050565b6000610bbb60ff84168361364a565b8082028115828204841417610b1b57610b1b6135f1565b6060815260006137246060830186613170565b60208301949094525060400152919050565b634e487b7160e01b600052603260045260246000fd5b60006001820161375e5761375e6135f1565b5060010190565b80820180821115610b1b57610b1b6135f1565b60006020828403121561378a57600080fd5b81518015158114610bbb57600080fd5b6000826137b757634e487b7160e01b600052601260045260246000fd5b500490565b6001600160a01b039384168152919092166020820152604081019190915260600190565b600082516137f281846020870161314c565b9190910192915050565b600080835481600182811c91508083168061381857607f831692505b6020808410820361383757634e487b7160e01b86526022600452602486fd5b81801561384b57600181146138605761388d565b60ff198616895284151585028901965061388d565b60008a81526020902060005b868110156138855781548b82015290850190830161386c565b505084890196505b509498975050505050505050565b805169ffffffffffffffffffff8116811461312c57600080fd5b600080600080600060a086880312156138cd57600080fd5b6138d68661389b565b94506020860151935060408601519250606086015191506138f96080870161389b565b90509295509295909350565b60006020828403121561391757600080fd5b5051919050565b81810381811115610b1b57610b1b6135f156fea26469706673582212204918f975907e8a05d610743d2f60dc12dc7f4a572f9a8be21d425e03e1e3b8e764736f6c63430008140033","opcodes":"PUSH1 0xC0 PUSH1 0x40 MSTORE PUSH1 0x3 PUSH1 0x80 SWAP1 DUP2 MSTORE PUSH3 0x1554D1 PUSH1 0xEA SHL PUSH1 0xA0 MSTORE PUSH1 0x6 SWAP1 PUSH3 0x24 SWAP1 DUP3 PUSH3 0x398 JUMP JUMPDEST POP PUSH1 0x3 PUSH1 0xB SSTORE CALLVALUE DUP1 ISZERO PUSH3 0x37 JUMPI PUSH1 0x0 DUP1 REVERT JUMPDEST POP CALLER ADDRESS PUSH1 0x40 MLOAD DUP1 PUSH1 0x40 ADD PUSH1 0x40 MSTORE DUP1 PUSH1 0x9 DUP2 MSTORE PUSH1 0x20 ADD PUSH9 0x232A23A83A37B5B2B7 PUSH1 0xB9 SHL DUP2 MSTORE POP PUSH1 0x40 MLOAD DUP1 PUSH1 0x40 ADD PUSH1 0x40 MSTORE DUP1 PUSH1 0x4 DUP2 MSTORE PUSH1 0x20 ADD PUSH4 0x4654475 PUSH1 0xE4 SHL DUP2 MSTORE POP DUP2 PUSH1 0x3 SWAP1 DUP2 PUSH3 0x8A SWAP2 SWAP1 PUSH3 0x398 JUMP JUMPDEST POP PUSH1 0x4 PUSH3 0x99 DUP3 DUP3 PUSH3 0x398 JUMP JUMPDEST POP POP PUSH1 0x5 DUP1 SLOAD PUSH1 0x1 PUSH1 0x1 PUSH1 0xA0 SHL SUB SWAP4 DUP5 AND PUSH1 0x1 PUSH1 0x1 PUSH1 0xA0 SHL SUB NOT SWAP2 DUP3 AND OR SWAP1 SWAP2 SSTORE PUSH1 0x40 DUP1 MLOAD PUSH3 0x47425 PUSH1 0xEC SHL DUP2 MSTORE PUSH1 0x7 PUSH1 0x3 DUP1 DUP4 ADD DUP3 SWAP1 MSTORE DUP4 MLOAD PUSH1 0x23 SWAP4 DUP2 SWAP1 SUB DUP5 ADD DUP2 KECCAK256 DUP1 SLOAD DUP8 AND PUSH20 0x91FAB41F5F3BE955963A986366EDACFF1AAEAA83 OR SWAP1 SSTORE PUSH3 0x22AAA9 PUSH1 0xE9 SHL DUP2 MSTORE DUP1 DUP3 ADD DUP4 SWAP1 MSTORE DUP5 MLOAD SWAP1 DUP2 SWAP1 SUB DUP5 ADD DUP2 KECCAK256 DUP1 SLOAD DUP8 AND PUSH20 0x1A81AFB8146AEFFCFC5E50E8479E826E7D55B910 OR SWAP1 SSTORE PUSH3 0x4A5059 PUSH1 0xE8 SHL DUP2 MSTORE DUP1 DUP3 ADD DUP4 SWAP1 MSTORE DUP5 MLOAD SWAP1 DUP2 SWAP1 SUB DUP5 ADD DUP2 KECCAK256 DUP1 SLOAD DUP8 AND PUSH20 0x8A6AF2B75F23831ADC973CE6288E5329F63D86C6 OR SWAP1 SSTORE PUSH3 0x8AA89 PUSH1 0xEB SHL DUP2 MSTORE DUP1 DUP3 ADD DUP4 SWAP1 MSTORE DUP5 MLOAD SWAP1 DUP2 SWAP1 SUB DUP5 ADD DUP2 KECCAK256 DUP1 SLOAD DUP8 AND PUSH20 0x694AA1769357215DE4FAC081BF1F309ADC325306 OR SWAP1 SSTORE PUSH3 0x1554D1 PUSH1 0xEA SHL DUP2 MSTORE SWAP1 DUP2 ADD SWAP2 SWAP1 SWAP2 MSTORE SWAP2 MLOAD SWAP2 DUP3 SWAP1 SUB ADD SWAP1 KECCAK256 DUP1 SLOAD SWAP1 SWAP2 AND SWAP1 SSTORE POP DUP2 AND PUSH3 0x1E0 JUMPI PUSH1 0x40 MLOAD PUSH4 0x1E4FBDF7 PUSH1 0xE0 SHL DUP2 MSTORE PUSH1 0x0 PUSH1 0x4 DUP3 ADD MSTORE PUSH1 0x24 ADD PUSH1 0x40 MLOAD DUP1 SWAP2 SUB SWAP1 REVERT JUMPDEST PUSH3 0x1EB DUP2 PUSH3 0x2A1 JUMP JUMPDEST POP PUSH1 0x9 DUP1 SLOAD PUSH1 0x1 PUSH1 0x1 PUSH1 0xA0 SHL SUB NOT AND ADDRESS OR SWAP1 SSTORE PUSH1 0xC PUSH1 0x20 DUP2 SWAP1 MSTORE PUSH1 0x3 PUSH32 0xDF85B3B91DB3FC0D5CE237A54E22266DA0607FEF5FBE5DAEFFA9610EB8AE119C SSTORE PUSH1 0x5 PUSH32 0xEF0F79A2DBCDFF9A8EBE19B620AF73660A85B3DF3E0778F807CDF83AE1E805C8 SSTORE PUSH1 0x8 PUSH32 0x6C82D3A57CEBFEC9927F2AABAD409518216852DF1F4C0220FD7BA03937E50EBC SSTORE PUSH4 0x1E13380 PUSH1 0x0 MSTORE PUSH32 0xEA1E207DDA072346D0EC8DBC69C075DCC6DBF6A2606F1245552E3E0F7C397A2 SSTORE PUSH3 0x464 JUMP JUMPDEST PUSH1 0x8 DUP1 SLOAD PUSH1 0x1 PUSH1 0x1 PUSH1 0xA0 SHL SUB DUP4 DUP2 AND PUSH1 0x1 PUSH1 0x1 PUSH1 0xA0 SHL SUB NOT DUP4 AND DUP2 OR SWAP1 SWAP4 SSTORE PUSH1 0x40 MLOAD SWAP2 AND SWAP2 SWAP1 DUP3 SWAP1 PUSH32 0x8BE0079C531659141344CD1FD0A4F28419497F9722A3DAAFE3B4186F6B6457E0 SWAP1 PUSH1 0x0 SWAP1 LOG3 POP POP JUMP JUMPDEST PUSH4 0x4E487B71 PUSH1 0xE0 SHL PUSH1 0x0 MSTORE PUSH1 0x41 PUSH1 0x4 MSTORE PUSH1 0x24 PUSH1 0x0 REVERT JUMPDEST PUSH1 0x1 DUP2 DUP2 SHR SWAP1 DUP3 AND DUP1 PUSH3 0x31E JUMPI PUSH1 0x7F DUP3 AND SWAP2 POP JUMPDEST PUSH1 0x20 DUP3 LT DUP2 SUB PUSH3 0x33F JUMPI PUSH4 0x4E487B71 PUSH1 0xE0 SHL PUSH1 0x0 MSTORE PUSH1 0x22 PUSH1 0x4 MSTORE PUSH1 0x24 PUSH1 0x0 REVERT JUMPDEST POP SWAP2 SWAP1 POP JUMP JUMPDEST PUSH1 0x1F DUP3 GT ISZERO PUSH3 0x393 JUMPI PUSH1 0x0 DUP2 DUP2 MSTORE PUSH1 0x20 DUP2 KECCAK256 PUSH1 0x1F DUP6 ADD PUSH1 0x5 SHR DUP2 ADD PUSH1 0x20 DUP7 LT ISZERO PUSH3 0x36E JUMPI POP DUP1 JUMPDEST PUSH1 0x1F DUP6 ADD PUSH1 0x5 SHR DUP3 ADD SWAP2 POP JUMPDEST DUP2 DUP2 LT ISZERO PUSH3 0x38F JUMPI DUP3 DUP2 SSTORE PUSH1 0x1 ADD PUSH3 0x37A JUMP JUMPDEST POP POP POP JUMPDEST POP POP POP JUMP JUMPDEST DUP2 MLOAD PUSH1 0x1 PUSH1 0x1 PUSH1 0x40 SHL SUB DUP2 GT ISZERO PUSH3 0x3B4 JUMPI PUSH3 0x3B4 PUSH3 0x2F3 JUMP JUMPDEST PUSH3 0x3CC DUP2 PUSH3 0x3C5 DUP5 SLOAD PUSH3 0x309 JUMP JUMPDEST DUP5 PUSH3 0x345 JUMP JUMPDEST PUSH1 0x20 DUP1 PUSH1 0x1F DUP4 GT PUSH1 0x1 DUP2 EQ PUSH3 0x404 JUMPI PUSH1 0x0 DUP5 ISZERO PUSH3 0x3EB JUMPI POP DUP6 DUP4 ADD MLOAD JUMPDEST PUSH1 0x0 NOT PUSH1 0x3 DUP7 SWAP1 SHL SHR NOT AND PUSH1 0x1 DUP6 SWAP1 SHL OR DUP6 SSTORE PUSH3 0x38F JUMP JUMPDEST PUSH1 0x0 DUP6 DUP2 MSTORE PUSH1 0x20 DUP2 KECCAK256 PUSH1 0x1F NOT DUP7 AND SWAP2 JUMPDEST DUP3 DUP2 LT ISZERO PUSH3 0x435 JUMPI DUP9 DUP7 ADD MLOAD DUP3 SSTORE SWAP5 DUP5 ADD SWAP5 PUSH1 0x1 SWAP1 SWAP2 ADD SWAP1 DUP5 ADD PUSH3 0x414 JUMP JUMPDEST POP DUP6 DUP3 LT ISZERO PUSH3 0x454 JUMPI DUP8 DUP6 ADD MLOAD PUSH1 0x0 NOT PUSH1 0x3 DUP9 SWAP1 SHL PUSH1 0xF8 AND SHR NOT AND DUP2 SSTORE JUMPDEST POP POP POP POP POP PUSH1 0x1 SWAP1 DUP2 SHL ADD SWAP1 SSTORE POP JUMP JUMPDEST PUSH2 0x3967 DUP1 PUSH3 0x474 PUSH1 0x0 CODECOPY PUSH1 0x0 RETURN INVALID PUSH1 0x80 PUSH1 0x40 MSTORE PUSH1 0x4 CALLDATASIZE LT PUSH2 0x2AE JUMPI PUSH1 0x0 CALLDATALOAD PUSH1 0xE0 SHR DUP1 PUSH4 0x92A85FDE GT PUSH2 0x175 JUMPI DUP1 PUSH4 0xDD62ED3E GT PUSH2 0xDC JUMPI DUP1 PUSH4 0xF3B3347E GT PUSH2 0x95 JUMPI DUP1 PUSH4 0xF6CCBADD GT PUSH2 0x6F JUMPI DUP1 PUSH4 0xF6CCBADD EQ PUSH2 0x93D JUMPI DUP1 PUSH4 0xF92881A3 EQ PUSH2 0x95D JUMPI DUP1 PUSH4 0xFC0C546A EQ PUSH2 0x97D JUMPI DUP1 PUSH4 0xFE4E61DF EQ PUSH2 0x99D JUMPI PUSH1 0x0 DUP1 REVERT JUMPDEST DUP1 PUSH4 0xF3B3347E EQ PUSH2 0x8DD JUMPI DUP1 PUSH4 0xF4B54314 EQ PUSH2 0x8FD JUMPI DUP1 PUSH4 0xF500D9DA EQ PUSH2 0x91D JUMPI PUSH1 0x0 DUP1 REVERT JUMPDEST DUP1 PUSH4 0xDD62ED3E EQ PUSH2 0x780 JUMPI DUP1 PUSH4 0xE02A4DFD EQ PUSH2 0x7C6 JUMPI DUP1 PUSH4 0xE11932CF EQ PUSH2 0x7DE JUMPI DUP1 PUSH4 0xE9E190A3 EQ PUSH2 0x7FE JUMPI DUP1 PUSH4 0xEB9D794A EQ PUSH2 0x89D JUMPI DUP1 PUSH4 0xF2FDE38B EQ PUSH2 0x8BD JUMPI PUSH1 0x0 DUP1 REVERT JUMPDEST DUP1 PUSH4 0xA9059CBB GT PUSH2 0x12E JUMPI DUP1 PUSH4 0xA9059CBB EQ PUSH2 0x6D0 JUMPI DUP1 PUSH4 0xBEC3FA17 EQ PUSH2 0x6F0 JUMPI DUP1 PUSH4 0xC0531580 EQ PUSH2 0x710 JUMPI DUP1 PUSH4 0xD1D95588 EQ PUSH2 0x730 JUMPI DUP1 PUSH4 0xD2D48EE3 EQ PUSH2 0x750 JUMPI DUP1 PUSH4 0xDB40F828 EQ PUSH2 0x690 JUMPI PUSH1 0x0 DUP1 REVERT JUMPDEST DUP1 PUSH4 0x92A85FDE EQ PUSH2 0x626 JUMPI DUP1 PUSH4 0x936710BF EQ PUSH2 0x63B JUMPI DUP1 PUSH4 0x95D89B41 EQ PUSH2 0x65B JUMPI DUP1 PUSH4 0x98FB5FC8 EQ PUSH2 0x670 JUMPI DUP1 PUSH4 0xA11E685A EQ PUSH2 0x690 JUMPI DUP1 PUSH4 0xA8FBDD3A EQ PUSH2 0x6B0 JUMPI PUSH1 0x0 DUP1 REVERT JUMPDEST DUP1 PUSH4 0x33289A46 GT PUSH2 0x219 JUMPI DUP1 PUSH4 0x60711058 GT PUSH2 0x1D2 JUMPI DUP1 PUSH4 0x60711058 EQ PUSH2 0x52F JUMPI DUP1 PUSH4 0x70A08231 EQ PUSH2 0x571 JUMPI DUP1 PUSH4 0x715018A6 EQ PUSH2 0x5A7 JUMPI DUP1 PUSH4 0x7FC35CEB EQ PUSH2 0x5BC JUMPI DUP1 PUSH4 0x82D5E7B8 EQ PUSH2 0x5DC JUMPI DUP1 PUSH4 0x8DA5CB5B EQ PUSH2 0x5F4 JUMPI PUSH1 0x0 DUP1 REVERT JUMPDEST DUP1 PUSH4 0x33289A46 EQ PUSH2 0x4A6 JUMPI DUP1 PUSH4 0x385DC3DF EQ PUSH2 0x4C6 JUMPI DUP1 PUSH4 0x40C10F19 EQ PUSH2 0x4DD JUMPI DUP1 PUSH4 0x4859B3F4 EQ PUSH2 0x4FD JUMPI DUP1 PUSH4 0x5696B189 EQ PUSH2 0x505 JUMPI DUP1 PUSH4 0x5B72A33A EQ PUSH2 0x51A JUMPI PUSH1 0x0 DUP1 REVERT JUMPDEST DUP1 PUSH4 0x23B872DD GT PUSH2 0x26B JUMPI DUP1 PUSH4 0x23B872DD EQ PUSH2 0x3B8 JUMPI DUP1 PUSH4 0x2516B3C1 EQ PUSH2 0x3D8 JUMPI DUP1 PUSH4 0x28774994 EQ PUSH2 0x409 JUMPI DUP1 PUSH4 0x29C9CEAD EQ PUSH2 0x41F JUMPI DUP1 PUSH4 0x2E1A7D4D EQ PUSH2 0x468 JUMPI DUP1 PUSH4 0x313CE567 EQ PUSH2 0x48A JUMPI PUSH1 0x0 DUP1 REVERT JUMPDEST DUP1 PUSH4 0x46AD586 EQ PUSH2 0x2B3 JUMPI DUP1 PUSH4 0x6FDDE03 EQ PUSH2 0x2ED JUMPI DUP1 PUSH4 0x95EA7B3 EQ PUSH2 0x30F JUMPI DUP1 PUSH4 0x136A2CA7 EQ PUSH2 0x33F JUMPI DUP1 PUSH4 0x13FCAF54 EQ PUSH2 0x36D JUMPI DUP1 PUSH4 0x18160DDD EQ PUSH2 0x3A3 JUMPI JUMPDEST PUSH1 0x0 DUP1 REVERT JUMPDEST CALLVALUE DUP1 ISZERO PUSH2 0x2BF JUMPI PUSH1 0x0 DUP1 REVERT JUMPDEST POP PUSH2 0x2D3 PUSH2 0x2CE CALLDATASIZE PUSH1 0x4 PUSH2 0x3131 JUMP JUMPDEST PUSH2 0x9B2 JUMP JUMPDEST PUSH1 0x40 DUP1 MLOAD SWAP3 DUP4 MSTORE PUSH1 0x20 DUP4 ADD SWAP2 SWAP1 SWAP2 MSTORE ADD JUMPDEST PUSH1 0x40 MLOAD DUP1 SWAP2 SUB SWAP1 RETURN JUMPDEST CALLVALUE DUP1 ISZERO PUSH2 0x2F9 JUMPI PUSH1 0x0 DUP1 REVERT JUMPDEST POP PUSH2 0x302 PUSH2 0xA75 JUMP JUMPDEST PUSH1 0x40 MLOAD PUSH2 0x2E4 SWAP2 SWAP1 PUSH2 0x319C JUMP JUMPDEST CALLVALUE DUP1 ISZERO PUSH2 0x31B JUMPI PUSH1 0x0 DUP1 REVERT JUMPDEST POP PUSH2 0x32F PUSH2 0x32A CALLDATASIZE PUSH1 0x4 PUSH2 0x31AF JUMP JUMPDEST PUSH2 0xB07 JUMP JUMPDEST PUSH1 0x40 MLOAD SWAP1 ISZERO ISZERO DUP2 MSTORE PUSH1 0x20 ADD PUSH2 0x2E4 JUMP JUMPDEST CALLVALUE DUP1 ISZERO PUSH2 0x34B JUMPI PUSH1 0x0 DUP1 REVERT JUMPDEST POP PUSH2 0x35F PUSH2 0x35A CALLDATASIZE PUSH1 0x4 PUSH2 0x327B JUMP JUMPDEST PUSH2 0xB21 JUMP JUMPDEST PUSH1 0x40 MLOAD SWAP1 DUP2 MSTORE PUSH1 0x20 ADD PUSH2 0x2E4 JUMP JUMPDEST CALLVALUE DUP1 ISZERO PUSH2 0x379 JUMPI PUSH1 0x0 DUP1 REVERT JUMPDEST POP PUSH2 0x35F PUSH2 0x388 CALLDATASIZE PUSH1 0x4 PUSH2 0x3131 JUMP JUMPDEST PUSH1 0x1 PUSH1 0x1 PUSH1 0xA0 SHL SUB AND PUSH1 0x0 SWAP1 DUP2 MSTORE PUSH1 0xA PUSH1 0x20 MSTORE PUSH1 0x40 SWAP1 KECCAK256 SLOAD SWAP1 JUMP JUMPDEST CALLVALUE DUP1 ISZERO PUSH2 0x3AF JUMPI PUSH1 0x0 DUP1 REVERT JUMPDEST POP PUSH1 0x2 SLOAD PUSH2 0x35F JUMP JUMPDEST CALLVALUE DUP1 ISZERO PUSH2 0x3C4 JUMPI PUSH1 0x0 DUP1 REVERT JUMPDEST POP PUSH2 0x32F PUSH2 0x3D3 CALLDATASIZE PUSH1 0x4 PUSH2 0x32BF JUMP JUMPDEST PUSH2 0xB9C JUMP JUMPDEST CALLVALUE DUP1 ISZERO PUSH2 0x3E4 JUMPI PUSH1 0x0 DUP1 REVERT JUMPDEST POP PUSH2 0x3F8 PUSH2 0x3F3 CALLDATASIZE PUSH1 0x4 PUSH2 0x3131 JUMP JUMPDEST PUSH2 0xBC2 JUMP JUMPDEST PUSH1 0x40 MLOAD PUSH2 0x2E4 SWAP6 SWAP5 SWAP4 SWAP3 SWAP2 SWAP1 PUSH2 0x3336 JUMP JUMPDEST CALLVALUE DUP1 ISZERO PUSH2 0x415 JUMPI PUSH1 0x0 DUP1 REVERT JUMPDEST POP PUSH2 0x35F PUSH2 0x3E8 DUP2 JUMP JUMPDEST CALLVALUE DUP1 ISZERO PUSH2 0x42B JUMPI PUSH1 0x0 DUP1 REVERT JUMPDEST POP PUSH2 0x35F PUSH2 0x43A CALLDATASIZE PUSH1 0x4 PUSH2 0x33CB JUMP JUMPDEST PUSH1 0xE PUSH1 0x20 SWAP1 DUP2 MSTORE PUSH1 0x0 SWAP3 DUP4 MSTORE PUSH1 0x40 SWAP1 SWAP3 KECCAK256 DUP2 MLOAD DUP1 DUP4 ADD DUP5 ADD DUP1 MLOAD SWAP3 DUP2 MSTORE SWAP1 DUP5 ADD SWAP3 SWAP1 SWAP4 ADD SWAP2 SWAP1 SWAP2 KECCAK256 SWAP2 MSTORE SLOAD DUP2 JUMP JUMPDEST CALLVALUE DUP1 ISZERO PUSH2 0x474 JUMPI PUSH1 0x0 DUP1 REVERT JUMPDEST POP PUSH2 0x488 PUSH2 0x483 CALLDATASIZE PUSH1 0x4 PUSH2 0x3418 JUMP JUMPDEST PUSH2 0xE53 JUMP JUMPDEST STOP JUMPDEST CALLVALUE DUP1 ISZERO PUSH2 0x496 JUMPI PUSH1 0x0 DUP1 REVERT JUMPDEST POP PUSH1 0x40 MLOAD PUSH1 0x12 DUP2 MSTORE PUSH1 0x20 ADD PUSH2 0x2E4 JUMP JUMPDEST CALLVALUE DUP1 ISZERO PUSH2 0x4B2 JUMPI PUSH1 0x0 DUP1 REVERT JUMPDEST POP PUSH2 0x488 PUSH2 0x4C1 CALLDATASIZE PUSH1 0x4 PUSH2 0x3418 JUMP JUMPDEST PUSH2 0x105D JUMP JUMPDEST CALLVALUE DUP1 ISZERO PUSH2 0x4D2 JUMPI PUSH1 0x0 DUP1 REVERT JUMPDEST POP PUSH2 0x35F PUSH3 0x278D00 DUP2 JUMP JUMPDEST CALLVALUE DUP1 ISZERO PUSH2 0x4E9 JUMPI PUSH1 0x0 DUP1 REVERT JUMPDEST POP PUSH2 0x488 PUSH2 0x4F8 CALLDATASIZE PUSH1 0x4 PUSH2 0x31AF JUMP JUMPDEST PUSH2 0x1069 JUMP JUMPDEST PUSH2 0x488 PUSH2 0x107F JUMP JUMPDEST CALLVALUE DUP1 ISZERO PUSH2 0x511 JUMPI PUSH1 0x0 DUP1 REVERT JUMPDEST POP PUSH2 0x35F PUSH1 0x28 DUP2 JUMP JUMPDEST CALLVALUE DUP1 ISZERO PUSH2 0x526 JUMPI PUSH1 0x0 DUP1 REVERT JUMPDEST POP PUSH2 0x35F PUSH1 0xC DUP2 JUMP JUMPDEST CALLVALUE DUP1 ISZERO PUSH2 0x53B JUMPI PUSH1 0x0 DUP1 REVERT JUMPDEST POP PUSH2 0x54F PUSH2 0x54A CALLDATASIZE PUSH1 0x4 PUSH2 0x31AF JUMP JUMPDEST PUSH2 0x12A2 JUMP JUMPDEST PUSH1 0x40 DUP1 MLOAD SWAP5 DUP6 MSTORE PUSH1 0x20 DUP6 ADD SWAP4 SWAP1 SWAP4 MSTORE SWAP2 DUP4 ADD MSTORE ISZERO ISZERO PUSH1 0x60 DUP3 ADD MSTORE PUSH1 0x80 ADD PUSH2 0x2E4 JUMP JUMPDEST CALLVALUE DUP1 ISZERO PUSH2 0x57D JUMPI PUSH1 0x0 DUP1 REVERT JUMPDEST POP PUSH2 0x35F PUSH2 0x58C CALLDATASIZE PUSH1 0x4 PUSH2 0x3131 JUMP JUMPDEST PUSH1 0x1 PUSH1 0x1 PUSH1 0xA0 SHL SUB AND PUSH1 0x0 SWAP1 DUP2 MSTORE PUSH1 0x20 DUP2 SWAP1 MSTORE PUSH1 0x40 SWAP1 KECCAK256 SLOAD SWAP1 JUMP JUMPDEST CALLVALUE DUP1 ISZERO PUSH2 0x5B3 JUMPI PUSH1 0x0 DUP1 REVERT JUMPDEST POP PUSH2 0x488 PUSH2 0x130A JUMP JUMPDEST CALLVALUE DUP1 ISZERO PUSH2 0x5C8 JUMPI PUSH1 0x0 DUP1 REVERT JUMPDEST POP PUSH2 0x488 PUSH2 0x5D7 CALLDATASIZE PUSH1 0x4 PUSH2 0x3418 JUMP JUMPDEST PUSH2 0x131E JUMP JUMPDEST CALLVALUE DUP1 ISZERO PUSH2 0x5E8 JUMPI PUSH1 0x0 DUP1 REVERT JUMPDEST POP PUSH2 0x35F PUSH4 0x5F5E100 DUP2 JUMP JUMPDEST CALLVALUE DUP1 ISZERO PUSH2 0x600 JUMPI PUSH1 0x0 DUP1 REVERT JUMPDEST POP PUSH1 0x8 SLOAD PUSH1 0x1 PUSH1 0x1 PUSH1 0xA0 SHL SUB AND JUMPDEST PUSH1 0x40 MLOAD PUSH1 0x1 PUSH1 0x1 PUSH1 0xA0 SHL SUB SWAP1 SWAP2 AND DUP2 MSTORE PUSH1 0x20 ADD PUSH2 0x2E4 JUMP JUMPDEST CALLVALUE DUP1 ISZERO PUSH2 0x632 JUMPI PUSH1 0x0 DUP1 REVERT JUMPDEST POP PUSH2 0x302 PUSH2 0x1327 JUMP JUMPDEST CALLVALUE DUP1 ISZERO PUSH2 0x647 JUMPI PUSH1 0x0 DUP1 REVERT JUMPDEST POP PUSH2 0x35F PUSH2 0x656 CALLDATASIZE PUSH1 0x4 PUSH2 0x3131 JUMP JUMPDEST PUSH2 0x13B5 JUMP JUMPDEST CALLVALUE DUP1 ISZERO PUSH2 0x667 JUMPI PUSH1 0x0 DUP1 REVERT JUMPDEST POP PUSH2 0x302 PUSH2 0x13E6 JUMP JUMPDEST CALLVALUE DUP1 ISZERO PUSH2 0x67C JUMPI PUSH1 0x0 DUP1 REVERT JUMPDEST POP PUSH2 0x488 PUSH2 0x68B CALLDATASIZE PUSH1 0x4 PUSH2 0x327B JUMP JUMPDEST PUSH2 0x13F5 JUMP JUMPDEST CALLVALUE DUP1 ISZERO PUSH2 0x69C JUMPI PUSH1 0x0 DUP1 REVERT JUMPDEST POP PUSH2 0x35F PUSH2 0x6AB CALLDATASIZE PUSH1 0x4 PUSH2 0x31AF JUMP JUMPDEST PUSH2 0x159A JUMP JUMPDEST CALLVALUE DUP1 ISZERO PUSH2 0x6BC JUMPI PUSH1 0x0 DUP1 REVERT JUMPDEST POP PUSH2 0x488 PUSH2 0x6CB CALLDATASIZE PUSH1 0x4 PUSH2 0x3431 JUMP JUMPDEST PUSH2 0x1684 JUMP JUMPDEST CALLVALUE DUP1 ISZERO PUSH2 0x6DC JUMPI PUSH1 0x0 DUP1 REVERT JUMPDEST POP PUSH2 0x32F PUSH2 0x6EB CALLDATASIZE PUSH1 0x4 PUSH2 0x31AF JUMP JUMPDEST PUSH2 0x1813 JUMP JUMPDEST CALLVALUE DUP1 ISZERO PUSH2 0x6FC JUMPI PUSH1 0x0 DUP1 REVERT JUMPDEST POP PUSH2 0x32F PUSH2 0x70B CALLDATASIZE PUSH1 0x4 PUSH2 0x31AF JUMP JUMPDEST PUSH2 0x1821 JUMP JUMPDEST CALLVALUE DUP1 ISZERO PUSH2 0x71C JUMPI PUSH1 0x0 DUP1 REVERT JUMPDEST POP PUSH2 0x35F PUSH2 0x72B CALLDATASIZE PUSH1 0x4 PUSH2 0x3453 JUMP JUMPDEST PUSH2 0x1844 JUMP JUMPDEST CALLVALUE DUP1 ISZERO PUSH2 0x73C JUMPI PUSH1 0x0 DUP1 REVERT JUMPDEST POP PUSH2 0x488 PUSH2 0x74B CALLDATASIZE PUSH1 0x4 PUSH2 0x3418 JUMP JUMPDEST PUSH2 0x184F JUMP JUMPDEST CALLVALUE DUP1 ISZERO PUSH2 0x75C JUMPI PUSH1 0x0 DUP1 REVERT JUMPDEST POP PUSH2 0x770 PUSH2 0x76B CALLDATASIZE PUSH1 0x4 PUSH2 0x3131 JUMP JUMPDEST PUSH2 0x1989 JUMP JUMPDEST PUSH1 0x40 MLOAD PUSH2 0x2E4 SWAP5 SWAP4 SWAP3 SWAP2 SWAP1 PUSH2 0x3487 JUMP JUMPDEST CALLVALUE DUP1 ISZERO PUSH2 0x78C JUMPI PUSH1 0x0 DUP1 REVERT JUMPDEST POP PUSH2 0x35F PUSH2 0x79B CALLDATASIZE PUSH1 0x4 PUSH2 0x34D4 JUMP JUMPDEST PUSH1 0x1 PUSH1 0x1 PUSH1 0xA0 SHL SUB SWAP2 DUP3 AND PUSH1 0x0 SWAP1 DUP2 MSTORE PUSH1 0x1 PUSH1 0x20 SWAP1 DUP2 MSTORE PUSH1 0x40 DUP1 DUP4 KECCAK256 SWAP4 SWAP1 SWAP5 AND DUP3 MSTORE SWAP2 SWAP1 SWAP2 MSTORE KECCAK256 SLOAD SWAP1 JUMP JUMPDEST CALLVALUE DUP1 ISZERO PUSH2 0x7D2 JUMPI PUSH1 0x0 DUP1 REVERT JUMPDEST POP PUSH2 0x35F PUSH4 0x1DA9C00 DUP2 JUMP JUMPDEST CALLVALUE DUP1 ISZERO PUSH2 0x7EA JUMPI PUSH1 0x0 DUP1 REVERT JUMPDEST POP PUSH2 0x35F PUSH2 0x7F9 CALLDATASIZE PUSH1 0x4 PUSH2 0x3131 JUMP JUMPDEST PUSH2 0x1D0C JUMP JUMPDEST CALLVALUE DUP1 ISZERO PUSH2 0x80A JUMPI PUSH1 0x0 DUP1 REVERT JUMPDEST POP PUSH2 0x85F PUSH2 0x819 CALLDATASIZE PUSH1 0x4 PUSH2 0x3131 JUMP JUMPDEST PUSH1 0xD PUSH1 0x20 MSTORE PUSH1 0x0 SWAP1 DUP2 MSTORE PUSH1 0x40 SWAP1 KECCAK256 DUP1 SLOAD PUSH1 0x1 DUP3 ADD SLOAD PUSH1 0x2 DUP4 ADD SLOAD PUSH1 0x3 DUP5 ADD SLOAD PUSH1 0x4 DUP6 ADD SLOAD PUSH1 0x5 DUP7 ADD SLOAD PUSH1 0x6 SWAP1 SWAP7 ADD SLOAD SWAP5 SWAP6 SWAP4 SWAP5 SWAP3 SWAP4 SWAP2 SWAP3 SWAP1 SWAP2 SWAP1 PUSH1 0x1 PUSH1 0x1 PUSH1 0xA0 SHL SUB AND DUP8 JUMP JUMPDEST PUSH1 0x40 DUP1 MLOAD SWAP8 DUP9 MSTORE PUSH1 0x20 DUP9 ADD SWAP7 SWAP1 SWAP7 MSTORE SWAP5 DUP7 ADD SWAP4 SWAP1 SWAP4 MSTORE PUSH1 0x60 DUP6 ADD SWAP2 SWAP1 SWAP2 MSTORE PUSH1 0x80 DUP5 ADD MSTORE PUSH1 0xA0 DUP4 ADD MSTORE PUSH1 0x1 PUSH1 0x1 PUSH1 0xA0 SHL SUB AND PUSH1 0xC0 DUP3 ADD MSTORE PUSH1 0xE0 ADD PUSH2 0x2E4 JUMP JUMPDEST CALLVALUE DUP1 ISZERO PUSH2 0x8A9 JUMPI PUSH1 0x0 DUP1 REVERT JUMPDEST POP PUSH2 0x35F PUSH2 0x8B8 CALLDATASIZE PUSH1 0x4 PUSH2 0x3507 JUMP JUMPDEST PUSH2 0x1E14 JUMP JUMPDEST CALLVALUE DUP1 ISZERO PUSH2 0x8C9 JUMPI PUSH1 0x0 DUP1 REVERT JUMPDEST POP PUSH2 0x488 PUSH2 0x8D8 CALLDATASIZE PUSH1 0x4 PUSH2 0x3131 JUMP JUMPDEST PUSH2 0x1E21 JUMP JUMPDEST CALLVALUE DUP1 ISZERO PUSH2 0x8E9 JUMPI PUSH1 0x0 DUP1 REVERT JUMPDEST POP PUSH2 0x488 PUSH2 0x8F8 CALLDATASIZE PUSH1 0x4 PUSH2 0x3573 JUMP JUMPDEST PUSH2 0x1E5C JUMP JUMPDEST CALLVALUE DUP1 ISZERO PUSH2 0x909 JUMPI PUSH1 0x0 DUP1 REVERT JUMPDEST POP PUSH2 0x35F PUSH2 0x918 CALLDATASIZE PUSH1 0x4 PUSH2 0x3453 JUMP JUMPDEST PUSH2 0x1EA8 JUMP JUMPDEST CALLVALUE DUP1 ISZERO PUSH2 0x929 JUMPI PUSH1 0x0 DUP1 REVERT JUMPDEST POP PUSH2 0x488 PUSH2 0x938 CALLDATASIZE PUSH1 0x4 PUSH2 0x3431 JUMP JUMPDEST PUSH2 0x2053 JUMP JUMPDEST CALLVALUE DUP1 ISZERO PUSH2 0x949 JUMPI PUSH1 0x0 DUP1 REVERT JUMPDEST POP PUSH2 0x60E PUSH2 0x958 CALLDATASIZE PUSH1 0x4 PUSH2 0x3453 JUMP JUMPDEST PUSH2 0x205D JUMP JUMPDEST CALLVALUE DUP1 ISZERO PUSH2 0x969 JUMPI PUSH1 0x0 DUP1 REVERT JUMPDEST POP PUSH2 0x488 PUSH2 0x978 CALLDATASIZE PUSH1 0x4 PUSH2 0x327B JUMP JUMPDEST PUSH2 0x208E JUMP JUMPDEST CALLVALUE DUP1 ISZERO PUSH2 0x989 JUMPI PUSH1 0x0 DUP1 REVERT JUMPDEST POP PUSH1 0x5 SLOAD PUSH2 0x60E SWAP1 PUSH1 0x1 PUSH1 0x1 PUSH1 0xA0 SHL SUB AND DUP2 JUMP JUMPDEST CALLVALUE DUP1 ISZERO PUSH2 0x9A9 JUMPI PUSH1 0x0 DUP1 REVERT JUMPDEST POP PUSH2 0x35F PUSH2 0x2137 JUMP JUMPDEST PUSH1 0x1 PUSH1 0x1 PUSH1 0xA0 SHL SUB DUP1 DUP3 AND PUSH1 0x0 SWAP1 DUP2 MSTORE PUSH1 0xD PUSH1 0x20 SWAP1 DUP2 MSTORE PUSH1 0x40 DUP1 DUP4 KECCAK256 DUP2 MLOAD PUSH1 0xE0 DUP2 ADD DUP4 MSTORE DUP2 SLOAD DUP2 MSTORE PUSH1 0x1 DUP3 ADD SLOAD SWAP4 DUP2 ADD DUP5 SWAP1 MSTORE PUSH1 0x2 DUP3 ADD SLOAD SWAP3 DUP2 ADD SWAP3 SWAP1 SWAP3 MSTORE PUSH1 0x3 DUP2 ADD SLOAD PUSH1 0x60 DUP4 ADD MSTORE PUSH1 0x4 DUP2 ADD SLOAD PUSH1 0x80 DUP4 ADD MSTORE PUSH1 0x5 DUP2 ADD SLOAD PUSH1 0xA0 DUP4 ADD MSTORE PUSH1 0x6 ADD SLOAD SWAP1 SWAP4 AND PUSH1 0xC0 DUP5 ADD MSTORE SWAP1 SWAP2 DUP3 SWAP2 PUSH2 0xA61 JUMPI PUSH1 0x40 MLOAD PUSH3 0x461BCD PUSH1 0xE5 SHL DUP2 MSTORE PUSH1 0x20 PUSH1 0x4 DUP3 ADD MSTORE PUSH1 0xE PUSH1 0x24 DUP3 ADD MSTORE PUSH14 0x27379030B1BA34BB32903637B0B7 PUSH1 0x91 SHL PUSH1 0x44 DUP3 ADD MSTORE PUSH1 0x64 ADD JUMPDEST PUSH1 0x40 MLOAD DUP1 SWAP2 SUB SWAP1 REVERT JUMPDEST DUP1 PUSH1 0x80 ADD MLOAD DUP2 PUSH1 0x60 ADD MLOAD SWAP3 POP SWAP3 POP POP SWAP2 POP SWAP2 JUMP JUMPDEST PUSH1 0x60 PUSH1 0x3 DUP1 SLOAD PUSH2 0xA84 SWAP1 PUSH2 0x35B7 JUMP JUMPDEST DUP1 PUSH1 0x1F ADD PUSH1 0x20 DUP1 SWAP2 DIV MUL PUSH1 0x20 ADD PUSH1 0x40 MLOAD SWAP1 DUP2 ADD PUSH1 0x40 MSTORE DUP1 SWAP3 SWAP2 SWAP1 DUP2 DUP2 MSTORE PUSH1 0x20 ADD DUP3 DUP1 SLOAD PUSH2 0xAB0 SWAP1 PUSH2 0x35B7 JUMP JUMPDEST DUP1 ISZERO PUSH2 0xAFD JUMPI DUP1 PUSH1 0x1F LT PUSH2 0xAD2 JUMPI PUSH2 0x100 DUP1 DUP4 SLOAD DIV MUL DUP4 MSTORE SWAP2 PUSH1 0x20 ADD SWAP2 PUSH2 0xAFD JUMP JUMPDEST DUP3 ADD SWAP2 SWAP1 PUSH1 0x0 MSTORE PUSH1 0x20 PUSH1 0x0 KECCAK256 SWAP1 JUMPDEST DUP2 SLOAD DUP2 MSTORE SWAP1 PUSH1 0x1 ADD SWAP1 PUSH1 0x20 ADD DUP1 DUP4 GT PUSH2 0xAE0 JUMPI DUP3 SWAP1 SUB PUSH1 0x1F AND DUP3 ADD SWAP2 JUMPDEST POP POP POP POP POP SWAP1 POP SWAP1 JUMP JUMPDEST PUSH1 0x0 CALLER PUSH2 0xB15 DUP2 DUP6 DUP6 PUSH2 0x2157 JUMP JUMPDEST PUSH1 0x1 SWAP2 POP POP JUMPDEST SWAP3 SWAP2 POP POP JUMP JUMPDEST PUSH1 0x0 DUP1 PUSH2 0xB30 PUSH1 0x12 PUSH1 0xA PUSH2 0x36EB JUMP JUMPDEST PUSH2 0xB3A SWAP1 DUP5 PUSH2 0x36FA JUMP JUMPDEST SWAP1 POP PUSH1 0x0 PUSH2 0xB4D ADDRESS CALLER DUP8 DUP6 PUSH2 0x1EA8 PUSH2 0x2169 JUMP JUMPDEST SWAP1 POP CALLER PUSH1 0x1 PUSH1 0x1 PUSH1 0xA0 SHL SUB AND PUSH32 0x5B5EC4F516DC748CDC19EAED1F8E52BE9E3DBF46768E90C539FCADA6B82A6046 DUP7 DUP5 DUP5 PUSH1 0x40 MLOAD PUSH2 0xB8C SWAP4 SWAP3 SWAP2 SWAP1 PUSH2 0x3711 JUMP JUMPDEST PUSH1 0x40 MLOAD DUP1 SWAP2 SUB SWAP1 LOG2 SWAP5 SWAP4 POP POP POP POP JUMP JUMPDEST PUSH1 0x0 CALLER PUSH2 0xBAA DUP6 DUP3 DUP6 PUSH2 0x262B JUMP JUMPDEST PUSH2 0xBB5 DUP6 DUP6 DUP6 PUSH2 0x26A4 JUMP JUMPDEST PUSH1 0x1 SWAP2 POP POP JUMPDEST SWAP4 SWAP3 POP POP POP JUMP JUMPDEST PUSH1 0x1 PUSH1 0x1 PUSH1 0xA0 SHL SUB DUP2 AND PUSH1 0x0 SWAP1 DUP2 MSTORE PUSH1 0xA PUSH1 0x20 MSTORE PUSH1 0x40 SWAP1 KECCAK256 SLOAD PUSH1 0x60 SWAP1 DUP2 SWAP1 DUP2 SWAP1 DUP2 SWAP1 DUP2 SWAP1 DUP1 PUSH1 0x1 PUSH1 0x1 PUSH1 0x40 SHL SUB DUP2 GT ISZERO PUSH2 0xBFE JUMPI PUSH2 0xBFE PUSH2 0x31D9 JUMP JUMPDEST PUSH1 0x40 MLOAD SWAP1 DUP1 DUP3 MSTORE DUP1 PUSH1 0x20 MUL PUSH1 0x20 ADD DUP3 ADD PUSH1 0x40 MSTORE DUP1 ISZERO PUSH2 0xC27 JUMPI DUP2 PUSH1 0x20 ADD PUSH1 0x20 DUP3 MUL DUP1 CALLDATASIZE DUP4 CALLDATACOPY ADD SWAP1 POP JUMPDEST POP SWAP6 POP DUP1 PUSH1 0x1 PUSH1 0x1 PUSH1 0x40 SHL SUB DUP2 GT ISZERO PUSH2 0xC42 JUMPI PUSH2 0xC42 PUSH2 0x31D9 JUMP JUMPDEST PUSH1 0x40 MLOAD SWAP1 DUP1 DUP3 MSTORE DUP1 PUSH1 0x20 MUL PUSH1 0x20 ADD DUP3 ADD PUSH1 0x40 MSTORE DUP1 ISZERO PUSH2 0xC6B JUMPI DUP2 PUSH1 0x20 ADD PUSH1 0x20 DUP3 MUL DUP1 CALLDATASIZE DUP4 CALLDATACOPY ADD SWAP1 POP JUMPDEST POP SWAP5 POP DUP1 PUSH1 0x1 PUSH1 0x1 PUSH1 0x40 SHL SUB DUP2 GT ISZERO PUSH2 0xC86 JUMPI PUSH2 0xC86 PUSH2 0x31D9 JUMP JUMPDEST PUSH1 0x40 MLOAD SWAP1 DUP1 DUP3 MSTORE DUP1 PUSH1 0x20 MUL PUSH1 0x20 ADD DUP3 ADD PUSH1 0x40 MSTORE DUP1 ISZERO PUSH2 0xCAF JUMPI DUP2 PUSH1 0x20 ADD PUSH1 0x20 DUP3 MUL DUP1 CALLDATASIZE DUP4 CALLDATACOPY ADD SWAP1 POP JUMPDEST POP SWAP4 POP DUP1 PUSH1 0x1 PUSH1 0x1 PUSH1 0x40 SHL SUB DUP2 GT ISZERO PUSH2 0xCCA JUMPI PUSH2 0xCCA PUSH2 0x31D9 JUMP JUMPDEST PUSH1 0x40 MLOAD SWAP1 DUP1 DUP3 MSTORE DUP1 PUSH1 0x20 MUL PUSH1 0x20 ADD DUP3 ADD PUSH1 0x40 MSTORE DUP1 ISZERO PUSH2 0xCF3 JUMPI DUP2 PUSH1 0x20 ADD PUSH1 0x20 DUP3 MUL DUP1 CALLDATASIZE DUP4 CALLDATACOPY ADD SWAP1 POP JUMPDEST POP SWAP3 POP DUP1 PUSH1 0x1 PUSH1 0x1 PUSH1 0x40 SHL SUB DUP2 GT ISZERO PUSH2 0xD0E JUMPI PUSH2 0xD0E PUSH2 0x31D9 JUMP JUMPDEST PUSH1 0x40 MLOAD SWAP1 DUP1 DUP3 MSTORE DUP1 PUSH1 0x20 MUL PUSH1 0x20 ADD DUP3 ADD PUSH1 0x40 MSTORE DUP1 ISZERO PUSH2 0xD37 JUMPI DUP2 PUSH1 0x20 ADD PUSH1 0x20 DUP3 MUL DUP1 CALLDATASIZE DUP4 CALLDATACOPY ADD SWAP1 POP JUMPDEST POP SWAP2 POP PUSH1 0x0 JUMPDEST DUP2 DUP2 LT ISZERO PUSH2 0xE48 JUMPI PUSH1 0x1 PUSH1 0x1 PUSH1 0xA0 SHL SUB DUP9 AND PUSH1 0x0 SWAP1 DUP2 MSTORE PUSH1 0xA PUSH1 0x20 MSTORE PUSH1 0x40 DUP2 KECCAK256 DUP1 SLOAD DUP4 SWAP1 DUP2 LT PUSH2 0xD6F JUMPI PUSH2 0xD6F PUSH2 0x3736 JUMP JUMPDEST SWAP1 PUSH1 0x0 MSTORE PUSH1 0x20 PUSH1 0x0 KECCAK256 SWAP1 PUSH1 0x4 MUL ADD SWAP1 POP DUP2 DUP9 DUP4 DUP2 MLOAD DUP2 LT PUSH2 0xD92 JUMPI PUSH2 0xD92 PUSH2 0x3736 JUMP JUMPDEST PUSH1 0x20 MUL PUSH1 0x20 ADD ADD DUP2 DUP2 MSTORE POP POP DUP1 PUSH1 0x0 ADD SLOAD DUP8 DUP4 DUP2 MLOAD DUP2 LT PUSH2 0xDB5 JUMPI PUSH2 0xDB5 PUSH2 0x3736 JUMP JUMPDEST PUSH1 0x20 MUL PUSH1 0x20 ADD ADD DUP2 DUP2 MSTORE POP POP DUP1 PUSH1 0x1 ADD SLOAD DUP7 DUP4 DUP2 MLOAD DUP2 LT PUSH2 0xDD8 JUMPI PUSH2 0xDD8 PUSH2 0x3736 JUMP JUMPDEST PUSH1 0x20 MUL PUSH1 0x20 ADD ADD DUP2 DUP2 MSTORE POP POP DUP1 PUSH1 0x2 ADD SLOAD DUP6 DUP4 DUP2 MLOAD DUP2 LT PUSH2 0xDFB JUMPI PUSH2 0xDFB PUSH2 0x3736 JUMP JUMPDEST PUSH1 0x20 SWAP1 DUP2 MUL SWAP2 SWAP1 SWAP2 ADD ADD MSTORE PUSH1 0x3 DUP2 ADD SLOAD DUP5 MLOAD PUSH1 0xFF SWAP1 SWAP2 AND SWAP1 DUP6 SWAP1 DUP5 SWAP1 DUP2 LT PUSH2 0xE25 JUMPI PUSH2 0xE25 PUSH2 0x3736 JUMP JUMPDEST SWAP2 ISZERO ISZERO PUSH1 0x20 SWAP3 DUP4 MUL SWAP2 SWAP1 SWAP2 ADD SWAP1 SWAP2 ADD MSTORE POP DUP1 PUSH2 0xE40 DUP2 PUSH2 0x374C JUMP JUMPDEST SWAP2 POP POP PUSH2 0xD3D JUMP JUMPDEST POP POP SWAP2 SWAP4 SWAP6 SWAP1 SWAP3 SWAP5 POP JUMP JUMPDEST CALLER PUSH1 0x0 SWAP1 DUP2 MSTORE PUSH1 0xA PUSH1 0x20 MSTORE PUSH1 0x40 SWAP1 KECCAK256 SLOAD DUP2 LT PUSH2 0xEA1 JUMPI PUSH1 0x40 MLOAD PUSH3 0x461BCD PUSH1 0xE5 SHL DUP2 MSTORE PUSH1 0x20 PUSH1 0x4 DUP3 ADD MSTORE PUSH1 0xD PUSH1 0x24 DUP3 ADD MSTORE PUSH13 0x92DCECC2D8D2C840D2DCC8CAF PUSH1 0x9B SHL PUSH1 0x44 DUP3 ADD MSTORE PUSH1 0x64 ADD PUSH2 0xA58 JUMP JUMPDEST CALLER PUSH1 0x0 SWAP1 DUP2 MSTORE PUSH1 0xA PUSH1 0x20 MSTORE PUSH1 0x40 DUP2 KECCAK256 DUP1 SLOAD DUP4 SWAP1 DUP2 LT PUSH2 0xEC2 JUMPI PUSH2 0xEC2 PUSH2 0x3736 JUMP JUMPDEST PUSH1 0x0 SWAP2 DUP3 MSTORE PUSH1 0x20 SWAP1 SWAP2 KECCAK256 PUSH1 0x4 SWAP1 SWAP2 MUL ADD PUSH1 0x3 DUP2 ADD SLOAD SWAP1 SWAP2 POP PUSH1 0xFF AND ISZERO PUSH2 0xF1E JUMPI PUSH1 0x40 MLOAD PUSH3 0x461BCD PUSH1 0xE5 SHL DUP2 MSTORE PUSH1 0x20 PUSH1 0x4 DUP3 ADD MSTORE PUSH1 0x11 PUSH1 0x24 DUP3 ADD MSTORE PUSH17 0x20B63932B0B23C903BB4BA34323930BBB7 PUSH1 0x79 SHL PUSH1 0x44 DUP3 ADD MSTORE PUSH1 0x64 ADD PUSH2 0xA58 JUMP JUMPDEST PUSH1 0x2 DUP2 ADD SLOAD ISZERO PUSH2 0xF7E JUMPI DUP1 PUSH1 0x2 ADD SLOAD DUP2 PUSH1 0x1 ADD SLOAD PUSH2 0xF3C SWAP2 SWAP1 PUSH2 0x3765 JUMP JUMPDEST TIMESTAMP LT ISZERO PUSH2 0xF7E JUMPI PUSH1 0x40 MLOAD PUSH3 0x461BCD PUSH1 0xE5 SHL DUP2 MSTORE PUSH1 0x20 PUSH1 0x4 DUP3 ADD MSTORE PUSH1 0x10 PUSH1 0x24 DUP3 ADD MSTORE PUSH16 0x131BD8DADD5C081B9BDD08195B991959 PUSH1 0x82 SHL PUSH1 0x44 DUP3 ADD MSTORE PUSH1 0x64 ADD PUSH2 0xA58 JUMP JUMPDEST PUSH1 0x40 DUP1 MLOAD PUSH1 0x80 DUP2 ADD DUP3 MSTORE DUP3 SLOAD DUP2 MSTORE PUSH1 0x1 DUP4 ADD SLOAD PUSH1 0x20 DUP3 ADD MSTORE PUSH1 0x2 DUP4 ADD SLOAD SWAP2 DUP2 ADD SWAP2 SWAP1 SWAP2 MSTORE PUSH1 0x3 DUP3 ADD SLOAD PUSH1 0xFF AND ISZERO ISZERO PUSH1 0x60 DUP3 ADD MSTORE PUSH1 0x0 SWAP1 PUSH2 0xFBD SWAP1 PUSH2 0x2703 JUMP JUMPDEST SWAP1 POP PUSH1 0x0 DUP2 DUP4 PUSH1 0x0 ADD SLOAD PUSH2 0xFD1 SWAP2 SWAP1 PUSH2 0x3765 JUMP JUMPDEST PUSH1 0x3 DUP5 ADD DUP1 SLOAD PUSH1 0xFF NOT AND PUSH1 0x1 OR SWAP1 SSTORE PUSH1 0x9 SLOAD PUSH1 0x40 MLOAD PUSH4 0xA9059CBB PUSH1 0xE0 SHL DUP2 MSTORE CALLER PUSH1 0x4 DUP3 ADD MSTORE PUSH1 0x24 DUP2 ADD DUP4 SWAP1 MSTORE SWAP2 SWAP3 POP PUSH1 0x1 PUSH1 0x1 PUSH1 0xA0 SHL SUB AND SWAP1 PUSH4 0xA9059CBB SWAP1 PUSH1 0x44 ADD PUSH1 0x20 PUSH1 0x40 MLOAD DUP1 DUP4 SUB DUP2 PUSH1 0x0 DUP8 GAS CALL ISZERO DUP1 ISZERO PUSH2 0x1032 JUMPI RETURNDATASIZE PUSH1 0x0 DUP1 RETURNDATACOPY RETURNDATASIZE PUSH1 0x0 REVERT JUMPDEST POP POP POP POP PUSH1 0x40 MLOAD RETURNDATASIZE PUSH1 0x1F NOT PUSH1 0x1F DUP3 ADD AND DUP3 ADD DUP1 PUSH1 0x40 MSTORE POP DUP2 ADD SWAP1 PUSH2 0x1056 SWAP2 SWAP1 PUSH2 0x3778 JUMP JUMPDEST POP POP POP POP POP JUMP JUMPDEST PUSH2 0x1066 DUP2 PUSH2 0xE53 JUMP JUMPDEST POP JUMP JUMPDEST PUSH2 0x1071 PUSH2 0x276D JUMP JUMPDEST PUSH2 0x107B DUP3 DUP3 PUSH2 0x279A JUMP JUMPDEST POP POP JUMP JUMPDEST PUSH1 0x0 CALLVALUE GT PUSH2 0x10D9 JUMPI PUSH1 0x40 MLOAD PUSH3 0x461BCD PUSH1 0xE5 SHL DUP2 MSTORE PUSH1 0x20 PUSH1 0x4 DUP3 ADD MSTORE PUSH1 0x21 PUSH1 0x24 DUP3 ADD MSTORE PUSH32 0x436F6C6C61746572616C206D7573742062652067726561746572207468616E20 PUSH1 0x44 DUP3 ADD MSTORE PUSH1 0x3 PUSH1 0xFC SHL PUSH1 0x64 DUP3 ADD MSTORE PUSH1 0x84 ADD PUSH2 0xA58 JUMP JUMPDEST CALLER PUSH1 0x0 SWAP1 DUP2 MSTORE PUSH1 0xD PUSH1 0x20 MSTORE PUSH1 0x40 SWAP1 KECCAK256 PUSH1 0x1 ADD SLOAD ISZERO PUSH2 0x112F JUMPI PUSH1 0x40 MLOAD PUSH3 0x461BCD PUSH1 0xE5 SHL DUP2 MSTORE PUSH1 0x20 PUSH1 0x4 DUP3 ADD MSTORE PUSH1 0x13 PUSH1 0x24 DUP3 ADD MSTORE PUSH19 0x4C6F616E20616C726561647920657869737473 PUSH1 0x68 SHL PUSH1 0x44 DUP3 ADD MSTORE PUSH1 0x64 ADD PUSH2 0xA58 JUMP JUMPDEST CALLVALUE PUSH1 0x0 PUSH8 0xDE0B6B3A7640000 PUSH2 0x1147 PUSH2 0x3E8 DUP5 PUSH2 0x36FA JUMP JUMPDEST PUSH2 0x1151 SWAP2 SWAP1 PUSH2 0x379A JUMP JUMPDEST SWAP1 POP PUSH1 0x0 PUSH1 0x64 PUSH2 0x1162 PUSH1 0x28 DUP5 PUSH2 0x36FA JUMP JUMPDEST PUSH2 0x116C SWAP2 SWAP1 PUSH2 0x379A JUMP JUMPDEST SWAP1 POP PUSH1 0x0 PUSH2 0x117C PUSH1 0x12 PUSH1 0xA PUSH2 0x36EB JUMP JUMPDEST PUSH2 0x1186 SWAP1 DUP4 PUSH2 0x36FA JUMP JUMPDEST SWAP1 POP PUSH1 0x0 PUSH1 0x64 PUSH2 0x1197 PUSH1 0xC DUP5 PUSH2 0x36FA JUMP JUMPDEST PUSH2 0x11A1 SWAP2 SWAP1 PUSH2 0x379A JUMP JUMPDEST SWAP1 POP PUSH1 0x0 PUSH2 0x11AF DUP3 DUP5 PUSH2 0x3765 JUMP JUMPDEST SWAP1 POP PUSH1 0x0 PUSH2 0x11BE PUSH1 0xC DUP4 PUSH2 0x379A JUMP JUMPDEST SWAP1 POP PUSH2 0x11CA CALLER DUP6 PUSH2 0x279A JUMP JUMPDEST PUSH1 0x40 DUP1 MLOAD PUSH1 0xE0 DUP2 ADD DUP3 MSTORE DUP9 DUP2 MSTORE PUSH1 0x20 DUP1 DUP3 ADD DUP8 DUP2 MSTORE TIMESTAMP DUP4 DUP6 ADD DUP2 DUP2 MSTORE PUSH1 0x60 DUP1 DUP7 ADD DUP10 DUP2 MSTORE PUSH1 0x80 DUP8 ADD DUP10 DUP2 MSTORE PUSH1 0x0 PUSH1 0xA0 DUP10 ADD DUP2 DUP2 MSTORE CALLER PUSH1 0xC0 DUP12 ADD DUP2 DUP2 MSTORE DUP2 DUP5 MSTORE PUSH1 0xD DUP12 MSTORE SWAP3 DUP13 SWAP1 KECCAK256 SWAP11 MLOAD DUP12 SSTORE SWAP8 MLOAD PUSH1 0x1 DUP12 ADD SSTORE SWAP5 MLOAD PUSH1 0x2 DUP11 ADD SSTORE SWAP2 MLOAD PUSH1 0x3 DUP10 ADD SSTORE MLOAD PUSH1 0x4 DUP9 ADD SSTORE SWAP2 MLOAD PUSH1 0x5 DUP8 ADD SSTORE SWAP1 MLOAD PUSH1 0x6 SWAP1 SWAP6 ADD DUP1 SLOAD PUSH1 0x1 PUSH1 0x1 PUSH1 0xA0 SHL SUB NOT AND PUSH1 0x1 PUSH1 0x1 PUSH1 0xA0 SHL SUB SWAP1 SWAP7 AND SWAP6 SWAP1 SWAP6 OR SWAP1 SWAP5 SSTORE DUP5 MLOAD DUP13 DUP2 MSTORE SWAP3 DUP4 ADD DUP10 SWAP1 MSTORE SWAP4 DUP3 ADD SWAP4 SWAP1 SWAP4 MSTORE PUSH32 0x3CD57C87BBF542B3C5EDCC7801148EA7D9A169CB16849E0A523EA18EADC58D3 SWAP2 ADD PUSH1 0x40 MLOAD DUP1 SWAP2 SUB SWAP1 LOG2 POP POP POP POP POP POP POP JUMP JUMPDEST PUSH1 0x1 PUSH1 0x1 PUSH1 0xA0 SHL SUB DUP3 AND PUSH1 0x0 SWAP1 DUP2 MSTORE PUSH1 0xA PUSH1 0x20 MSTORE PUSH1 0x40 DUP2 KECCAK256 DUP1 SLOAD DUP3 SWAP2 DUP3 SWAP2 DUP3 SWAP2 DUP3 SWAP2 DUP8 SWAP1 DUP2 LT PUSH2 0x12D4 JUMPI PUSH2 0x12D4 PUSH2 0x3736 JUMP JUMPDEST PUSH1 0x0 SWAP2 DUP3 MSTORE PUSH1 0x20 SWAP1 SWAP2 KECCAK256 PUSH1 0x4 SWAP1 SWAP2 MUL ADD DUP1 SLOAD PUSH1 0x1 DUP3 ADD SLOAD PUSH1 0x2 DUP4 ADD SLOAD PUSH1 0x3 SWAP1 SWAP4 ADD SLOAD SWAP2 SWAP11 SWAP1 SWAP10 POP SWAP2 SWAP8 POP PUSH1 0xFF AND SWAP6 POP SWAP4 POP POP POP POP JUMP JUMPDEST PUSH2 0x1312 PUSH2 0x276D JUMP JUMPDEST PUSH2 0x131C PUSH1 0x0 PUSH2 0x27D0 JUMP JUMPDEST JUMP JUMPDEST PUSH2 0x1066 DUP2 PUSH2 0x184F JUMP JUMPDEST PUSH1 0x6 DUP1 SLOAD PUSH2 0x1334 SWAP1 PUSH2 0x35B7 JUMP JUMPDEST DUP1 PUSH1 0x1F ADD PUSH1 0x20 DUP1 SWAP2 DIV MUL PUSH1 0x20 ADD PUSH1 0x40 MLOAD SWAP1 DUP2 ADD PUSH1 0x40 MSTORE DUP1 SWAP3 SWAP2 SWAP1 DUP2 DUP2 MSTORE PUSH1 0x20 ADD DUP3 DUP1 SLOAD PUSH2 0x1360 SWAP1 PUSH2 0x35B7 JUMP JUMPDEST DUP1 ISZERO PUSH2 0x13AD JUMPI DUP1 PUSH1 0x1F LT PUSH2 0x1382 JUMPI PUSH2 0x100 DUP1 DUP4 SLOAD DIV MUL DUP4 MSTORE SWAP2 PUSH1 0x20 ADD SWAP2 PUSH2 0x13AD JUMP JUMPDEST DUP3 ADD SWAP2 SWAP1 PUSH1 0x0 MSTORE PUSH1 0x20 PUSH1 0x0 KECCAK256 SWAP1 JUMPDEST DUP2 SLOAD DUP2 MSTORE SWAP1 PUSH1 0x1 ADD SWAP1 PUSH1 0x20 ADD DUP1 DUP4 GT PUSH2 0x1390 JUMPI DUP3 SWAP1 SUB PUSH1 0x1F AND DUP3 ADD SWAP2 JUMPDEST POP POP POP POP POP DUP2 JUMP JUMPDEST PUSH1 0x0 PUSH2 0x13C3 PUSH1 0x12 PUSH1 0xA PUSH2 0x36EB JUMP JUMPDEST PUSH1 0x1 PUSH1 0x1 PUSH1 0xA0 SHL SUB DUP4 AND PUSH1 0x0 SWAP1 DUP2 MSTORE PUSH1 0x20 DUP2 SWAP1 MSTORE PUSH1 0x40 SWAP1 KECCAK256 SLOAD PUSH2 0xB1B SWAP2 SWAP1 PUSH2 0x379A JUMP JUMPDEST PUSH1 0x60 PUSH1 0x4 DUP1 SLOAD PUSH2 0xA84 SWAP1 PUSH2 0x35B7 JUMP JUMPDEST CALLER PUSH1 0x0 SWAP1 DUP2 MSTORE PUSH1 0xD PUSH1 0x20 MSTORE PUSH1 0x40 SWAP1 KECCAK256 PUSH1 0x1 DUP2 ADD SLOAD PUSH2 0x1446 JUMPI PUSH1 0x40 MLOAD PUSH3 0x461BCD PUSH1 0xE5 SHL DUP2 MSTORE PUSH1 0x20 PUSH1 0x4 DUP3 ADD MSTORE PUSH1 0xE PUSH1 0x24 DUP3 ADD MSTORE PUSH14 0x27379030B1BA34BB32903637B0B7 PUSH1 0x91 SHL PUSH1 0x44 DUP3 ADD MSTORE PUSH1 0x64 ADD PUSH2 0xA58 JUMP JUMPDEST PUSH1 0x0 PUSH2 0x1452 DUP5 DUP5 PUSH2 0x2822 JUMP JUMPDEST SWAP1 POP PUSH1 0x0 DUP2 GT PUSH2 0x14A4 JUMPI PUSH1 0x40 MLOAD PUSH3 0x461BCD PUSH1 0xE5 SHL DUP2 MSTORE PUSH1 0x20 PUSH1 0x4 DUP3 ADD DUP2 SWAP1 MSTORE PUSH1 0x24 DUP3 ADD MSTORE PUSH32 0x436F6E76657273696F6E206661696C6564206F72207A65726F20616D6F756E74 PUSH1 0x44 DUP3 ADD MSTORE PUSH1 0x64 ADD PUSH2 0xA58 JUMP JUMPDEST PUSH2 0x14AE ADDRESS DUP3 PUSH2 0x279A JUMP JUMPDEST DUP1 DUP3 PUSH1 0x5 ADD PUSH1 0x0 DUP3 DUP3 SLOAD PUSH2 0x14C2 SWAP2 SWAP1 PUSH2 0x3765 JUMP JUMPDEST SWAP1 SWAP2 SSTORE POP PUSH2 0x14D2 SWAP1 POP ADDRESS DUP3 PUSH2 0x28A4 JUMP JUMPDEST DUP2 PUSH1 0x3 ADD SLOAD DUP3 PUSH1 0x5 ADD SLOAD LT PUSH2 0x1594 JUMPI DUP2 SLOAD CALLER PUSH1 0x0 DUP2 DUP2 MSTORE PUSH1 0xD PUSH1 0x20 MSTORE PUSH1 0x40 DUP1 DUP3 KECCAK256 DUP3 DUP2 SSTORE PUSH1 0x1 DUP2 ADD DUP4 SWAP1 SSTORE PUSH1 0x2 DUP2 ADD DUP4 SWAP1 SSTORE PUSH1 0x3 DUP2 ADD DUP4 SWAP1 SSTORE PUSH1 0x4 DUP2 ADD DUP4 SWAP1 SSTORE PUSH1 0x5 DUP2 ADD DUP4 SWAP1 SSTORE PUSH1 0x6 ADD DUP1 SLOAD PUSH1 0x1 PUSH1 0x1 PUSH1 0xA0 SHL SUB NOT AND SWAP1 SSTORE MLOAD DUP4 ISZERO PUSH2 0x8FC MUL SWAP2 DUP5 SWAP2 SWAP1 DUP2 DUP2 DUP2 DUP6 DUP9 DUP9 CALL SWAP4 POP POP POP POP ISZERO DUP1 ISZERO PUSH2 0x1552 JUMPI RETURNDATASIZE PUSH1 0x0 DUP1 RETURNDATACOPY RETURNDATASIZE PUSH1 0x0 REVERT JUMPDEST POP PUSH1 0x5 DUP4 ADD SLOAD PUSH1 0x40 DUP1 MLOAD SWAP2 DUP3 MSTORE TIMESTAMP PUSH1 0x20 DUP4 ADD MSTORE CALLER SWAP2 PUSH32 0xC7CE0A35F17B490DE2A317E7FECB2CAE86B1ABFFB03800B2F492823521382698 SWAP2 ADD PUSH1 0x40 MLOAD DUP1 SWAP2 SUB SWAP1 LOG2 POP JUMPDEST POP POP POP POP JUMP JUMPDEST PUSH1 0x1 PUSH1 0x1 PUSH1 0xA0 SHL SUB DUP3 AND PUSH1 0x0 SWAP1 DUP2 MSTORE PUSH1 0xA PUSH1 0x20 MSTORE PUSH1 0x40 DUP2 KECCAK256 SLOAD DUP3 LT PUSH2 0x15F1 JUMPI PUSH1 0x40 MLOAD PUSH3 0x461BCD PUSH1 0xE5 SHL DUP2 MSTORE PUSH1 0x20 PUSH1 0x4 DUP3 ADD MSTORE PUSH1 0xD PUSH1 0x24 DUP3 ADD MSTORE PUSH13 0x92DCECC2D8D2C840D2DCC8CAF PUSH1 0x9B SHL PUSH1 0x44 DUP3 ADD MSTORE PUSH1 0x64 ADD PUSH2 0xA58 JUMP JUMPDEST PUSH1 0x1 PUSH1 0x1 PUSH1 0xA0 SHL SUB DUP4 AND PUSH1 0x0 SWAP1 DUP2 MSTORE PUSH1 0xA PUSH1 0x20 MSTORE PUSH1 0x40 DUP2 KECCAK256 DUP1 SLOAD DUP5 SWAP1 DUP2 LT PUSH2 0x161B JUMPI PUSH2 0x161B PUSH2 0x3736 JUMP JUMPDEST PUSH1 0x0 SWAP2 DUP3 MSTORE PUSH1 0x20 SWAP2 DUP3 SWAP1 KECCAK256 PUSH1 0x40 DUP1 MLOAD PUSH1 0x80 DUP2 ADD DUP3 MSTORE PUSH1 0x4 SWAP1 SWAP4 MUL SWAP1 SWAP2 ADD DUP1 SLOAD DUP4 MSTORE PUSH1 0x1 DUP2 ADD SLOAD SWAP4 DUP4 ADD SWAP4 SWAP1 SWAP4 MSTORE PUSH1 0x2 DUP4 ADD SLOAD SWAP1 DUP3 ADD MSTORE PUSH1 0x3 SWAP1 SWAP2 ADD SLOAD PUSH1 0xFF AND ISZERO DUP1 ISZERO PUSH1 0x60 DUP4 ADD MSTORE SWAP1 SWAP2 POP PUSH2 0x1673 JUMPI PUSH1 0x0 SWAP2 POP POP PUSH2 0xB1B JUMP JUMPDEST PUSH2 0x167C DUP2 PUSH2 0x2703 JUMP JUMPDEST SWAP5 SWAP4 POP POP POP POP JUMP JUMPDEST PUSH1 0x0 DUP3 GT PUSH2 0x16D4 JUMPI PUSH1 0x40 MLOAD PUSH3 0x461BCD PUSH1 0xE5 SHL DUP2 MSTORE PUSH1 0x20 PUSH1 0x4 DUP3 ADD MSTORE PUSH1 0x1D PUSH1 0x24 DUP3 ADD MSTORE PUSH32 0x416D6F756E74206D7573742062652067726561746572207468616E2030000000 PUSH1 0x44 DUP3 ADD MSTORE PUSH1 0x64 ADD PUSH2 0xA58 JUMP JUMPDEST PUSH1 0x0 DUP2 DUP2 MSTORE PUSH1 0xC PUSH1 0x20 MSTORE PUSH1 0x40 SWAP1 KECCAK256 SLOAD PUSH2 0x1727 JUMPI PUSH1 0x40 MLOAD PUSH3 0x461BCD PUSH1 0xE5 SHL DUP2 MSTORE PUSH1 0x20 PUSH1 0x4 DUP3 ADD MSTORE PUSH1 0x15 PUSH1 0x24 DUP3 ADD MSTORE PUSH21 0x125B9D985B1A59081B1BD8DADD5C081C195C9A5BD9 PUSH1 0x5A SHL PUSH1 0x44 DUP3 ADD MSTORE PUSH1 0x64 ADD PUSH2 0xA58 JUMP JUMPDEST PUSH1 0x9 SLOAD PUSH1 0x40 MLOAD PUSH4 0x23B872DD PUSH1 0xE0 SHL DUP2 MSTORE PUSH1 0x1 PUSH1 0x1 PUSH1 0xA0 SHL SUB SWAP1 SWAP2 AND SWAP1 PUSH4 0x23B872DD SWAP1 PUSH2 0x175B SWAP1 CALLER SWAP1 ADDRESS SWAP1 DUP8 SWAP1 PUSH1 0x4 ADD PUSH2 0x37BC JUMP JUMPDEST PUSH1 0x20 PUSH1 0x40 MLOAD DUP1 DUP4 SUB DUP2 PUSH1 0x0 DUP8 GAS CALL ISZERO DUP1 ISZERO PUSH2 0x177A JUMPI RETURNDATASIZE PUSH1 0x0 DUP1 RETURNDATACOPY RETURNDATASIZE PUSH1 0x0 REVERT JUMPDEST POP POP POP POP PUSH1 0x40 MLOAD RETURNDATASIZE PUSH1 0x1F NOT PUSH1 0x1F DUP3 ADD AND DUP3 ADD DUP1 PUSH1 0x40 MSTORE POP DUP2 ADD SWAP1 PUSH2 0x179E SWAP2 SWAP1 PUSH2 0x3778 JUMP JUMPDEST POP CALLER PUSH1 0x0 SWAP1 DUP2 MSTORE PUSH1 0xA PUSH1 0x20 SWAP1 DUP2 MSTORE PUSH1 0x40 DUP1 DUP4 KECCAK256 DUP2 MLOAD PUSH1 0x80 DUP2 ADD DUP4 MSTORE SWAP6 DUP7 MSTORE TIMESTAMP DUP7 DUP5 ADD SWAP1 DUP2 MSTORE SWAP2 DUP7 ADD SWAP5 DUP6 MSTORE PUSH1 0x60 DUP7 ADD DUP5 DUP2 MSTORE DUP2 SLOAD PUSH1 0x1 DUP1 DUP3 ADD DUP5 SSTORE SWAP3 DUP7 MSTORE SWAP4 SWAP1 SWAP5 KECCAK256 SWAP6 MLOAD PUSH1 0x4 SWAP1 SWAP4 MUL SWAP1 SWAP6 ADD SWAP2 DUP3 SSTORE MLOAD SWAP4 DUP2 ADD SWAP4 SWAP1 SWAP4 SSTORE SWAP1 MLOAD PUSH1 0x2 DUP4 ADD SSTORE MLOAD PUSH1 0x3 SWAP1 SWAP2 ADD DUP1 SLOAD PUSH1 0xFF NOT AND SWAP2 ISZERO ISZERO SWAP2 SWAP1 SWAP2 OR SWAP1 SSTORE JUMP JUMPDEST PUSH1 0x0 CALLER PUSH2 0xB15 DUP2 DUP6 DUP6 PUSH2 0x26A4 JUMP JUMPDEST PUSH1 0x0 DUP1 PUSH2 0x1836 DUP4 PUSH8 0xDE0B6B3A7640000 PUSH2 0x36FA JUMP JUMPDEST SWAP1 POP PUSH2 0x167C ADDRESS CALLER DUP7 DUP5 PUSH2 0x28DA JUMP JUMPDEST PUSH1 0x0 PUSH2 0xB1B DUP3 PUSH2 0x1EA8 JUMP JUMPDEST PUSH1 0x0 DUP2 GT PUSH2 0x189F JUMPI PUSH1 0x40 MLOAD PUSH3 0x461BCD PUSH1 0xE5 SHL DUP2 MSTORE PUSH1 0x20 PUSH1 0x4 DUP3 ADD MSTORE PUSH1 0x1D PUSH1 0x24 DUP3 ADD MSTORE PUSH32 0x416D6F756E74206D7573742062652067726561746572207468616E2030000000 PUSH1 0x44 DUP3 ADD MSTORE PUSH1 0x64 ADD PUSH2 0xA58 JUMP JUMPDEST PUSH1 0x9 SLOAD PUSH1 0x40 MLOAD PUSH4 0x23B872DD PUSH1 0xE0 SHL DUP2 MSTORE PUSH1 0x1 PUSH1 0x1 PUSH1 0xA0 SHL SUB SWAP1 SWAP2 AND SWAP1 PUSH4 0x23B872DD SWAP1 PUSH2 0x18D3 SWAP1 CALLER SWAP1 ADDRESS SWAP1 DUP7 SWAP1 PUSH1 0x4 ADD PUSH2 0x37BC JUMP JUMPDEST PUSH1 0x20 PUSH1 0x40 MLOAD DUP1 DUP4 SUB DUP2 PUSH1 0x0 DUP8 GAS CALL ISZERO DUP1 ISZERO PUSH2 0x18F2 JUMPI RETURNDATASIZE PUSH1 0x0 DUP1 RETURNDATACOPY RETURNDATASIZE PUSH1 0x0 REVERT JUMPDEST POP POP POP POP PUSH1 0x40 MLOAD RETURNDATASIZE PUSH1 0x1F NOT PUSH1 0x1F DUP3 ADD AND DUP3 ADD DUP1 PUSH1 0x40 MSTORE POP DUP2 ADD SWAP1 PUSH2 0x1916 SWAP2 SWAP1 PUSH2 0x3778 JUMP JUMPDEST POP CALLER PUSH1 0x0 SWAP1 DUP2 MSTORE PUSH1 0xA PUSH1 0x20 SWAP1 DUP2 MSTORE PUSH1 0x40 DUP1 DUP4 KECCAK256 DUP2 MLOAD PUSH1 0x80 DUP2 ADD DUP4 MSTORE SWAP5 DUP6 MSTORE TIMESTAMP DUP6 DUP5 ADD SWAP1 DUP2 MSTORE SWAP2 DUP6 ADD DUP5 DUP2 MSTORE PUSH1 0x60 DUP7 ADD DUP6 DUP2 MSTORE DUP3 SLOAD PUSH1 0x1 DUP1 DUP3 ADD DUP6 SSTORE SWAP4 DUP8 MSTORE SWAP5 SWAP1 SWAP6 KECCAK256 SWAP6 MLOAD PUSH1 0x4 SWAP1 SWAP5 MUL SWAP1 SWAP6 ADD SWAP3 DUP4 SSTORE SWAP1 MLOAD SWAP1 DUP3 ADD SSTORE SWAP2 MLOAD PUSH1 0x2 DUP4 ADD SSTORE MLOAD PUSH1 0x3 SWAP1 SWAP2 ADD DUP1 SLOAD PUSH1 0xFF NOT AND SWAP2 ISZERO ISZERO SWAP2 SWAP1 SWAP2 OR SWAP1 SSTORE JUMP JUMPDEST PUSH1 0x60 DUP1 PUSH1 0x60 DUP1 PUSH1 0x0 DUP1 JUMPDEST PUSH1 0x1 PUSH1 0x1 PUSH1 0xA0 SHL SUB DUP8 AND PUSH1 0x0 SWAP1 DUP2 MSTORE PUSH1 0xA PUSH1 0x20 MSTORE PUSH1 0x40 SWAP1 KECCAK256 SLOAD DUP2 LT ISZERO PUSH2 0x1A18 JUMPI PUSH1 0x1 PUSH1 0x1 PUSH1 0xA0 SHL SUB DUP8 AND PUSH1 0x0 SWAP1 DUP2 MSTORE PUSH1 0xA PUSH1 0x20 MSTORE PUSH1 0x40 SWAP1 KECCAK256 DUP1 SLOAD DUP3 SWAP1 DUP2 LT PUSH2 0x19DD JUMPI PUSH2 0x19DD PUSH2 0x3736 JUMP JUMPDEST PUSH1 0x0 SWAP2 DUP3 MSTORE PUSH1 0x20 SWAP1 SWAP2 KECCAK256 PUSH1 0x3 PUSH1 0x4 SWAP1 SWAP3 MUL ADD ADD SLOAD PUSH1 0xFF AND PUSH2 0x1A06 JUMPI DUP2 PUSH2 0x1A02 DUP2 PUSH2 0x374C JUMP JUMPDEST SWAP3 POP POP JUMPDEST DUP1 PUSH2 0x1A10 DUP2 PUSH2 0x374C JUMP JUMPDEST SWAP2 POP POP PUSH2 0x1993 JUMP JUMPDEST POP DUP1 PUSH1 0x1 PUSH1 0x1 PUSH1 0x40 SHL SUB DUP2 GT ISZERO PUSH2 0x1A31 JUMPI PUSH2 0x1A31 PUSH2 0x31D9 JUMP JUMPDEST PUSH1 0x40 MLOAD SWAP1 DUP1 DUP3 MSTORE DUP1 PUSH1 0x20 MUL PUSH1 0x20 ADD DUP3 ADD PUSH1 0x40 MSTORE DUP1 ISZERO PUSH2 0x1A5A JUMPI DUP2 PUSH1 0x20 ADD PUSH1 0x20 DUP3 MUL DUP1 CALLDATASIZE DUP4 CALLDATACOPY ADD SWAP1 POP JUMPDEST POP SWAP5 POP DUP1 PUSH1 0x1 PUSH1 0x1 PUSH1 0x40 SHL SUB DUP2 GT ISZERO PUSH2 0x1A75 JUMPI PUSH2 0x1A75 PUSH2 0x31D9 JUMP JUMPDEST PUSH1 0x40 MLOAD SWAP1 DUP1 DUP3 MSTORE DUP1 PUSH1 0x20 MUL PUSH1 0x20 ADD DUP3 ADD PUSH1 0x40 MSTORE DUP1 ISZERO PUSH2 0x1A9E JUMPI DUP2 PUSH1 0x20 ADD PUSH1 0x20 DUP3 MUL DUP1 CALLDATASIZE DUP4 CALLDATACOPY ADD SWAP1 POP JUMPDEST POP SWAP4 POP DUP1 PUSH1 0x1 PUSH1 0x1 PUSH1 0x40 SHL SUB DUP2 GT ISZERO PUSH2 0x1AB9 JUMPI PUSH2 0x1AB9 PUSH2 0x31D9 JUMP JUMPDEST PUSH1 0x40 MLOAD SWAP1 DUP1 DUP3 MSTORE DUP1 PUSH1 0x20 MUL PUSH1 0x20 ADD DUP3 ADD PUSH1 0x40 MSTORE DUP1 ISZERO PUSH2 0x1AE2 JUMPI DUP2 PUSH1 0x20 ADD PUSH1 0x20 DUP3 MUL DUP1 CALLDATASIZE DUP4 CALLDATACOPY ADD SWAP1 POP JUMPDEST POP SWAP3 POP DUP1 PUSH1 0x1 PUSH1 0x1 PUSH1 0x40 SHL SUB DUP2 GT ISZERO PUSH2 0x1AFD JUMPI PUSH2 0x1AFD PUSH2 0x31D9 JUMP JUMPDEST PUSH1 0x40 MLOAD SWAP1 DUP1 DUP3 MSTORE DUP1 PUSH1 0x20 MUL PUSH1 0x20 ADD DUP3 ADD PUSH1 0x40 MSTORE DUP1 ISZERO PUSH2 0x1B26 JUMPI DUP2 PUSH1 0x20 ADD PUSH1 0x20 DUP3 MUL DUP1 CALLDATASIZE DUP4 CALLDATACOPY ADD SWAP1 POP JUMPDEST POP SWAP2 POP PUSH1 0x0 DUP1 JUMPDEST PUSH1 0x1 PUSH1 0x1 PUSH1 0xA0 SHL SUB DUP9 AND PUSH1 0x0 SWAP1 DUP2 MSTORE PUSH1 0xA PUSH1 0x20 MSTORE PUSH1 0x40 SWAP1 KECCAK256 SLOAD DUP2 LT ISZERO PUSH2 0x1D02 JUMPI PUSH1 0x1 PUSH1 0x1 PUSH1 0xA0 SHL SUB DUP9 AND PUSH1 0x0 SWAP1 DUP2 MSTORE PUSH1 0xA PUSH1 0x20 MSTORE PUSH1 0x40 SWAP1 KECCAK256 DUP1 SLOAD DUP3 SWAP1 DUP2 LT PUSH2 0x1B77 JUMPI PUSH2 0x1B77 PUSH2 0x3736 JUMP JUMPDEST PUSH1 0x0 SWAP2 DUP3 MSTORE PUSH1 0x20 SWAP1 SWAP2 KECCAK256 PUSH1 0x3 PUSH1 0x4 SWAP1 SWAP3 MUL ADD ADD SLOAD PUSH1 0xFF AND PUSH2 0x1CF0 JUMPI DUP1 DUP8 DUP4 DUP2 MLOAD DUP2 LT PUSH2 0x1BA5 JUMPI PUSH2 0x1BA5 PUSH2 0x3736 JUMP JUMPDEST PUSH1 0x20 MUL PUSH1 0x20 ADD ADD DUP2 DUP2 MSTORE POP POP PUSH1 0xA PUSH1 0x0 DUP10 PUSH1 0x1 PUSH1 0x1 PUSH1 0xA0 SHL SUB AND PUSH1 0x1 PUSH1 0x1 PUSH1 0xA0 SHL SUB AND DUP2 MSTORE PUSH1 0x20 ADD SWAP1 DUP2 MSTORE PUSH1 0x20 ADD PUSH1 0x0 KECCAK256 DUP2 DUP2 SLOAD DUP2 LT PUSH2 0x1BE7 JUMPI PUSH2 0x1BE7 PUSH2 0x3736 JUMP JUMPDEST SWAP1 PUSH1 0x0 MSTORE PUSH1 0x20 PUSH1 0x0 KECCAK256 SWAP1 PUSH1 0x4 MUL ADD PUSH1 0x0 ADD SLOAD DUP7 DUP4 DUP2 MLOAD DUP2 LT PUSH2 0x1C0B JUMPI PUSH2 0x1C0B PUSH2 0x3736 JUMP JUMPDEST PUSH1 0x20 MUL PUSH1 0x20 ADD ADD DUP2 DUP2 MSTORE POP POP PUSH1 0xA PUSH1 0x0 DUP10 PUSH1 0x1 PUSH1 0x1 PUSH1 0xA0 SHL SUB AND PUSH1 0x1 PUSH1 0x1 PUSH1 0xA0 SHL SUB AND DUP2 MSTORE PUSH1 0x20 ADD SWAP1 DUP2 MSTORE PUSH1 0x20 ADD PUSH1 0x0 KECCAK256 DUP2 DUP2 SLOAD DUP2 LT PUSH2 0x1C4D JUMPI PUSH2 0x1C4D PUSH2 0x3736 JUMP JUMPDEST SWAP1 PUSH1 0x0 MSTORE PUSH1 0x20 PUSH1 0x0 KECCAK256 SWAP1 PUSH1 0x4 MUL ADD PUSH1 0x1 ADD SLOAD DUP6 DUP4 DUP2 MLOAD DUP2 LT PUSH2 0x1C71 JUMPI PUSH2 0x1C71 PUSH2 0x3736 JUMP JUMPDEST PUSH1 0x20 MUL PUSH1 0x20 ADD ADD DUP2 DUP2 MSTORE POP POP PUSH1 0xA PUSH1 0x0 DUP10 PUSH1 0x1 PUSH1 0x1 PUSH1 0xA0 SHL SUB AND PUSH1 0x1 PUSH1 0x1 PUSH1 0xA0 SHL SUB AND DUP2 MSTORE PUSH1 0x20 ADD SWAP1 DUP2 MSTORE PUSH1 0x20 ADD PUSH1 0x0 KECCAK256 DUP2 DUP2 SLOAD DUP2 LT PUSH2 0x1CB3 JUMPI PUSH2 0x1CB3 PUSH2 0x3736 JUMP JUMPDEST SWAP1 PUSH1 0x0 MSTORE PUSH1 0x20 PUSH1 0x0 KECCAK256 SWAP1 PUSH1 0x4 MUL ADD PUSH1 0x2 ADD SLOAD DUP5 DUP4 DUP2 MLOAD DUP2 LT PUSH2 0x1CD7 JUMPI PUSH2 0x1CD7 PUSH2 0x3736 JUMP JUMPDEST PUSH1 0x20 SWAP1 DUP2 MUL SWAP2 SWAP1 SWAP2 ADD ADD MSTORE DUP2 PUSH2 0x1CEC DUP2 PUSH2 0x374C JUMP JUMPDEST SWAP3 POP POP JUMPDEST DUP1 PUSH2 0x1CFA DUP2 PUSH2 0x374C JUMP JUMPDEST SWAP2 POP POP PUSH2 0x1B2D JUMP JUMPDEST POP POP POP SWAP2 SWAP4 POP SWAP2 SWAP4 JUMP JUMPDEST PUSH1 0x1 PUSH1 0x1 PUSH1 0xA0 SHL SUB DUP2 AND PUSH1 0x0 SWAP1 DUP2 MSTORE PUSH1 0xA PUSH1 0x20 SWAP1 DUP2 MSTORE PUSH1 0x40 DUP1 DUP4 KECCAK256 DUP1 SLOAD DUP3 MLOAD DUP2 DUP6 MUL DUP2 ADD DUP6 ADD SWAP1 SWAP4 MSTORE DUP1 DUP4 MSTORE DUP5 SWAP4 DUP5 SWAP1 DUP5 ADD JUMPDEST DUP3 DUP3 LT ISZERO PUSH2 0x1D98 JUMPI PUSH1 0x0 DUP5 DUP2 MSTORE PUSH1 0x20 SWAP1 DUP2 SWAP1 KECCAK256 PUSH1 0x40 DUP1 MLOAD PUSH1 0x80 DUP2 ADD DUP3 MSTORE PUSH1 0x4 DUP7 MUL SWAP1 SWAP3 ADD DUP1 SLOAD DUP4 MSTORE PUSH1 0x1 DUP1 DUP3 ADD SLOAD DUP5 DUP7 ADD MSTORE PUSH1 0x2 DUP3 ADD SLOAD SWAP3 DUP5 ADD SWAP3 SWAP1 SWAP3 MSTORE PUSH1 0x3 ADD SLOAD PUSH1 0xFF AND ISZERO ISZERO PUSH1 0x60 DUP4 ADD MSTORE SWAP1 DUP4 MSTORE SWAP1 SWAP3 ADD SWAP2 ADD PUSH2 0x1D3F JUMP JUMPDEST POP POP POP POP SWAP1 POP PUSH1 0x0 JUMPDEST DUP2 MLOAD DUP2 LT ISZERO PUSH2 0x1E0D JUMPI DUP2 DUP2 DUP2 MLOAD DUP2 LT PUSH2 0x1DBC JUMPI PUSH2 0x1DBC PUSH2 0x3736 JUMP JUMPDEST PUSH1 0x20 MUL PUSH1 0x20 ADD ADD MLOAD PUSH1 0x60 ADD MLOAD PUSH2 0x1DFB JUMPI PUSH2 0x1DEE DUP3 DUP3 DUP2 MLOAD DUP2 LT PUSH2 0x1DE1 JUMPI PUSH2 0x1DE1 PUSH2 0x3736 JUMP JUMPDEST PUSH1 0x20 MUL PUSH1 0x20 ADD ADD MLOAD PUSH2 0x2703 JUMP JUMPDEST PUSH2 0x1DF8 SWAP1 DUP5 PUSH2 0x3765 JUMP JUMPDEST SWAP3 POP JUMPDEST DUP1 PUSH2 0x1E05 DUP2 PUSH2 0x374C JUMP JUMPDEST SWAP2 POP POP PUSH2 0x1DA1 JUMP JUMPDEST POP POP SWAP2 SWAP1 POP JUMP JUMPDEST PUSH1 0x0 PUSH2 0x167C DUP5 DUP5 DUP5 PUSH2 0x2CD2 JUMP JUMPDEST PUSH2 0x1E29 PUSH2 0x276D JUMP JUMPDEST PUSH1 0x1 PUSH1 0x1 PUSH1 0xA0 SHL SUB DUP2 AND PUSH2 0x1E53 JUMPI PUSH1 0x40 MLOAD PUSH4 0x1E4FBDF7 PUSH1 0xE0 SHL DUP2 MSTORE PUSH1 0x0 PUSH1 0x4 DUP3 ADD MSTORE PUSH1 0x24 ADD PUSH2 0xA58 JUMP JUMPDEST PUSH2 0x1066 DUP2 PUSH2 0x27D0 JUMP JUMPDEST PUSH2 0x1E64 PUSH2 0x276D JUMP JUMPDEST DUP1 PUSH1 0x7 DUP4 PUSH1 0x40 MLOAD PUSH2 0x1E75 SWAP2 SWAP1 PUSH2 0x37E0 JUMP JUMPDEST SWAP1 DUP2 MSTORE PUSH1 0x40 MLOAD SWAP1 DUP2 SWAP1 SUB PUSH1 0x20 ADD SWAP1 KECCAK256 DUP1 SLOAD PUSH1 0x1 PUSH1 0x1 PUSH1 0xA0 SHL SUB SWAP3 SWAP1 SWAP3 AND PUSH1 0x1 PUSH1 0x1 PUSH1 0xA0 SHL SUB NOT SWAP1 SWAP3 AND SWAP2 SWAP1 SWAP2 OR SWAP1 SSTORE POP POP JUMP JUMPDEST PUSH1 0x0 PUSH1 0x6 PUSH1 0x40 MLOAD PUSH1 0x20 ADD PUSH2 0x1EBC SWAP2 SWAP1 PUSH2 0x37FC JUMP JUMPDEST PUSH1 0x40 MLOAD PUSH1 0x20 DUP2 DUP4 SUB SUB DUP2 MSTORE SWAP1 PUSH1 0x40 MSTORE DUP1 MLOAD SWAP1 PUSH1 0x20 ADD KECCAK256 DUP3 PUSH1 0x40 MLOAD PUSH1 0x20 ADD PUSH2 0x1EE3 SWAP2 SWAP1 PUSH2 0x37E0 JUMP JUMPDEST PUSH1 0x40 MLOAD PUSH1 0x20 DUP2 DUP4 SUB SUB DUP2 MSTORE SWAP1 PUSH1 0x40 MSTORE DUP1 MLOAD SWAP1 PUSH1 0x20 ADD KECCAK256 SUB PUSH2 0x1F06 JUMPI POP PUSH1 0x64 SWAP2 SWAP1 POP JUMP JUMPDEST PUSH1 0x0 PUSH1 0x7 DUP4 PUSH1 0x40 MLOAD PUSH2 0x1F18 SWAP2 SWAP1 PUSH2 0x37E0 JUMP JUMPDEST SWAP1 DUP2 MSTORE PUSH1 0x40 MLOAD SWAP1 DUP2 SWAP1 SUB PUSH1 0x20 ADD SWAP1 KECCAK256 SLOAD PUSH1 0x1 PUSH1 0x1 PUSH1 0xA0 SHL SUB AND SWAP1 POP DUP1 PUSH2 0x1F80 JUMPI PUSH1 0x40 MLOAD PUSH3 0x461BCD PUSH1 0xE5 SHL DUP2 MSTORE PUSH1 0x20 PUSH1 0x4 DUP3 ADD MSTORE PUSH1 0x1F PUSH1 0x24 DUP3 ADD MSTORE PUSH32 0x50726963652066656564206E6F742073657420666F722063757272656E637900 PUSH1 0x44 DUP3 ADD MSTORE PUSH1 0x64 ADD PUSH2 0xA58 JUMP JUMPDEST PUSH1 0x0 DUP2 PUSH1 0x1 PUSH1 0x1 PUSH1 0xA0 SHL SUB AND PUSH4 0xFEAF968C PUSH1 0x40 MLOAD DUP2 PUSH4 0xFFFFFFFF AND PUSH1 0xE0 SHL DUP2 MSTORE PUSH1 0x4 ADD PUSH1 0xA0 PUSH1 0x40 MLOAD DUP1 DUP4 SUB DUP2 DUP7 GAS STATICCALL ISZERO DUP1 ISZERO PUSH2 0x1FC0 JUMPI RETURNDATASIZE PUSH1 0x0 DUP1 RETURNDATACOPY RETURNDATASIZE PUSH1 0x0 REVERT JUMPDEST POP POP POP POP PUSH1 0x40 MLOAD RETURNDATASIZE PUSH1 0x1F NOT PUSH1 0x1F DUP3 ADD AND DUP3 ADD DUP1 PUSH1 0x40 MSTORE POP DUP2 ADD SWAP1 PUSH2 0x1FE4 SWAP2 SWAP1 PUSH2 0x38B5 JUMP JUMPDEST POP POP POP SWAP2 POP POP PUSH1 0x0 DUP2 SGT PUSH2 0x202F JUMPI PUSH1 0x40 MLOAD PUSH3 0x461BCD PUSH1 0xE5 SHL DUP2 MSTORE PUSH1 0x20 PUSH1 0x4 DUP3 ADD MSTORE PUSH1 0x12 PUSH1 0x24 DUP3 ADD MSTORE PUSH18 0x496E76616C69642070726963652064617461 PUSH1 0x70 SHL PUSH1 0x44 DUP3 ADD MSTORE PUSH1 0x64 ADD PUSH2 0xA58 JUMP JUMPDEST DUP1 PUSH4 0x5F5E100 PUSH2 0x2040 PUSH1 0x64 DUP4 PUSH2 0x36FA JUMP JUMPDEST PUSH2 0x204A SWAP2 SWAP1 PUSH2 0x379A JUMP JUMPDEST SWAP6 SWAP5 POP POP POP POP POP JUMP JUMPDEST PUSH2 0x107B DUP3 DUP3 PUSH2 0x1684 JUMP JUMPDEST PUSH1 0x0 PUSH1 0x7 DUP3 PUSH1 0x40 MLOAD PUSH2 0x206F SWAP2 SWAP1 PUSH2 0x37E0 JUMP JUMPDEST SWAP1 DUP2 MSTORE PUSH1 0x40 MLOAD SWAP1 DUP2 SWAP1 SUB PUSH1 0x20 ADD SWAP1 KECCAK256 SLOAD PUSH1 0x1 PUSH1 0x1 PUSH1 0xA0 SHL SUB AND SWAP3 SWAP2 POP POP JUMP JUMPDEST PUSH1 0x0 PUSH2 0x209A DUP4 DUP4 PUSH2 0x2822 JUMP JUMPDEST SWAP1 POP PUSH1 0x0 DUP2 GT PUSH2 0x20E3 JUMPI PUSH1 0x40 MLOAD PUSH3 0x461BCD PUSH1 0xE5 SHL DUP2 MSTORE PUSH1 0x20 PUSH1 0x4 DUP3 ADD MSTORE PUSH1 0x14 PUSH1 0x24 DUP3 ADD MSTORE PUSH20 0x125B9D985B1A59081D1BDAD95B88185B5BDD5B9D PUSH1 0x62 SHL PUSH1 0x44 DUP3 ADD MSTORE PUSH1 0x64 ADD PUSH2 0xA58 JUMP JUMPDEST PUSH2 0x20ED CALLER DUP3 PUSH2 0x279A JUMP JUMPDEST CALLER PUSH1 0x1 PUSH1 0x1 PUSH1 0xA0 SHL SUB AND PUSH32 0xA8AEAC0EB8C033DD01D0D9E327398D0796CA1B6A3C7DA711BB589DFA0826F593 DUP5 DUP5 DUP5 PUSH1 0x40 MLOAD PUSH2 0x212A SWAP4 SWAP3 SWAP2 SWAP1 PUSH2 0x3711 JUMP JUMPDEST PUSH1 0x40 MLOAD DUP1 SWAP2 SUB SWAP1 LOG2 POP POP POP JUMP JUMPDEST PUSH1 0x0 PUSH2 0x2145 PUSH1 0x12 PUSH1 0xA PUSH2 0x36EB JUMP JUMPDEST PUSH1 0x2 SLOAD PUSH2 0x2152 SWAP2 SWAP1 PUSH2 0x379A JUMP JUMPDEST SWAP1 POP SWAP1 JUMP JUMPDEST PUSH2 0x2164 DUP4 DUP4 DUP4 PUSH1 0x1 PUSH2 0x2E20 JUMP JUMPDEST POP POP POP JUMP JUMPDEST PUSH1 0x0 PUSH1 0x1 PUSH1 0x1 PUSH1 0xA0 SHL SUB DUP6 AND PUSH2 0x21D4 JUMPI PUSH1 0x40 MLOAD PUSH3 0x461BCD PUSH1 0xE5 SHL DUP2 MSTORE PUSH1 0x20 PUSH1 0x4 DUP3 ADD MSTORE PUSH1 0x2A PUSH1 0x24 DUP3 ADD MSTORE PUSH32 0x526564656D7074696F6E4C69623A20557365722063616E6E6F74206265207A65 PUSH1 0x44 DUP3 ADD MSTORE PUSH10 0x726F2061646472657373 PUSH1 0xB0 SHL PUSH1 0x64 DUP3 ADD MSTORE PUSH1 0x84 ADD PUSH2 0xA58 JUMP JUMPDEST PUSH1 0x0 DUP4 GT PUSH2 0x2242 JUMPI PUSH1 0x40 MLOAD PUSH3 0x461BCD PUSH1 0xE5 SHL DUP2 MSTORE PUSH1 0x20 PUSH1 0x4 DUP3 ADD MSTORE PUSH1 0x35 PUSH1 0x24 DUP3 ADD MSTORE PUSH32 0x526564656D7074696F6E4C69623A20546F6B656E20616D6F756E74206D757374 PUSH1 0x44 DUP3 ADD MSTORE PUSH21 0x2062652067726561746572207468616E207A65726F PUSH1 0x58 SHL PUSH1 0x64 DUP3 ADD MSTORE PUSH1 0x84 ADD PUSH2 0xA58 JUMP JUMPDEST PUSH1 0x40 MLOAD PUSH4 0x70A08231 PUSH1 0xE0 SHL DUP2 MSTORE PUSH1 0x1 PUSH1 0x1 PUSH1 0xA0 SHL SUB DUP7 DUP2 AND PUSH1 0x4 DUP4 ADD MSTORE PUSH1 0x0 SWAP2 SWAP1 DUP9 AND SWAP1 PUSH4 0x70A08231 SWAP1 PUSH1 0x24 ADD PUSH1 0x20 PUSH1 0x40 MLOAD DUP1 DUP4 SUB DUP2 DUP7 GAS STATICCALL ISZERO DUP1 ISZERO PUSH2 0x228C JUMPI RETURNDATASIZE PUSH1 0x0 DUP1 RETURNDATACOPY RETURNDATASIZE PUSH1 0x0 REVERT JUMPDEST POP POP POP POP PUSH1 0x40 MLOAD RETURNDATASIZE PUSH1 0x1F NOT PUSH1 0x1F DUP3 ADD AND DUP3 ADD DUP1 PUSH1 0x40 MSTORE POP DUP2 ADD SWAP1 PUSH2 0x22B0 SWAP2 SWAP1 PUSH2 0x3905 JUMP JUMPDEST SWAP1 POP PUSH32 0x817C85939C8C80A8EE41296E0A484553967004247B4DA59FB0581EE209235F36 DUP2 PUSH1 0x40 MLOAD PUSH2 0x2325 SWAP2 SWAP1 PUSH1 0x60 DUP1 DUP3 MSTORE PUSH1 0xC SWAP1 DUP3 ADD MSTORE PUSH12 0x557365722062616C616E6365 PUSH1 0xA0 SHL PUSH1 0x80 DUP3 ADD MSTORE PUSH1 0x20 DUP2 ADD SWAP2 SWAP1 SWAP2 MSTORE PUSH1 0xA0 PUSH1 0x40 DUP3 ADD DUP2 SWAP1 MSTORE PUSH1 0x3 SWAP1 DUP3 ADD MSTORE PUSH3 0x776569 PUSH1 0xE8 SHL PUSH1 0xC0 DUP3 ADD MSTORE PUSH1 0xE0 ADD SWAP1 JUMP JUMPDEST PUSH1 0x40 MLOAD DUP1 SWAP2 SUB SWAP1 LOG1 DUP4 DUP2 LT ISZERO PUSH2 0x238F JUMPI PUSH1 0x40 MLOAD PUSH3 0x461BCD PUSH1 0xE5 SHL DUP2 MSTORE PUSH1 0x20 PUSH1 0x4 DUP3 ADD MSTORE PUSH1 0x29 PUSH1 0x24 DUP3 ADD MSTORE PUSH32 0x526564656D7074696F6E4C69623A20496E73756666696369656E7420746F6B65 PUSH1 0x44 DUP3 ADD MSTORE PUSH9 0x6E2062616C616E6365 PUSH1 0xB8 SHL PUSH1 0x64 DUP3 ADD MSTORE PUSH1 0x84 ADD PUSH2 0xA58 JUMP JUMPDEST PUSH1 0x0 PUSH2 0x239C DUP7 DUP7 DUP7 PUSH2 0x2EF5 JUMP JUMPDEST SWAP1 POP PUSH32 0x817C85939C8C80A8EE41296E0A484553967004247B4DA59FB0581EE209235F36 DUP2 PUSH1 0x40 MLOAD PUSH2 0x241F SWAP2 SWAP1 PUSH1 0x60 DUP1 DUP3 MSTORE PUSH1 0xF SWAP1 DUP3 ADD MSTORE PUSH15 0x10DD5C9C995B98DE48185B5BDD5B9D PUSH1 0x8A SHL PUSH1 0x80 DUP3 ADD MSTORE PUSH1 0x20 DUP2 ADD SWAP2 SWAP1 SWAP2 MSTORE PUSH1 0xA0 PUSH1 0x40 DUP3 ADD DUP2 SWAP1 MSTORE PUSH1 0xE SWAP1 DUP3 ADD MSTORE PUSH14 0x63757272656E637920756E697473 PUSH1 0x90 SHL PUSH1 0xC0 DUP3 ADD MSTORE PUSH1 0xE0 ADD SWAP1 JUMP JUMPDEST PUSH1 0x40 MLOAD DUP1 SWAP2 SUB SWAP1 LOG1 PUSH1 0x0 DUP2 GT PUSH2 0x2488 JUMPI PUSH1 0x40 MLOAD PUSH3 0x461BCD PUSH1 0xE5 SHL DUP2 MSTORE PUSH1 0x20 PUSH1 0x4 DUP3 ADD MSTORE PUSH1 0x28 PUSH1 0x24 DUP3 ADD MSTORE PUSH32 0x526564656D7074696F6E4C69623A20496E76616C696420636F6E76657273696F PUSH1 0x44 DUP3 ADD MSTORE PUSH8 0x1B88185B5BDD5B9D PUSH1 0xC2 SHL PUSH1 0x64 DUP3 ADD MSTORE PUSH1 0x84 ADD PUSH2 0xA58 JUMP JUMPDEST PUSH1 0x40 MLOAD PUSH4 0x23B872DD PUSH1 0xE0 SHL DUP2 MSTORE PUSH1 0x0 SWAP1 PUSH1 0x1 PUSH1 0x1 PUSH1 0xA0 SHL SUB DUP11 AND SWAP1 PUSH4 0x23B872DD SWAP1 PUSH2 0x24BD SWAP1 DUP12 SWAP1 PUSH2 0xDEAD SWAP1 DUP12 SWAP1 PUSH1 0x4 ADD PUSH2 0x37BC JUMP JUMPDEST PUSH1 0x20 PUSH1 0x40 MLOAD DUP1 DUP4 SUB DUP2 PUSH1 0x0 DUP8 GAS CALL ISZERO DUP1 ISZERO PUSH2 0x24DC JUMPI RETURNDATASIZE PUSH1 0x0 DUP1 RETURNDATACOPY RETURNDATASIZE PUSH1 0x0 REVERT JUMPDEST POP POP POP POP PUSH1 0x40 MLOAD RETURNDATASIZE PUSH1 0x1F NOT PUSH1 0x1F DUP3 ADD AND DUP3 ADD DUP1 PUSH1 0x40 MSTORE POP DUP2 ADD SWAP1 PUSH2 0x2500 SWAP2 SWAP1 PUSH2 0x3778 JUMP JUMPDEST SWAP1 POP PUSH32 0x817C85939C8C80A8EE41296E0A484553967004247B4DA59FB0581EE209235F36 DUP2 PUSH2 0x252F JUMPI PUSH1 0x0 PUSH2 0x2532 JUMP JUMPDEST PUSH1 0x1 JUMPDEST PUSH1 0x40 DUP1 MLOAD PUSH1 0x60 DUP1 DUP3 MSTORE PUSH1 0x10 SWAP1 DUP3 ADD MSTORE PUSH16 0x5472616E736665722073756363657373 PUSH1 0x80 SHL PUSH1 0x80 DUP3 ADD MSTORE PUSH1 0xFF SWAP1 SWAP3 AND PUSH1 0x20 DUP4 ADD MSTORE PUSH1 0xA0 SWAP1 DUP3 ADD DUP2 SWAP1 MSTORE PUSH1 0x7 SWAP1 DUP3 ADD MSTORE PUSH7 0x3137B7B632B0B7 PUSH1 0xC9 SHL PUSH1 0xC0 DUP3 ADD MSTORE PUSH1 0xE0 ADD PUSH1 0x40 MLOAD DUP1 SWAP2 SUB SWAP1 LOG1 DUP1 PUSH2 0x25DA JUMPI PUSH1 0x40 MLOAD PUSH3 0x461BCD PUSH1 0xE5 SHL DUP2 MSTORE PUSH1 0x20 PUSH1 0x4 DUP3 ADD DUP2 SWAP1 MSTORE PUSH1 0x24 DUP3 ADD MSTORE PUSH32 0x526564656D7074696F6E4C69623A20546F6B656E206275726E206661696C6564 PUSH1 0x44 DUP3 ADD MSTORE PUSH1 0x64 ADD PUSH2 0xA58 JUMP JUMPDEST DUP8 PUSH1 0x1 PUSH1 0x1 PUSH1 0xA0 SHL SUB AND PUSH32 0x602556849FD4874DB76DC9A629159A721346D607A995229CD6AF9F03E904B47C DUP9 DUP9 DUP6 PUSH1 0x40 MLOAD PUSH2 0x2617 SWAP4 SWAP3 SWAP2 SWAP1 PUSH2 0x3711 JUMP JUMPDEST PUSH1 0x40 MLOAD DUP1 SWAP2 SUB SWAP1 LOG2 POP SWAP8 SWAP7 POP POP POP POP POP POP POP JUMP JUMPDEST PUSH1 0x1 PUSH1 0x1 PUSH1 0xA0 SHL SUB DUP4 DUP2 AND PUSH1 0x0 SWAP1 DUP2 MSTORE PUSH1 0x1 PUSH1 0x20 SWAP1 DUP2 MSTORE PUSH1 0x40 DUP1 DUP4 KECCAK256 SWAP4 DUP7 AND DUP4 MSTORE SWAP3 SWAP1 MSTORE KECCAK256 SLOAD PUSH1 0x0 NOT DUP2 LT ISZERO PUSH2 0x1594 JUMPI DUP2 DUP2 LT ISZERO PUSH2 0x2695 JUMPI PUSH1 0x40 MLOAD PUSH4 0x7DC7A0D9 PUSH1 0xE1 SHL DUP2 MSTORE PUSH1 0x1 PUSH1 0x1 PUSH1 0xA0 SHL SUB DUP5 AND PUSH1 0x4 DUP3 ADD MSTORE PUSH1 0x24 DUP2 ADD DUP3 SWAP1 MSTORE PUSH1 0x44 DUP2 ADD DUP4 SWAP1 MSTORE PUSH1 0x64 ADD PUSH2 0xA58 JUMP JUMPDEST PUSH2 0x1594 DUP5 DUP5 DUP5 DUP5 SUB PUSH1 0x0 PUSH2 0x2E20 JUMP JUMPDEST PUSH1 0x1 PUSH1 0x1 PUSH1 0xA0 SHL SUB DUP4 AND PUSH2 0x26CE JUMPI PUSH1 0x40 MLOAD PUSH4 0x4B637E8F PUSH1 0xE1 SHL DUP2 MSTORE PUSH1 0x0 PUSH1 0x4 DUP3 ADD MSTORE PUSH1 0x24 ADD PUSH2 0xA58 JUMP JUMPDEST PUSH1 0x1 PUSH1 0x1 PUSH1 0xA0 SHL SUB DUP3 AND PUSH2 0x26F8 JUMPI PUSH1 0x40 MLOAD PUSH4 0xEC442F05 PUSH1 0xE0 SHL DUP2 MSTORE PUSH1 0x0 PUSH1 0x4 DUP3 ADD MSTORE PUSH1 0x24 ADD PUSH2 0xA58 JUMP JUMPDEST PUSH2 0x2164 DUP4 DUP4 DUP4 PUSH2 0x2FEB JUMP JUMPDEST PUSH1 0x0 DUP1 PUSH1 0x0 DUP4 PUSH1 0x40 ADD MLOAD GT PUSH2 0x271A JUMPI PUSH1 0xB SLOAD PUSH2 0x272D JUMP JUMPDEST PUSH1 0x40 DUP1 DUP5 ADD MLOAD PUSH1 0x0 SWAP1 DUP2 MSTORE PUSH1 0xC PUSH1 0x20 MSTORE KECCAK256 SLOAD JUMPDEST SWAP1 POP PUSH1 0x0 DUP4 PUSH1 0x20 ADD MLOAD TIMESTAMP PUSH2 0x2741 SWAP2 SWAP1 PUSH2 0x391E JUMP JUMPDEST SWAP1 POP PUSH4 0xBBF81E00 DUP2 DUP4 DUP7 PUSH1 0x0 ADD MLOAD PUSH2 0x2759 SWAP2 SWAP1 PUSH2 0x36FA JUMP JUMPDEST PUSH2 0x2763 SWAP2 SWAP1 PUSH2 0x36FA JUMP JUMPDEST PUSH2 0x167C SWAP2 SWAP1 PUSH2 0x379A JUMP JUMPDEST PUSH1 0x8 SLOAD PUSH1 0x1 PUSH1 0x1 PUSH1 0xA0 SHL SUB AND CALLER EQ PUSH2 0x131C JUMPI PUSH1 0x40 MLOAD PUSH4 0x118CDAA7 PUSH1 0xE0 SHL DUP2 MSTORE CALLER PUSH1 0x4 DUP3 ADD MSTORE PUSH1 0x24 ADD PUSH2 0xA58 JUMP JUMPDEST PUSH1 0x1 PUSH1 0x1 PUSH1 0xA0 SHL SUB DUP3 AND PUSH2 0x27C4 JUMPI PUSH1 0x40 MLOAD PUSH4 0xEC442F05 PUSH1 0xE0 SHL DUP2 MSTORE PUSH1 0x0 PUSH1 0x4 DUP3 ADD MSTORE PUSH1 0x24 ADD PUSH2 0xA58 JUMP JUMPDEST PUSH2 0x107B PUSH1 0x0 DUP4 DUP4 PUSH2 0x2FEB JUMP JUMPDEST PUSH1 0x8 DUP1 SLOAD PUSH1 0x1 PUSH1 0x1 PUSH1 0xA0 SHL SUB DUP4 DUP2 AND PUSH1 0x1 PUSH1 0x1 PUSH1 0xA0 SHL SUB NOT DUP4 AND DUP2 OR SWAP1 SWAP4 SSTORE PUSH1 0x40 MLOAD SWAP2 AND SWAP2 SWAP1 DUP3 SWAP1 PUSH32 0x8BE0079C531659141344CD1FD0A4F28419497F9722A3DAAFE3B4186F6B6457E0 SWAP1 PUSH1 0x0 SWAP1 LOG3 POP POP JUMP JUMPDEST PUSH1 0x0 DUP1 PUSH2 0x282E DUP5 PUSH2 0x1EA8 JUMP JUMPDEST SWAP1 POP PUSH1 0x0 DUP2 GT PUSH2 0x2878 JUMPI PUSH1 0x40 MLOAD PUSH3 0x461BCD PUSH1 0xE5 SHL DUP2 MSTORE PUSH1 0x20 PUSH1 0x4 DUP3 ADD MSTORE PUSH1 0x15 PUSH1 0x24 DUP3 ADD MSTORE PUSH21 0x496E76616C69642065786368616E67652072617465 PUSH1 0x58 SHL PUSH1 0x44 DUP3 ADD MSTORE PUSH1 0x64 ADD PUSH2 0xA58 JUMP JUMPDEST PUSH1 0x0 PUSH1 0x64 PUSH2 0x2886 DUP4 DUP7 PUSH2 0x36FA JUMP JUMPDEST PUSH2 0x2890 SWAP2 SWAP1 PUSH2 0x379A JUMP JUMPDEST SWAP1 POP PUSH2 0x204A DUP2 PUSH8 0xDE0B6B3A7640000 PUSH2 0x36FA JUMP JUMPDEST PUSH1 0x1 PUSH1 0x1 PUSH1 0xA0 SHL SUB DUP3 AND PUSH2 0x28CE JUMPI PUSH1 0x40 MLOAD PUSH4 0x4B637E8F PUSH1 0xE1 SHL DUP2 MSTORE PUSH1 0x0 PUSH1 0x4 DUP3 ADD MSTORE PUSH1 0x24 ADD PUSH2 0xA58 JUMP JUMPDEST PUSH2 0x107B DUP3 PUSH1 0x0 DUP4 PUSH2 0x2FEB JUMP JUMPDEST PUSH1 0x0 PUSH1 0x1 PUSH1 0x1 PUSH1 0xA0 SHL SUB DUP5 AND PUSH2 0x2945 JUMPI PUSH1 0x40 MLOAD PUSH3 0x461BCD PUSH1 0xE5 SHL DUP2 MSTORE PUSH1 0x20 PUSH1 0x4 DUP3 ADD MSTORE PUSH1 0x2A PUSH1 0x24 DUP3 ADD MSTORE PUSH32 0x5472616E736665724C69623A2053656E6465722063616E6E6F74206265207A65 PUSH1 0x44 DUP3 ADD MSTORE PUSH10 0x726F2061646472657373 PUSH1 0xB0 SHL PUSH1 0x64 DUP3 ADD MSTORE PUSH1 0x84 ADD PUSH2 0xA58 JUMP JUMPDEST PUSH1 0x1 PUSH1 0x1 PUSH1 0xA0 SHL SUB DUP4 AND PUSH2 0x29B0 JUMPI PUSH1 0x40 MLOAD PUSH3 0x461BCD PUSH1 0xE5 SHL DUP2 MSTORE PUSH1 0x20 PUSH1 0x4 DUP3 ADD MSTORE PUSH1 0x2C PUSH1 0x24 DUP3 ADD MSTORE PUSH32 0x5472616E736665724C69623A2052656365697665722063616E6E6F7420626520 PUSH1 0x44 DUP3 ADD MSTORE PUSH12 0x7A65726F2061646472657373 PUSH1 0xA0 SHL PUSH1 0x64 DUP3 ADD MSTORE PUSH1 0x84 ADD PUSH2 0xA58 JUMP JUMPDEST PUSH1 0x0 DUP3 GT PUSH2 0x2A16 JUMPI PUSH1 0x40 MLOAD PUSH3 0x461BCD PUSH1 0xE5 SHL DUP2 MSTORE PUSH1 0x20 PUSH1 0x4 DUP3 ADD MSTORE PUSH1 0x2D PUSH1 0x24 DUP3 ADD MSTORE PUSH32 0x5472616E736665724C69623A20416D6F756E74206D7573742062652067726561 PUSH1 0x44 DUP3 ADD MSTORE PUSH13 0x746572207468616E207A65726F PUSH1 0x98 SHL PUSH1 0x64 DUP3 ADD MSTORE PUSH1 0x84 ADD PUSH2 0xA58 JUMP JUMPDEST PUSH1 0x40 MLOAD PUSH4 0x70A08231 PUSH1 0xE0 SHL DUP2 MSTORE PUSH1 0x1 PUSH1 0x1 PUSH1 0xA0 SHL SUB DUP6 DUP2 AND PUSH1 0x4 DUP4 ADD MSTORE PUSH1 0x0 SWAP2 SWAP1 DUP8 AND SWAP1 PUSH4 0x70A08231 SWAP1 PUSH1 0x24 ADD PUSH1 0x20 PUSH1 0x40 MLOAD DUP1 DUP4 SUB DUP2 DUP7 GAS STATICCALL ISZERO DUP1 ISZERO PUSH2 0x2A60 JUMPI RETURNDATASIZE PUSH1 0x0 DUP1 RETURNDATACOPY RETURNDATASIZE PUSH1 0x0 REVERT JUMPDEST POP POP POP POP PUSH1 0x40 MLOAD RETURNDATASIZE PUSH1 0x1F NOT PUSH1 0x1F DUP3 ADD AND DUP3 ADD DUP1 PUSH1 0x40 MSTORE POP DUP2 ADD SWAP1 PUSH2 0x2A84 SWAP2 SWAP1 PUSH2 0x3905 JUMP JUMPDEST SWAP1 POP DUP3 DUP2 LT ISZERO PUSH2 0x2AE0 JUMPI PUSH1 0x40 MLOAD PUSH3 0x461BCD PUSH1 0xE5 SHL DUP2 MSTORE PUSH1 0x20 PUSH1 0x4 DUP3 ADD MSTORE PUSH1 0x21 PUSH1 0x24 DUP3 ADD MSTORE PUSH32 0x5472616E736665724C69623A20496E73756666696369656E742062616C616E63 PUSH1 0x44 DUP3 ADD MSTORE PUSH1 0x65 PUSH1 0xF8 SHL PUSH1 0x64 DUP3 ADD MSTORE PUSH1 0x84 ADD PUSH2 0xA58 JUMP JUMPDEST PUSH1 0x40 MLOAD PUSH4 0x6EB1769F PUSH1 0xE1 SHL DUP2 MSTORE PUSH1 0x1 PUSH1 0x1 PUSH1 0xA0 SHL SUB DUP7 DUP2 AND PUSH1 0x4 DUP4 ADD MSTORE ADDRESS PUSH1 0x24 DUP4 ADD MSTORE PUSH1 0x0 SWAP2 SWAP1 DUP9 AND SWAP1 PUSH4 0xDD62ED3E SWAP1 PUSH1 0x44 ADD PUSH1 0x20 PUSH1 0x40 MLOAD DUP1 DUP4 SUB DUP2 DUP7 GAS STATICCALL ISZERO DUP1 ISZERO PUSH2 0x2B30 JUMPI RETURNDATASIZE PUSH1 0x0 DUP1 RETURNDATACOPY RETURNDATASIZE PUSH1 0x0 REVERT JUMPDEST POP POP POP POP PUSH1 0x40 MLOAD RETURNDATASIZE PUSH1 0x1F NOT PUSH1 0x1F DUP3 ADD AND DUP3 ADD DUP1 PUSH1 0x40 MSTORE POP DUP2 ADD SWAP1 PUSH2 0x2B54 SWAP2 SWAP1 PUSH2 0x3905 JUMP JUMPDEST SWAP1 POP DUP4 DUP2 LT ISZERO PUSH2 0x2BB2 JUMPI PUSH1 0x40 MLOAD PUSH3 0x461BCD PUSH1 0xE5 SHL DUP2 MSTORE PUSH1 0x20 PUSH1 0x4 DUP3 ADD MSTORE PUSH1 0x23 PUSH1 0x24 DUP3 ADD MSTORE PUSH32 0x5472616E736665724C69623A20496E73756666696369656E7420616C6C6F7761 PUSH1 0x44 DUP3 ADD MSTORE PUSH3 0x6E6365 PUSH1 0xE8 SHL PUSH1 0x64 DUP3 ADD MSTORE PUSH1 0x84 ADD PUSH2 0xA58 JUMP JUMPDEST PUSH1 0x40 MLOAD PUSH4 0x23B872DD PUSH1 0xE0 SHL DUP2 MSTORE PUSH1 0x0 SWAP1 PUSH1 0x1 PUSH1 0x1 PUSH1 0xA0 SHL SUB DUP10 AND SWAP1 PUSH4 0x23B872DD SWAP1 PUSH2 0x2BE5 SWAP1 DUP11 SWAP1 DUP11 SWAP1 DUP11 SWAP1 PUSH1 0x4 ADD PUSH2 0x37BC JUMP JUMPDEST PUSH1 0x20 PUSH1 0x40 MLOAD DUP1 DUP4 SUB DUP2 PUSH1 0x0 DUP8 GAS CALL ISZERO DUP1 ISZERO PUSH2 0x2C04 JUMPI RETURNDATASIZE PUSH1 0x0 DUP1 RETURNDATACOPY RETURNDATASIZE PUSH1 0x0 REVERT JUMPDEST POP POP POP POP PUSH1 0x40 MLOAD RETURNDATASIZE PUSH1 0x1F NOT PUSH1 0x1F DUP3 ADD AND DUP3 ADD DUP1 PUSH1 0x40 MSTORE POP DUP2 ADD SWAP1 PUSH2 0x2C28 SWAP2 SWAP1 PUSH2 0x3778 JUMP JUMPDEST SWAP1 POP DUP1 PUSH2 0x2C77 JUMPI PUSH1 0x40 MLOAD PUSH3 0x461BCD PUSH1 0xE5 SHL DUP2 MSTORE PUSH1 0x20 PUSH1 0x4 DUP3 ADD MSTORE PUSH1 0x1C PUSH1 0x24 DUP3 ADD MSTORE PUSH32 0x5472616E736665724C69623A205472616E73666572206661696C656400000000 PUSH1 0x44 DUP3 ADD MSTORE PUSH1 0x64 ADD PUSH2 0xA58 JUMP JUMPDEST DUP6 PUSH1 0x1 PUSH1 0x1 PUSH1 0xA0 SHL SUB AND DUP8 PUSH1 0x1 PUSH1 0x1 PUSH1 0xA0 SHL SUB AND PUSH32 0x68D8B242061749353081922C3F317F3F4EB148EF7AFA77145EFA32E9B3C7B936 DUP8 PUSH1 0x40 MLOAD PUSH2 0x2CBC SWAP2 DUP2 MSTORE PUSH1 0x20 ADD SWAP1 JUMP JUMPDEST PUSH1 0x40 MLOAD DUP1 SWAP2 SUB SWAP1 LOG3 POP PUSH1 0x1 SWAP8 SWAP7 POP POP POP POP POP POP POP JUMP JUMPDEST PUSH1 0x0 DUP3 PUSH1 0x40 MLOAD PUSH1 0x20 ADD PUSH2 0x2CE5 SWAP2 SWAP1 PUSH2 0x37E0 JUMP JUMPDEST PUSH1 0x40 MLOAD PUSH1 0x20 DUP2 DUP4 SUB SUB DUP2 MSTORE SWAP1 PUSH1 0x40 MSTORE DUP1 MLOAD SWAP1 PUSH1 0x20 ADD KECCAK256 DUP5 PUSH1 0x40 MLOAD PUSH1 0x20 ADD PUSH2 0x2D0C SWAP2 SWAP1 PUSH2 0x37E0 JUMP JUMPDEST PUSH1 0x40 MLOAD PUSH1 0x20 DUP2 DUP4 SUB SUB DUP2 MSTORE SWAP1 PUSH1 0x40 MSTORE DUP1 MLOAD SWAP1 PUSH1 0x20 ADD KECCAK256 SUB PUSH2 0x2D7B JUMPI PUSH1 0x40 MLOAD PUSH3 0x461BCD PUSH1 0xE5 SHL DUP2 MSTORE PUSH1 0x20 PUSH1 0x4 DUP3 ADD MSTORE PUSH1 0x23 PUSH1 0x24 DUP3 ADD MSTORE PUSH32 0x43616E6E6F7420636F6E7665727420746F207468652073616D65206375727265 PUSH1 0x44 DUP3 ADD MSTORE PUSH3 0x6E6379 PUSH1 0xE8 SHL PUSH1 0x64 DUP3 ADD MSTORE PUSH1 0x84 ADD PUSH2 0xA58 JUMP JUMPDEST PUSH1 0x0 PUSH2 0x2D86 DUP6 PUSH2 0x1EA8 JUMP JUMPDEST SWAP1 POP PUSH1 0x0 PUSH1 0x64 PUSH2 0x2D96 DUP4 DUP7 PUSH2 0x36FA JUMP JUMPDEST PUSH2 0x2DA0 SWAP2 SWAP1 PUSH2 0x379A JUMP JUMPDEST SWAP1 POP PUSH1 0x0 PUSH2 0x2DAD DUP7 PUSH2 0x1EA8 JUMP JUMPDEST SWAP1 POP PUSH1 0x0 DUP2 GT PUSH2 0x2DFF JUMPI PUSH1 0x40 MLOAD PUSH3 0x461BCD PUSH1 0xE5 SHL DUP2 MSTORE PUSH1 0x20 PUSH1 0x4 DUP3 ADD MSTORE PUSH1 0x1C PUSH1 0x24 DUP3 ADD MSTORE PUSH32 0x5461726765742063757272656E63792072617465206973207A65726F00000000 PUSH1 0x44 DUP3 ADD MSTORE PUSH1 0x64 ADD PUSH2 0xA58 JUMP JUMPDEST DUP1 PUSH2 0x2E0B DUP4 PUSH1 0x64 PUSH2 0x36FA JUMP JUMPDEST PUSH2 0x2E15 SWAP2 SWAP1 PUSH2 0x379A JUMP JUMPDEST SWAP8 SWAP7 POP POP POP POP POP POP POP JUMP JUMPDEST PUSH1 0x1 PUSH1 0x1 PUSH1 0xA0 SHL SUB DUP5 AND PUSH2 0x2E4A JUMPI PUSH1 0x40 MLOAD PUSH4 0xE602DF05 PUSH1 0xE0 SHL DUP2 MSTORE PUSH1 0x0 PUSH1 0x4 DUP3 ADD MSTORE PUSH1 0x24 ADD PUSH2 0xA58 JUMP JUMPDEST PUSH1 0x1 PUSH1 0x1 PUSH1 0xA0 SHL SUB DUP4 AND PUSH2 0x2E74 JUMPI PUSH1 0x40 MLOAD PUSH4 0x4A1406B1 PUSH1 0xE1 SHL DUP2 MSTORE PUSH1 0x0 PUSH1 0x4 DUP3 ADD MSTORE PUSH1 0x24 ADD PUSH2 0xA58 JUMP JUMPDEST PUSH1 0x1 PUSH1 0x1 PUSH1 0xA0 SHL SUB DUP1 DUP6 AND PUSH1 0x0 SWAP1 DUP2 MSTORE PUSH1 0x1 PUSH1 0x20 SWAP1 DUP2 MSTORE PUSH1 0x40 DUP1 DUP4 KECCAK256 SWAP4 DUP8 AND DUP4 MSTORE SWAP3 SWAP1 MSTORE KECCAK256 DUP3 SWAP1 SSTORE DUP1 ISZERO PUSH2 0x1594 JUMPI DUP3 PUSH1 0x1 PUSH1 0x1 PUSH1 0xA0 SHL SUB AND DUP5 PUSH1 0x1 PUSH1 0x1 PUSH1 0xA0 SHL SUB AND PUSH32 0x8C5BE1E5EBEC7D5BD14F71427D1E84F3DD0314C0F7B2291E5B200AC8C7C3B925 DUP5 PUSH1 0x40 MLOAD PUSH2 0x2EE7 SWAP2 DUP2 MSTORE PUSH1 0x20 ADD SWAP1 JUMP JUMPDEST PUSH1 0x40 MLOAD DUP1 SWAP2 SUB SWAP1 LOG3 POP POP POP POP JUMP JUMPDEST PUSH1 0x0 DUP1 PUSH2 0x2F0A PUSH8 0xDE0B6B3A7640000 DUP6 PUSH2 0x379A JUMP JUMPDEST PUSH1 0x40 MLOAD PUSH3 0x1554D1 PUSH1 0xEA SHL PUSH1 0x20 DUP3 ADD MSTORE SWAP1 SWAP2 POP PUSH1 0x23 ADD PUSH1 0x40 MLOAD PUSH1 0x20 DUP2 DUP4 SUB SUB DUP2 MSTORE SWAP1 PUSH1 0x40 MSTORE DUP1 MLOAD SWAP1 PUSH1 0x20 ADD KECCAK256 DUP6 PUSH1 0x40 MLOAD PUSH1 0x20 ADD PUSH2 0x2F46 SWAP2 SWAP1 PUSH2 0x37E0 JUMP JUMPDEST PUSH1 0x40 MLOAD PUSH1 0x20 DUP2 DUP4 SUB SUB DUP2 MSTORE SWAP1 PUSH1 0x40 MSTORE DUP1 MLOAD SWAP1 PUSH1 0x20 ADD KECCAK256 SUB PUSH2 0x2F68 JUMPI SWAP1 POP PUSH2 0xBBB JUMP JUMPDEST PUSH1 0x0 PUSH2 0x2F77 DUP7 DUP6 PUSH4 0xFFFFFFFF AND JUMP JUMPDEST SWAP1 POP PUSH1 0x0 DUP2 GT PUSH2 0x2FDD JUMPI PUSH1 0x40 MLOAD PUSH3 0x461BCD PUSH1 0xE5 SHL DUP2 MSTORE PUSH1 0x20 PUSH1 0x4 DUP3 ADD MSTORE PUSH1 0x2B PUSH1 0x24 DUP3 ADD MSTORE PUSH32 0x526564656D7074696F6E4C69623A20496E76616C696420746172676574206375 PUSH1 0x44 DUP3 ADD MSTORE PUSH11 0x7272656E63792072617465 PUSH1 0xA8 SHL PUSH1 0x64 DUP3 ADD MSTORE PUSH1 0x84 ADD PUSH2 0xA58 JUMP JUMPDEST PUSH1 0x0 DUP2 PUSH2 0x2E0B DUP5 PUSH1 0x64 PUSH2 0x36FA JUMP JUMPDEST PUSH1 0x1 PUSH1 0x1 PUSH1 0xA0 SHL SUB DUP4 AND PUSH2 0x3016 JUMPI DUP1 PUSH1 0x2 PUSH1 0x0 DUP3 DUP3 SLOAD PUSH2 0x300B SWAP2 SWAP1 PUSH2 0x3765 JUMP JUMPDEST SWAP1 SWAP2 SSTORE POP PUSH2 0x3088 SWAP1 POP JUMP JUMPDEST PUSH1 0x1 PUSH1 0x1 PUSH1 0xA0 SHL SUB DUP4 AND PUSH1 0x0 SWAP1 DUP2 MSTORE PUSH1 0x20 DUP2 SWAP1 MSTORE PUSH1 0x40 SWAP1 KECCAK256 SLOAD DUP2 DUP2 LT ISZERO PUSH2 0x3069 JUMPI PUSH1 0x40 MLOAD PUSH4 0x391434E3 PUSH1 0xE2 SHL DUP2 MSTORE PUSH1 0x1 PUSH1 0x1 PUSH1 0xA0 SHL SUB DUP6 AND PUSH1 0x4 DUP3 ADD MSTORE PUSH1 0x24 DUP2 ADD DUP3 SWAP1 MSTORE PUSH1 0x44 DUP2 ADD DUP4 SWAP1 MSTORE PUSH1 0x64 ADD PUSH2 0xA58 JUMP JUMPDEST PUSH1 0x1 PUSH1 0x1 PUSH1 0xA0 SHL SUB DUP5 AND PUSH1 0x0 SWAP1 DUP2 MSTORE PUSH1 0x20 DUP2 SWAP1 MSTORE PUSH1 0x40 SWAP1 KECCAK256 SWAP1 DUP3 SWAP1 SUB SWAP1 SSTORE JUMPDEST PUSH1 0x1 PUSH1 0x1 PUSH1 0xA0 SHL SUB DUP3 AND PUSH2 0x30A4 JUMPI PUSH1 0x2 DUP1 SLOAD DUP3 SWAP1 SUB SWAP1 SSTORE PUSH2 0x30C3 JUMP JUMPDEST PUSH1 0x1 PUSH1 0x1 PUSH1 0xA0 SHL SUB DUP3 AND PUSH1 0x0 SWAP1 DUP2 MSTORE PUSH1 0x20 DUP2 SWAP1 MSTORE PUSH1 0x40 SWAP1 KECCAK256 DUP1 SLOAD DUP3 ADD SWAP1 SSTORE JUMPDEST DUP2 PUSH1 0x1 PUSH1 0x1 PUSH1 0xA0 SHL SUB AND DUP4 PUSH1 0x1 PUSH1 0x1 PUSH1 0xA0 SHL SUB AND PUSH32 0xDDF252AD1BE2C89B69C2B068FC378DAA952BA7F163C4A11628F55A4DF523B3EF DUP4 PUSH1 0x40 MLOAD PUSH2 0x3108 SWAP2 DUP2 MSTORE PUSH1 0x20 ADD SWAP1 JUMP JUMPDEST PUSH1 0x40 MLOAD DUP1 SWAP2 SUB SWAP1 LOG3 POP POP POP JUMP JUMPDEST DUP1 CALLDATALOAD PUSH1 0x1 PUSH1 0x1 PUSH1 0xA0 SHL SUB DUP2 AND DUP2 EQ PUSH2 0x312C JUMPI PUSH1 0x0 DUP1 REVERT JUMPDEST SWAP2 SWAP1 POP JUMP JUMPDEST PUSH1 0x0 PUSH1 0x20 DUP3 DUP5 SUB SLT ISZERO PUSH2 0x3143 JUMPI PUSH1 0x0 DUP1 REVERT JUMPDEST PUSH2 0xBBB DUP3 PUSH2 0x3115 JUMP JUMPDEST PUSH1 0x0 JUMPDEST DUP4 DUP2 LT ISZERO PUSH2 0x3167 JUMPI DUP2 DUP2 ADD MLOAD DUP4 DUP3 ADD MSTORE PUSH1 0x20 ADD PUSH2 0x314F JUMP JUMPDEST POP POP PUSH1 0x0 SWAP2 ADD MSTORE JUMP JUMPDEST PUSH1 0x0 DUP2 MLOAD DUP1 DUP5 MSTORE PUSH2 0x3188 DUP2 PUSH1 0x20 DUP7 ADD PUSH1 0x20 DUP7 ADD PUSH2 0x314C JUMP JUMPDEST PUSH1 0x1F ADD PUSH1 0x1F NOT AND SWAP3 SWAP1 SWAP3 ADD PUSH1 0x20 ADD SWAP3 SWAP2 POP POP JUMP JUMPDEST PUSH1 0x20 DUP2 MSTORE PUSH1 0x0 PUSH2 0xBBB PUSH1 0x20 DUP4 ADD DUP5 PUSH2 0x3170 JUMP JUMPDEST PUSH1 0x0 DUP1 PUSH1 0x40 DUP4 DUP6 SUB SLT ISZERO PUSH2 0x31C2 JUMPI PUSH1 0x0 DUP1 REVERT JUMPDEST PUSH2 0x31CB DUP4 PUSH2 0x3115 JUMP JUMPDEST SWAP5 PUSH1 0x20 SWAP4 SWAP1 SWAP4 ADD CALLDATALOAD SWAP4 POP POP POP JUMP JUMPDEST PUSH4 0x4E487B71 PUSH1 0xE0 SHL PUSH1 0x0 MSTORE PUSH1 0x41 PUSH1 0x4 MSTORE PUSH1 0x24 PUSH1 0x0 REVERT JUMPDEST PUSH1 0x0 DUP3 PUSH1 0x1F DUP4 ADD SLT PUSH2 0x3200 JUMPI PUSH1 0x0 DUP1 REVERT JUMPDEST DUP2 CALLDATALOAD PUSH1 0x1 PUSH1 0x1 PUSH1 0x40 SHL SUB DUP1 DUP3 GT ISZERO PUSH2 0x321A JUMPI PUSH2 0x321A PUSH2 0x31D9 JUMP JUMPDEST PUSH1 0x40 MLOAD PUSH1 0x1F DUP4 ADD PUSH1 0x1F NOT SWAP1 DUP2 AND PUSH1 0x3F ADD AND DUP2 ADD SWAP1 DUP3 DUP3 GT DUP2 DUP4 LT OR ISZERO PUSH2 0x3242 JUMPI PUSH2 0x3242 PUSH2 0x31D9 JUMP JUMPDEST DUP2 PUSH1 0x40 MSTORE DUP4 DUP2 MSTORE DUP7 PUSH1 0x20 DUP6 DUP9 ADD ADD GT ISZERO PUSH2 0x325B JUMPI PUSH1 0x0 DUP1 REVERT JUMPDEST DUP4 PUSH1 0x20 DUP8 ADD PUSH1 0x20 DUP4 ADD CALLDATACOPY PUSH1 0x0 PUSH1 0x20 DUP6 DUP4 ADD ADD MSTORE DUP1 SWAP5 POP POP POP POP POP SWAP3 SWAP2 POP POP JUMP JUMPDEST PUSH1 0x0 DUP1 PUSH1 0x40 DUP4 DUP6 SUB SLT ISZERO PUSH2 0x328E JUMPI PUSH1 0x0 DUP1 REVERT JUMPDEST DUP3 CALLDATALOAD PUSH1 0x1 PUSH1 0x1 PUSH1 0x40 SHL SUB DUP2 GT ISZERO PUSH2 0x32A4 JUMPI PUSH1 0x0 DUP1 REVERT JUMPDEST PUSH2 0x32B0 DUP6 DUP3 DUP7 ADD PUSH2 0x31EF JUMP JUMPDEST SWAP6 PUSH1 0x20 SWAP5 SWAP1 SWAP5 ADD CALLDATALOAD SWAP5 POP POP POP POP JUMP JUMPDEST PUSH1 0x0 DUP1 PUSH1 0x0 PUSH1 0x60 DUP5 DUP7 SUB SLT ISZERO PUSH2 0x32D4 JUMPI PUSH1 0x0 DUP1 REVERT JUMPDEST PUSH2 0x32DD DUP5 PUSH2 0x3115 JUMP JUMPDEST SWAP3 POP PUSH2 0x32EB PUSH1 0x20 DUP6 ADD PUSH2 0x3115 JUMP JUMPDEST SWAP2 POP PUSH1 0x40 DUP5 ADD CALLDATALOAD SWAP1 POP SWAP3 POP SWAP3 POP SWAP3 JUMP JUMPDEST PUSH1 0x0 DUP2 MLOAD DUP1 DUP5 MSTORE PUSH1 0x20 DUP1 DUP6 ADD SWAP5 POP DUP1 DUP5 ADD PUSH1 0x0 JUMPDEST DUP4 DUP2 LT ISZERO PUSH2 0x332B JUMPI DUP2 MLOAD DUP8 MSTORE SWAP6 DUP3 ADD SWAP6 SWAP1 DUP3 ADD SWAP1 PUSH1 0x1 ADD PUSH2 0x330F JUMP JUMPDEST POP SWAP5 SWAP6 SWAP5 POP POP POP POP POP JUMP JUMPDEST PUSH1 0xA0 DUP2 MSTORE PUSH1 0x0 PUSH2 0x3349 PUSH1 0xA0 DUP4 ADD DUP9 PUSH2 0x32FB JUMP JUMPDEST PUSH1 0x20 DUP4 DUP3 SUB DUP2 DUP6 ADD MSTORE PUSH2 0x335C DUP3 DUP10 PUSH2 0x32FB JUMP JUMPDEST SWAP2 POP DUP4 DUP3 SUB PUSH1 0x40 DUP6 ADD MSTORE PUSH2 0x3370 DUP3 DUP9 PUSH2 0x32FB JUMP JUMPDEST SWAP2 POP DUP4 DUP3 SUB PUSH1 0x60 DUP6 ADD MSTORE PUSH2 0x3384 DUP3 DUP8 PUSH2 0x32FB JUMP JUMPDEST DUP5 DUP2 SUB PUSH1 0x80 DUP7 ADD MSTORE DUP6 MLOAD DUP1 DUP3 MSTORE DUP3 DUP8 ADD SWAP4 POP SWAP1 DUP3 ADD SWAP1 PUSH1 0x0 JUMPDEST DUP2 DUP2 LT ISZERO PUSH2 0x33BB JUMPI DUP5 MLOAD ISZERO ISZERO DUP4 MSTORE SWAP4 DUP4 ADD SWAP4 SWAP2 DUP4 ADD SWAP2 PUSH1 0x1 ADD PUSH2 0x339D JUMP JUMPDEST POP SWAP1 SWAP11 SWAP10 POP POP POP POP POP POP POP POP POP POP JUMP JUMPDEST PUSH1 0x0 DUP1 PUSH1 0x40 DUP4 DUP6 SUB SLT ISZERO PUSH2 0x33DE JUMPI PUSH1 0x0 DUP1 REVERT JUMPDEST PUSH2 0x33E7 DUP4 PUSH2 0x3115 JUMP JUMPDEST SWAP2 POP PUSH1 0x20 DUP4 ADD CALLDATALOAD PUSH1 0x1 PUSH1 0x1 PUSH1 0x40 SHL SUB DUP2 GT ISZERO PUSH2 0x3402 JUMPI PUSH1 0x0 DUP1 REVERT JUMPDEST PUSH2 0x340E DUP6 DUP3 DUP7 ADD PUSH2 0x31EF JUMP JUMPDEST SWAP2 POP POP SWAP3 POP SWAP3 SWAP1 POP JUMP JUMPDEST PUSH1 0x0 PUSH1 0x20 DUP3 DUP5 SUB SLT ISZERO PUSH2 0x342A JUMPI PUSH1 0x0 DUP1 REVERT JUMPDEST POP CALLDATALOAD SWAP2 SWAP1 POP JUMP JUMPDEST PUSH1 0x0 DUP1 PUSH1 0x40 DUP4 DUP6 SUB SLT ISZERO PUSH2 0x3444 JUMPI PUSH1 0x0 DUP1 REVERT JUMPDEST POP POP DUP1 CALLDATALOAD SWAP3 PUSH1 0x20 SWAP1 SWAP2 ADD CALLDATALOAD SWAP2 POP JUMP JUMPDEST PUSH1 0x0 PUSH1 0x20 DUP3 DUP5 SUB SLT ISZERO PUSH2 0x3465 JUMPI PUSH1 0x0 DUP1 REVERT JUMPDEST DUP2 CALLDATALOAD PUSH1 0x1 PUSH1 0x1 PUSH1 0x40 SHL SUB DUP2 GT ISZERO PUSH2 0x347B JUMPI PUSH1 0x0 DUP1 REVERT JUMPDEST PUSH2 0x167C DUP5 DUP3 DUP6 ADD PUSH2 0x31EF JUMP JUMPDEST PUSH1 0x80 DUP2 MSTORE PUSH1 0x0 PUSH2 0x349A PUSH1 0x80 DUP4 ADD DUP8 PUSH2 0x32FB JUMP JUMPDEST DUP3 DUP2 SUB PUSH1 0x20 DUP5 ADD MSTORE PUSH2 0x34AC DUP2 DUP8 PUSH2 0x32FB JUMP JUMPDEST SWAP1 POP DUP3 DUP2 SUB PUSH1 0x40 DUP5 ADD MSTORE PUSH2 0x34C0 DUP2 DUP7 PUSH2 0x32FB JUMP JUMPDEST SWAP1 POP DUP3 DUP2 SUB PUSH1 0x60 DUP5 ADD MSTORE PUSH2 0x2E15 DUP2 DUP6 PUSH2 0x32FB JUMP JUMPDEST PUSH1 0x0 DUP1 PUSH1 0x40 DUP4 DUP6 SUB SLT ISZERO PUSH2 0x34E7 JUMPI PUSH1 0x0 DUP1 REVERT JUMPDEST PUSH2 0x34F0 DUP4 PUSH2 0x3115 JUMP JUMPDEST SWAP2 POP PUSH2 0x34FE PUSH1 0x20 DUP5 ADD PUSH2 0x3115 JUMP JUMPDEST SWAP1 POP SWAP3 POP SWAP3 SWAP1 POP JUMP JUMPDEST PUSH1 0x0 DUP1 PUSH1 0x0 PUSH1 0x60 DUP5 DUP7 SUB SLT ISZERO PUSH2 0x351C JUMPI PUSH1 0x0 DUP1 REVERT JUMPDEST DUP4 CALLDATALOAD PUSH1 0x1 PUSH1 0x1 PUSH1 0x40 SHL SUB DUP1 DUP3 GT ISZERO PUSH2 0x3533 JUMPI PUSH1 0x0 DUP1 REVERT JUMPDEST PUSH2 0x353F DUP8 DUP4 DUP9 ADD PUSH2 0x31EF JUMP JUMPDEST SWAP5 POP PUSH1 0x20 DUP7 ADD CALLDATALOAD SWAP2 POP DUP1 DUP3 GT ISZERO PUSH2 0x3555 JUMPI PUSH1 0x0 DUP1 REVERT JUMPDEST POP PUSH2 0x3562 DUP7 DUP3 DUP8 ADD PUSH2 0x31EF JUMP JUMPDEST SWAP3 POP POP PUSH1 0x40 DUP5 ADD CALLDATALOAD SWAP1 POP SWAP3 POP SWAP3 POP SWAP3 JUMP JUMPDEST PUSH1 0x0 DUP1 PUSH1 0x40 DUP4 DUP6 SUB SLT ISZERO PUSH2 0x3586 JUMPI PUSH1 0x0 DUP1 REVERT JUMPDEST DUP3 CALLDATALOAD PUSH1 0x1 PUSH1 0x1 PUSH1 0x40 SHL SUB DUP2 GT ISZERO PUSH2 0x359C JUMPI PUSH1 0x0 DUP1 REVERT JUMPDEST PUSH2 0x35A8 DUP6 DUP3 DUP7 ADD PUSH2 0x31EF JUMP JUMPDEST SWAP3 POP POP PUSH2 0x34FE PUSH1 0x20 DUP5 ADD PUSH2 0x3115 JUMP JUMPDEST PUSH1 0x1 DUP2 DUP2 SHR SWAP1 DUP3 AND DUP1 PUSH2 0x35CB JUMPI PUSH1 0x7F DUP3 AND SWAP2 POP JUMPDEST PUSH1 0x20 DUP3 LT DUP2 SUB PUSH2 0x35EB JUMPI PUSH4 0x4E487B71 PUSH1 0xE0 SHL PUSH1 0x0 MSTORE PUSH1 0x22 PUSH1 0x4 MSTORE PUSH1 0x24 PUSH1 0x0 REVERT JUMPDEST POP SWAP2 SWAP1 POP JUMP JUMPDEST PUSH4 0x4E487B71 PUSH1 0xE0 SHL PUSH1 0x0 MSTORE PUSH1 0x11 PUSH1 0x4 MSTORE PUSH1 0x24 PUSH1 0x0 REVERT JUMPDEST PUSH1 0x1 DUP2 DUP2 JUMPDEST DUP1 DUP6 GT ISZERO PUSH2 0x3642 JUMPI DUP2 PUSH1 0x0 NOT DIV DUP3 GT ISZERO PUSH2 0x3628 JUMPI PUSH2 0x3628 PUSH2 0x35F1 JUMP JUMPDEST DUP1 DUP6 AND ISZERO PUSH2 0x3635 JUMPI SWAP2 DUP2 MUL SWAP2 JUMPDEST SWAP4 DUP5 SHR SWAP4 SWAP1 DUP1 MUL SWAP1 PUSH2 0x360C JUMP JUMPDEST POP SWAP3 POP SWAP3 SWAP1 POP JUMP JUMPDEST PUSH1 0x0 DUP3 PUSH2 0x3659 JUMPI POP PUSH1 0x1 PUSH2 0xB1B JUMP JUMPDEST DUP2 PUSH2 0x3666 JUMPI POP PUSH1 0x0 PUSH2 0xB1B JUMP JUMPDEST DUP2 PUSH1 0x1 DUP2 EQ PUSH2 0x367C JUMPI PUSH1 0x2 DUP2 EQ PUSH2 0x3686 JUMPI PUSH2 0x36A2 JUMP JUMPDEST PUSH1 0x1 SWAP2 POP POP PUSH2 0xB1B JUMP JUMPDEST PUSH1 0xFF DUP5 GT ISZERO PUSH2 0x3697 JUMPI PUSH2 0x3697 PUSH2 0x35F1 JUMP JUMPDEST POP POP PUSH1 0x1 DUP3 SHL PUSH2 0xB1B JUMP JUMPDEST POP PUSH1 0x20 DUP4 LT PUSH2 0x133 DUP4 LT AND PUSH1 0x4E DUP5 LT PUSH1 0xB DUP5 LT AND OR ISZERO PUSH2 0x36C5 JUMPI POP DUP2 DUP2 EXP PUSH2 0xB1B JUMP JUMPDEST PUSH2 0x36CF DUP4 DUP4 PUSH2 0x3607 JUMP JUMPDEST DUP1 PUSH1 0x0 NOT DIV DUP3 GT ISZERO PUSH2 0x36E3 JUMPI PUSH2 0x36E3 PUSH2 0x35F1 JUMP JUMPDEST MUL SWAP4 SWAP3 POP POP POP JUMP JUMPDEST PUSH1 0x0 PUSH2 0xBBB PUSH1 0xFF DUP5 AND DUP4 PUSH2 0x364A JUMP JUMPDEST DUP1 DUP3 MUL DUP2 ISZERO DUP3 DUP3 DIV DUP5 EQ OR PUSH2 0xB1B JUMPI PUSH2 0xB1B PUSH2 0x35F1 JUMP JUMPDEST PUSH1 0x60 DUP2 MSTORE PUSH1 0x0 PUSH2 0x3724 PUSH1 0x60 DUP4 ADD DUP7 PUSH2 0x3170 JUMP JUMPDEST PUSH1 0x20 DUP4 ADD SWAP5 SWAP1 SWAP5 MSTORE POP PUSH1 0x40 ADD MSTORE SWAP2 SWAP1 POP JUMP JUMPDEST PUSH4 0x4E487B71 PUSH1 0xE0 SHL PUSH1 0x0 MSTORE PUSH1 0x32 PUSH1 0x4 MSTORE PUSH1 0x24 PUSH1 0x0 REVERT JUMPDEST PUSH1 0x0 PUSH1 0x1 DUP3 ADD PUSH2 0x375E JUMPI PUSH2 0x375E PUSH2 0x35F1 JUMP JUMPDEST POP PUSH1 0x1 ADD SWAP1 JUMP JUMPDEST DUP1 DUP3 ADD DUP1 DUP3 GT ISZERO PUSH2 0xB1B JUMPI PUSH2 0xB1B PUSH2 0x35F1 JUMP JUMPDEST PUSH1 0x0 PUSH1 0x20 DUP3 DUP5 SUB SLT ISZERO PUSH2 0x378A JUMPI PUSH1 0x0 DUP1 REVERT JUMPDEST DUP2 MLOAD DUP1 ISZERO ISZERO DUP2 EQ PUSH2 0xBBB JUMPI PUSH1 0x0 DUP1 REVERT JUMPDEST PUSH1 0x0 DUP3 PUSH2 0x37B7 JUMPI PUSH4 0x4E487B71 PUSH1 0xE0 SHL PUSH1 0x0 MSTORE PUSH1 0x12 PUSH1 0x4 MSTORE PUSH1 0x24 PUSH1 0x0 REVERT JUMPDEST POP DIV SWAP1 JUMP JUMPDEST PUSH1 0x1 PUSH1 0x1 PUSH1 0xA0 SHL SUB SWAP4 DUP5 AND DUP2 MSTORE SWAP2 SWAP1 SWAP3 AND PUSH1 0x20 DUP3 ADD MSTORE PUSH1 0x40 DUP2 ADD SWAP2 SWAP1 SWAP2 MSTORE PUSH1 0x60 ADD SWAP1 JUMP JUMPDEST PUSH1 0x0 DUP3 MLOAD PUSH2 0x37F2 DUP2 DUP5 PUSH1 0x20 DUP8 ADD PUSH2 0x314C JUMP JUMPDEST SWAP2 SWAP1 SWAP2 ADD SWAP3 SWAP2 POP POP JUMP JUMPDEST PUSH1 0x0 DUP1 DUP4 SLOAD DUP2 PUSH1 0x1 DUP3 DUP2 SHR SWAP2 POP DUP1 DUP4 AND DUP1 PUSH2 0x3818 JUMPI PUSH1 0x7F DUP4 AND SWAP3 POP JUMPDEST PUSH1 0x20 DUP1 DUP5 LT DUP3 SUB PUSH2 0x3837 JUMPI PUSH4 0x4E487B71 PUSH1 0xE0 SHL DUP7 MSTORE PUSH1 0x22 PUSH1 0x4 MSTORE PUSH1 0x24 DUP7 REVERT JUMPDEST DUP2 DUP1 ISZERO PUSH2 0x384B JUMPI PUSH1 0x1 DUP2 EQ PUSH2 0x3860 JUMPI PUSH2 0x388D JUMP JUMPDEST PUSH1 0xFF NOT DUP7 AND DUP10 MSTORE DUP5 ISZERO ISZERO DUP6 MUL DUP10 ADD SWAP7 POP PUSH2 0x388D JUMP JUMPDEST PUSH1 0x0 DUP11 DUP2 MSTORE PUSH1 0x20 SWAP1 KECCAK256 PUSH1 0x0 JUMPDEST DUP7 DUP2 LT ISZERO PUSH2 0x3885 JUMPI DUP2 SLOAD DUP12 DUP3 ADD MSTORE SWAP1 DUP6 ADD SWAP1 DUP4 ADD PUSH2 0x386C JUMP JUMPDEST POP POP DUP5 DUP10 ADD SWAP7 POP JUMPDEST POP SWAP5 SWAP9 SWAP8 POP POP POP POP POP POP POP POP JUMP JUMPDEST DUP1 MLOAD PUSH10 0xFFFFFFFFFFFFFFFFFFFF DUP2 AND DUP2 EQ PUSH2 0x312C JUMPI PUSH1 0x0 DUP1 REVERT JUMPDEST PUSH1 0x0 DUP1 PUSH1 0x0 DUP1 PUSH1 0x0 PUSH1 0xA0 DUP7 DUP9 SUB SLT ISZERO PUSH2 0x38CD JUMPI PUSH1 0x0 DUP1 REVERT JUMPDEST PUSH2 0x38D6 DUP7 PUSH2 0x389B JUMP JUMPDEST SWAP5 POP PUSH1 0x20 DUP7 ADD MLOAD SWAP4 POP PUSH1 0x40 DUP7 ADD MLOAD SWAP3 POP PUSH1 0x60 DUP7 ADD MLOAD SWAP2 POP PUSH2 0x38F9 PUSH1 0x80 DUP8 ADD PUSH2 0x389B JUMP JUMPDEST SWAP1 POP SWAP3 SWAP6 POP SWAP3 SWAP6 SWAP1 SWAP4 POP JUMP JUMPDEST PUSH1 0x0 PUSH1 0x20 DUP3 DUP5 SUB SLT ISZERO PUSH2 0x3917 JUMPI PUSH1 0x0 DUP1 REVERT JUMPDEST POP MLOAD SWAP2 SWAP1 POP JUMP JUMPDEST DUP2 DUP2 SUB DUP2 DUP2 GT ISZERO PUSH2 0xB1B JUMPI PUSH2 0xB1B PUSH2 0x35F1 JUMP INVALID LOG2 PUSH5 0x6970667358 0x22 SLT KECCAK256 0x49 XOR 0xF9 PUSH22 0x907E8A05D610743D2F60DC12DC7F4A572F9A8BE21D42 0x5E SUB 0xE1 0xE3 0xB8 0xE7 PUSH5 0x736F6C6343 STOP ADDMOD EQ STOP CALLER "},"methodIdentifiers":{"ETH_TO_USD_RATE()":"28774994","INTEREST_RATE()":"5b72a33a","LOAN_DURATION()":"e02a4dfd","LTV_RATIO()":"5696b189","MIN_LOCK_PERIOD()":"385dc3df","TOKEN_PRICE_IN_USD()":"82d5e7b8","allowance(address,address)":"dd62ed3e","approve(address,uint256)":"095ea7b3","balanceOf(address)":"70a08231","baseCurrency()":"92a85fde","calculateInterest(address)":"e11932cf","calculateInterestForDeposit(address,uint256)":"db40f828","calculateRepaymentAmounts(address)":"046ad586","convertAndMint(string,uint256)":"f92881a3","convertAndRepay(string,uint256)":"98fb5fc8","currencyLockedBalances(address,string)":"29c9cead","decimals()":"313ce567","depositFlexible(uint256)":"7fc35ceb","depositLockup(uint256,uint256)":"f500d9da","getActiveDeposits(address)":"d2d48ee3","getAllUserDeposits(address)":"2516b3c1","getBalanceOfAccount(address)":"936710bf","getDepositCount(address)":"13fcaf54","getExchangeRate(string)":"f4b54314","getLoan()":"4859b3f4","getPriceFeedAddress(string)":"f6ccbadd","getRateForCurrency(string)":"c0531580","getTotalSupplyInTokens()":"fe4e61df","getUserDeposit(address,uint256)":"60711058","interestForDepositCalculation(address,uint256)":"a11e685a","lockupDeposit(uint256,uint256)":"a8fbdd3a","mint(address,uint256)":"40c10f19","name()":"06fdde03","openDeposit(uint256)":"d1d95588","owner()":"8da5cb5b","previewConversion(string,string,uint256)":"eb9d794a","redeemTokens(string,uint256)":"136a2ca7","renounceOwnership()":"715018a6","setPriceFeed(string,address)":"f3b3347e","symbol()":"95d89b41","token()":"fc0c546a","totalSupply()":"18160ddd","transfer(address,uint256)":"a9059cbb","transferFrom(address,address,uint256)":"23b872dd","transferOwnership(address)":"f2fde38b","transferTokens(address,uint256)":"bec3fa17","userLoans(address)":"e9e190a3","withdraw(uint256)":"2e1a7d4d","withdrawDeposit(uint256)":"33289a46"}}}}}