{
	"data": {
		"bytecode": {
			"linkReferences": {},
			"object": "60c060405260036080908152621554d160ea1b60a052600690610022908261037c565b506003600b55348015610033575f80fd5b50333060405180604001604052806009815260200168232a23a83a37b5b2b760b91b815250604051806040016040528060048152602001630465447560e41b8152508160039081610084919061037c565b506004610091828261037c565b5050600580546001600160a01b039384166001600160a01b031991821617909155604080516204742560ec1b815260076003808301829052835160239381900384018120805487167391fab41f5f3be955963a986366edacff1aaeaa831790556222aaa960e91b81528082018390528451908190038401812080548716731a81afb8146aeffcfc5e50e8479e826e7d55b910179055624a505960e81b81528082018390528451908190038401812080548716738a6af2b75f23831adc973ce6288e5329f63d86c61790556208aa8960eb1b8152808201839052845190819003840181208054871673694aa1769357215de4fac081bf1f309adc325306179055621554d160ea1b815290810191909152915191829003019020805490911690555081166101d657604051631e4fbdf760e01b81525f600482015260240160405180910390fd5b6101df81610293565b50600980546001600160a01b03191630179055600c602081905260037fdf85b3b91db3fc0d5ce237a54e22266da0607fef5fbe5daeffa9610eb8ae119c5560057fef0f79a2dbcdff9a8ebe19b620af73660a85b3df3e0778f807cdf83ae1e805c85560087f6c82d3a57cebfec9927f2aabad409518216852df1f4c0220fd7ba03937e50ebc556301e133805f527f0ea1e207dda072346d0ec8dbc69c075dcc6dbf6a2606f1245552e3e0f7c397a255610436565b600880546001600160a01b038381166001600160a01b0319831681179093556040519116919082907f8be0079c531659141344cd1fd0a4f28419497f9722a3daafe3b4186f6b6457e0905f90a35050565b634e487b7160e01b5f52604160045260245ffd5b600181811c9082168061030c57607f821691505b60208210810361032a57634e487b7160e01b5f52602260045260245ffd5b50919050565b601f82111561037757805f5260205f20601f840160051c810160208510156103555750805b601f840160051c820191505b81811015610374575f8155600101610361565b50505b505050565b81516001600160401b03811115610395576103956102e4565b6103a9816103a384546102f8565b84610330565b6020601f8211600181146103db575f83156103c45750848201515b5f19600385901b1c1916600184901b178455610374565b5f84815260208120601f198516915b8281101561040a57878501518255602094850194600190920191016103ea565b508482101561042757868401515f19600387901b60f8161c191681555b50505050600190811b01905550565b613b29806104435f395ff3fe608060405260043610610319575f3560e01c806392a85fde1161019c578063dd62ed3e116100e7578063f3b3347e11610092578063f6ccbadd1161006d578063f6ccbadd14610a52578063f92881a314610a71578063fc0c546a14610a90578063fe4e61df14610aaf575f80fd5b8063f3b3347e146109f5578063f4b5431414610a14578063f500d9da14610a33575f80fd5b8063e9e190a3116100c2578063e9e190a31461091a578063eb9d794a146109b7578063f2fde38b146109d6575f80fd5b8063dd62ed3e146108a0578063e02a4dfd146108e4578063e11932cf146108fb575f80fd5b8063a9059cbb11610147578063d1d9558811610122578063d1d9558814610852578063d2d48ee314610871578063db40f828146107b7575f80fd5b8063a9059cbb146107f5578063bec3fa1714610814578063c053158014610833575f80fd5b806398fb5fc81161017757806398fb5fc814610798578063a11e685a146107b7578063a8fbdd3a146107d6575f80fd5b806392a85fde14610751578063936710bf1461076557806395d89b4114610784575f80fd5b806333289a461161026757806360711058116102125780637fc35ceb116101ed5780637fc35ceb1461061257806382d5e7b81461063157806388bd4cea146106485780638da5cb5b14610720575f80fd5b8063607110581461058957806370a08231146105ca578063715018a6146105fe575f80fd5b80634859b3f4116102425780634859b3f4146105595780635696b189146105615780635b72a33a14610575575f80fd5b806333289a4614610505578063385dc3df1461052457806340c10f191461053a575f80fd5b806323b872dd116102c757806329c9cead116102a257806329c9cead146104825780632e1a7d4d146104c9578063313ce567146104ea575f80fd5b806323b872dd1461041b5780632516b3c11461043a578063287749941461046a575f80fd5b8063136a2ca7116102f7578063136a2ca7146103a657806313fcaf54146103d357806318160ddd14610407575f80fd5b8063046ad5861461031d57806306fdde0314610356578063095ea7b314610377575b5f80fd5b348015610328575f80fd5b5061033c61033736600461336f565b610ac3565b604080519283526020830191909152015b60405180910390f35b348015610361575f80fd5b5061036a610b94565b60405161034d91906133b6565b348015610382575f80fd5b506103966103913660046133c8565b610c24565b604051901515815260200161034d565b3480156103b1575f80fd5b506103c56103c036600461348f565b610c3d565b60405190815260200161034d565b3480156103de575f80fd5b506103c56103ed36600461336f565b6001600160a01b03165f908152600a602052604090205490565b348015610412575f80fd5b506002546103c5565b348015610426575f80fd5b506103966104353660046134d1565b610cb6565b348015610445575f80fd5b5061045961045436600461336f565b610cdb565b60405161034d959493929190613545565b348015610475575f80fd5b506103c56445d964b80081565b34801561048d575f80fd5b506103c561049c3660046135da565b600e60209081525f9283526040909220815180830184018051928152908401929093019190912091525481565b3480156104d4575f80fd5b506104e86104e3366004613625565b610f61565b005b3480156104f5575f80fd5b506040516012815260200161034d565b348015610510575f80fd5b506104e861051f366004613625565b611194565b34801561052f575f80fd5b506103c562278d0081565b348015610545575f80fd5b506104e86105543660046133c8565b6111a0565b6104e86111b6565b34801561056c575f80fd5b506103c5602881565b348015610580575f80fd5b506103c5600c81565b348015610594575f80fd5b506105a86105a33660046133c8565b6113f9565b604080519485526020850193909352918301521515606082015260800161034d565b3480156105d5575f80fd5b506103c56105e436600461336f565b6001600160a01b03165f9081526020819052604090205490565b348015610609575f80fd5b506104e861145f565b34801561061d575f80fd5b506104e861062c366004613625565b611472565b34801561063c575f80fd5b506103c56305f5e10081565b348015610653575f80fd5b506104e861066236600461336f565b600980546001600160a01b0319166001600160a01b0392909216919091179055600c602081905260037fdf85b3b91db3fc0d5ce237a54e22266da0607fef5fbe5daeffa9610eb8ae119c5560057fef0f79a2dbcdff9a8ebe19b620af73660a85b3df3e0778f807cdf83ae1e805c85560087f6c82d3a57cebfec9927f2aabad409518216852df1f4c0220fd7ba03937e50ebc556301e133805f527f0ea1e207dda072346d0ec8dbc69c075dcc6dbf6a2606f1245552e3e0f7c397a255565b34801561072b575f80fd5b506008546001600160a01b03165b6040516001600160a01b03909116815260200161034d565b34801561075c575f80fd5b5061036a61147b565b348015610770575f80fd5b506103c561077f36600461336f565b611507565b34801561078f575f80fd5b5061036a611536565b3480156107a3575f80fd5b506104e86107b236600461348f565b611545565b3480156107c2575f80fd5b506103c56107d13660046133c8565b6116f2565b3480156107e1575f80fd5b506104e86107f036600461363c565b6117d8565b348015610800575f80fd5b5061039661080f3660046133c8565b61196d565b34801561081f575f80fd5b5061039661082e3660046133c8565b61197a565b34801561083e575f80fd5b506103c561084d36600461365c565b61199c565b34801561085d575f80fd5b506104e861086c366004613625565b6119a6565b34801561087c575f80fd5b5061089061088b36600461336f565b611adf565b60405161034d949392919061368e565b3480156108ab575f80fd5b506103c56108ba3660046136da565b6001600160a01b039182165f90815260016020908152604080832093909416825291909152205490565b3480156108ef575f80fd5b506103c56301da9c0081565b348015610906575f80fd5b506103c561091536600461336f565b611e3d565b348015610925575f80fd5b5061097961093436600461336f565b600d6020525f9081526040902080546001820154600283015460038401546004850154600586015460069096015494959394929391929091906001600160a01b031687565b604080519788526020880196909652948601939093526060850191909152608084015260a08301526001600160a01b031660c082015260e00161034d565b3480156109c2575f80fd5b506103c56109d136600461370b565b611f38565b3480156109e1575f80fd5b506104e86109f036600461336f565b611f44565b348015610a00575f80fd5b506104e8610a0f366004613779565b611f97565b348015610a1f575f80fd5b506103c5610a2e36600461365c565b611fe3565b348015610a3e575f80fd5b506104e8610a4d36600461363c565b612193565b348015610a5d575f80fd5b50610739610a6c36600461365c565b61219d565b348015610a7c575f80fd5b506104e8610a8b36600461348f565b6121cd565b348015610a9b575f80fd5b50600554610739906001600160a01b031681565b348015610aba575f80fd5b506103c561227d565b6001600160a01b038082165f908152600d60209081526040808320815160e0810183528154815260018201549381018490526002820154928101929092526003810154606083015260048101546080830152600581015460a08301526006015490931660c084015290918291610b805760405162461bcd60e51b815260206004820152600e60248201527f4e6f20616374697665206c6f616e00000000000000000000000000000000000060448201526064015b60405180910390fd5b806080015181606001519250925050915091565b606060038054610ba3906137bb565b80601f0160208091040260200160405190810160405280929190818152602001828054610bcf906137bb565b8015610c1a5780601f10610bf157610100808354040283529160200191610c1a565b820191905f5260205f20905b815481529060010190602001808311610bfd57829003601f168201915b5050505050905090565b5f33610c3181858561229c565b60019150505b92915050565b5f80610c4b6012600a6138ea565b610c5590846138f8565b90505f610c6730338785611fe36122ae565b9050336001600160a01b03167f5b5ec4f516dc748cdc19eaed1f8e52be9e3dbf46768e90c539fcada6b82a6046868484604051610ca69392919061390f565b60405180910390a2949350505050565b5f33610cc3858285612767565b610cce8585856127f6565b60019150505b9392505050565b6001600160a01b0381165f908152600a602052604090205460609081908190819081908067ffffffffffffffff811115610d1757610d176133f0565b604051908082528060200260200182016040528015610d40578160200160208202803683370190505b5095508067ffffffffffffffff811115610d5c57610d5c6133f0565b604051908082528060200260200182016040528015610d85578160200160208202803683370190505b5094508067ffffffffffffffff811115610da157610da16133f0565b604051908082528060200260200182016040528015610dca578160200160208202803683370190505b5093508067ffffffffffffffff811115610de657610de66133f0565b604051908082528060200260200182016040528015610e0f578160200160208202803683370190505b5092508067ffffffffffffffff811115610e2b57610e2b6133f0565b604051908082528060200260200182016040528015610e54578160200160208202803683370190505b5091505f5b81811015610f56576001600160a01b0388165f908152600a60205260408120805483908110610e8a57610e8a613933565b905f5260205f209060040201905081888381518110610eab57610eab613933565b602002602001018181525050805f0154878381518110610ecd57610ecd613933565b6020026020010181815250508060010154868381518110610ef057610ef0613933565b6020026020010181815250508060020154858381518110610f1357610f13613933565b60209081029190910101526003810154845160ff90911690859084908110610f3d57610f3d613933565b9115156020928302919091019091015250600101610e59565b505091939590929450565b335f908152600a60205260409020548110610fae5760405162461bcd60e51b815260206004820152600d60248201526c092dcecc2d8d2c840d2dcc8caf609b1b6044820152606401610b77565b335f908152600a60205260408120805483908110610fce57610fce613933565b5f9182526020909120600490910201600381015490915060ff16156110355760405162461bcd60e51b815260206004820152601160248201527f416c72656164792077697468647261776e0000000000000000000000000000006044820152606401610b77565b6002810154156110a257806002015481600101546110539190613947565b4210156110a25760405162461bcd60e51b815260206004820152601060248201527f4c6f636b7570206e6f7420656e646564000000000000000000000000000000006044820152606401610b77565b604080516080810182528254815260018301546020820152600283015491810191909152600382015460ff16151560608201525f906110e090612853565b90505f81835f01546110f29190613947565b60038401805460ff191660011790556009546040517fa9059cbb000000000000000000000000000000000000000000000000000000008152336004820152602481018390529192506001600160a01b03169063a9059cbb906044016020604051808303815f875af1158015611169573d5f803e3d5ffd5b505050506040513d601f19601f8201168201806040525081019061118d919061395a565b5050505050565b61119d81610f61565b50565b6111a86128b8565b6111b282826128fe565b5050565b5f341161122b5760405162461bcd60e51b815260206004820152602160248201527f436f6c6c61746572616c206d7573742062652067726561746572207468616e2060448201527f30000000000000000000000000000000000000000000000000000000000000006064820152608401610b77565b335f908152600d60205260409020600101541561128a5760405162461bcd60e51b815260206004820152601360248201527f4c6f616e20616c726561647920657869737473000000000000000000000000006044820152606401610b77565b345f670de0b6b3a76400006112a46445d964b800846138f8565b6112ae9190613979565b90505f60646112be6028846138f8565b6112c89190613979565b90505f6112d76012600a6138ea565b6112e190836138f8565b90505f60646112f1600c846138f8565b6112fb9190613979565b90505f6113088284613947565b90505f611316600c83613979565b905061132233856128fe565b6040805160e0810182528881526020808201878152428385018181526060808601898152608087018981525f60a089018181523360c08b01818152818452600d8b52928c90209a518b55975160018b0155945160028a015591516003890155516004880155915160058701559051600690950180546001600160a01b0319166001600160a01b039096169590951790945584518c8152928301899052938201939093527f03cd57c87bbf542b3c5edcc7801148ea7d9a169cb16849e0a523ea18eadc58d3910160405180910390a250505050505050565b6001600160a01b0382165f908152600a60205260408120805482918291829182918790811061142a5761142a613933565b5f9182526020909120600490910201805460018201546002830154600390930154919a90995091975060ff1695509350505050565b6114676128b8565b6114705f612932565b565b61119d816119a6565b60068054611488906137bb565b80601f01602080910402602001604051908101604052809291908181526020018280546114b4906137bb565b80156114ff5780601f106114d6576101008083540402835291602001916114ff565b820191905f5260205f20905b8154815290600101906020018083116114e257829003601f168201915b505050505081565b5f6115146012600a6138ea565b6001600160a01b0383165f90815260208190526040902054610c379190613979565b606060048054610ba3906137bb565b335f908152600d6020526040902060018101546115a45760405162461bcd60e51b815260206004820152600e60248201527f4e6f20616374697665206c6f616e0000000000000000000000000000000000006044820152606401610b77565b5f6115af8484612983565b90505f81116116005760405162461bcd60e51b815260206004820181905260248201527f436f6e76657273696f6e206661696c6564206f72207a65726f20616d6f756e746044820152606401610b77565b61160a30826128fe565b80826005015f82825461161d9190613947565b9091555061162d90503082612a0a565b81600301548260050154106116ec578154335f818152600d6020526040808220828155600181018390556002810183905560038101839055600481018390556005810183905560060180546001600160a01b03191690555183156108fc0291849190818181858888f193505050501580156116aa573d5f803e3d5ffd5b5060058301546040805191825242602083015233917fc7ce0a35f17b490de2a317e7fecb2cae86b1abffb03800b2f492823521382698910160405180910390a2505b50505050565b6001600160a01b0382165f908152600a602052604081205482106117485760405162461bcd60e51b815260206004820152600d60248201526c092dcecc2d8d2c840d2dcc8caf609b1b6044820152606401610b77565b6001600160a01b0383165f908152600a6020526040812080548490811061177157611771613933565b5f9182526020918290206040805160808101825260049093029091018054835260018101549383019390935260028301549082015260039091015460ff1615801560608301529091506117c7575f915050610c37565b6117d081612853565b949350505050565b5f82116118275760405162461bcd60e51b815260206004820152601d60248201527f416d6f756e74206d7573742062652067726561746572207468616e20300000006044820152606401610b77565b5f818152600c60205260409020546118815760405162461bcd60e51b815260206004820152601560248201527f496e76616c6964206c6f636b757020706572696f6400000000000000000000006044820152606401610b77565b6009546040516323b872dd60e01b8152336004820152306024820152604481018490526001600160a01b03909116906323b872dd906064016020604051808303815f875af11580156118d5573d5f803e3d5ffd5b505050506040513d601f19601f820116820180604052508101906118f9919061395a565b50335f908152600a60209081526040808320815160808101835295865242868401908152918601948552606086018481528154600180820184559286529390942095516004909302909501918255519381019390935590516002830155516003909101805460ff1916911515919091179055565b5f33610c318185856127f6565b5f8061198e83670de0b6b3a76400006138f8565b90506117d030338684612a3e565b5f610c3782611fe3565b5f81116119f55760405162461bcd60e51b815260206004820152601d60248201527f416d6f756e74206d7573742062652067726561746572207468616e20300000006044820152606401610b77565b6009546040516323b872dd60e01b8152336004820152306024820152604481018390526001600160a01b03909116906323b872dd906064016020604051808303815f875af1158015611a49573d5f803e3d5ffd5b505050506040513d601f19601f82011682018060405250810190611a6d919061395a565b50335f908152600a6020908152604080832081516080810183529485524285840190815291850184815260608601858152825460018082018555938752949095209551600490940290950192835590519082015591516002830155516003909101805460ff1916911515919091179055565b6060806060805f805b6001600160a01b0387165f908152600a6020526040902054811015611b60576001600160a01b0387165f908152600a60205260409020805482908110611b3057611b30613933565b5f91825260209091206003600490920201015460ff16611b585781611b5481613998565b9250505b600101611ae8565b508067ffffffffffffffff811115611b7a57611b7a6133f0565b604051908082528060200260200182016040528015611ba3578160200160208202803683370190505b5094508067ffffffffffffffff811115611bbf57611bbf6133f0565b604051908082528060200260200182016040528015611be8578160200160208202803683370190505b5093508067ffffffffffffffff811115611c0457611c046133f0565b604051908082528060200260200182016040528015611c2d578160200160208202803683370190505b5092508067ffffffffffffffff811115611c4957611c496133f0565b604051908082528060200260200182016040528015611c72578160200160208202803683370190505b5091505f805b6001600160a01b0388165f908152600a6020526040902054811015611e33576001600160a01b0388165f908152600a60205260409020805482908110611cc057611cc0613933565b5f91825260209091206003600490920201015460ff16611e2b5780878381518110611ced57611ced613933565b602002602001018181525050600a5f896001600160a01b03166001600160a01b031681526020019081526020015f208181548110611d2d57611d2d613933565b905f5260205f2090600402015f0154868381518110611d4e57611d4e613933565b602002602001018181525050600a5f896001600160a01b03166001600160a01b031681526020019081526020015f208181548110611d8e57611d8e613933565b905f5260205f20906004020160010154858381518110611db057611db0613933565b602002602001018181525050600a5f896001600160a01b03166001600160a01b031681526020019081526020015f208181548110611df057611df0613933565b905f5260205f20906004020160020154848381518110611e1257611e12613933565b602090810291909101015281611e2781613998565b9250505b600101611c78565b5050509193509193565b6001600160a01b0381165f908152600a6020908152604080832080548251818502810185019093528083528493849084015b82821015611ec7575f848152602090819020604080516080810182526004860290920180548352600180820154848601526002820154928401929092526003015460ff16151560608301529083529092019101611e6f565b5050505090505f5b8151811015611f3157818181518110611eea57611eea613933565b602002602001015160600151611f2957611f1c828281518110611f0f57611f0f613933565b6020026020010151612853565b611f269084613947565b92505b600101611ecf565b5050919050565b5f6117d0848484612ea3565b611f4c6128b8565b6001600160a01b038116611f8e576040517f1e4fbdf70000000000000000000000000000000000000000000000000000000081525f6004820152602401610b77565b61119d81612932565b611f9f6128b8565b80600783604051611fb091906139b0565b90815260405190819003602001902080546001600160a01b03929092166001600160a01b03199092169190911790555050565b5f6006604051602001611ff691906139c6565b604051602081830303815290604052805190602001208260405160200161201d91906139b0565b604051602081830303815290604052805190602001200361204057506064919050565b5f60078360405161205191906139b0565b908152604051908190036020019020546001600160a01b03169050806120b95760405162461bcd60e51b815260206004820152601f60248201527f50726963652066656564206e6f742073657420666f722063757272656e6379006044820152606401610b77565b5f816001600160a01b031663feaf968c6040518163ffffffff1660e01b815260040160a060405180830381865afa1580156120f6573d5f803e3d5ffd5b505050506040513d601f19601f8201168201806040525081019061211a9190613a7b565b5050509150505f811361216f5760405162461bcd60e51b815260206004820152601260248201527f496e76616c6964207072696365206461746100000000000000000000000000006044820152606401610b77565b806305f5e1006121806064836138f8565b61218a9190613979565b95945050505050565b6111b282826117d8565b5f6007826040516121ae91906139b0565b908152604051908190036020019020546001600160a01b031692915050565b5f6121d88383612983565b90505f81116122295760405162461bcd60e51b815260206004820152601460248201527f496e76616c696420746f6b656e20616d6f756e740000000000000000000000006044820152606401610b77565b61223333826128fe565b336001600160a01b03167fa8aeac0eb8c033dd01d0d9e327398d0796ca1b6a3c7da711bb589dfa0826f5938484846040516122709392919061390f565b60405180910390a2505050565b5f61228a6012600a6138ea565b6002546122979190613979565b905090565b6122a98383836001613006565b505050565b5f6001600160a01b0385166123185760405162461bcd60e51b815260206004820152602a60248201527f526564656d7074696f6e4c69623a20557365722063616e6e6f74206265207a65604482015269726f206164647265737360b01b6064820152608401610b77565b5f831161238d5760405162461bcd60e51b815260206004820152603560248201527f526564656d7074696f6e4c69623a20546f6b656e20616d6f756e74206d75737460448201527f2062652067726561746572207468616e207a65726f00000000000000000000006064820152608401610b77565b6040516370a0823160e01b81526001600160a01b0386811660048301525f91908816906370a0823190602401602060405180830381865afa1580156123d4573d5f803e3d5ffd5b505050506040513d601f19601f820116820180604052508101906123f89190613ac9565b90507f3c5ad147104e56be34a9176a6692f7df8d2f4b29a5af06bc6b98970d329d65778160405161246391906040808252600c908201527f557365722062616c616e636500000000000000000000000000000000000000006060820152602081019190915260800190565b60405180910390a1838110156124e15760405162461bcd60e51b815260206004820152602960248201527f526564656d7074696f6e4c69623a20496e73756666696369656e7420746f6b6560448201527f6e2062616c616e636500000000000000000000000000000000000000000000006064820152608401610b77565b5f6124ed86868661310a565b90507f3c5ad147104e56be34a9176a6692f7df8d2f4b29a5af06bc6b98970d329d65778160405161255891906040808252600f908201527f43757272656e637920616d6f756e7400000000000000000000000000000000006060820152602081019190915260800190565b60405180910390a15f81116125d55760405162461bcd60e51b815260206004820152602860248201527f526564656d7074696f6e4c69623a20496e76616c696420636f6e76657273696f60448201527f6e20616d6f756e740000000000000000000000000000000000000000000000006064820152608401610b77565b6040516323b872dd60e01b81526001600160a01b03888116600483015261dead6024830152604482018790525f91908a16906323b872dd906064016020604051808303815f875af115801561262c573d5f803e3d5ffd5b505050506040513d601f19601f82011682018060405250810190612650919061395a565b90507f3c5ad147104e56be34a9176a6692f7df8d2f4b29a5af06bc6b98970d329d65778161267e575f612681565b60015b604080518181526010818301527f5472616e73666572207375636365737300000000000000000000000000000000606082015260ff929092166020830152519081900360800190a1806127165760405162461bcd60e51b815260206004820181905260248201527f526564656d7074696f6e4c69623a20546f6b656e206275726e206661696c65646044820152606401610b77565b876001600160a01b03167f602556849fd4874db76dc9a629159a721346d607a995229cd6af9f03e904b47c8888856040516127539392919061390f565b60405180910390a250979650505050505050565b6001600160a01b038381165f908152600160209081526040808320938616835292905220545f198110156116ec57818110156127e8576040517ffb8f41b20000000000000000000000000000000000000000000000000000000081526001600160a01b03841660048201526024810182905260448101839052606401610b77565b6116ec84848484035f613006565b6001600160a01b03831661281f57604051634b637e8f60e11b81525f6004820152602401610b77565b6001600160a01b0382166128485760405163ec442f0560e01b81525f6004820152602401610b77565b6122a9838383613215565b5f805f83604001511161286857600b5461287a565b6040808401515f908152600c60205220545b90505f83602001514261288d9190613ae0565b905063bbf81e008183865f01516128a491906138f8565b6128ae91906138f8565b6117d09190613979565b6008546001600160a01b03163314611470576040517f118cdaa7000000000000000000000000000000000000000000000000000000008152336004820152602401610b77565b6001600160a01b0382166129275760405163ec442f0560e01b81525f6004820152602401610b77565b6111b25f8383613215565b600880546001600160a01b038381166001600160a01b0319831681179093556040519116919082907f8be0079c531659141344cd1fd0a4f28419497f9722a3daafe3b4186f6b6457e0905f90a35050565b5f8061298e84611fe3565b90505f81116129df5760405162461bcd60e51b815260206004820152601560248201527f496e76616c69642065786368616e6765207261746500000000000000000000006044820152606401610b77565b5f60646129ec83866138f8565b6129f69190613979565b905061218a81670de0b6b3a76400006138f8565b6001600160a01b038216612a3357604051634b637e8f60e11b81525f6004820152602401610b77565b6111b2825f83613215565b5f6001600160a01b038416612aa85760405162461bcd60e51b815260206004820152602a60248201527f5472616e736665724c69623a2053656e6465722063616e6e6f74206265207a65604482015269726f206164647265737360b01b6064820152608401610b77565b6001600160a01b038316612b245760405162461bcd60e51b815260206004820152602c60248201527f5472616e736665724c69623a2052656365697665722063616e6e6f742062652060448201527f7a65726f206164647265737300000000000000000000000000000000000000006064820152608401610b77565b5f8211612b995760405162461bcd60e51b815260206004820152602d60248201527f5472616e736665724c69623a20416d6f756e74206d757374206265206772656160448201527f746572207468616e207a65726f000000000000000000000000000000000000006064820152608401610b77565b6040516370a0823160e01b81526001600160a01b0385811660048301525f91908716906370a0823190602401602060405180830381865afa158015612be0573d5f803e3d5ffd5b505050506040513d601f19601f82011682018060405250810190612c049190613ac9565b905082811015612c7c5760405162461bcd60e51b815260206004820152602160248201527f5472616e736665724c69623a20496e73756666696369656e742062616c616e6360448201527f65000000000000000000000000000000000000000000000000000000000000006064820152608401610b77565b6040517fdd62ed3e0000000000000000000000000000000000000000000000000000000081526001600160a01b0386811660048301523060248301525f919088169063dd62ed3e90604401602060405180830381865afa158015612ce2573d5f803e3d5ffd5b505050506040513d601f19601f82011682018060405250810190612d069190613ac9565b905083811015612d7e5760405162461bcd60e51b815260206004820152602360248201527f5472616e736665724c69623a20496e73756666696369656e7420616c6c6f776160448201527f6e636500000000000000000000000000000000000000000000000000000000006064820152608401610b77565b6040516323b872dd60e01b81526001600160a01b0387811660048301528681166024830152604482018690525f91908916906323b872dd906064016020604051808303815f875af1158015612dd5573d5f803e3d5ffd5b505050506040513d601f19601f82011682018060405250810190612df9919061395a565b905080612e485760405162461bcd60e51b815260206004820152601c60248201527f5472616e736665724c69623a205472616e73666572206661696c6564000000006044820152606401610b77565b856001600160a01b0316876001600160a01b03167f68d8b242061749353081922c3f317f3f4eb148ef7afa77145efa32e9b3c7b93687604051612e8d91815260200190565b60405180910390a3506001979650505050505050565b5f82604051602001612eb591906139b0565b6040516020818303038152906040528051906020012084604051602001612edc91906139b0565b6040516020818303038152906040528051906020012003612f655760405162461bcd60e51b815260206004820152602360248201527f43616e6e6f7420636f6e7665727420746f207468652073616d6520637572726560448201527f6e637900000000000000000000000000000000000000000000000000000000006064820152608401610b77565b5f612f6f85611fe3565b90505f6064612f7e83866138f8565b612f889190613979565b90505f612f9486611fe3565b90505f8111612fe55760405162461bcd60e51b815260206004820152601c60248201527f5461726765742063757272656e63792072617465206973207a65726f000000006044820152606401610b77565b80612ff18360646138f8565b612ffb9190613979565b979650505050505050565b6001600160a01b038416613048576040517fe602df050000000000000000000000000000000000000000000000000000000081525f6004820152602401610b77565b6001600160a01b03831661308a576040517f94280d620000000000000000000000000000000000000000000000000000000081525f6004820152602401610b77565b6001600160a01b038085165f90815260016020908152604080832093871683529290522082905580156116ec57826001600160a01b0316846001600160a01b03167f8c5be1e5ebec7d5bd14f71427d1e84f3dd0314c0f7b2291e5b200ac8c7c3b925846040516130fc91815260200190565b60405180910390a350505050565b5f8061311e670de0b6b3a764000085613979565b6040517f55534400000000000000000000000000000000000000000000000000000000006020820152909150602301604051602081830303815290604052805190602001208560405160200161317491906139b0565b6040516020818303038152906040528051906020012003613196579050610cd4565b5f6131a4868563ffffffff16565b90505f81116131f55760405162461bcd60e51b815260206004820152601c60248201527f496e76616c6964207461726765742063757272656e63792072617465000000006044820152606401610b77565b806132018360646138f8565b61320b9190613979565b9695505050505050565b6001600160a01b03831661323f578060025f8282546132349190613947565b909155506132c89050565b6001600160a01b0383165f90815260208190526040902054818110156132aa576040517fe450d38c0000000000000000000000000000000000000000000000000000000081526001600160a01b03851660048201526024810182905260448101839052606401610b77565b6001600160a01b0384165f9081526020819052604090209082900390555b6001600160a01b0382166132e457600280548290039055613302565b6001600160a01b0382165f9081526020819052604090208054820190555b816001600160a01b0316836001600160a01b03167fddf252ad1be2c89b69c2b068fc378daa952ba7f163c4a11628f55a4df523b3ef8360405161334791815260200190565b60405180910390a3505050565b80356001600160a01b038116811461336a575f80fd5b919050565b5f6020828403121561337f575f80fd5b610cd482613354565b5f81518084528060208401602086015e5f602082860101526020601f19601f83011685010191505092915050565b602081525f610cd46020830184613388565b5f80604083850312156133d9575f80fd5b6133e283613354565b946020939093013593505050565b634e487b7160e01b5f52604160045260245ffd5b5f82601f830112613413575f80fd5b813567ffffffffffffffff81111561342d5761342d6133f0565b604051601f8201601f19908116603f0116810167ffffffffffffffff8111828210171561345c5761345c6133f0565b604052818152838201602001851015613473575f80fd5b816020850160208301375f918101602001919091529392505050565b5f80604083850312156134a0575f80fd5b823567ffffffffffffffff8111156134b6575f80fd5b6134c285828601613404565b95602094909401359450505050565b5f805f606084860312156134e3575f80fd5b6134ec84613354565b92506134fa60208501613354565b929592945050506040919091013590565b5f8151808452602084019350602083015f5b8281101561353b57815186526020958601959091019060010161351d565b5093949350505050565b60a081525f61355760a083018861350b565b8281036020840152613569818861350b565b9050828103604084015261357d818761350b565b90508281036060840152613591818661350b565b8381036080850152845180825260208087019350909101905f5b818110156135cb57835115158352602093840193909201916001016135ab565b50909998505050505050505050565b5f80604083850312156135eb575f80fd5b6135f483613354565b9150602083013567ffffffffffffffff81111561360f575f80fd5b61361b85828601613404565b9150509250929050565b5f60208284031215613635575f80fd5b5035919050565b5f806040838503121561364d575f80fd5b50508035926020909101359150565b5f6020828403121561366c575f80fd5b813567ffffffffffffffff811115613682575f80fd5b6117d084828501613404565b608081525f6136a0608083018761350b565b82810360208401526136b2818761350b565b905082810360408401526136c6818661350b565b90508281036060840152612ffb818561350b565b5f80604083850312156136eb575f80fd5b6136f483613354565b915061370260208401613354565b90509250929050565b5f805f6060848603121561371d575f80fd5b833567ffffffffffffffff811115613733575f80fd5b61373f86828701613404565b935050602084013567ffffffffffffffff81111561375b575f80fd5b61376786828701613404565b93969395505050506040919091013590565b5f806040838503121561378a575f80fd5b823567ffffffffffffffff8111156137a0575f80fd5b6137ac85828601613404565b92505061370260208401613354565b600181811c908216806137cf57607f821691505b6020821081036137ed57634e487b7160e01b5f52602260045260245ffd5b50919050565b634e487b7160e01b5f52601160045260245ffd5b6001815b600184111561384257808504811115613826576138266137f3565b600184161561383457908102905b60019390931c92800261380b565b935093915050565b5f8261385857506001610c37565b8161386457505f610c37565b816001811461387a5760028114613884576138a0565b6001915050610c37565b60ff841115613895576138956137f3565b50506001821b610c37565b5060208310610133831016604e8410600b84101617156138c3575081810a610c37565b6138cf5f198484613807565b805f19048211156138e2576138e26137f3565b029392505050565b5f610cd460ff84168361384a565b8082028115828204841417610c3757610c376137f3565b606081525f6139216060830186613388565b60208301949094525060400152919050565b634e487b7160e01b5f52603260045260245ffd5b80820180821115610c3757610c376137f3565b5f6020828403121561396a575f80fd5b81518015158114610cd4575f80fd5b5f8261399357634e487b7160e01b5f52601260045260245ffd5b500490565b5f600182016139a9576139a96137f3565b5060010190565b5f82518060208501845e5f920191825250919050565b5f8083545f8160011c905060018216806139e157607f821691505b6020821081036139ff57634e487b7160e01b5f52602260045260245ffd5b808015613a135760018114613a2857613a56565b60ff1984168752821515830287019450613a56565b5f888152602090205f5b84811015613a4e57815489820152600190910190602001613a32565b505082870194505b50929695505050505050565b805169ffffffffffffffffffff8116811461336a575f80fd5b5f805f805f60a08688031215613a8f575f80fd5b613a9886613a62565b60208701516040880151606089015192975090955093509150613abd60808701613a62565b90509295509295909350565b5f60208284031215613ad9575f80fd5b5051919050565b81810381811115610c3757610c376137f356fea26469706673582212205c4abfa1f86d0a5c4e16065ee892b74575696a128f2503f0878d26d162538b6064736f6c634300081a0033",
			"opcodes": "PUSH1 0xC0 PUSH1 0x40 MSTORE PUSH1 0x3 PUSH1 0x80 SWAP1 DUP2 MSTORE PUSH3 0x1554D1 PUSH1 0xEA SHL PUSH1 0xA0 MSTORE PUSH1 0x6 SWAP1 PUSH2 0x22 SWAP1 DUP3 PUSH2 0x37C JUMP JUMPDEST POP PUSH1 0x3 PUSH1 0xB SSTORE CALLVALUE DUP1 ISZERO PUSH2 0x33 JUMPI PUSH0 DUP1 REVERT JUMPDEST POP CALLER ADDRESS PUSH1 0x40 MLOAD DUP1 PUSH1 0x40 ADD PUSH1 0x40 MSTORE DUP1 PUSH1 0x9 DUP2 MSTORE PUSH1 0x20 ADD PUSH9 0x232A23A83A37B5B2B7 PUSH1 0xB9 SHL DUP2 MSTORE POP PUSH1 0x40 MLOAD DUP1 PUSH1 0x40 ADD PUSH1 0x40 MSTORE DUP1 PUSH1 0x4 DUP2 MSTORE PUSH1 0x20 ADD PUSH4 0x4654475 PUSH1 0xE4 SHL DUP2 MSTORE POP DUP2 PUSH1 0x3 SWAP1 DUP2 PUSH2 0x84 SWAP2 SWAP1 PUSH2 0x37C JUMP JUMPDEST POP PUSH1 0x4 PUSH2 0x91 DUP3 DUP3 PUSH2 0x37C JUMP JUMPDEST POP POP PUSH1 0x5 DUP1 SLOAD PUSH1 0x1 PUSH1 0x1 PUSH1 0xA0 SHL SUB SWAP4 DUP5 AND PUSH1 0x1 PUSH1 0x1 PUSH1 0xA0 SHL SUB NOT SWAP2 DUP3 AND OR SWAP1 SWAP2 SSTORE PUSH1 0x40 DUP1 MLOAD PUSH3 0x47425 PUSH1 0xEC SHL DUP2 MSTORE PUSH1 0x7 PUSH1 0x3 DUP1 DUP4 ADD DUP3 SWAP1 MSTORE DUP4 MLOAD PUSH1 0x23 SWAP4 DUP2 SWAP1 SUB DUP5 ADD DUP2 KECCAK256 DUP1 SLOAD DUP8 AND PUSH20 0x91FAB41F5F3BE955963A986366EDACFF1AAEAA83 OR SWAP1 SSTORE PUSH3 0x22AAA9 PUSH1 0xE9 SHL DUP2 MSTORE DUP1 DUP3 ADD DUP4 SWAP1 MSTORE DUP5 MLOAD SWAP1 DUP2 SWAP1 SUB DUP5 ADD DUP2 KECCAK256 DUP1 SLOAD DUP8 AND PUSH20 0x1A81AFB8146AEFFCFC5E50E8479E826E7D55B910 OR SWAP1 SSTORE PUSH3 0x4A5059 PUSH1 0xE8 SHL DUP2 MSTORE DUP1 DUP3 ADD DUP4 SWAP1 MSTORE DUP5 MLOAD SWAP1 DUP2 SWAP1 SUB DUP5 ADD DUP2 KECCAK256 DUP1 SLOAD DUP8 AND PUSH20 0x8A6AF2B75F23831ADC973CE6288E5329F63D86C6 OR SWAP1 SSTORE PUSH3 0x8AA89 PUSH1 0xEB SHL DUP2 MSTORE DUP1 DUP3 ADD DUP4 SWAP1 MSTORE DUP5 MLOAD SWAP1 DUP2 SWAP1 SUB DUP5 ADD DUP2 KECCAK256 DUP1 SLOAD DUP8 AND PUSH20 0x694AA1769357215DE4FAC081BF1F309ADC325306 OR SWAP1 SSTORE PUSH3 0x1554D1 PUSH1 0xEA SHL DUP2 MSTORE SWAP1 DUP2 ADD SWAP2 SWAP1 SWAP2 MSTORE SWAP2 MLOAD SWAP2 DUP3 SWAP1 SUB ADD SWAP1 KECCAK256 DUP1 SLOAD SWAP1 SWAP2 AND SWAP1 SSTORE POP DUP2 AND PUSH2 0x1D6 JUMPI PUSH1 0x40 MLOAD PUSH4 0x1E4FBDF7 PUSH1 0xE0 SHL DUP2 MSTORE PUSH0 PUSH1 0x4 DUP3 ADD MSTORE PUSH1 0x24 ADD PUSH1 0x40 MLOAD DUP1 SWAP2 SUB SWAP1 REVERT JUMPDEST PUSH2 0x1DF DUP2 PUSH2 0x293 JUMP JUMPDEST POP PUSH1 0x9 DUP1 SLOAD PUSH1 0x1 PUSH1 0x1 PUSH1 0xA0 SHL SUB NOT AND ADDRESS OR SWAP1 SSTORE PUSH1 0xC PUSH1 0x20 DUP2 SWAP1 MSTORE PUSH1 0x3 PUSH32 0xDF85B3B91DB3FC0D5CE237A54E22266DA0607FEF5FBE5DAEFFA9610EB8AE119C SSTORE PUSH1 0x5 PUSH32 0xEF0F79A2DBCDFF9A8EBE19B620AF73660A85B3DF3E0778F807CDF83AE1E805C8 SSTORE PUSH1 0x8 PUSH32 0x6C82D3A57CEBFEC9927F2AABAD409518216852DF1F4C0220FD7BA03937E50EBC SSTORE PUSH4 0x1E13380 PUSH0 MSTORE PUSH32 0xEA1E207DDA072346D0EC8DBC69C075DCC6DBF6A2606F1245552E3E0F7C397A2 SSTORE PUSH2 0x436 JUMP JUMPDEST PUSH1 0x8 DUP1 SLOAD PUSH1 0x1 PUSH1 0x1 PUSH1 0xA0 SHL SUB DUP4 DUP2 AND PUSH1 0x1 PUSH1 0x1 PUSH1 0xA0 SHL SUB NOT DUP4 AND DUP2 OR SWAP1 SWAP4 SSTORE PUSH1 0x40 MLOAD SWAP2 AND SWAP2 SWAP1 DUP3 SWAP1 PUSH32 0x8BE0079C531659141344CD1FD0A4F28419497F9722A3DAAFE3B4186F6B6457E0 SWAP1 PUSH0 SWAP1 LOG3 POP POP JUMP JUMPDEST PUSH4 0x4E487B71 PUSH1 0xE0 SHL PUSH0 MSTORE PUSH1 0x41 PUSH1 0x4 MSTORE PUSH1 0x24 PUSH0 REVERT JUMPDEST PUSH1 0x1 DUP2 DUP2 SHR SWAP1 DUP3 AND DUP1 PUSH2 0x30C JUMPI PUSH1 0x7F DUP3 AND SWAP2 POP JUMPDEST PUSH1 0x20 DUP3 LT DUP2 SUB PUSH2 0x32A JUMPI PUSH4 0x4E487B71 PUSH1 0xE0 SHL PUSH0 MSTORE PUSH1 0x22 PUSH1 0x4 MSTORE PUSH1 0x24 PUSH0 REVERT JUMPDEST POP SWAP2 SWAP1 POP JUMP JUMPDEST PUSH1 0x1F DUP3 GT ISZERO PUSH2 0x377 JUMPI DUP1 PUSH0 MSTORE PUSH1 0x20 PUSH0 KECCAK256 PUSH1 0x1F DUP5 ADD PUSH1 0x5 SHR DUP2 ADD PUSH1 0x20 DUP6 LT ISZERO PUSH2 0x355 JUMPI POP DUP1 JUMPDEST PUSH1 0x1F DUP5 ADD PUSH1 0x5 SHR DUP3 ADD SWAP2 POP JUMPDEST DUP2 DUP2 LT ISZERO PUSH2 0x374 JUMPI PUSH0 DUP2 SSTORE PUSH1 0x1 ADD PUSH2 0x361 JUMP JUMPDEST POP POP JUMPDEST POP POP POP JUMP JUMPDEST DUP2 MLOAD PUSH1 0x1 PUSH1 0x1 PUSH1 0x40 SHL SUB DUP2 GT ISZERO PUSH2 0x395 JUMPI PUSH2 0x395 PUSH2 0x2E4 JUMP JUMPDEST PUSH2 0x3A9 DUP2 PUSH2 0x3A3 DUP5 SLOAD PUSH2 0x2F8 JUMP JUMPDEST DUP5 PUSH2 0x330 JUMP JUMPDEST PUSH1 0x20 PUSH1 0x1F DUP3 GT PUSH1 0x1 DUP2 EQ PUSH2 0x3DB JUMPI PUSH0 DUP4 ISZERO PUSH2 0x3C4 JUMPI POP DUP5 DUP3 ADD MLOAD JUMPDEST PUSH0 NOT PUSH1 0x3 DUP6 SWAP1 SHL SHR NOT AND PUSH1 0x1 DUP5 SWAP1 SHL OR DUP5 SSTORE PUSH2 0x374 JUMP JUMPDEST PUSH0 DUP5 DUP2 MSTORE PUSH1 0x20 DUP2 KECCAK256 PUSH1 0x1F NOT DUP6 AND SWAP2 JUMPDEST DUP3 DUP2 LT ISZERO PUSH2 0x40A JUMPI DUP8 DUP6 ADD MLOAD DUP3 SSTORE PUSH1 0x20 SWAP5 DUP6 ADD SWAP5 PUSH1 0x1 SWAP1 SWAP3 ADD SWAP2 ADD PUSH2 0x3EA JUMP JUMPDEST POP DUP5 DUP3 LT ISZERO PUSH2 0x427 JUMPI DUP7 DUP5 ADD MLOAD PUSH0 NOT PUSH1 0x3 DUP8 SWAP1 SHL PUSH1 0xF8 AND SHR NOT AND DUP2 SSTORE JUMPDEST POP POP POP POP PUSH1 0x1 SWAP1 DUP2 SHL ADD SWAP1 SSTORE POP JUMP JUMPDEST PUSH2 0x3B29 DUP1 PUSH2 0x443 PUSH0 CODECOPY PUSH0 RETURN INVALID PUSH1 0x80 PUSH1 0x40 MSTORE PUSH1 0x4 CALLDATASIZE LT PUSH2 0x319 JUMPI PUSH0 CALLDATALOAD PUSH1 0xE0 SHR DUP1 PUSH4 0x92A85FDE GT PUSH2 0x19C JUMPI DUP1 PUSH4 0xDD62ED3E GT PUSH2 0xE7 JUMPI DUP1 PUSH4 0xF3B3347E GT PUSH2 0x92 JUMPI DUP1 PUSH4 0xF6CCBADD GT PUSH2 0x6D JUMPI DUP1 PUSH4 0xF6CCBADD EQ PUSH2 0xA52 JUMPI DUP1 PUSH4 0xF92881A3 EQ PUSH2 0xA71 JUMPI DUP1 PUSH4 0xFC0C546A EQ PUSH2 0xA90 JUMPI DUP1 PUSH4 0xFE4E61DF EQ PUSH2 0xAAF JUMPI PUSH0 DUP1 REVERT JUMPDEST DUP1 PUSH4 0xF3B3347E EQ PUSH2 0x9F5 JUMPI DUP1 PUSH4 0xF4B54314 EQ PUSH2 0xA14 JUMPI DUP1 PUSH4 0xF500D9DA EQ PUSH2 0xA33 JUMPI PUSH0 DUP1 REVERT JUMPDEST DUP1 PUSH4 0xE9E190A3 GT PUSH2 0xC2 JUMPI DUP1 PUSH4 0xE9E190A3 EQ PUSH2 0x91A JUMPI DUP1 PUSH4 0xEB9D794A EQ PUSH2 0x9B7 JUMPI DUP1 PUSH4 0xF2FDE38B EQ PUSH2 0x9D6 JUMPI PUSH0 DUP1 REVERT JUMPDEST DUP1 PUSH4 0xDD62ED3E EQ PUSH2 0x8A0 JUMPI DUP1 PUSH4 0xE02A4DFD EQ PUSH2 0x8E4 JUMPI DUP1 PUSH4 0xE11932CF EQ PUSH2 0x8FB JUMPI PUSH0 DUP1 REVERT JUMPDEST DUP1 PUSH4 0xA9059CBB GT PUSH2 0x147 JUMPI DUP1 PUSH4 0xD1D95588 GT PUSH2 0x122 JUMPI DUP1 PUSH4 0xD1D95588 EQ PUSH2 0x852 JUMPI DUP1 PUSH4 0xD2D48EE3 EQ PUSH2 0x871 JUMPI DUP1 PUSH4 0xDB40F828 EQ PUSH2 0x7B7 JUMPI PUSH0 DUP1 REVERT JUMPDEST DUP1 PUSH4 0xA9059CBB EQ PUSH2 0x7F5 JUMPI DUP1 PUSH4 0xBEC3FA17 EQ PUSH2 0x814 JUMPI DUP1 PUSH4 0xC0531580 EQ PUSH2 0x833 JUMPI PUSH0 DUP1 REVERT JUMPDEST DUP1 PUSH4 0x98FB5FC8 GT PUSH2 0x177 JUMPI DUP1 PUSH4 0x98FB5FC8 EQ PUSH2 0x798 JUMPI DUP1 PUSH4 0xA11E685A EQ PUSH2 0x7B7 JUMPI DUP1 PUSH4 0xA8FBDD3A EQ PUSH2 0x7D6 JUMPI PUSH0 DUP1 REVERT JUMPDEST DUP1 PUSH4 0x92A85FDE EQ PUSH2 0x751 JUMPI DUP1 PUSH4 0x936710BF EQ PUSH2 0x765 JUMPI DUP1 PUSH4 0x95D89B41 EQ PUSH2 0x784 JUMPI PUSH0 DUP1 REVERT JUMPDEST DUP1 PUSH4 0x33289A46 GT PUSH2 0x267 JUMPI DUP1 PUSH4 0x60711058 GT PUSH2 0x212 JUMPI DUP1 PUSH4 0x7FC35CEB GT PUSH2 0x1ED JUMPI DUP1 PUSH4 0x7FC35CEB EQ PUSH2 0x612 JUMPI DUP1 PUSH4 0x82D5E7B8 EQ PUSH2 0x631 JUMPI DUP1 PUSH4 0x88BD4CEA EQ PUSH2 0x648 JUMPI DUP1 PUSH4 0x8DA5CB5B EQ PUSH2 0x720 JUMPI PUSH0 DUP1 REVERT JUMPDEST DUP1 PUSH4 0x60711058 EQ PUSH2 0x589 JUMPI DUP1 PUSH4 0x70A08231 EQ PUSH2 0x5CA JUMPI DUP1 PUSH4 0x715018A6 EQ PUSH2 0x5FE JUMPI PUSH0 DUP1 REVERT JUMPDEST DUP1 PUSH4 0x4859B3F4 GT PUSH2 0x242 JUMPI DUP1 PUSH4 0x4859B3F4 EQ PUSH2 0x559 JUMPI DUP1 PUSH4 0x5696B189 EQ PUSH2 0x561 JUMPI DUP1 PUSH4 0x5B72A33A EQ PUSH2 0x575 JUMPI PUSH0 DUP1 REVERT JUMPDEST DUP1 PUSH4 0x33289A46 EQ PUSH2 0x505 JUMPI DUP1 PUSH4 0x385DC3DF EQ PUSH2 0x524 JUMPI DUP1 PUSH4 0x40C10F19 EQ PUSH2 0x53A JUMPI PUSH0 DUP1 REVERT JUMPDEST DUP1 PUSH4 0x23B872DD GT PUSH2 0x2C7 JUMPI DUP1 PUSH4 0x29C9CEAD GT PUSH2 0x2A2 JUMPI DUP1 PUSH4 0x29C9CEAD EQ PUSH2 0x482 JUMPI DUP1 PUSH4 0x2E1A7D4D EQ PUSH2 0x4C9 JUMPI DUP1 PUSH4 0x313CE567 EQ PUSH2 0x4EA JUMPI PUSH0 DUP1 REVERT JUMPDEST DUP1 PUSH4 0x23B872DD EQ PUSH2 0x41B JUMPI DUP1 PUSH4 0x2516B3C1 EQ PUSH2 0x43A JUMPI DUP1 PUSH4 0x28774994 EQ PUSH2 0x46A JUMPI PUSH0 DUP1 REVERT JUMPDEST DUP1 PUSH4 0x136A2CA7 GT PUSH2 0x2F7 JUMPI DUP1 PUSH4 0x136A2CA7 EQ PUSH2 0x3A6 JUMPI DUP1 PUSH4 0x13FCAF54 EQ PUSH2 0x3D3 JUMPI DUP1 PUSH4 0x18160DDD EQ PUSH2 0x407 JUMPI PUSH0 DUP1 REVERT JUMPDEST DUP1 PUSH4 0x46AD586 EQ PUSH2 0x31D JUMPI DUP1 PUSH4 0x6FDDE03 EQ PUSH2 0x356 JUMPI DUP1 PUSH4 0x95EA7B3 EQ PUSH2 0x377 JUMPI JUMPDEST PUSH0 DUP1 REVERT JUMPDEST CALLVALUE DUP1 ISZERO PUSH2 0x328 JUMPI PUSH0 DUP1 REVERT JUMPDEST POP PUSH2 0x33C PUSH2 0x337 CALLDATASIZE PUSH1 0x4 PUSH2 0x336F JUMP JUMPDEST PUSH2 0xAC3 JUMP JUMPDEST PUSH1 0x40 DUP1 MLOAD SWAP3 DUP4 MSTORE PUSH1 0x20 DUP4 ADD SWAP2 SWAP1 SWAP2 MSTORE ADD JUMPDEST PUSH1 0x40 MLOAD DUP1 SWAP2 SUB SWAP1 RETURN JUMPDEST CALLVALUE DUP1 ISZERO PUSH2 0x361 JUMPI PUSH0 DUP1 REVERT JUMPDEST POP PUSH2 0x36A PUSH2 0xB94 JUMP JUMPDEST PUSH1 0x40 MLOAD PUSH2 0x34D SWAP2 SWAP1 PUSH2 0x33B6 JUMP JUMPDEST CALLVALUE DUP1 ISZERO PUSH2 0x382 JUMPI PUSH0 DUP1 REVERT JUMPDEST POP PUSH2 0x396 PUSH2 0x391 CALLDATASIZE PUSH1 0x4 PUSH2 0x33C8 JUMP JUMPDEST PUSH2 0xC24 JUMP JUMPDEST PUSH1 0x40 MLOAD SWAP1 ISZERO ISZERO DUP2 MSTORE PUSH1 0x20 ADD PUSH2 0x34D JUMP JUMPDEST CALLVALUE DUP1 ISZERO PUSH2 0x3B1 JUMPI PUSH0 DUP1 REVERT JUMPDEST POP PUSH2 0x3C5 PUSH2 0x3C0 CALLDATASIZE PUSH1 0x4 PUSH2 0x348F JUMP JUMPDEST PUSH2 0xC3D JUMP JUMPDEST PUSH1 0x40 MLOAD SWAP1 DUP2 MSTORE PUSH1 0x20 ADD PUSH2 0x34D JUMP JUMPDEST CALLVALUE DUP1 ISZERO PUSH2 0x3DE JUMPI PUSH0 DUP1 REVERT JUMPDEST POP PUSH2 0x3C5 PUSH2 0x3ED CALLDATASIZE PUSH1 0x4 PUSH2 0x336F JUMP JUMPDEST PUSH1 0x1 PUSH1 0x1 PUSH1 0xA0 SHL SUB AND PUSH0 SWAP1 DUP2 MSTORE PUSH1 0xA PUSH1 0x20 MSTORE PUSH1 0x40 SWAP1 KECCAK256 SLOAD SWAP1 JUMP JUMPDEST CALLVALUE DUP1 ISZERO PUSH2 0x412 JUMPI PUSH0 DUP1 REVERT JUMPDEST POP PUSH1 0x2 SLOAD PUSH2 0x3C5 JUMP JUMPDEST CALLVALUE DUP1 ISZERO PUSH2 0x426 JUMPI PUSH0 DUP1 REVERT JUMPDEST POP PUSH2 0x396 PUSH2 0x435 CALLDATASIZE PUSH1 0x4 PUSH2 0x34D1 JUMP JUMPDEST PUSH2 0xCB6 JUMP JUMPDEST CALLVALUE DUP1 ISZERO PUSH2 0x445 JUMPI PUSH0 DUP1 REVERT JUMPDEST POP PUSH2 0x459 PUSH2 0x454 CALLDATASIZE PUSH1 0x4 PUSH2 0x336F JUMP JUMPDEST PUSH2 0xCDB JUMP JUMPDEST PUSH1 0x40 MLOAD PUSH2 0x34D SWAP6 SWAP5 SWAP4 SWAP3 SWAP2 SWAP1 PUSH2 0x3545 JUMP JUMPDEST CALLVALUE DUP1 ISZERO PUSH2 0x475 JUMPI PUSH0 DUP1 REVERT JUMPDEST POP PUSH2 0x3C5 PUSH5 0x45D964B800 DUP2 JUMP JUMPDEST CALLVALUE DUP1 ISZERO PUSH2 0x48D JUMPI PUSH0 DUP1 REVERT JUMPDEST POP PUSH2 0x3C5 PUSH2 0x49C CALLDATASIZE PUSH1 0x4 PUSH2 0x35DA JUMP JUMPDEST PUSH1 0xE PUSH1 0x20 SWAP1 DUP2 MSTORE PUSH0 SWAP3 DUP4 MSTORE PUSH1 0x40 SWAP1 SWAP3 KECCAK256 DUP2 MLOAD DUP1 DUP4 ADD DUP5 ADD DUP1 MLOAD SWAP3 DUP2 MSTORE SWAP1 DUP5 ADD SWAP3 SWAP1 SWAP4 ADD SWAP2 SWAP1 SWAP2 KECCAK256 SWAP2 MSTORE SLOAD DUP2 JUMP JUMPDEST CALLVALUE DUP1 ISZERO PUSH2 0x4D4 JUMPI PUSH0 DUP1 REVERT JUMPDEST POP PUSH2 0x4E8 PUSH2 0x4E3 CALLDATASIZE PUSH1 0x4 PUSH2 0x3625 JUMP JUMPDEST PUSH2 0xF61 JUMP JUMPDEST STOP JUMPDEST CALLVALUE DUP1 ISZERO PUSH2 0x4F5 JUMPI PUSH0 DUP1 REVERT JUMPDEST POP PUSH1 0x40 MLOAD PUSH1 0x12 DUP2 MSTORE PUSH1 0x20 ADD PUSH2 0x34D JUMP JUMPDEST CALLVALUE DUP1 ISZERO PUSH2 0x510 JUMPI PUSH0 DUP1 REVERT JUMPDEST POP PUSH2 0x4E8 PUSH2 0x51F CALLDATASIZE PUSH1 0x4 PUSH2 0x3625 JUMP JUMPDEST PUSH2 0x1194 JUMP JUMPDEST CALLVALUE DUP1 ISZERO PUSH2 0x52F JUMPI PUSH0 DUP1 REVERT JUMPDEST POP PUSH2 0x3C5 PUSH3 0x278D00 DUP2 JUMP JUMPDEST CALLVALUE DUP1 ISZERO PUSH2 0x545 JUMPI PUSH0 DUP1 REVERT JUMPDEST POP PUSH2 0x4E8 PUSH2 0x554 CALLDATASIZE PUSH1 0x4 PUSH2 0x33C8 JUMP JUMPDEST PUSH2 0x11A0 JUMP JUMPDEST PUSH2 0x4E8 PUSH2 0x11B6 JUMP JUMPDEST CALLVALUE DUP1 ISZERO PUSH2 0x56C JUMPI PUSH0 DUP1 REVERT JUMPDEST POP PUSH2 0x3C5 PUSH1 0x28 DUP2 JUMP JUMPDEST CALLVALUE DUP1 ISZERO PUSH2 0x580 JUMPI PUSH0 DUP1 REVERT JUMPDEST POP PUSH2 0x3C5 PUSH1 0xC DUP2 JUMP JUMPDEST CALLVALUE DUP1 ISZERO PUSH2 0x594 JUMPI PUSH0 DUP1 REVERT JUMPDEST POP PUSH2 0x5A8 PUSH2 0x5A3 CALLDATASIZE PUSH1 0x4 PUSH2 0x33C8 JUMP JUMPDEST PUSH2 0x13F9 JUMP JUMPDEST PUSH1 0x40 DUP1 MLOAD SWAP5 DUP6 MSTORE PUSH1 0x20 DUP6 ADD SWAP4 SWAP1 SWAP4 MSTORE SWAP2 DUP4 ADD MSTORE ISZERO ISZERO PUSH1 0x60 DUP3 ADD MSTORE PUSH1 0x80 ADD PUSH2 0x34D JUMP JUMPDEST CALLVALUE DUP1 ISZERO PUSH2 0x5D5 JUMPI PUSH0 DUP1 REVERT JUMPDEST POP PUSH2 0x3C5 PUSH2 0x5E4 CALLDATASIZE PUSH1 0x4 PUSH2 0x336F JUMP JUMPDEST PUSH1 0x1 PUSH1 0x1 PUSH1 0xA0 SHL SUB AND PUSH0 SWAP1 DUP2 MSTORE PUSH1 0x20 DUP2 SWAP1 MSTORE PUSH1 0x40 SWAP1 KECCAK256 SLOAD SWAP1 JUMP JUMPDEST CALLVALUE DUP1 ISZERO PUSH2 0x609 JUMPI PUSH0 DUP1 REVERT JUMPDEST POP PUSH2 0x4E8 PUSH2 0x145F JUMP JUMPDEST CALLVALUE DUP1 ISZERO PUSH2 0x61D JUMPI PUSH0 DUP1 REVERT JUMPDEST POP PUSH2 0x4E8 PUSH2 0x62C CALLDATASIZE PUSH1 0x4 PUSH2 0x3625 JUMP JUMPDEST PUSH2 0x1472 JUMP JUMPDEST CALLVALUE DUP1 ISZERO PUSH2 0x63C JUMPI PUSH0 DUP1 REVERT JUMPDEST POP PUSH2 0x3C5 PUSH4 0x5F5E100 DUP2 JUMP JUMPDEST CALLVALUE DUP1 ISZERO PUSH2 0x653 JUMPI PUSH0 DUP1 REVERT JUMPDEST POP PUSH2 0x4E8 PUSH2 0x662 CALLDATASIZE PUSH1 0x4 PUSH2 0x336F JUMP JUMPDEST PUSH1 0x9 DUP1 SLOAD PUSH1 0x1 PUSH1 0x1 PUSH1 0xA0 SHL SUB NOT AND PUSH1 0x1 PUSH1 0x1 PUSH1 0xA0 SHL SUB SWAP3 SWAP1 SWAP3 AND SWAP2 SWAP1 SWAP2 OR SWAP1 SSTORE PUSH1 0xC PUSH1 0x20 DUP2 SWAP1 MSTORE PUSH1 0x3 PUSH32 0xDF85B3B91DB3FC0D5CE237A54E22266DA0607FEF5FBE5DAEFFA9610EB8AE119C SSTORE PUSH1 0x5 PUSH32 0xEF0F79A2DBCDFF9A8EBE19B620AF73660A85B3DF3E0778F807CDF83AE1E805C8 SSTORE PUSH1 0x8 PUSH32 0x6C82D3A57CEBFEC9927F2AABAD409518216852DF1F4C0220FD7BA03937E50EBC SSTORE PUSH4 0x1E13380 PUSH0 MSTORE PUSH32 0xEA1E207DDA072346D0EC8DBC69C075DCC6DBF6A2606F1245552E3E0F7C397A2 SSTORE JUMP JUMPDEST CALLVALUE DUP1 ISZERO PUSH2 0x72B JUMPI PUSH0 DUP1 REVERT JUMPDEST POP PUSH1 0x8 SLOAD PUSH1 0x1 PUSH1 0x1 PUSH1 0xA0 SHL SUB AND JUMPDEST PUSH1 0x40 MLOAD PUSH1 0x1 PUSH1 0x1 PUSH1 0xA0 SHL SUB SWAP1 SWAP2 AND DUP2 MSTORE PUSH1 0x20 ADD PUSH2 0x34D JUMP JUMPDEST CALLVALUE DUP1 ISZERO PUSH2 0x75C JUMPI PUSH0 DUP1 REVERT JUMPDEST POP PUSH2 0x36A PUSH2 0x147B JUMP JUMPDEST CALLVALUE DUP1 ISZERO PUSH2 0x770 JUMPI PUSH0 DUP1 REVERT JUMPDEST POP PUSH2 0x3C5 PUSH2 0x77F CALLDATASIZE PUSH1 0x4 PUSH2 0x336F JUMP JUMPDEST PUSH2 0x1507 JUMP JUMPDEST CALLVALUE DUP1 ISZERO PUSH2 0x78F JUMPI PUSH0 DUP1 REVERT JUMPDEST POP PUSH2 0x36A PUSH2 0x1536 JUMP JUMPDEST CALLVALUE DUP1 ISZERO PUSH2 0x7A3 JUMPI PUSH0 DUP1 REVERT JUMPDEST POP PUSH2 0x4E8 PUSH2 0x7B2 CALLDATASIZE PUSH1 0x4 PUSH2 0x348F JUMP JUMPDEST PUSH2 0x1545 JUMP JUMPDEST CALLVALUE DUP1 ISZERO PUSH2 0x7C2 JUMPI PUSH0 DUP1 REVERT JUMPDEST POP PUSH2 0x3C5 PUSH2 0x7D1 CALLDATASIZE PUSH1 0x4 PUSH2 0x33C8 JUMP JUMPDEST PUSH2 0x16F2 JUMP JUMPDEST CALLVALUE DUP1 ISZERO PUSH2 0x7E1 JUMPI PUSH0 DUP1 REVERT JUMPDEST POP PUSH2 0x4E8 PUSH2 0x7F0 CALLDATASIZE PUSH1 0x4 PUSH2 0x363C JUMP JUMPDEST PUSH2 0x17D8 JUMP JUMPDEST CALLVALUE DUP1 ISZERO PUSH2 0x800 JUMPI PUSH0 DUP1 REVERT JUMPDEST POP PUSH2 0x396 PUSH2 0x80F CALLDATASIZE PUSH1 0x4 PUSH2 0x33C8 JUMP JUMPDEST PUSH2 0x196D JUMP JUMPDEST CALLVALUE DUP1 ISZERO PUSH2 0x81F JUMPI PUSH0 DUP1 REVERT JUMPDEST POP PUSH2 0x396 PUSH2 0x82E CALLDATASIZE PUSH1 0x4 PUSH2 0x33C8 JUMP JUMPDEST PUSH2 0x197A JUMP JUMPDEST CALLVALUE DUP1 ISZERO PUSH2 0x83E JUMPI PUSH0 DUP1 REVERT JUMPDEST POP PUSH2 0x3C5 PUSH2 0x84D CALLDATASIZE PUSH1 0x4 PUSH2 0x365C JUMP JUMPDEST PUSH2 0x199C JUMP JUMPDEST CALLVALUE DUP1 ISZERO PUSH2 0x85D JUMPI PUSH0 DUP1 REVERT JUMPDEST POP PUSH2 0x4E8 PUSH2 0x86C CALLDATASIZE PUSH1 0x4 PUSH2 0x3625 JUMP JUMPDEST PUSH2 0x19A6 JUMP JUMPDEST CALLVALUE DUP1 ISZERO PUSH2 0x87C JUMPI PUSH0 DUP1 REVERT JUMPDEST POP PUSH2 0x890 PUSH2 0x88B CALLDATASIZE PUSH1 0x4 PUSH2 0x336F JUMP JUMPDEST PUSH2 0x1ADF JUMP JUMPDEST PUSH1 0x40 MLOAD PUSH2 0x34D SWAP5 SWAP4 SWAP3 SWAP2 SWAP1 PUSH2 0x368E JUMP JUMPDEST CALLVALUE DUP1 ISZERO PUSH2 0x8AB JUMPI PUSH0 DUP1 REVERT JUMPDEST POP PUSH2 0x3C5 PUSH2 0x8BA CALLDATASIZE PUSH1 0x4 PUSH2 0x36DA JUMP JUMPDEST PUSH1 0x1 PUSH1 0x1 PUSH1 0xA0 SHL SUB SWAP2 DUP3 AND PUSH0 SWAP1 DUP2 MSTORE PUSH1 0x1 PUSH1 0x20 SWAP1 DUP2 MSTORE PUSH1 0x40 DUP1 DUP4 KECCAK256 SWAP4 SWAP1 SWAP5 AND DUP3 MSTORE SWAP2 SWAP1 SWAP2 MSTORE KECCAK256 SLOAD SWAP1 JUMP JUMPDEST CALLVALUE DUP1 ISZERO PUSH2 0x8EF JUMPI PUSH0 DUP1 REVERT JUMPDEST POP PUSH2 0x3C5 PUSH4 0x1DA9C00 DUP2 JUMP JUMPDEST CALLVALUE DUP1 ISZERO PUSH2 0x906 JUMPI PUSH0 DUP1 REVERT JUMPDEST POP PUSH2 0x3C5 PUSH2 0x915 CALLDATASIZE PUSH1 0x4 PUSH2 0x336F JUMP JUMPDEST PUSH2 0x1E3D JUMP JUMPDEST CALLVALUE DUP1 ISZERO PUSH2 0x925 JUMPI PUSH0 DUP1 REVERT JUMPDEST POP PUSH2 0x979 PUSH2 0x934 CALLDATASIZE PUSH1 0x4 PUSH2 0x336F JUMP JUMPDEST PUSH1 0xD PUSH1 0x20 MSTORE PUSH0 SWAP1 DUP2 MSTORE PUSH1 0x40 SWAP1 KECCAK256 DUP1 SLOAD PUSH1 0x1 DUP3 ADD SLOAD PUSH1 0x2 DUP4 ADD SLOAD PUSH1 0x3 DUP5 ADD SLOAD PUSH1 0x4 DUP6 ADD SLOAD PUSH1 0x5 DUP7 ADD SLOAD PUSH1 0x6 SWAP1 SWAP7 ADD SLOAD SWAP5 SWAP6 SWAP4 SWAP5 SWAP3 SWAP4 SWAP2 SWAP3 SWAP1 SWAP2 SWAP1 PUSH1 0x1 PUSH1 0x1 PUSH1 0xA0 SHL SUB AND DUP8 JUMP JUMPDEST PUSH1 0x40 DUP1 MLOAD SWAP8 DUP9 MSTORE PUSH1 0x20 DUP9 ADD SWAP7 SWAP1 SWAP7 MSTORE SWAP5 DUP7 ADD SWAP4 SWAP1 SWAP4 MSTORE PUSH1 0x60 DUP6 ADD SWAP2 SWAP1 SWAP2 MSTORE PUSH1 0x80 DUP5 ADD MSTORE PUSH1 0xA0 DUP4 ADD MSTORE PUSH1 0x1 PUSH1 0x1 PUSH1 0xA0 SHL SUB AND PUSH1 0xC0 DUP3 ADD MSTORE PUSH1 0xE0 ADD PUSH2 0x34D JUMP JUMPDEST CALLVALUE DUP1 ISZERO PUSH2 0x9C2 JUMPI PUSH0 DUP1 REVERT JUMPDEST POP PUSH2 0x3C5 PUSH2 0x9D1 CALLDATASIZE PUSH1 0x4 PUSH2 0x370B JUMP JUMPDEST PUSH2 0x1F38 JUMP JUMPDEST CALLVALUE DUP1 ISZERO PUSH2 0x9E1 JUMPI PUSH0 DUP1 REVERT JUMPDEST POP PUSH2 0x4E8 PUSH2 0x9F0 CALLDATASIZE PUSH1 0x4 PUSH2 0x336F JUMP JUMPDEST PUSH2 0x1F44 JUMP JUMPDEST CALLVALUE DUP1 ISZERO PUSH2 0xA00 JUMPI PUSH0 DUP1 REVERT JUMPDEST POP PUSH2 0x4E8 PUSH2 0xA0F CALLDATASIZE PUSH1 0x4 PUSH2 0x3779 JUMP JUMPDEST PUSH2 0x1F97 JUMP JUMPDEST CALLVALUE DUP1 ISZERO PUSH2 0xA1F JUMPI PUSH0 DUP1 REVERT JUMPDEST POP PUSH2 0x3C5 PUSH2 0xA2E CALLDATASIZE PUSH1 0x4 PUSH2 0x365C JUMP JUMPDEST PUSH2 0x1FE3 JUMP JUMPDEST CALLVALUE DUP1 ISZERO PUSH2 0xA3E JUMPI PUSH0 DUP1 REVERT JUMPDEST POP PUSH2 0x4E8 PUSH2 0xA4D CALLDATASIZE PUSH1 0x4 PUSH2 0x363C JUMP JUMPDEST PUSH2 0x2193 JUMP JUMPDEST CALLVALUE DUP1 ISZERO PUSH2 0xA5D JUMPI PUSH0 DUP1 REVERT JUMPDEST POP PUSH2 0x739 PUSH2 0xA6C CALLDATASIZE PUSH1 0x4 PUSH2 0x365C JUMP JUMPDEST PUSH2 0x219D JUMP JUMPDEST CALLVALUE DUP1 ISZERO PUSH2 0xA7C JUMPI PUSH0 DUP1 REVERT JUMPDEST POP PUSH2 0x4E8 PUSH2 0xA8B CALLDATASIZE PUSH1 0x4 PUSH2 0x348F JUMP JUMPDEST PUSH2 0x21CD JUMP JUMPDEST CALLVALUE DUP1 ISZERO PUSH2 0xA9B JUMPI PUSH0 DUP1 REVERT JUMPDEST POP PUSH1 0x5 SLOAD PUSH2 0x739 SWAP1 PUSH1 0x1 PUSH1 0x1 PUSH1 0xA0 SHL SUB AND DUP2 JUMP JUMPDEST CALLVALUE DUP1 ISZERO PUSH2 0xABA JUMPI PUSH0 DUP1 REVERT JUMPDEST POP PUSH2 0x3C5 PUSH2 0x227D JUMP JUMPDEST PUSH1 0x1 PUSH1 0x1 PUSH1 0xA0 SHL SUB DUP1 DUP3 AND PUSH0 SWAP1 DUP2 MSTORE PUSH1 0xD PUSH1 0x20 SWAP1 DUP2 MSTORE PUSH1 0x40 DUP1 DUP4 KECCAK256 DUP2 MLOAD PUSH1 0xE0 DUP2 ADD DUP4 MSTORE DUP2 SLOAD DUP2 MSTORE PUSH1 0x1 DUP3 ADD SLOAD SWAP4 DUP2 ADD DUP5 SWAP1 MSTORE PUSH1 0x2 DUP3 ADD SLOAD SWAP3 DUP2 ADD SWAP3 SWAP1 SWAP3 MSTORE PUSH1 0x3 DUP2 ADD SLOAD PUSH1 0x60 DUP4 ADD MSTORE PUSH1 0x4 DUP2 ADD SLOAD PUSH1 0x80 DUP4 ADD MSTORE PUSH1 0x5 DUP2 ADD SLOAD PUSH1 0xA0 DUP4 ADD MSTORE PUSH1 0x6 ADD SLOAD SWAP1 SWAP4 AND PUSH1 0xC0 DUP5 ADD MSTORE SWAP1 SWAP2 DUP3 SWAP2 PUSH2 0xB80 JUMPI PUSH1 0x40 MLOAD PUSH3 0x461BCD PUSH1 0xE5 SHL DUP2 MSTORE PUSH1 0x20 PUSH1 0x4 DUP3 ADD MSTORE PUSH1 0xE PUSH1 0x24 DUP3 ADD MSTORE PUSH32 0x4E6F20616374697665206C6F616E000000000000000000000000000000000000 PUSH1 0x44 DUP3 ADD MSTORE PUSH1 0x64 ADD JUMPDEST PUSH1 0x40 MLOAD DUP1 SWAP2 SUB SWAP1 REVERT JUMPDEST DUP1 PUSH1 0x80 ADD MLOAD DUP2 PUSH1 0x60 ADD MLOAD SWAP3 POP SWAP3 POP POP SWAP2 POP SWAP2 JUMP JUMPDEST PUSH1 0x60 PUSH1 0x3 DUP1 SLOAD PUSH2 0xBA3 SWAP1 PUSH2 0x37BB JUMP JUMPDEST DUP1 PUSH1 0x1F ADD PUSH1 0x20 DUP1 SWAP2 DIV MUL PUSH1 0x20 ADD PUSH1 0x40 MLOAD SWAP1 DUP2 ADD PUSH1 0x40 MSTORE DUP1 SWAP3 SWAP2 SWAP1 DUP2 DUP2 MSTORE PUSH1 0x20 ADD DUP3 DUP1 SLOAD PUSH2 0xBCF SWAP1 PUSH2 0x37BB JUMP JUMPDEST DUP1 ISZERO PUSH2 0xC1A JUMPI DUP1 PUSH1 0x1F LT PUSH2 0xBF1 JUMPI PUSH2 0x100 DUP1 DUP4 SLOAD DIV MUL DUP4 MSTORE SWAP2 PUSH1 0x20 ADD SWAP2 PUSH2 0xC1A JUMP JUMPDEST DUP3 ADD SWAP2 SWAP1 PUSH0 MSTORE PUSH1 0x20 PUSH0 KECCAK256 SWAP1 JUMPDEST DUP2 SLOAD DUP2 MSTORE SWAP1 PUSH1 0x1 ADD SWAP1 PUSH1 0x20 ADD DUP1 DUP4 GT PUSH2 0xBFD JUMPI DUP3 SWAP1 SUB PUSH1 0x1F AND DUP3 ADD SWAP2 JUMPDEST POP POP POP POP POP SWAP1 POP SWAP1 JUMP JUMPDEST PUSH0 CALLER PUSH2 0xC31 DUP2 DUP6 DUP6 PUSH2 0x229C JUMP JUMPDEST PUSH1 0x1 SWAP2 POP POP JUMPDEST SWAP3 SWAP2 POP POP JUMP JUMPDEST PUSH0 DUP1 PUSH2 0xC4B PUSH1 0x12 PUSH1 0xA PUSH2 0x38EA JUMP JUMPDEST PUSH2 0xC55 SWAP1 DUP5 PUSH2 0x38F8 JUMP JUMPDEST SWAP1 POP PUSH0 PUSH2 0xC67 ADDRESS CALLER DUP8 DUP6 PUSH2 0x1FE3 PUSH2 0x22AE JUMP JUMPDEST SWAP1 POP CALLER PUSH1 0x1 PUSH1 0x1 PUSH1 0xA0 SHL SUB AND PUSH32 0x5B5EC4F516DC748CDC19EAED1F8E52BE9E3DBF46768E90C539FCADA6B82A6046 DUP7 DUP5 DUP5 PUSH1 0x40 MLOAD PUSH2 0xCA6 SWAP4 SWAP3 SWAP2 SWAP1 PUSH2 0x390F JUMP JUMPDEST PUSH1 0x40 MLOAD DUP1 SWAP2 SUB SWAP1 LOG2 SWAP5 SWAP4 POP POP POP POP JUMP JUMPDEST PUSH0 CALLER PUSH2 0xCC3 DUP6 DUP3 DUP6 PUSH2 0x2767 JUMP JUMPDEST PUSH2 0xCCE DUP6 DUP6 DUP6 PUSH2 0x27F6 JUMP JUMPDEST PUSH1 0x1 SWAP2 POP POP JUMPDEST SWAP4 SWAP3 POP POP POP JUMP JUMPDEST PUSH1 0x1 PUSH1 0x1 PUSH1 0xA0 SHL SUB DUP2 AND PUSH0 SWAP1 DUP2 MSTORE PUSH1 0xA PUSH1 0x20 MSTORE PUSH1 0x40 SWAP1 KECCAK256 SLOAD PUSH1 0x60 SWAP1 DUP2 SWAP1 DUP2 SWAP1 DUP2 SWAP1 DUP2 SWAP1 DUP1 PUSH8 0xFFFFFFFFFFFFFFFF DUP2 GT ISZERO PUSH2 0xD17 JUMPI PUSH2 0xD17 PUSH2 0x33F0 JUMP JUMPDEST PUSH1 0x40 MLOAD SWAP1 DUP1 DUP3 MSTORE DUP1 PUSH1 0x20 MUL PUSH1 0x20 ADD DUP3 ADD PUSH1 0x40 MSTORE DUP1 ISZERO PUSH2 0xD40 JUMPI DUP2 PUSH1 0x20 ADD PUSH1 0x20 DUP3 MUL DUP1 CALLDATASIZE DUP4 CALLDATACOPY ADD SWAP1 POP JUMPDEST POP SWAP6 POP DUP1 PUSH8 0xFFFFFFFFFFFFFFFF DUP2 GT ISZERO PUSH2 0xD5C JUMPI PUSH2 0xD5C PUSH2 0x33F0 JUMP JUMPDEST PUSH1 0x40 MLOAD SWAP1 DUP1 DUP3 MSTORE DUP1 PUSH1 0x20 MUL PUSH1 0x20 ADD DUP3 ADD PUSH1 0x40 MSTORE DUP1 ISZERO PUSH2 0xD85 JUMPI DUP2 PUSH1 0x20 ADD PUSH1 0x20 DUP3 MUL DUP1 CALLDATASIZE DUP4 CALLDATACOPY ADD SWAP1 POP JUMPDEST POP SWAP5 POP DUP1 PUSH8 0xFFFFFFFFFFFFFFFF DUP2 GT ISZERO PUSH2 0xDA1 JUMPI PUSH2 0xDA1 PUSH2 0x33F0 JUMP JUMPDEST PUSH1 0x40 MLOAD SWAP1 DUP1 DUP3 MSTORE DUP1 PUSH1 0x20 MUL PUSH1 0x20 ADD DUP3 ADD PUSH1 0x40 MSTORE DUP1 ISZERO PUSH2 0xDCA JUMPI DUP2 PUSH1 0x20 ADD PUSH1 0x20 DUP3 MUL DUP1 CALLDATASIZE DUP4 CALLDATACOPY ADD SWAP1 POP JUMPDEST POP SWAP4 POP DUP1 PUSH8 0xFFFFFFFFFFFFFFFF DUP2 GT ISZERO PUSH2 0xDE6 JUMPI PUSH2 0xDE6 PUSH2 0x33F0 JUMP JUMPDEST PUSH1 0x40 MLOAD SWAP1 DUP1 DUP3 MSTORE DUP1 PUSH1 0x20 MUL PUSH1 0x20 ADD DUP3 ADD PUSH1 0x40 MSTORE DUP1 ISZERO PUSH2 0xE0F JUMPI DUP2 PUSH1 0x20 ADD PUSH1 0x20 DUP3 MUL DUP1 CALLDATASIZE DUP4 CALLDATACOPY ADD SWAP1 POP JUMPDEST POP SWAP3 POP DUP1 PUSH8 0xFFFFFFFFFFFFFFFF DUP2 GT ISZERO PUSH2 0xE2B JUMPI PUSH2 0xE2B PUSH2 0x33F0 JUMP JUMPDEST PUSH1 0x40 MLOAD SWAP1 DUP1 DUP3 MSTORE DUP1 PUSH1 0x20 MUL PUSH1 0x20 ADD DUP3 ADD PUSH1 0x40 MSTORE DUP1 ISZERO PUSH2 0xE54 JUMPI DUP2 PUSH1 0x20 ADD PUSH1 0x20 DUP3 MUL DUP1 CALLDATASIZE DUP4 CALLDATACOPY ADD SWAP1 POP JUMPDEST POP SWAP2 POP PUSH0 JUMPDEST DUP2 DUP2 LT ISZERO PUSH2 0xF56 JUMPI PUSH1 0x1 PUSH1 0x1 PUSH1 0xA0 SHL SUB DUP9 AND PUSH0 SWAP1 DUP2 MSTORE PUSH1 0xA PUSH1 0x20 MSTORE PUSH1 0x40 DUP2 KECCAK256 DUP1 SLOAD DUP4 SWAP1 DUP2 LT PUSH2 0xE8A JUMPI PUSH2 0xE8A PUSH2 0x3933 JUMP JUMPDEST SWAP1 PUSH0 MSTORE PUSH1 0x20 PUSH0 KECCAK256 SWAP1 PUSH1 0x4 MUL ADD SWAP1 POP DUP2 DUP9 DUP4 DUP2 MLOAD DUP2 LT PUSH2 0xEAB JUMPI PUSH2 0xEAB PUSH2 0x3933 JUMP JUMPDEST PUSH1 0x20 MUL PUSH1 0x20 ADD ADD DUP2 DUP2 MSTORE POP POP DUP1 PUSH0 ADD SLOAD DUP8 DUP4 DUP2 MLOAD DUP2 LT PUSH2 0xECD JUMPI PUSH2 0xECD PUSH2 0x3933 JUMP JUMPDEST PUSH1 0x20 MUL PUSH1 0x20 ADD ADD DUP2 DUP2 MSTORE POP POP DUP1 PUSH1 0x1 ADD SLOAD DUP7 DUP4 DUP2 MLOAD DUP2 LT PUSH2 0xEF0 JUMPI PUSH2 0xEF0 PUSH2 0x3933 JUMP JUMPDEST PUSH1 0x20 MUL PUSH1 0x20 ADD ADD DUP2 DUP2 MSTORE POP POP DUP1 PUSH1 0x2 ADD SLOAD DUP6 DUP4 DUP2 MLOAD DUP2 LT PUSH2 0xF13 JUMPI PUSH2 0xF13 PUSH2 0x3933 JUMP JUMPDEST PUSH1 0x20 SWAP1 DUP2 MUL SWAP2 SWAP1 SWAP2 ADD ADD MSTORE PUSH1 0x3 DUP2 ADD SLOAD DUP5 MLOAD PUSH1 0xFF SWAP1 SWAP2 AND SWAP1 DUP6 SWAP1 DUP5 SWAP1 DUP2 LT PUSH2 0xF3D JUMPI PUSH2 0xF3D PUSH2 0x3933 JUMP JUMPDEST SWAP2 ISZERO ISZERO PUSH1 0x20 SWAP3 DUP4 MUL SWAP2 SWAP1 SWAP2 ADD SWAP1 SWAP2 ADD MSTORE POP PUSH1 0x1 ADD PUSH2 0xE59 JUMP JUMPDEST POP POP SWAP2 SWAP4 SWAP6 SWAP1 SWAP3 SWAP5 POP JUMP JUMPDEST CALLER PUSH0 SWAP1 DUP2 MSTORE PUSH1 0xA PUSH1 0x20 MSTORE PUSH1 0x40 SWAP1 KECCAK256 SLOAD DUP2 LT PUSH2 0xFAE JUMPI PUSH1 0x40 MLOAD PUSH3 0x461BCD PUSH1 0xE5 SHL DUP2 MSTORE PUSH1 0x20 PUSH1 0x4 DUP3 ADD MSTORE PUSH1 0xD PUSH1 0x24 DUP3 ADD MSTORE PUSH13 0x92DCECC2D8D2C840D2DCC8CAF PUSH1 0x9B SHL PUSH1 0x44 DUP3 ADD MSTORE PUSH1 0x64 ADD PUSH2 0xB77 JUMP JUMPDEST CALLER PUSH0 SWAP1 DUP2 MSTORE PUSH1 0xA PUSH1 0x20 MSTORE PUSH1 0x40 DUP2 KECCAK256 DUP1 SLOAD DUP4 SWAP1 DUP2 LT PUSH2 0xFCE JUMPI PUSH2 0xFCE PUSH2 0x3933 JUMP JUMPDEST PUSH0 SWAP2 DUP3 MSTORE PUSH1 0x20 SWAP1 SWAP2 KECCAK256 PUSH1 0x4 SWAP1 SWAP2 MUL ADD PUSH1 0x3 DUP2 ADD SLOAD SWAP1 SWAP2 POP PUSH1 0xFF AND ISZERO PUSH2 0x1035 JUMPI PUSH1 0x40 MLOAD PUSH3 0x461BCD PUSH1 0xE5 SHL DUP2 MSTORE PUSH1 0x20 PUSH1 0x4 DUP3 ADD MSTORE PUSH1 0x11 PUSH1 0x24 DUP3 ADD MSTORE PUSH32 0x416C72656164792077697468647261776E000000000000000000000000000000 PUSH1 0x44 DUP3 ADD MSTORE PUSH1 0x64 ADD PUSH2 0xB77 JUMP JUMPDEST PUSH1 0x2 DUP2 ADD SLOAD ISZERO PUSH2 0x10A2 JUMPI DUP1 PUSH1 0x2 ADD SLOAD DUP2 PUSH1 0x1 ADD SLOAD PUSH2 0x1053 SWAP2 SWAP1 PUSH2 0x3947 JUMP JUMPDEST TIMESTAMP LT ISZERO PUSH2 0x10A2 JUMPI PUSH1 0x40 MLOAD PUSH3 0x461BCD PUSH1 0xE5 SHL DUP2 MSTORE PUSH1 0x20 PUSH1 0x4 DUP3 ADD MSTORE PUSH1 0x10 PUSH1 0x24 DUP3 ADD MSTORE PUSH32 0x4C6F636B7570206E6F7420656E64656400000000000000000000000000000000 PUSH1 0x44 DUP3 ADD MSTORE PUSH1 0x64 ADD PUSH2 0xB77 JUMP JUMPDEST PUSH1 0x40 DUP1 MLOAD PUSH1 0x80 DUP2 ADD DUP3 MSTORE DUP3 SLOAD DUP2 MSTORE PUSH1 0x1 DUP4 ADD SLOAD PUSH1 0x20 DUP3 ADD MSTORE PUSH1 0x2 DUP4 ADD SLOAD SWAP2 DUP2 ADD SWAP2 SWAP1 SWAP2 MSTORE PUSH1 0x3 DUP3 ADD SLOAD PUSH1 0xFF AND ISZERO ISZERO PUSH1 0x60 DUP3 ADD MSTORE PUSH0 SWAP1 PUSH2 0x10E0 SWAP1 PUSH2 0x2853 JUMP JUMPDEST SWAP1 POP PUSH0 DUP2 DUP4 PUSH0 ADD SLOAD PUSH2 0x10F2 SWAP2 SWAP1 PUSH2 0x3947 JUMP JUMPDEST PUSH1 0x3 DUP5 ADD DUP1 SLOAD PUSH1 0xFF NOT AND PUSH1 0x1 OR SWAP1 SSTORE PUSH1 0x9 SLOAD PUSH1 0x40 MLOAD PUSH32 0xA9059CBB00000000000000000000000000000000000000000000000000000000 DUP2 MSTORE CALLER PUSH1 0x4 DUP3 ADD MSTORE PUSH1 0x24 DUP2 ADD DUP4 SWAP1 MSTORE SWAP2 SWAP3 POP PUSH1 0x1 PUSH1 0x1 PUSH1 0xA0 SHL SUB AND SWAP1 PUSH4 0xA9059CBB SWAP1 PUSH1 0x44 ADD PUSH1 0x20 PUSH1 0x40 MLOAD DUP1 DUP4 SUB DUP2 PUSH0 DUP8 GAS CALL ISZERO DUP1 ISZERO PUSH2 0x1169 JUMPI RETURNDATASIZE PUSH0 DUP1 RETURNDATACOPY RETURNDATASIZE PUSH0 REVERT JUMPDEST POP POP POP POP PUSH1 0x40 MLOAD RETURNDATASIZE PUSH1 0x1F NOT PUSH1 0x1F DUP3 ADD AND DUP3 ADD DUP1 PUSH1 0x40 MSTORE POP DUP2 ADD SWAP1 PUSH2 0x118D SWAP2 SWAP1 PUSH2 0x395A JUMP JUMPDEST POP POP POP POP POP JUMP JUMPDEST PUSH2 0x119D DUP2 PUSH2 0xF61 JUMP JUMPDEST POP JUMP JUMPDEST PUSH2 0x11A8 PUSH2 0x28B8 JUMP JUMPDEST PUSH2 0x11B2 DUP3 DUP3 PUSH2 0x28FE JUMP JUMPDEST POP POP JUMP JUMPDEST PUSH0 CALLVALUE GT PUSH2 0x122B JUMPI PUSH1 0x40 MLOAD PUSH3 0x461BCD PUSH1 0xE5 SHL DUP2 MSTORE PUSH1 0x20 PUSH1 0x4 DUP3 ADD MSTORE PUSH1 0x21 PUSH1 0x24 DUP3 ADD MSTORE PUSH32 0x436F6C6C61746572616C206D7573742062652067726561746572207468616E20 PUSH1 0x44 DUP3 ADD MSTORE PUSH32 0x3000000000000000000000000000000000000000000000000000000000000000 PUSH1 0x64 DUP3 ADD MSTORE PUSH1 0x84 ADD PUSH2 0xB77 JUMP JUMPDEST CALLER PUSH0 SWAP1 DUP2 MSTORE PUSH1 0xD PUSH1 0x20 MSTORE PUSH1 0x40 SWAP1 KECCAK256 PUSH1 0x1 ADD SLOAD ISZERO PUSH2 0x128A JUMPI PUSH1 0x40 MLOAD PUSH3 0x461BCD PUSH1 0xE5 SHL DUP2 MSTORE PUSH1 0x20 PUSH1 0x4 DUP3 ADD MSTORE PUSH1 0x13 PUSH1 0x24 DUP3 ADD MSTORE PUSH32 0x4C6F616E20616C72656164792065786973747300000000000000000000000000 PUSH1 0x44 DUP3 ADD MSTORE PUSH1 0x64 ADD PUSH2 0xB77 JUMP JUMPDEST CALLVALUE PUSH0 PUSH8 0xDE0B6B3A7640000 PUSH2 0x12A4 PUSH5 0x45D964B800 DUP5 PUSH2 0x38F8 JUMP JUMPDEST PUSH2 0x12AE SWAP2 SWAP1 PUSH2 0x3979 JUMP JUMPDEST SWAP1 POP PUSH0 PUSH1 0x64 PUSH2 0x12BE PUSH1 0x28 DUP5 PUSH2 0x38F8 JUMP JUMPDEST PUSH2 0x12C8 SWAP2 SWAP1 PUSH2 0x3979 JUMP JUMPDEST SWAP1 POP PUSH0 PUSH2 0x12D7 PUSH1 0x12 PUSH1 0xA PUSH2 0x38EA JUMP JUMPDEST PUSH2 0x12E1 SWAP1 DUP4 PUSH2 0x38F8 JUMP JUMPDEST SWAP1 POP PUSH0 PUSH1 0x64 PUSH2 0x12F1 PUSH1 0xC DUP5 PUSH2 0x38F8 JUMP JUMPDEST PUSH2 0x12FB SWAP2 SWAP1 PUSH2 0x3979 JUMP JUMPDEST SWAP1 POP PUSH0 PUSH2 0x1308 DUP3 DUP5 PUSH2 0x3947 JUMP JUMPDEST SWAP1 POP PUSH0 PUSH2 0x1316 PUSH1 0xC DUP4 PUSH2 0x3979 JUMP JUMPDEST SWAP1 POP PUSH2 0x1322 CALLER DUP6 PUSH2 0x28FE JUMP JUMPDEST PUSH1 0x40 DUP1 MLOAD PUSH1 0xE0 DUP2 ADD DUP3 MSTORE DUP9 DUP2 MSTORE PUSH1 0x20 DUP1 DUP3 ADD DUP8 DUP2 MSTORE TIMESTAMP DUP4 DUP6 ADD DUP2 DUP2 MSTORE PUSH1 0x60 DUP1 DUP7 ADD DUP10 DUP2 MSTORE PUSH1 0x80 DUP8 ADD DUP10 DUP2 MSTORE PUSH0 PUSH1 0xA0 DUP10 ADD DUP2 DUP2 MSTORE CALLER PUSH1 0xC0 DUP12 ADD DUP2 DUP2 MSTORE DUP2 DUP5 MSTORE PUSH1 0xD DUP12 MSTORE SWAP3 DUP13 SWAP1 KECCAK256 SWAP11 MLOAD DUP12 SSTORE SWAP8 MLOAD PUSH1 0x1 DUP12 ADD SSTORE SWAP5 MLOAD PUSH1 0x2 DUP11 ADD SSTORE SWAP2 MLOAD PUSH1 0x3 DUP10 ADD SSTORE MLOAD PUSH1 0x4 DUP9 ADD SSTORE SWAP2 MLOAD PUSH1 0x5 DUP8 ADD SSTORE SWAP1 MLOAD PUSH1 0x6 SWAP1 SWAP6 ADD DUP1 SLOAD PUSH1 0x1 PUSH1 0x1 PUSH1 0xA0 SHL SUB NOT AND PUSH1 0x1 PUSH1 0x1 PUSH1 0xA0 SHL SUB SWAP1 SWAP7 AND SWAP6 SWAP1 SWAP6 OR SWAP1 SWAP5 SSTORE DUP5 MLOAD DUP13 DUP2 MSTORE SWAP3 DUP4 ADD DUP10 SWAP1 MSTORE SWAP4 DUP3 ADD SWAP4 SWAP1 SWAP4 MSTORE PUSH32 0x3CD57C87BBF542B3C5EDCC7801148EA7D9A169CB16849E0A523EA18EADC58D3 SWAP2 ADD PUSH1 0x40 MLOAD DUP1 SWAP2 SUB SWAP1 LOG2 POP POP POP POP POP POP POP JUMP JUMPDEST PUSH1 0x1 PUSH1 0x1 PUSH1 0xA0 SHL SUB DUP3 AND PUSH0 SWAP1 DUP2 MSTORE PUSH1 0xA PUSH1 0x20 MSTORE PUSH1 0x40 DUP2 KECCAK256 DUP1 SLOAD DUP3 SWAP2 DUP3 SWAP2 DUP3 SWAP2 DUP3 SWAP2 DUP8 SWAP1 DUP2 LT PUSH2 0x142A JUMPI PUSH2 0x142A PUSH2 0x3933 JUMP JUMPDEST PUSH0 SWAP2 DUP3 MSTORE PUSH1 0x20 SWAP1 SWAP2 KECCAK256 PUSH1 0x4 SWAP1 SWAP2 MUL ADD DUP1 SLOAD PUSH1 0x1 DUP3 ADD SLOAD PUSH1 0x2 DUP4 ADD SLOAD PUSH1 0x3 SWAP1 SWAP4 ADD SLOAD SWAP2 SWAP11 SWAP1 SWAP10 POP SWAP2 SWAP8 POP PUSH1 0xFF AND SWAP6 POP SWAP4 POP POP POP POP JUMP JUMPDEST PUSH2 0x1467 PUSH2 0x28B8 JUMP JUMPDEST PUSH2 0x1470 PUSH0 PUSH2 0x2932 JUMP JUMPDEST JUMP JUMPDEST PUSH2 0x119D DUP2 PUSH2 0x19A6 JUMP JUMPDEST PUSH1 0x6 DUP1 SLOAD PUSH2 0x1488 SWAP1 PUSH2 0x37BB JUMP JUMPDEST DUP1 PUSH1 0x1F ADD PUSH1 0x20 DUP1 SWAP2 DIV MUL PUSH1 0x20 ADD PUSH1 0x40 MLOAD SWAP1 DUP2 ADD PUSH1 0x40 MSTORE DUP1 SWAP3 SWAP2 SWAP1 DUP2 DUP2 MSTORE PUSH1 0x20 ADD DUP3 DUP1 SLOAD PUSH2 0x14B4 SWAP1 PUSH2 0x37BB JUMP JUMPDEST DUP1 ISZERO PUSH2 0x14FF JUMPI DUP1 PUSH1 0x1F LT PUSH2 0x14D6 JUMPI PUSH2 0x100 DUP1 DUP4 SLOAD DIV MUL DUP4 MSTORE SWAP2 PUSH1 0x20 ADD SWAP2 PUSH2 0x14FF JUMP JUMPDEST DUP3 ADD SWAP2 SWAP1 PUSH0 MSTORE PUSH1 0x20 PUSH0 KECCAK256 SWAP1 JUMPDEST DUP2 SLOAD DUP2 MSTORE SWAP1 PUSH1 0x1 ADD SWAP1 PUSH1 0x20 ADD DUP1 DUP4 GT PUSH2 0x14E2 JUMPI DUP3 SWAP1 SUB PUSH1 0x1F AND DUP3 ADD SWAP2 JUMPDEST POP POP POP POP POP DUP2 JUMP JUMPDEST PUSH0 PUSH2 0x1514 PUSH1 0x12 PUSH1 0xA PUSH2 0x38EA JUMP JUMPDEST PUSH1 0x1 PUSH1 0x1 PUSH1 0xA0 SHL SUB DUP4 AND PUSH0 SWAP1 DUP2 MSTORE PUSH1 0x20 DUP2 SWAP1 MSTORE PUSH1 0x40 SWAP1 KECCAK256 SLOAD PUSH2 0xC37 SWAP2 SWAP1 PUSH2 0x3979 JUMP JUMPDEST PUSH1 0x60 PUSH1 0x4 DUP1 SLOAD PUSH2 0xBA3 SWAP1 PUSH2 0x37BB JUMP JUMPDEST CALLER PUSH0 SWAP1 DUP2 MSTORE PUSH1 0xD PUSH1 0x20 MSTORE PUSH1 0x40 SWAP1 KECCAK256 PUSH1 0x1 DUP2 ADD SLOAD PUSH2 0x15A4 JUMPI PUSH1 0x40 MLOAD PUSH3 0x461BCD PUSH1 0xE5 SHL DUP2 MSTORE PUSH1 0x20 PUSH1 0x4 DUP3 ADD MSTORE PUSH1 0xE PUSH1 0x24 DUP3 ADD MSTORE PUSH32 0x4E6F20616374697665206C6F616E000000000000000000000000000000000000 PUSH1 0x44 DUP3 ADD MSTORE PUSH1 0x64 ADD PUSH2 0xB77 JUMP JUMPDEST PUSH0 PUSH2 0x15AF DUP5 DUP5 PUSH2 0x2983 JUMP JUMPDEST SWAP1 POP PUSH0 DUP2 GT PUSH2 0x1600 JUMPI PUSH1 0x40 MLOAD PUSH3 0x461BCD PUSH1 0xE5 SHL DUP2 MSTORE PUSH1 0x20 PUSH1 0x4 DUP3 ADD DUP2 SWAP1 MSTORE PUSH1 0x24 DUP3 ADD MSTORE PUSH32 0x436F6E76657273696F6E206661696C6564206F72207A65726F20616D6F756E74 PUSH1 0x44 DUP3 ADD MSTORE PUSH1 0x64 ADD PUSH2 0xB77 JUMP JUMPDEST PUSH2 0x160A ADDRESS DUP3 PUSH2 0x28FE JUMP JUMPDEST DUP1 DUP3 PUSH1 0x5 ADD PUSH0 DUP3 DUP3 SLOAD PUSH2 0x161D SWAP2 SWAP1 PUSH2 0x3947 JUMP JUMPDEST SWAP1 SWAP2 SSTORE POP PUSH2 0x162D SWAP1 POP ADDRESS DUP3 PUSH2 0x2A0A JUMP JUMPDEST DUP2 PUSH1 0x3 ADD SLOAD DUP3 PUSH1 0x5 ADD SLOAD LT PUSH2 0x16EC JUMPI DUP2 SLOAD CALLER PUSH0 DUP2 DUP2 MSTORE PUSH1 0xD PUSH1 0x20 MSTORE PUSH1 0x40 DUP1 DUP3 KECCAK256 DUP3 DUP2 SSTORE PUSH1 0x1 DUP2 ADD DUP4 SWAP1 SSTORE PUSH1 0x2 DUP2 ADD DUP4 SWAP1 SSTORE PUSH1 0x3 DUP2 ADD DUP4 SWAP1 SSTORE PUSH1 0x4 DUP2 ADD DUP4 SWAP1 SSTORE PUSH1 0x5 DUP2 ADD DUP4 SWAP1 SSTORE PUSH1 0x6 ADD DUP1 SLOAD PUSH1 0x1 PUSH1 0x1 PUSH1 0xA0 SHL SUB NOT AND SWAP1 SSTORE MLOAD DUP4 ISZERO PUSH2 0x8FC MUL SWAP2 DUP5 SWAP2 SWAP1 DUP2 DUP2 DUP2 DUP6 DUP9 DUP9 CALL SWAP4 POP POP POP POP ISZERO DUP1 ISZERO PUSH2 0x16AA JUMPI RETURNDATASIZE PUSH0 DUP1 RETURNDATACOPY RETURNDATASIZE PUSH0 REVERT JUMPDEST POP PUSH1 0x5 DUP4 ADD SLOAD PUSH1 0x40 DUP1 MLOAD SWAP2 DUP3 MSTORE TIMESTAMP PUSH1 0x20 DUP4 ADD MSTORE CALLER SWAP2 PUSH32 0xC7CE0A35F17B490DE2A317E7FECB2CAE86B1ABFFB03800B2F492823521382698 SWAP2 ADD PUSH1 0x40 MLOAD DUP1 SWAP2 SUB SWAP1 LOG2 POP JUMPDEST POP POP POP POP JUMP JUMPDEST PUSH1 0x1 PUSH1 0x1 PUSH1 0xA0 SHL SUB DUP3 AND PUSH0 SWAP1 DUP2 MSTORE PUSH1 0xA PUSH1 0x20 MSTORE PUSH1 0x40 DUP2 KECCAK256 SLOAD DUP3 LT PUSH2 0x1748 JUMPI PUSH1 0x40 MLOAD PUSH3 0x461BCD PUSH1 0xE5 SHL DUP2 MSTORE PUSH1 0x20 PUSH1 0x4 DUP3 ADD MSTORE PUSH1 0xD PUSH1 0x24 DUP3 ADD MSTORE PUSH13 0x92DCECC2D8D2C840D2DCC8CAF PUSH1 0x9B SHL PUSH1 0x44 DUP3 ADD MSTORE PUSH1 0x64 ADD PUSH2 0xB77 JUMP JUMPDEST PUSH1 0x1 PUSH1 0x1 PUSH1 0xA0 SHL SUB DUP4 AND PUSH0 SWAP1 DUP2 MSTORE PUSH1 0xA PUSH1 0x20 MSTORE PUSH1 0x40 DUP2 KECCAK256 DUP1 SLOAD DUP5 SWAP1 DUP2 LT PUSH2 0x1771 JUMPI PUSH2 0x1771 PUSH2 0x3933 JUMP JUMPDEST PUSH0 SWAP2 DUP3 MSTORE PUSH1 0x20 SWAP2 DUP3 SWAP1 KECCAK256 PUSH1 0x40 DUP1 MLOAD PUSH1 0x80 DUP2 ADD DUP3 MSTORE PUSH1 0x4 SWAP1 SWAP4 MUL SWAP1 SWAP2 ADD DUP1 SLOAD DUP4 MSTORE PUSH1 0x1 DUP2 ADD SLOAD SWAP4 DUP4 ADD SWAP4 SWAP1 SWAP4 MSTORE PUSH1 0x2 DUP4 ADD SLOAD SWAP1 DUP3 ADD MSTORE PUSH1 0x3 SWAP1 SWAP2 ADD SLOAD PUSH1 0xFF AND ISZERO DUP1 ISZERO PUSH1 0x60 DUP4 ADD MSTORE SWAP1 SWAP2 POP PUSH2 0x17C7 JUMPI PUSH0 SWAP2 POP POP PUSH2 0xC37 JUMP JUMPDEST PUSH2 0x17D0 DUP2 PUSH2 0x2853 JUMP JUMPDEST SWAP5 SWAP4 POP POP POP POP JUMP JUMPDEST PUSH0 DUP3 GT PUSH2 0x1827 JUMPI PUSH1 0x40 MLOAD PUSH3 0x461BCD PUSH1 0xE5 SHL DUP2 MSTORE PUSH1 0x20 PUSH1 0x4 DUP3 ADD MSTORE PUSH1 0x1D PUSH1 0x24 DUP3 ADD MSTORE PUSH32 0x416D6F756E74206D7573742062652067726561746572207468616E2030000000 PUSH1 0x44 DUP3 ADD MSTORE PUSH1 0x64 ADD PUSH2 0xB77 JUMP JUMPDEST PUSH0 DUP2 DUP2 MSTORE PUSH1 0xC PUSH1 0x20 MSTORE PUSH1 0x40 SWAP1 KECCAK256 SLOAD PUSH2 0x1881 JUMPI PUSH1 0x40 MLOAD PUSH3 0x461BCD PUSH1 0xE5 SHL DUP2 MSTORE PUSH1 0x20 PUSH1 0x4 DUP3 ADD MSTORE PUSH1 0x15 PUSH1 0x24 DUP3 ADD MSTORE PUSH32 0x496E76616C6964206C6F636B757020706572696F640000000000000000000000 PUSH1 0x44 DUP3 ADD MSTORE PUSH1 0x64 ADD PUSH2 0xB77 JUMP JUMPDEST PUSH1 0x9 SLOAD PUSH1 0x40 MLOAD PUSH4 0x23B872DD PUSH1 0xE0 SHL DUP2 MSTORE CALLER PUSH1 0x4 DUP3 ADD MSTORE ADDRESS PUSH1 0x24 DUP3 ADD MSTORE PUSH1 0x44 DUP2 ADD DUP5 SWAP1 MSTORE PUSH1 0x1 PUSH1 0x1 PUSH1 0xA0 SHL SUB SWAP1 SWAP2 AND SWAP1 PUSH4 0x23B872DD SWAP1 PUSH1 0x64 ADD PUSH1 0x20 PUSH1 0x40 MLOAD DUP1 DUP4 SUB DUP2 PUSH0 DUP8 GAS CALL ISZERO DUP1 ISZERO PUSH2 0x18D5 JUMPI RETURNDATASIZE PUSH0 DUP1 RETURNDATACOPY RETURNDATASIZE PUSH0 REVERT JUMPDEST POP POP POP POP PUSH1 0x40 MLOAD RETURNDATASIZE PUSH1 0x1F NOT PUSH1 0x1F DUP3 ADD AND DUP3 ADD DUP1 PUSH1 0x40 MSTORE POP DUP2 ADD SWAP1 PUSH2 0x18F9 SWAP2 SWAP1 PUSH2 0x395A JUMP JUMPDEST POP CALLER PUSH0 SWAP1 DUP2 MSTORE PUSH1 0xA PUSH1 0x20 SWAP1 DUP2 MSTORE PUSH1 0x40 DUP1 DUP4 KECCAK256 DUP2 MLOAD PUSH1 0x80 DUP2 ADD DUP4 MSTORE SWAP6 DUP7 MSTORE TIMESTAMP DUP7 DUP5 ADD SWAP1 DUP2 MSTORE SWAP2 DUP7 ADD SWAP5 DUP6 MSTORE PUSH1 0x60 DUP7 ADD DUP5 DUP2 MSTORE DUP2 SLOAD PUSH1 0x1 DUP1 DUP3 ADD DUP5 SSTORE SWAP3 DUP7 MSTORE SWAP4 SWAP1 SWAP5 KECCAK256 SWAP6 MLOAD PUSH1 0x4 SWAP1 SWAP4 MUL SWAP1 SWAP6 ADD SWAP2 DUP3 SSTORE MLOAD SWAP4 DUP2 ADD SWAP4 SWAP1 SWAP4 SSTORE SWAP1 MLOAD PUSH1 0x2 DUP4 ADD SSTORE MLOAD PUSH1 0x3 SWAP1 SWAP2 ADD DUP1 SLOAD PUSH1 0xFF NOT AND SWAP2 ISZERO ISZERO SWAP2 SWAP1 SWAP2 OR SWAP1 SSTORE JUMP JUMPDEST PUSH0 CALLER PUSH2 0xC31 DUP2 DUP6 DUP6 PUSH2 0x27F6 JUMP JUMPDEST PUSH0 DUP1 PUSH2 0x198E DUP4 PUSH8 0xDE0B6B3A7640000 PUSH2 0x38F8 JUMP JUMPDEST SWAP1 POP PUSH2 0x17D0 ADDRESS CALLER DUP7 DUP5 PUSH2 0x2A3E JUMP JUMPDEST PUSH0 PUSH2 0xC37 DUP3 PUSH2 0x1FE3 JUMP JUMPDEST PUSH0 DUP2 GT PUSH2 0x19F5 JUMPI PUSH1 0x40 MLOAD PUSH3 0x461BCD PUSH1 0xE5 SHL DUP2 MSTORE PUSH1 0x20 PUSH1 0x4 DUP3 ADD MSTORE PUSH1 0x1D PUSH1 0x24 DUP3 ADD MSTORE PUSH32 0x416D6F756E74206D7573742062652067726561746572207468616E2030000000 PUSH1 0x44 DUP3 ADD MSTORE PUSH1 0x64 ADD PUSH2 0xB77 JUMP JUMPDEST PUSH1 0x9 SLOAD PUSH1 0x40 MLOAD PUSH4 0x23B872DD PUSH1 0xE0 SHL DUP2 MSTORE CALLER PUSH1 0x4 DUP3 ADD MSTORE ADDRESS PUSH1 0x24 DUP3 ADD MSTORE PUSH1 0x44 DUP2 ADD DUP4 SWAP1 MSTORE PUSH1 0x1 PUSH1 0x1 PUSH1 0xA0 SHL SUB SWAP1 SWAP2 AND SWAP1 PUSH4 0x23B872DD SWAP1 PUSH1 0x64 ADD PUSH1 0x20 PUSH1 0x40 MLOAD DUP1 DUP4 SUB DUP2 PUSH0 DUP8 GAS CALL ISZERO DUP1 ISZERO PUSH2 0x1A49 JUMPI RETURNDATASIZE PUSH0 DUP1 RETURNDATACOPY RETURNDATASIZE PUSH0 REVERT JUMPDEST POP POP POP POP PUSH1 0x40 MLOAD RETURNDATASIZE PUSH1 0x1F NOT PUSH1 0x1F DUP3 ADD AND DUP3 ADD DUP1 PUSH1 0x40 MSTORE POP DUP2 ADD SWAP1 PUSH2 0x1A6D SWAP2 SWAP1 PUSH2 0x395A JUMP JUMPDEST POP CALLER PUSH0 SWAP1 DUP2 MSTORE PUSH1 0xA PUSH1 0x20 SWAP1 DUP2 MSTORE PUSH1 0x40 DUP1 DUP4 KECCAK256 DUP2 MLOAD PUSH1 0x80 DUP2 ADD DUP4 MSTORE SWAP5 DUP6 MSTORE TIMESTAMP DUP6 DUP5 ADD SWAP1 DUP2 MSTORE SWAP2 DUP6 ADD DUP5 DUP2 MSTORE PUSH1 0x60 DUP7 ADD DUP6 DUP2 MSTORE DUP3 SLOAD PUSH1 0x1 DUP1 DUP3 ADD DUP6 SSTORE SWAP4 DUP8 MSTORE SWAP5 SWAP1 SWAP6 KECCAK256 SWAP6 MLOAD PUSH1 0x4 SWAP1 SWAP5 MUL SWAP1 SWAP6 ADD SWAP3 DUP4 SSTORE SWAP1 MLOAD SWAP1 DUP3 ADD SSTORE SWAP2 MLOAD PUSH1 0x2 DUP4 ADD SSTORE MLOAD PUSH1 0x3 SWAP1 SWAP2 ADD DUP1 SLOAD PUSH1 0xFF NOT AND SWAP2 ISZERO ISZERO SWAP2 SWAP1 SWAP2 OR SWAP1 SSTORE JUMP JUMPDEST PUSH1 0x60 DUP1 PUSH1 0x60 DUP1 PUSH0 DUP1 JUMPDEST PUSH1 0x1 PUSH1 0x1 PUSH1 0xA0 SHL SUB DUP8 AND PUSH0 SWAP1 DUP2 MSTORE PUSH1 0xA PUSH1 0x20 MSTORE PUSH1 0x40 SWAP1 KECCAK256 SLOAD DUP2 LT ISZERO PUSH2 0x1B60 JUMPI PUSH1 0x1 PUSH1 0x1 PUSH1 0xA0 SHL SUB DUP8 AND PUSH0 SWAP1 DUP2 MSTORE PUSH1 0xA PUSH1 0x20 MSTORE PUSH1 0x40 SWAP1 KECCAK256 DUP1 SLOAD DUP3 SWAP1 DUP2 LT PUSH2 0x1B30 JUMPI PUSH2 0x1B30 PUSH2 0x3933 JUMP JUMPDEST PUSH0 SWAP2 DUP3 MSTORE PUSH1 0x20 SWAP1 SWAP2 KECCAK256 PUSH1 0x3 PUSH1 0x4 SWAP1 SWAP3 MUL ADD ADD SLOAD PUSH1 0xFF AND PUSH2 0x1B58 JUMPI DUP2 PUSH2 0x1B54 DUP2 PUSH2 0x3998 JUMP JUMPDEST SWAP3 POP POP JUMPDEST PUSH1 0x1 ADD PUSH2 0x1AE8 JUMP JUMPDEST POP DUP1 PUSH8 0xFFFFFFFFFFFFFFFF DUP2 GT ISZERO PUSH2 0x1B7A JUMPI PUSH2 0x1B7A PUSH2 0x33F0 JUMP JUMPDEST PUSH1 0x40 MLOAD SWAP1 DUP1 DUP3 MSTORE DUP1 PUSH1 0x20 MUL PUSH1 0x20 ADD DUP3 ADD PUSH1 0x40 MSTORE DUP1 ISZERO PUSH2 0x1BA3 JUMPI DUP2 PUSH1 0x20 ADD PUSH1 0x20 DUP3 MUL DUP1 CALLDATASIZE DUP4 CALLDATACOPY ADD SWAP1 POP JUMPDEST POP SWAP5 POP DUP1 PUSH8 0xFFFFFFFFFFFFFFFF DUP2 GT ISZERO PUSH2 0x1BBF JUMPI PUSH2 0x1BBF PUSH2 0x33F0 JUMP JUMPDEST PUSH1 0x40 MLOAD SWAP1 DUP1 DUP3 MSTORE DUP1 PUSH1 0x20 MUL PUSH1 0x20 ADD DUP3 ADD PUSH1 0x40 MSTORE DUP1 ISZERO PUSH2 0x1BE8 JUMPI DUP2 PUSH1 0x20 ADD PUSH1 0x20 DUP3 MUL DUP1 CALLDATASIZE DUP4 CALLDATACOPY ADD SWAP1 POP JUMPDEST POP SWAP4 POP DUP1 PUSH8 0xFFFFFFFFFFFFFFFF DUP2 GT ISZERO PUSH2 0x1C04 JUMPI PUSH2 0x1C04 PUSH2 0x33F0 JUMP JUMPDEST PUSH1 0x40 MLOAD SWAP1 DUP1 DUP3 MSTORE DUP1 PUSH1 0x20 MUL PUSH1 0x20 ADD DUP3 ADD PUSH1 0x40 MSTORE DUP1 ISZERO PUSH2 0x1C2D JUMPI DUP2 PUSH1 0x20 ADD PUSH1 0x20 DUP3 MUL DUP1 CALLDATASIZE DUP4 CALLDATACOPY ADD SWAP1 POP JUMPDEST POP SWAP3 POP DUP1 PUSH8 0xFFFFFFFFFFFFFFFF DUP2 GT ISZERO PUSH2 0x1C49 JUMPI PUSH2 0x1C49 PUSH2 0x33F0 JUMP JUMPDEST PUSH1 0x40 MLOAD SWAP1 DUP1 DUP3 MSTORE DUP1 PUSH1 0x20 MUL PUSH1 0x20 ADD DUP3 ADD PUSH1 0x40 MSTORE DUP1 ISZERO PUSH2 0x1C72 JUMPI DUP2 PUSH1 0x20 ADD PUSH1 0x20 DUP3 MUL DUP1 CALLDATASIZE DUP4 CALLDATACOPY ADD SWAP1 POP JUMPDEST POP SWAP2 POP PUSH0 DUP1 JUMPDEST PUSH1 0x1 PUSH1 0x1 PUSH1 0xA0 SHL SUB DUP9 AND PUSH0 SWAP1 DUP2 MSTORE PUSH1 0xA PUSH1 0x20 MSTORE PUSH1 0x40 SWAP1 KECCAK256 SLOAD DUP2 LT ISZERO PUSH2 0x1E33 JUMPI PUSH1 0x1 PUSH1 0x1 PUSH1 0xA0 SHL SUB DUP9 AND PUSH0 SWAP1 DUP2 MSTORE PUSH1 0xA PUSH1 0x20 MSTORE PUSH1 0x40 SWAP1 KECCAK256 DUP1 SLOAD DUP3 SWAP1 DUP2 LT PUSH2 0x1CC0 JUMPI PUSH2 0x1CC0 PUSH2 0x3933 JUMP JUMPDEST PUSH0 SWAP2 DUP3 MSTORE PUSH1 0x20 SWAP1 SWAP2 KECCAK256 PUSH1 0x3 PUSH1 0x4 SWAP1 SWAP3 MUL ADD ADD SLOAD PUSH1 0xFF AND PUSH2 0x1E2B JUMPI DUP1 DUP8 DUP4 DUP2 MLOAD DUP2 LT PUSH2 0x1CED JUMPI PUSH2 0x1CED PUSH2 0x3933 JUMP JUMPDEST PUSH1 0x20 MUL PUSH1 0x20 ADD ADD DUP2 DUP2 MSTORE POP POP PUSH1 0xA PUSH0 DUP10 PUSH1 0x1 PUSH1 0x1 PUSH1 0xA0 SHL SUB AND PUSH1 0x1 PUSH1 0x1 PUSH1 0xA0 SHL SUB AND DUP2 MSTORE PUSH1 0x20 ADD SWAP1 DUP2 MSTORE PUSH1 0x20 ADD PUSH0 KECCAK256 DUP2 DUP2 SLOAD DUP2 LT PUSH2 0x1D2D JUMPI PUSH2 0x1D2D PUSH2 0x3933 JUMP JUMPDEST SWAP1 PUSH0 MSTORE PUSH1 0x20 PUSH0 KECCAK256 SWAP1 PUSH1 0x4 MUL ADD PUSH0 ADD SLOAD DUP7 DUP4 DUP2 MLOAD DUP2 LT PUSH2 0x1D4E JUMPI PUSH2 0x1D4E PUSH2 0x3933 JUMP JUMPDEST PUSH1 0x20 MUL PUSH1 0x20 ADD ADD DUP2 DUP2 MSTORE POP POP PUSH1 0xA PUSH0 DUP10 PUSH1 0x1 PUSH1 0x1 PUSH1 0xA0 SHL SUB AND PUSH1 0x1 PUSH1 0x1 PUSH1 0xA0 SHL SUB AND DUP2 MSTORE PUSH1 0x20 ADD SWAP1 DUP2 MSTORE PUSH1 0x20 ADD PUSH0 KECCAK256 DUP2 DUP2 SLOAD DUP2 LT PUSH2 0x1D8E JUMPI PUSH2 0x1D8E PUSH2 0x3933 JUMP JUMPDEST SWAP1 PUSH0 MSTORE PUSH1 0x20 PUSH0 KECCAK256 SWAP1 PUSH1 0x4 MUL ADD PUSH1 0x1 ADD SLOAD DUP6 DUP4 DUP2 MLOAD DUP2 LT PUSH2 0x1DB0 JUMPI PUSH2 0x1DB0 PUSH2 0x3933 JUMP JUMPDEST PUSH1 0x20 MUL PUSH1 0x20 ADD ADD DUP2 DUP2 MSTORE POP POP PUSH1 0xA PUSH0 DUP10 PUSH1 0x1 PUSH1 0x1 PUSH1 0xA0 SHL SUB AND PUSH1 0x1 PUSH1 0x1 PUSH1 0xA0 SHL SUB AND DUP2 MSTORE PUSH1 0x20 ADD SWAP1 DUP2 MSTORE PUSH1 0x20 ADD PUSH0 KECCAK256 DUP2 DUP2 SLOAD DUP2 LT PUSH2 0x1DF0 JUMPI PUSH2 0x1DF0 PUSH2 0x3933 JUMP JUMPDEST SWAP1 PUSH0 MSTORE PUSH1 0x20 PUSH0 KECCAK256 SWAP1 PUSH1 0x4 MUL ADD PUSH1 0x2 ADD SLOAD DUP5 DUP4 DUP2 MLOAD DUP2 LT PUSH2 0x1E12 JUMPI PUSH2 0x1E12 PUSH2 0x3933 JUMP JUMPDEST PUSH1 0x20 SWAP1 DUP2 MUL SWAP2 SWAP1 SWAP2 ADD ADD MSTORE DUP2 PUSH2 0x1E27 DUP2 PUSH2 0x3998 JUMP JUMPDEST SWAP3 POP POP JUMPDEST PUSH1 0x1 ADD PUSH2 0x1C78 JUMP JUMPDEST POP POP POP SWAP2 SWAP4 POP SWAP2 SWAP4 JUMP JUMPDEST PUSH1 0x1 PUSH1 0x1 PUSH1 0xA0 SHL SUB DUP2 AND PUSH0 SWAP1 DUP2 MSTORE PUSH1 0xA PUSH1 0x20 SWAP1 DUP2 MSTORE PUSH1 0x40 DUP1 DUP4 KECCAK256 DUP1 SLOAD DUP3 MLOAD DUP2 DUP6 MUL DUP2 ADD DUP6 ADD SWAP1 SWAP4 MSTORE DUP1 DUP4 MSTORE DUP5 SWAP4 DUP5 SWAP1 DUP5 ADD JUMPDEST DUP3 DUP3 LT ISZERO PUSH2 0x1EC7 JUMPI PUSH0 DUP5 DUP2 MSTORE PUSH1 0x20 SWAP1 DUP2 SWAP1 KECCAK256 PUSH1 0x40 DUP1 MLOAD PUSH1 0x80 DUP2 ADD DUP3 MSTORE PUSH1 0x4 DUP7 MUL SWAP1 SWAP3 ADD DUP1 SLOAD DUP4 MSTORE PUSH1 0x1 DUP1 DUP3 ADD SLOAD DUP5 DUP7 ADD MSTORE PUSH1 0x2 DUP3 ADD SLOAD SWAP3 DUP5 ADD SWAP3 SWAP1 SWAP3 MSTORE PUSH1 0x3 ADD SLOAD PUSH1 0xFF AND ISZERO ISZERO PUSH1 0x60 DUP4 ADD MSTORE SWAP1 DUP4 MSTORE SWAP1 SWAP3 ADD SWAP2 ADD PUSH2 0x1E6F JUMP JUMPDEST POP POP POP POP SWAP1 POP PUSH0 JUMPDEST DUP2 MLOAD DUP2 LT ISZERO PUSH2 0x1F31 JUMPI DUP2 DUP2 DUP2 MLOAD DUP2 LT PUSH2 0x1EEA JUMPI PUSH2 0x1EEA PUSH2 0x3933 JUMP JUMPDEST PUSH1 0x20 MUL PUSH1 0x20 ADD ADD MLOAD PUSH1 0x60 ADD MLOAD PUSH2 0x1F29 JUMPI PUSH2 0x1F1C DUP3 DUP3 DUP2 MLOAD DUP2 LT PUSH2 0x1F0F JUMPI PUSH2 0x1F0F PUSH2 0x3933 JUMP JUMPDEST PUSH1 0x20 MUL PUSH1 0x20 ADD ADD MLOAD PUSH2 0x2853 JUMP JUMPDEST PUSH2 0x1F26 SWAP1 DUP5 PUSH2 0x3947 JUMP JUMPDEST SWAP3 POP JUMPDEST PUSH1 0x1 ADD PUSH2 0x1ECF JUMP JUMPDEST POP POP SWAP2 SWAP1 POP JUMP JUMPDEST PUSH0 PUSH2 0x17D0 DUP5 DUP5 DUP5 PUSH2 0x2EA3 JUMP JUMPDEST PUSH2 0x1F4C PUSH2 0x28B8 JUMP JUMPDEST PUSH1 0x1 PUSH1 0x1 PUSH1 0xA0 SHL SUB DUP2 AND PUSH2 0x1F8E JUMPI PUSH1 0x40 MLOAD PUSH32 0x1E4FBDF700000000000000000000000000000000000000000000000000000000 DUP2 MSTORE PUSH0 PUSH1 0x4 DUP3 ADD MSTORE PUSH1 0x24 ADD PUSH2 0xB77 JUMP JUMPDEST PUSH2 0x119D DUP2 PUSH2 0x2932 JUMP JUMPDEST PUSH2 0x1F9F PUSH2 0x28B8 JUMP JUMPDEST DUP1 PUSH1 0x7 DUP4 PUSH1 0x40 MLOAD PUSH2 0x1FB0 SWAP2 SWAP1 PUSH2 0x39B0 JUMP JUMPDEST SWAP1 DUP2 MSTORE PUSH1 0x40 MLOAD SWAP1 DUP2 SWAP1 SUB PUSH1 0x20 ADD SWAP1 KECCAK256 DUP1 SLOAD PUSH1 0x1 PUSH1 0x1 PUSH1 0xA0 SHL SUB SWAP3 SWAP1 SWAP3 AND PUSH1 0x1 PUSH1 0x1 PUSH1 0xA0 SHL SUB NOT SWAP1 SWAP3 AND SWAP2 SWAP1 SWAP2 OR SWAP1 SSTORE POP POP JUMP JUMPDEST PUSH0 PUSH1 0x6 PUSH1 0x40 MLOAD PUSH1 0x20 ADD PUSH2 0x1FF6 SWAP2 SWAP1 PUSH2 0x39C6 JUMP JUMPDEST PUSH1 0x40 MLOAD PUSH1 0x20 DUP2 DUP4 SUB SUB DUP2 MSTORE SWAP1 PUSH1 0x40 MSTORE DUP1 MLOAD SWAP1 PUSH1 0x20 ADD KECCAK256 DUP3 PUSH1 0x40 MLOAD PUSH1 0x20 ADD PUSH2 0x201D SWAP2 SWAP1 PUSH2 0x39B0 JUMP JUMPDEST PUSH1 0x40 MLOAD PUSH1 0x20 DUP2 DUP4 SUB SUB DUP2 MSTORE SWAP1 PUSH1 0x40 MSTORE DUP1 MLOAD SWAP1 PUSH1 0x20 ADD KECCAK256 SUB PUSH2 0x2040 JUMPI POP PUSH1 0x64 SWAP2 SWAP1 POP JUMP JUMPDEST PUSH0 PUSH1 0x7 DUP4 PUSH1 0x40 MLOAD PUSH2 0x2051 SWAP2 SWAP1 PUSH2 0x39B0 JUMP JUMPDEST SWAP1 DUP2 MSTORE PUSH1 0x40 MLOAD SWAP1 DUP2 SWAP1 SUB PUSH1 0x20 ADD SWAP1 KECCAK256 SLOAD PUSH1 0x1 PUSH1 0x1 PUSH1 0xA0 SHL SUB AND SWAP1 POP DUP1 PUSH2 0x20B9 JUMPI PUSH1 0x40 MLOAD PUSH3 0x461BCD PUSH1 0xE5 SHL DUP2 MSTORE PUSH1 0x20 PUSH1 0x4 DUP3 ADD MSTORE PUSH1 0x1F PUSH1 0x24 DUP3 ADD MSTORE PUSH32 0x50726963652066656564206E6F742073657420666F722063757272656E637900 PUSH1 0x44 DUP3 ADD MSTORE PUSH1 0x64 ADD PUSH2 0xB77 JUMP JUMPDEST PUSH0 DUP2 PUSH1 0x1 PUSH1 0x1 PUSH1 0xA0 SHL SUB AND PUSH4 0xFEAF968C PUSH1 0x40 MLOAD DUP2 PUSH4 0xFFFFFFFF AND PUSH1 0xE0 SHL DUP2 MSTORE PUSH1 0x4 ADD PUSH1 0xA0 PUSH1 0x40 MLOAD DUP1 DUP4 SUB DUP2 DUP7 GAS STATICCALL ISZERO DUP1 ISZERO PUSH2 0x20F6 JUMPI RETURNDATASIZE PUSH0 DUP1 RETURNDATACOPY RETURNDATASIZE PUSH0 REVERT JUMPDEST POP POP POP POP PUSH1 0x40 MLOAD RETURNDATASIZE PUSH1 0x1F NOT PUSH1 0x1F DUP3 ADD AND DUP3 ADD DUP1 PUSH1 0x40 MSTORE POP DUP2 ADD SWAP1 PUSH2 0x211A SWAP2 SWAP1 PUSH2 0x3A7B JUMP JUMPDEST POP POP POP SWAP2 POP POP PUSH0 DUP2 SGT PUSH2 0x216F JUMPI PUSH1 0x40 MLOAD PUSH3 0x461BCD PUSH1 0xE5 SHL DUP2 MSTORE PUSH1 0x20 PUSH1 0x4 DUP3 ADD MSTORE PUSH1 0x12 PUSH1 0x24 DUP3 ADD MSTORE PUSH32 0x496E76616C696420707269636520646174610000000000000000000000000000 PUSH1 0x44 DUP3 ADD MSTORE PUSH1 0x64 ADD PUSH2 0xB77 JUMP JUMPDEST DUP1 PUSH4 0x5F5E100 PUSH2 0x2180 PUSH1 0x64 DUP4 PUSH2 0x38F8 JUMP JUMPDEST PUSH2 0x218A SWAP2 SWAP1 PUSH2 0x3979 JUMP JUMPDEST SWAP6 SWAP5 POP POP POP POP POP JUMP JUMPDEST PUSH2 0x11B2 DUP3 DUP3 PUSH2 0x17D8 JUMP JUMPDEST PUSH0 PUSH1 0x7 DUP3 PUSH1 0x40 MLOAD PUSH2 0x21AE SWAP2 SWAP1 PUSH2 0x39B0 JUMP JUMPDEST SWAP1 DUP2 MSTORE PUSH1 0x40 MLOAD SWAP1 DUP2 SWAP1 SUB PUSH1 0x20 ADD SWAP1 KECCAK256 SLOAD PUSH1 0x1 PUSH1 0x1 PUSH1 0xA0 SHL SUB AND SWAP3 SWAP2 POP POP JUMP JUMPDEST PUSH0 PUSH2 0x21D8 DUP4 DUP4 PUSH2 0x2983 JUMP JUMPDEST SWAP1 POP PUSH0 DUP2 GT PUSH2 0x2229 JUMPI PUSH1 0x40 MLOAD PUSH3 0x461BCD PUSH1 0xE5 SHL DUP2 MSTORE PUSH1 0x20 PUSH1 0x4 DUP3 ADD MSTORE PUSH1 0x14 PUSH1 0x24 DUP3 ADD MSTORE PUSH32 0x496E76616C696420746F6B656E20616D6F756E74000000000000000000000000 PUSH1 0x44 DUP3 ADD MSTORE PUSH1 0x64 ADD PUSH2 0xB77 JUMP JUMPDEST PUSH2 0x2233 CALLER DUP3 PUSH2 0x28FE JUMP JUMPDEST CALLER PUSH1 0x1 PUSH1 0x1 PUSH1 0xA0 SHL SUB AND PUSH32 0xA8AEAC0EB8C033DD01D0D9E327398D0796CA1B6A3C7DA711BB589DFA0826F593 DUP5 DUP5 DUP5 PUSH1 0x40 MLOAD PUSH2 0x2270 SWAP4 SWAP3 SWAP2 SWAP1 PUSH2 0x390F JUMP JUMPDEST PUSH1 0x40 MLOAD DUP1 SWAP2 SUB SWAP1 LOG2 POP POP POP JUMP JUMPDEST PUSH0 PUSH2 0x228A PUSH1 0x12 PUSH1 0xA PUSH2 0x38EA JUMP JUMPDEST PUSH1 0x2 SLOAD PUSH2 0x2297 SWAP2 SWAP1 PUSH2 0x3979 JUMP JUMPDEST SWAP1 POP SWAP1 JUMP JUMPDEST PUSH2 0x22A9 DUP4 DUP4 DUP4 PUSH1 0x1 PUSH2 0x3006 JUMP JUMPDEST POP POP POP JUMP JUMPDEST PUSH0 PUSH1 0x1 PUSH1 0x1 PUSH1 0xA0 SHL SUB DUP6 AND PUSH2 0x2318 JUMPI PUSH1 0x40 MLOAD PUSH3 0x461BCD PUSH1 0xE5 SHL DUP2 MSTORE PUSH1 0x20 PUSH1 0x4 DUP3 ADD MSTORE PUSH1 0x2A PUSH1 0x24 DUP3 ADD MSTORE PUSH32 0x526564656D7074696F6E4C69623A20557365722063616E6E6F74206265207A65 PUSH1 0x44 DUP3 ADD MSTORE PUSH10 0x726F2061646472657373 PUSH1 0xB0 SHL PUSH1 0x64 DUP3 ADD MSTORE PUSH1 0x84 ADD PUSH2 0xB77 JUMP JUMPDEST PUSH0 DUP4 GT PUSH2 0x238D JUMPI PUSH1 0x40 MLOAD PUSH3 0x461BCD PUSH1 0xE5 SHL DUP2 MSTORE PUSH1 0x20 PUSH1 0x4 DUP3 ADD MSTORE PUSH1 0x35 PUSH1 0x24 DUP3 ADD MSTORE PUSH32 0x526564656D7074696F6E4C69623A20546F6B656E20616D6F756E74206D757374 PUSH1 0x44 DUP3 ADD MSTORE PUSH32 0x2062652067726561746572207468616E207A65726F0000000000000000000000 PUSH1 0x64 DUP3 ADD MSTORE PUSH1 0x84 ADD PUSH2 0xB77 JUMP JUMPDEST PUSH1 0x40 MLOAD PUSH4 0x70A08231 PUSH1 0xE0 SHL DUP2 MSTORE PUSH1 0x1 PUSH1 0x1 PUSH1 0xA0 SHL SUB DUP7 DUP2 AND PUSH1 0x4 DUP4 ADD MSTORE PUSH0 SWAP2 SWAP1 DUP9 AND SWAP1 PUSH4 0x70A08231 SWAP1 PUSH1 0x24 ADD PUSH1 0x20 PUSH1 0x40 MLOAD DUP1 DUP4 SUB DUP2 DUP7 GAS STATICCALL ISZERO DUP1 ISZERO PUSH2 0x23D4 JUMPI RETURNDATASIZE PUSH0 DUP1 RETURNDATACOPY RETURNDATASIZE PUSH0 REVERT JUMPDEST POP POP POP POP PUSH1 0x40 MLOAD RETURNDATASIZE PUSH1 0x1F NOT PUSH1 0x1F DUP3 ADD AND DUP3 ADD DUP1 PUSH1 0x40 MSTORE POP DUP2 ADD SWAP1 PUSH2 0x23F8 SWAP2 SWAP1 PUSH2 0x3AC9 JUMP JUMPDEST SWAP1 POP PUSH32 0x3C5AD147104E56BE34A9176A6692F7DF8D2F4B29A5AF06BC6B98970D329D6577 DUP2 PUSH1 0x40 MLOAD PUSH2 0x2463 SWAP2 SWAP1 PUSH1 0x40 DUP1 DUP3 MSTORE PUSH1 0xC SWAP1 DUP3 ADD MSTORE PUSH32 0x557365722062616C616E63650000000000000000000000000000000000000000 PUSH1 0x60 DUP3 ADD MSTORE PUSH1 0x20 DUP2 ADD SWAP2 SWAP1 SWAP2 MSTORE PUSH1 0x80 ADD SWAP1 JUMP JUMPDEST PUSH1 0x40 MLOAD DUP1 SWAP2 SUB SWAP1 LOG1 DUP4 DUP2 LT ISZERO PUSH2 0x24E1 JUMPI PUSH1 0x40 MLOAD PUSH3 0x461BCD PUSH1 0xE5 SHL DUP2 MSTORE PUSH1 0x20 PUSH1 0x4 DUP3 ADD MSTORE PUSH1 0x29 PUSH1 0x24 DUP3 ADD MSTORE PUSH32 0x526564656D7074696F6E4C69623A20496E73756666696369656E7420746F6B65 PUSH1 0x44 DUP3 ADD MSTORE PUSH32 0x6E2062616C616E63650000000000000000000000000000000000000000000000 PUSH1 0x64 DUP3 ADD MSTORE PUSH1 0x84 ADD PUSH2 0xB77 JUMP JUMPDEST PUSH0 PUSH2 0x24ED DUP7 DUP7 DUP7 PUSH2 0x310A JUMP JUMPDEST SWAP1 POP PUSH32 0x3C5AD147104E56BE34A9176A6692F7DF8D2F4B29A5AF06BC6B98970D329D6577 DUP2 PUSH1 0x40 MLOAD PUSH2 0x2558 SWAP2 SWAP1 PUSH1 0x40 DUP1 DUP3 MSTORE PUSH1 0xF SWAP1 DUP3 ADD MSTORE PUSH32 0x43757272656E637920616D6F756E740000000000000000000000000000000000 PUSH1 0x60 DUP3 ADD MSTORE PUSH1 0x20 DUP2 ADD SWAP2 SWAP1 SWAP2 MSTORE PUSH1 0x80 ADD SWAP1 JUMP JUMPDEST PUSH1 0x40 MLOAD DUP1 SWAP2 SUB SWAP1 LOG1 PUSH0 DUP2 GT PUSH2 0x25D5 JUMPI PUSH1 0x40 MLOAD PUSH3 0x461BCD PUSH1 0xE5 SHL DUP2 MSTORE PUSH1 0x20 PUSH1 0x4 DUP3 ADD MSTORE PUSH1 0x28 PUSH1 0x24 DUP3 ADD MSTORE PUSH32 0x526564656D7074696F6E4C69623A20496E76616C696420636F6E76657273696F PUSH1 0x44 DUP3 ADD MSTORE PUSH32 0x6E20616D6F756E74000000000000000000000000000000000000000000000000 PUSH1 0x64 DUP3 ADD MSTORE PUSH1 0x84 ADD PUSH2 0xB77 JUMP JUMPDEST PUSH1 0x40 MLOAD PUSH4 0x23B872DD PUSH1 0xE0 SHL DUP2 MSTORE PUSH1 0x1 PUSH1 0x1 PUSH1 0xA0 SHL SUB DUP9 DUP2 AND PUSH1 0x4 DUP4 ADD MSTORE PUSH2 0xDEAD PUSH1 0x24 DUP4 ADD MSTORE PUSH1 0x44 DUP3 ADD DUP8 SWAP1 MSTORE PUSH0 SWAP2 SWAP1 DUP11 AND SWAP1 PUSH4 0x23B872DD SWAP1 PUSH1 0x64 ADD PUSH1 0x20 PUSH1 0x40 MLOAD DUP1 DUP4 SUB DUP2 PUSH0 DUP8 GAS CALL ISZERO DUP1 ISZERO PUSH2 0x262C JUMPI RETURNDATASIZE PUSH0 DUP1 RETURNDATACOPY RETURNDATASIZE PUSH0 REVERT JUMPDEST POP POP POP POP PUSH1 0x40 MLOAD RETURNDATASIZE PUSH1 0x1F NOT PUSH1 0x1F DUP3 ADD AND DUP3 ADD DUP1 PUSH1 0x40 MSTORE POP DUP2 ADD SWAP1 PUSH2 0x2650 SWAP2 SWAP1 PUSH2 0x395A JUMP JUMPDEST SWAP1 POP PUSH32 0x3C5AD147104E56BE34A9176A6692F7DF8D2F4B29A5AF06BC6B98970D329D6577 DUP2 PUSH2 0x267E JUMPI PUSH0 PUSH2 0x2681 JUMP JUMPDEST PUSH1 0x1 JUMPDEST PUSH1 0x40 DUP1 MLOAD DUP2 DUP2 MSTORE PUSH1 0x10 DUP2 DUP4 ADD MSTORE PUSH32 0x5472616E73666572207375636365737300000000000000000000000000000000 PUSH1 0x60 DUP3 ADD MSTORE PUSH1 0xFF SWAP3 SWAP1 SWAP3 AND PUSH1 0x20 DUP4 ADD MSTORE MLOAD SWAP1 DUP2 SWAP1 SUB PUSH1 0x80 ADD SWAP1 LOG1 DUP1 PUSH2 0x2716 JUMPI PUSH1 0x40 MLOAD PUSH3 0x461BCD PUSH1 0xE5 SHL DUP2 MSTORE PUSH1 0x20 PUSH1 0x4 DUP3 ADD DUP2 SWAP1 MSTORE PUSH1 0x24 DUP3 ADD MSTORE PUSH32 0x526564656D7074696F6E4C69623A20546F6B656E206275726E206661696C6564 PUSH1 0x44 DUP3 ADD MSTORE PUSH1 0x64 ADD PUSH2 0xB77 JUMP JUMPDEST DUP8 PUSH1 0x1 PUSH1 0x1 PUSH1 0xA0 SHL SUB AND PUSH32 0x602556849FD4874DB76DC9A629159A721346D607A995229CD6AF9F03E904B47C DUP9 DUP9 DUP6 PUSH1 0x40 MLOAD PUSH2 0x2753 SWAP4 SWAP3 SWAP2 SWAP1 PUSH2 0x390F JUMP JUMPDEST PUSH1 0x40 MLOAD DUP1 SWAP2 SUB SWAP1 LOG2 POP SWAP8 SWAP7 POP POP POP POP POP POP POP JUMP JUMPDEST PUSH1 0x1 PUSH1 0x1 PUSH1 0xA0 SHL SUB DUP4 DUP2 AND PUSH0 SWAP1 DUP2 MSTORE PUSH1 0x1 PUSH1 0x20 SWAP1 DUP2 MSTORE PUSH1 0x40 DUP1 DUP4 KECCAK256 SWAP4 DUP7 AND DUP4 MSTORE SWAP3 SWAP1 MSTORE KECCAK256 SLOAD PUSH0 NOT DUP2 LT ISZERO PUSH2 0x16EC JUMPI DUP2 DUP2 LT ISZERO PUSH2 0x27E8 JUMPI PUSH1 0x40 MLOAD PUSH32 0xFB8F41B200000000000000000000000000000000000000000000000000000000 DUP2 MSTORE PUSH1 0x1 PUSH1 0x1 PUSH1 0xA0 SHL SUB DUP5 AND PUSH1 0x4 DUP3 ADD MSTORE PUSH1 0x24 DUP2 ADD DUP3 SWAP1 MSTORE PUSH1 0x44 DUP2 ADD DUP4 SWAP1 MSTORE PUSH1 0x64 ADD PUSH2 0xB77 JUMP JUMPDEST PUSH2 0x16EC DUP5 DUP5 DUP5 DUP5 SUB PUSH0 PUSH2 0x3006 JUMP JUMPDEST PUSH1 0x1 PUSH1 0x1 PUSH1 0xA0 SHL SUB DUP4 AND PUSH2 0x281F JUMPI PUSH1 0x40 MLOAD PUSH4 0x4B637E8F PUSH1 0xE1 SHL DUP2 MSTORE PUSH0 PUSH1 0x4 DUP3 ADD MSTORE PUSH1 0x24 ADD PUSH2 0xB77 JUMP JUMPDEST PUSH1 0x1 PUSH1 0x1 PUSH1 0xA0 SHL SUB DUP3 AND PUSH2 0x2848 JUMPI PUSH1 0x40 MLOAD PUSH4 0xEC442F05 PUSH1 0xE0 SHL DUP2 MSTORE PUSH0 PUSH1 0x4 DUP3 ADD MSTORE PUSH1 0x24 ADD PUSH2 0xB77 JUMP JUMPDEST PUSH2 0x22A9 DUP4 DUP4 DUP4 PUSH2 0x3215 JUMP JUMPDEST PUSH0 DUP1 PUSH0 DUP4 PUSH1 0x40 ADD MLOAD GT PUSH2 0x2868 JUMPI PUSH1 0xB SLOAD PUSH2 0x287A JUMP JUMPDEST PUSH1 0x40 DUP1 DUP5 ADD MLOAD PUSH0 SWAP1 DUP2 MSTORE PUSH1 0xC PUSH1 0x20 MSTORE KECCAK256 SLOAD JUMPDEST SWAP1 POP PUSH0 DUP4 PUSH1 0x20 ADD MLOAD TIMESTAMP PUSH2 0x288D SWAP2 SWAP1 PUSH2 0x3AE0 JUMP JUMPDEST SWAP1 POP PUSH4 0xBBF81E00 DUP2 DUP4 DUP7 PUSH0 ADD MLOAD PUSH2 0x28A4 SWAP2 SWAP1 PUSH2 0x38F8 JUMP JUMPDEST PUSH2 0x28AE SWAP2 SWAP1 PUSH2 0x38F8 JUMP JUMPDEST PUSH2 0x17D0 SWAP2 SWAP1 PUSH2 0x3979 JUMP JUMPDEST PUSH1 0x8 SLOAD PUSH1 0x1 PUSH1 0x1 PUSH1 0xA0 SHL SUB AND CALLER EQ PUSH2 0x1470 JUMPI PUSH1 0x40 MLOAD PUSH32 0x118CDAA700000000000000000000000000000000000000000000000000000000 DUP2 MSTORE CALLER PUSH1 0x4 DUP3 ADD MSTORE PUSH1 0x24 ADD PUSH2 0xB77 JUMP JUMPDEST PUSH1 0x1 PUSH1 0x1 PUSH1 0xA0 SHL SUB DUP3 AND PUSH2 0x2927 JUMPI PUSH1 0x40 MLOAD PUSH4 0xEC442F05 PUSH1 0xE0 SHL DUP2 MSTORE PUSH0 PUSH1 0x4 DUP3 ADD MSTORE PUSH1 0x24 ADD PUSH2 0xB77 JUMP JUMPDEST PUSH2 0x11B2 PUSH0 DUP4 DUP4 PUSH2 0x3215 JUMP JUMPDEST PUSH1 0x8 DUP1 SLOAD PUSH1 0x1 PUSH1 0x1 PUSH1 0xA0 SHL SUB DUP4 DUP2 AND PUSH1 0x1 PUSH1 0x1 PUSH1 0xA0 SHL SUB NOT DUP4 AND DUP2 OR SWAP1 SWAP4 SSTORE PUSH1 0x40 MLOAD SWAP2 AND SWAP2 SWAP1 DUP3 SWAP1 PUSH32 0x8BE0079C531659141344CD1FD0A4F28419497F9722A3DAAFE3B4186F6B6457E0 SWAP1 PUSH0 SWAP1 LOG3 POP POP JUMP JUMPDEST PUSH0 DUP1 PUSH2 0x298E DUP5 PUSH2 0x1FE3 JUMP JUMPDEST SWAP1 POP PUSH0 DUP2 GT PUSH2 0x29DF JUMPI PUSH1 0x40 MLOAD PUSH3 0x461BCD PUSH1 0xE5 SHL DUP2 MSTORE PUSH1 0x20 PUSH1 0x4 DUP3 ADD MSTORE PUSH1 0x15 PUSH1 0x24 DUP3 ADD MSTORE PUSH32 0x496E76616C69642065786368616E676520726174650000000000000000000000 PUSH1 0x44 DUP3 ADD MSTORE PUSH1 0x64 ADD PUSH2 0xB77 JUMP JUMPDEST PUSH0 PUSH1 0x64 PUSH2 0x29EC DUP4 DUP7 PUSH2 0x38F8 JUMP JUMPDEST PUSH2 0x29F6 SWAP2 SWAP1 PUSH2 0x3979 JUMP JUMPDEST SWAP1 POP PUSH2 0x218A DUP2 PUSH8 0xDE0B6B3A7640000 PUSH2 0x38F8 JUMP JUMPDEST PUSH1 0x1 PUSH1 0x1 PUSH1 0xA0 SHL SUB DUP3 AND PUSH2 0x2A33 JUMPI PUSH1 0x40 MLOAD PUSH4 0x4B637E8F PUSH1 0xE1 SHL DUP2 MSTORE PUSH0 PUSH1 0x4 DUP3 ADD MSTORE PUSH1 0x24 ADD PUSH2 0xB77 JUMP JUMPDEST PUSH2 0x11B2 DUP3 PUSH0 DUP4 PUSH2 0x3215 JUMP JUMPDEST PUSH0 PUSH1 0x1 PUSH1 0x1 PUSH1 0xA0 SHL SUB DUP5 AND PUSH2 0x2AA8 JUMPI PUSH1 0x40 MLOAD PUSH3 0x461BCD PUSH1 0xE5 SHL DUP2 MSTORE PUSH1 0x20 PUSH1 0x4 DUP3 ADD MSTORE PUSH1 0x2A PUSH1 0x24 DUP3 ADD MSTORE PUSH32 0x5472616E736665724C69623A2053656E6465722063616E6E6F74206265207A65 PUSH1 0x44 DUP3 ADD MSTORE PUSH10 0x726F2061646472657373 PUSH1 0xB0 SHL PUSH1 0x64 DUP3 ADD MSTORE PUSH1 0x84 ADD PUSH2 0xB77 JUMP JUMPDEST PUSH1 0x1 PUSH1 0x1 PUSH1 0xA0 SHL SUB DUP4 AND PUSH2 0x2B24 JUMPI PUSH1 0x40 MLOAD PUSH3 0x461BCD PUSH1 0xE5 SHL DUP2 MSTORE PUSH1 0x20 PUSH1 0x4 DUP3 ADD MSTORE PUSH1 0x2C PUSH1 0x24 DUP3 ADD MSTORE PUSH32 0x5472616E736665724C69623A2052656365697665722063616E6E6F7420626520 PUSH1 0x44 DUP3 ADD MSTORE PUSH32 0x7A65726F20616464726573730000000000000000000000000000000000000000 PUSH1 0x64 DUP3 ADD MSTORE PUSH1 0x84 ADD PUSH2 0xB77 JUMP JUMPDEST PUSH0 DUP3 GT PUSH2 0x2B99 JUMPI PUSH1 0x40 MLOAD PUSH3 0x461BCD PUSH1 0xE5 SHL DUP2 MSTORE PUSH1 0x20 PUSH1 0x4 DUP3 ADD MSTORE PUSH1 0x2D PUSH1 0x24 DUP3 ADD MSTORE PUSH32 0x5472616E736665724C69623A20416D6F756E74206D7573742062652067726561 PUSH1 0x44 DUP3 ADD MSTORE PUSH32 0x746572207468616E207A65726F00000000000000000000000000000000000000 PUSH1 0x64 DUP3 ADD MSTORE PUSH1 0x84 ADD PUSH2 0xB77 JUMP JUMPDEST PUSH1 0x40 MLOAD PUSH4 0x70A08231 PUSH1 0xE0 SHL DUP2 MSTORE PUSH1 0x1 PUSH1 0x1 PUSH1 0xA0 SHL SUB DUP6 DUP2 AND PUSH1 0x4 DUP4 ADD MSTORE PUSH0 SWAP2 SWAP1 DUP8 AND SWAP1 PUSH4 0x70A08231 SWAP1 PUSH1 0x24 ADD PUSH1 0x20 PUSH1 0x40 MLOAD DUP1 DUP4 SUB DUP2 DUP7 GAS STATICCALL ISZERO DUP1 ISZERO PUSH2 0x2BE0 JUMPI RETURNDATASIZE PUSH0 DUP1 RETURNDATACOPY RETURNDATASIZE PUSH0 REVERT JUMPDEST POP POP POP POP PUSH1 0x40 MLOAD RETURNDATASIZE PUSH1 0x1F NOT PUSH1 0x1F DUP3 ADD AND DUP3 ADD DUP1 PUSH1 0x40 MSTORE POP DUP2 ADD SWAP1 PUSH2 0x2C04 SWAP2 SWAP1 PUSH2 0x3AC9 JUMP JUMPDEST SWAP1 POP DUP3 DUP2 LT ISZERO PUSH2 0x2C7C JUMPI PUSH1 0x40 MLOAD PUSH3 0x461BCD PUSH1 0xE5 SHL DUP2 MSTORE PUSH1 0x20 PUSH1 0x4 DUP3 ADD MSTORE PUSH1 0x21 PUSH1 0x24 DUP3 ADD MSTORE PUSH32 0x5472616E736665724C69623A20496E73756666696369656E742062616C616E63 PUSH1 0x44 DUP3 ADD MSTORE PUSH32 0x6500000000000000000000000000000000000000000000000000000000000000 PUSH1 0x64 DUP3 ADD MSTORE PUSH1 0x84 ADD PUSH2 0xB77 JUMP JUMPDEST PUSH1 0x40 MLOAD PUSH32 0xDD62ED3E00000000000000000000000000000000000000000000000000000000 DUP2 MSTORE PUSH1 0x1 PUSH1 0x1 PUSH1 0xA0 SHL SUB DUP7 DUP2 AND PUSH1 0x4 DUP4 ADD MSTORE ADDRESS PUSH1 0x24 DUP4 ADD MSTORE PUSH0 SWAP2 SWAP1 DUP9 AND SWAP1 PUSH4 0xDD62ED3E SWAP1 PUSH1 0x44 ADD PUSH1 0x20 PUSH1 0x40 MLOAD DUP1 DUP4 SUB DUP2 DUP7 GAS STATICCALL ISZERO DUP1 ISZERO PUSH2 0x2CE2 JUMPI RETURNDATASIZE PUSH0 DUP1 RETURNDATACOPY RETURNDATASIZE PUSH0 REVERT JUMPDEST POP POP POP POP PUSH1 0x40 MLOAD RETURNDATASIZE PUSH1 0x1F NOT PUSH1 0x1F DUP3 ADD AND DUP3 ADD DUP1 PUSH1 0x40 MSTORE POP DUP2 ADD SWAP1 PUSH2 0x2D06 SWAP2 SWAP1 PUSH2 0x3AC9 JUMP JUMPDEST SWAP1 POP DUP4 DUP2 LT ISZERO PUSH2 0x2D7E JUMPI PUSH1 0x40 MLOAD PUSH3 0x461BCD PUSH1 0xE5 SHL DUP2 MSTORE PUSH1 0x20 PUSH1 0x4 DUP3 ADD MSTORE PUSH1 0x23 PUSH1 0x24 DUP3 ADD MSTORE PUSH32 0x5472616E736665724C69623A20496E73756666696369656E7420616C6C6F7761 PUSH1 0x44 DUP3 ADD MSTORE PUSH32 0x6E63650000000000000000000000000000000000000000000000000000000000 PUSH1 0x64 DUP3 ADD MSTORE PUSH1 0x84 ADD PUSH2 0xB77 JUMP JUMPDEST PUSH1 0x40 MLOAD PUSH4 0x23B872DD PUSH1 0xE0 SHL DUP2 MSTORE PUSH1 0x1 PUSH1 0x1 PUSH1 0xA0 SHL SUB DUP8 DUP2 AND PUSH1 0x4 DUP4 ADD MSTORE DUP7 DUP2 AND PUSH1 0x24 DUP4 ADD MSTORE PUSH1 0x44 DUP3 ADD DUP7 SWAP1 MSTORE PUSH0 SWAP2 SWAP1 DUP10 AND SWAP1 PUSH4 0x23B872DD SWAP1 PUSH1 0x64 ADD PUSH1 0x20 PUSH1 0x40 MLOAD DUP1 DUP4 SUB DUP2 PUSH0 DUP8 GAS CALL ISZERO DUP1 ISZERO PUSH2 0x2DD5 JUMPI RETURNDATASIZE PUSH0 DUP1 RETURNDATACOPY RETURNDATASIZE PUSH0 REVERT JUMPDEST POP POP POP POP PUSH1 0x40 MLOAD RETURNDATASIZE PUSH1 0x1F NOT PUSH1 0x1F DUP3 ADD AND DUP3 ADD DUP1 PUSH1 0x40 MSTORE POP DUP2 ADD SWAP1 PUSH2 0x2DF9 SWAP2 SWAP1 PUSH2 0x395A JUMP JUMPDEST SWAP1 POP DUP1 PUSH2 0x2E48 JUMPI PUSH1 0x40 MLOAD PUSH3 0x461BCD PUSH1 0xE5 SHL DUP2 MSTORE PUSH1 0x20 PUSH1 0x4 DUP3 ADD MSTORE PUSH1 0x1C PUSH1 0x24 DUP3 ADD MSTORE PUSH32 0x5472616E736665724C69623A205472616E73666572206661696C656400000000 PUSH1 0x44 DUP3 ADD MSTORE PUSH1 0x64 ADD PUSH2 0xB77 JUMP JUMPDEST DUP6 PUSH1 0x1 PUSH1 0x1 PUSH1 0xA0 SHL SUB AND DUP8 PUSH1 0x1 PUSH1 0x1 PUSH1 0xA0 SHL SUB AND PUSH32 0x68D8B242061749353081922C3F317F3F4EB148EF7AFA77145EFA32E9B3C7B936 DUP8 PUSH1 0x40 MLOAD PUSH2 0x2E8D SWAP2 DUP2 MSTORE PUSH1 0x20 ADD SWAP1 JUMP JUMPDEST PUSH1 0x40 MLOAD DUP1 SWAP2 SUB SWAP1 LOG3 POP PUSH1 0x1 SWAP8 SWAP7 POP POP POP POP POP POP POP JUMP JUMPDEST PUSH0 DUP3 PUSH1 0x40 MLOAD PUSH1 0x20 ADD PUSH2 0x2EB5 SWAP2 SWAP1 PUSH2 0x39B0 JUMP JUMPDEST PUSH1 0x40 MLOAD PUSH1 0x20 DUP2 DUP4 SUB SUB DUP2 MSTORE SWAP1 PUSH1 0x40 MSTORE DUP1 MLOAD SWAP1 PUSH1 0x20 ADD KECCAK256 DUP5 PUSH1 0x40 MLOAD PUSH1 0x20 ADD PUSH2 0x2EDC SWAP2 SWAP1 PUSH2 0x39B0 JUMP JUMPDEST PUSH1 0x40 MLOAD PUSH1 0x20 DUP2 DUP4 SUB SUB DUP2 MSTORE SWAP1 PUSH1 0x40 MSTORE DUP1 MLOAD SWAP1 PUSH1 0x20 ADD KECCAK256 SUB PUSH2 0x2F65 JUMPI PUSH1 0x40 MLOAD PUSH3 0x461BCD PUSH1 0xE5 SHL DUP2 MSTORE PUSH1 0x20 PUSH1 0x4 DUP3 ADD MSTORE PUSH1 0x23 PUSH1 0x24 DUP3 ADD MSTORE PUSH32 0x43616E6E6F7420636F6E7665727420746F207468652073616D65206375727265 PUSH1 0x44 DUP3 ADD MSTORE PUSH32 0x6E63790000000000000000000000000000000000000000000000000000000000 PUSH1 0x64 DUP3 ADD MSTORE PUSH1 0x84 ADD PUSH2 0xB77 JUMP JUMPDEST PUSH0 PUSH2 0x2F6F DUP6 PUSH2 0x1FE3 JUMP JUMPDEST SWAP1 POP PUSH0 PUSH1 0x64 PUSH2 0x2F7E DUP4 DUP7 PUSH2 0x38F8 JUMP JUMPDEST PUSH2 0x2F88 SWAP2 SWAP1 PUSH2 0x3979 JUMP JUMPDEST SWAP1 POP PUSH0 PUSH2 0x2F94 DUP7 PUSH2 0x1FE3 JUMP JUMPDEST SWAP1 POP PUSH0 DUP2 GT PUSH2 0x2FE5 JUMPI PUSH1 0x40 MLOAD PUSH3 0x461BCD PUSH1 0xE5 SHL DUP2 MSTORE PUSH1 0x20 PUSH1 0x4 DUP3 ADD MSTORE PUSH1 0x1C PUSH1 0x24 DUP3 ADD MSTORE PUSH32 0x5461726765742063757272656E63792072617465206973207A65726F00000000 PUSH1 0x44 DUP3 ADD MSTORE PUSH1 0x64 ADD PUSH2 0xB77 JUMP JUMPDEST DUP1 PUSH2 0x2FF1 DUP4 PUSH1 0x64 PUSH2 0x38F8 JUMP JUMPDEST PUSH2 0x2FFB SWAP2 SWAP1 PUSH2 0x3979 JUMP JUMPDEST SWAP8 SWAP7 POP POP POP POP POP POP POP JUMP JUMPDEST PUSH1 0x1 PUSH1 0x1 PUSH1 0xA0 SHL SUB DUP5 AND PUSH2 0x3048 JUMPI PUSH1 0x40 MLOAD PUSH32 0xE602DF0500000000000000000000000000000000000000000000000000000000 DUP2 MSTORE PUSH0 PUSH1 0x4 DUP3 ADD MSTORE PUSH1 0x24 ADD PUSH2 0xB77 JUMP JUMPDEST PUSH1 0x1 PUSH1 0x1 PUSH1 0xA0 SHL SUB DUP4 AND PUSH2 0x308A JUMPI PUSH1 0x40 MLOAD PUSH32 0x94280D6200000000000000000000000000000000000000000000000000000000 DUP2 MSTORE PUSH0 PUSH1 0x4 DUP3 ADD MSTORE PUSH1 0x24 ADD PUSH2 0xB77 JUMP JUMPDEST PUSH1 0x1 PUSH1 0x1 PUSH1 0xA0 SHL SUB DUP1 DUP6 AND PUSH0 SWAP1 DUP2 MSTORE PUSH1 0x1 PUSH1 0x20 SWAP1 DUP2 MSTORE PUSH1 0x40 DUP1 DUP4 KECCAK256 SWAP4 DUP8 AND DUP4 MSTORE SWAP3 SWAP1 MSTORE KECCAK256 DUP3 SWAP1 SSTORE DUP1 ISZERO PUSH2 0x16EC JUMPI DUP3 PUSH1 0x1 PUSH1 0x1 PUSH1 0xA0 SHL SUB AND DUP5 PUSH1 0x1 PUSH1 0x1 PUSH1 0xA0 SHL SUB AND PUSH32 0x8C5BE1E5EBEC7D5BD14F71427D1E84F3DD0314C0F7B2291E5B200AC8C7C3B925 DUP5 PUSH1 0x40 MLOAD PUSH2 0x30FC SWAP2 DUP2 MSTORE PUSH1 0x20 ADD SWAP1 JUMP JUMPDEST PUSH1 0x40 MLOAD DUP1 SWAP2 SUB SWAP1 LOG3 POP POP POP POP JUMP JUMPDEST PUSH0 DUP1 PUSH2 0x311E PUSH8 0xDE0B6B3A7640000 DUP6 PUSH2 0x3979 JUMP JUMPDEST PUSH1 0x40 MLOAD PUSH32 0x5553440000000000000000000000000000000000000000000000000000000000 PUSH1 0x20 DUP3 ADD MSTORE SWAP1 SWAP2 POP PUSH1 0x23 ADD PUSH1 0x40 MLOAD PUSH1 0x20 DUP2 DUP4 SUB SUB DUP2 MSTORE SWAP1 PUSH1 0x40 MSTORE DUP1 MLOAD SWAP1 PUSH1 0x20 ADD KECCAK256 DUP6 PUSH1 0x40 MLOAD PUSH1 0x20 ADD PUSH2 0x3174 SWAP2 SWAP1 PUSH2 0x39B0 JUMP JUMPDEST PUSH1 0x40 MLOAD PUSH1 0x20 DUP2 DUP4 SUB SUB DUP2 MSTORE SWAP1 PUSH1 0x40 MSTORE DUP1 MLOAD SWAP1 PUSH1 0x20 ADD KECCAK256 SUB PUSH2 0x3196 JUMPI SWAP1 POP PUSH2 0xCD4 JUMP JUMPDEST PUSH0 PUSH2 0x31A4 DUP7 DUP6 PUSH4 0xFFFFFFFF AND JUMP JUMPDEST SWAP1 POP PUSH0 DUP2 GT PUSH2 0x31F5 JUMPI PUSH1 0x40 MLOAD PUSH3 0x461BCD PUSH1 0xE5 SHL DUP2 MSTORE PUSH1 0x20 PUSH1 0x4 DUP3 ADD MSTORE PUSH1 0x1C PUSH1 0x24 DUP3 ADD MSTORE PUSH32 0x496E76616C6964207461726765742063757272656E6379207261746500000000 PUSH1 0x44 DUP3 ADD MSTORE PUSH1 0x64 ADD PUSH2 0xB77 JUMP JUMPDEST DUP1 PUSH2 0x3201 DUP4 PUSH1 0x64 PUSH2 0x38F8 JUMP JUMPDEST PUSH2 0x320B SWAP2 SWAP1 PUSH2 0x3979 JUMP JUMPDEST SWAP7 SWAP6 POP POP POP POP POP POP JUMP JUMPDEST PUSH1 0x1 PUSH1 0x1 PUSH1 0xA0 SHL SUB DUP4 AND PUSH2 0x323F JUMPI DUP1 PUSH1 0x2 PUSH0 DUP3 DUP3 SLOAD PUSH2 0x3234 SWAP2 SWAP1 PUSH2 0x3947 JUMP JUMPDEST SWAP1 SWAP2 SSTORE POP PUSH2 0x32C8 SWAP1 POP JUMP JUMPDEST PUSH1 0x1 PUSH1 0x1 PUSH1 0xA0 SHL SUB DUP4 AND PUSH0 SWAP1 DUP2 MSTORE PUSH1 0x20 DUP2 SWAP1 MSTORE PUSH1 0x40 SWAP1 KECCAK256 SLOAD DUP2 DUP2 LT ISZERO PUSH2 0x32AA JUMPI PUSH1 0x40 MLOAD PUSH32 0xE450D38C00000000000000000000000000000000000000000000000000000000 DUP2 MSTORE PUSH1 0x1 PUSH1 0x1 PUSH1 0xA0 SHL SUB DUP6 AND PUSH1 0x4 DUP3 ADD MSTORE PUSH1 0x24 DUP2 ADD DUP3 SWAP1 MSTORE PUSH1 0x44 DUP2 ADD DUP4 SWAP1 MSTORE PUSH1 0x64 ADD PUSH2 0xB77 JUMP JUMPDEST PUSH1 0x1 PUSH1 0x1 PUSH1 0xA0 SHL SUB DUP5 AND PUSH0 SWAP1 DUP2 MSTORE PUSH1 0x20 DUP2 SWAP1 MSTORE PUSH1 0x40 SWAP1 KECCAK256 SWAP1 DUP3 SWAP1 SUB SWAP1 SSTORE JUMPDEST PUSH1 0x1 PUSH1 0x1 PUSH1 0xA0 SHL SUB DUP3 AND PUSH2 0x32E4 JUMPI PUSH1 0x2 DUP1 SLOAD DUP3 SWAP1 SUB SWAP1 SSTORE PUSH2 0x3302 JUMP JUMPDEST PUSH1 0x1 PUSH1 0x1 PUSH1 0xA0 SHL SUB DUP3 AND PUSH0 SWAP1 DUP2 MSTORE PUSH1 0x20 DUP2 SWAP1 MSTORE PUSH1 0x40 SWAP1 KECCAK256 DUP1 SLOAD DUP3 ADD SWAP1 SSTORE JUMPDEST DUP2 PUSH1 0x1 PUSH1 0x1 PUSH1 0xA0 SHL SUB AND DUP4 PUSH1 0x1 PUSH1 0x1 PUSH1 0xA0 SHL SUB AND PUSH32 0xDDF252AD1BE2C89B69C2B068FC378DAA952BA7F163C4A11628F55A4DF523B3EF DUP4 PUSH1 0x40 MLOAD PUSH2 0x3347 SWAP2 DUP2 MSTORE PUSH1 0x20 ADD SWAP1 JUMP JUMPDEST PUSH1 0x40 MLOAD DUP1 SWAP2 SUB SWAP1 LOG3 POP POP POP JUMP JUMPDEST DUP1 CALLDATALOAD PUSH1 0x1 PUSH1 0x1 PUSH1 0xA0 SHL SUB DUP2 AND DUP2 EQ PUSH2 0x336A JUMPI PUSH0 DUP1 REVERT JUMPDEST SWAP2 SWAP1 POP JUMP JUMPDEST PUSH0 PUSH1 0x20 DUP3 DUP5 SUB SLT ISZERO PUSH2 0x337F JUMPI PUSH0 DUP1 REVERT JUMPDEST PUSH2 0xCD4 DUP3 PUSH2 0x3354 JUMP JUMPDEST PUSH0 DUP2 MLOAD DUP1 DUP5 MSTORE DUP1 PUSH1 0x20 DUP5 ADD PUSH1 0x20 DUP7 ADD MCOPY PUSH0 PUSH1 0x20 DUP3 DUP7 ADD ADD MSTORE PUSH1 0x20 PUSH1 0x1F NOT PUSH1 0x1F DUP4 ADD AND DUP6 ADD ADD SWAP2 POP POP SWAP3 SWAP2 POP POP JUMP JUMPDEST PUSH1 0x20 DUP2 MSTORE PUSH0 PUSH2 0xCD4 PUSH1 0x20 DUP4 ADD DUP5 PUSH2 0x3388 JUMP JUMPDEST PUSH0 DUP1 PUSH1 0x40 DUP4 DUP6 SUB SLT ISZERO PUSH2 0x33D9 JUMPI PUSH0 DUP1 REVERT JUMPDEST PUSH2 0x33E2 DUP4 PUSH2 0x3354 JUMP JUMPDEST SWAP5 PUSH1 0x20 SWAP4 SWAP1 SWAP4 ADD CALLDATALOAD SWAP4 POP POP POP JUMP JUMPDEST PUSH4 0x4E487B71 PUSH1 0xE0 SHL PUSH0 MSTORE PUSH1 0x41 PUSH1 0x4 MSTORE PUSH1 0x24 PUSH0 REVERT JUMPDEST PUSH0 DUP3 PUSH1 0x1F DUP4 ADD SLT PUSH2 0x3413 JUMPI PUSH0 DUP1 REVERT JUMPDEST DUP2 CALLDATALOAD PUSH8 0xFFFFFFFFFFFFFFFF DUP2 GT ISZERO PUSH2 0x342D JUMPI PUSH2 0x342D PUSH2 0x33F0 JUMP JUMPDEST PUSH1 0x40 MLOAD PUSH1 0x1F DUP3 ADD PUSH1 0x1F NOT SWAP1 DUP2 AND PUSH1 0x3F ADD AND DUP2 ADD PUSH8 0xFFFFFFFFFFFFFFFF DUP2 GT DUP3 DUP3 LT OR ISZERO PUSH2 0x345C JUMPI PUSH2 0x345C PUSH2 0x33F0 JUMP JUMPDEST PUSH1 0x40 MSTORE DUP2 DUP2 MSTORE DUP4 DUP3 ADD PUSH1 0x20 ADD DUP6 LT ISZERO PUSH2 0x3473 JUMPI PUSH0 DUP1 REVERT JUMPDEST DUP2 PUSH1 0x20 DUP6 ADD PUSH1 0x20 DUP4 ADD CALLDATACOPY PUSH0 SWAP2 DUP2 ADD PUSH1 0x20 ADD SWAP2 SWAP1 SWAP2 MSTORE SWAP4 SWAP3 POP POP POP JUMP JUMPDEST PUSH0 DUP1 PUSH1 0x40 DUP4 DUP6 SUB SLT ISZERO PUSH2 0x34A0 JUMPI PUSH0 DUP1 REVERT JUMPDEST DUP3 CALLDATALOAD PUSH8 0xFFFFFFFFFFFFFFFF DUP2 GT ISZERO PUSH2 0x34B6 JUMPI PUSH0 DUP1 REVERT JUMPDEST PUSH2 0x34C2 DUP6 DUP3 DUP7 ADD PUSH2 0x3404 JUMP JUMPDEST SWAP6 PUSH1 0x20 SWAP5 SWAP1 SWAP5 ADD CALLDATALOAD SWAP5 POP POP POP POP JUMP JUMPDEST PUSH0 DUP1 PUSH0 PUSH1 0x60 DUP5 DUP7 SUB SLT ISZERO PUSH2 0x34E3 JUMPI PUSH0 DUP1 REVERT JUMPDEST PUSH2 0x34EC DUP5 PUSH2 0x3354 JUMP JUMPDEST SWAP3 POP PUSH2 0x34FA PUSH1 0x20 DUP6 ADD PUSH2 0x3354 JUMP JUMPDEST SWAP3 SWAP6 SWAP3 SWAP5 POP POP POP PUSH1 0x40 SWAP2 SWAP1 SWAP2 ADD CALLDATALOAD SWAP1 JUMP JUMPDEST PUSH0 DUP2 MLOAD DUP1 DUP5 MSTORE PUSH1 0x20 DUP5 ADD SWAP4 POP PUSH1 0x20 DUP4 ADD PUSH0 JUMPDEST DUP3 DUP2 LT ISZERO PUSH2 0x353B JUMPI DUP2 MLOAD DUP7 MSTORE PUSH1 0x20 SWAP6 DUP7 ADD SWAP6 SWAP1 SWAP2 ADD SWAP1 PUSH1 0x1 ADD PUSH2 0x351D JUMP JUMPDEST POP SWAP4 SWAP5 SWAP4 POP POP POP POP JUMP JUMPDEST PUSH1 0xA0 DUP2 MSTORE PUSH0 PUSH2 0x3557 PUSH1 0xA0 DUP4 ADD DUP9 PUSH2 0x350B JUMP JUMPDEST DUP3 DUP2 SUB PUSH1 0x20 DUP5 ADD MSTORE PUSH2 0x3569 DUP2 DUP9 PUSH2 0x350B JUMP JUMPDEST SWAP1 POP DUP3 DUP2 SUB PUSH1 0x40 DUP5 ADD MSTORE PUSH2 0x357D DUP2 DUP8 PUSH2 0x350B JUMP JUMPDEST SWAP1 POP DUP3 DUP2 SUB PUSH1 0x60 DUP5 ADD MSTORE PUSH2 0x3591 DUP2 DUP7 PUSH2 0x350B JUMP JUMPDEST DUP4 DUP2 SUB PUSH1 0x80 DUP6 ADD MSTORE DUP5 MLOAD DUP1 DUP3 MSTORE PUSH1 0x20 DUP1 DUP8 ADD SWAP4 POP SWAP1 SWAP2 ADD SWAP1 PUSH0 JUMPDEST DUP2 DUP2 LT ISZERO PUSH2 0x35CB JUMPI DUP4 MLOAD ISZERO ISZERO DUP4 MSTORE PUSH1 0x20 SWAP4 DUP5 ADD SWAP4 SWAP1 SWAP3 ADD SWAP2 PUSH1 0x1 ADD PUSH2 0x35AB JUMP JUMPDEST POP SWAP1 SWAP10 SWAP9 POP POP POP POP POP POP POP POP POP JUMP JUMPDEST PUSH0 DUP1 PUSH1 0x40 DUP4 DUP6 SUB SLT ISZERO PUSH2 0x35EB JUMPI PUSH0 DUP1 REVERT JUMPDEST PUSH2 0x35F4 DUP4 PUSH2 0x3354 JUMP JUMPDEST SWAP2 POP PUSH1 0x20 DUP4 ADD CALLDATALOAD PUSH8 0xFFFFFFFFFFFFFFFF DUP2 GT ISZERO PUSH2 0x360F JUMPI PUSH0 DUP1 REVERT JUMPDEST PUSH2 0x361B DUP6 DUP3 DUP7 ADD PUSH2 0x3404 JUMP JUMPDEST SWAP2 POP POP SWAP3 POP SWAP3 SWAP1 POP JUMP JUMPDEST PUSH0 PUSH1 0x20 DUP3 DUP5 SUB SLT ISZERO PUSH2 0x3635 JUMPI PUSH0 DUP1 REVERT JUMPDEST POP CALLDATALOAD SWAP2 SWAP1 POP JUMP JUMPDEST PUSH0 DUP1 PUSH1 0x40 DUP4 DUP6 SUB SLT ISZERO PUSH2 0x364D JUMPI PUSH0 DUP1 REVERT JUMPDEST POP POP DUP1 CALLDATALOAD SWAP3 PUSH1 0x20 SWAP1 SWAP2 ADD CALLDATALOAD SWAP2 POP JUMP JUMPDEST PUSH0 PUSH1 0x20 DUP3 DUP5 SUB SLT ISZERO PUSH2 0x366C JUMPI PUSH0 DUP1 REVERT JUMPDEST DUP2 CALLDATALOAD PUSH8 0xFFFFFFFFFFFFFFFF DUP2 GT ISZERO PUSH2 0x3682 JUMPI PUSH0 DUP1 REVERT JUMPDEST PUSH2 0x17D0 DUP5 DUP3 DUP6 ADD PUSH2 0x3404 JUMP JUMPDEST PUSH1 0x80 DUP2 MSTORE PUSH0 PUSH2 0x36A0 PUSH1 0x80 DUP4 ADD DUP8 PUSH2 0x350B JUMP JUMPDEST DUP3 DUP2 SUB PUSH1 0x20 DUP5 ADD MSTORE PUSH2 0x36B2 DUP2 DUP8 PUSH2 0x350B JUMP JUMPDEST SWAP1 POP DUP3 DUP2 SUB PUSH1 0x40 DUP5 ADD MSTORE PUSH2 0x36C6 DUP2 DUP7 PUSH2 0x350B JUMP JUMPDEST SWAP1 POP DUP3 DUP2 SUB PUSH1 0x60 DUP5 ADD MSTORE PUSH2 0x2FFB DUP2 DUP6 PUSH2 0x350B JUMP JUMPDEST PUSH0 DUP1 PUSH1 0x40 DUP4 DUP6 SUB SLT ISZERO PUSH2 0x36EB JUMPI PUSH0 DUP1 REVERT JUMPDEST PUSH2 0x36F4 DUP4 PUSH2 0x3354 JUMP JUMPDEST SWAP2 POP PUSH2 0x3702 PUSH1 0x20 DUP5 ADD PUSH2 0x3354 JUMP JUMPDEST SWAP1 POP SWAP3 POP SWAP3 SWAP1 POP JUMP JUMPDEST PUSH0 DUP1 PUSH0 PUSH1 0x60 DUP5 DUP7 SUB SLT ISZERO PUSH2 0x371D JUMPI PUSH0 DUP1 REVERT JUMPDEST DUP4 CALLDATALOAD PUSH8 0xFFFFFFFFFFFFFFFF DUP2 GT ISZERO PUSH2 0x3733 JUMPI PUSH0 DUP1 REVERT JUMPDEST PUSH2 0x373F DUP7 DUP3 DUP8 ADD PUSH2 0x3404 JUMP JUMPDEST SWAP4 POP POP PUSH1 0x20 DUP5 ADD CALLDATALOAD PUSH8 0xFFFFFFFFFFFFFFFF DUP2 GT ISZERO PUSH2 0x375B JUMPI PUSH0 DUP1 REVERT JUMPDEST PUSH2 0x3767 DUP7 DUP3 DUP8 ADD PUSH2 0x3404 JUMP JUMPDEST SWAP4 SWAP7 SWAP4 SWAP6 POP POP POP POP PUSH1 0x40 SWAP2 SWAP1 SWAP2 ADD CALLDATALOAD SWAP1 JUMP JUMPDEST PUSH0 DUP1 PUSH1 0x40 DUP4 DUP6 SUB SLT ISZERO PUSH2 0x378A JUMPI PUSH0 DUP1 REVERT JUMPDEST DUP3 CALLDATALOAD PUSH8 0xFFFFFFFFFFFFFFFF DUP2 GT ISZERO PUSH2 0x37A0 JUMPI PUSH0 DUP1 REVERT JUMPDEST PUSH2 0x37AC DUP6 DUP3 DUP7 ADD PUSH2 0x3404 JUMP JUMPDEST SWAP3 POP POP PUSH2 0x3702 PUSH1 0x20 DUP5 ADD PUSH2 0x3354 JUMP JUMPDEST PUSH1 0x1 DUP2 DUP2 SHR SWAP1 DUP3 AND DUP1 PUSH2 0x37CF JUMPI PUSH1 0x7F DUP3 AND SWAP2 POP JUMPDEST PUSH1 0x20 DUP3 LT DUP2 SUB PUSH2 0x37ED JUMPI PUSH4 0x4E487B71 PUSH1 0xE0 SHL PUSH0 MSTORE PUSH1 0x22 PUSH1 0x4 MSTORE PUSH1 0x24 PUSH0 REVERT JUMPDEST POP SWAP2 SWAP1 POP JUMP JUMPDEST PUSH4 0x4E487B71 PUSH1 0xE0 SHL PUSH0 MSTORE PUSH1 0x11 PUSH1 0x4 MSTORE PUSH1 0x24 PUSH0 REVERT JUMPDEST PUSH1 0x1 DUP2 JUMPDEST PUSH1 0x1 DUP5 GT ISZERO PUSH2 0x3842 JUMPI DUP1 DUP6 DIV DUP2 GT ISZERO PUSH2 0x3826 JUMPI PUSH2 0x3826 PUSH2 0x37F3 JUMP JUMPDEST PUSH1 0x1 DUP5 AND ISZERO PUSH2 0x3834 JUMPI SWAP1 DUP2 MUL SWAP1 JUMPDEST PUSH1 0x1 SWAP4 SWAP1 SWAP4 SHR SWAP3 DUP1 MUL PUSH2 0x380B JUMP JUMPDEST SWAP4 POP SWAP4 SWAP2 POP POP JUMP JUMPDEST PUSH0 DUP3 PUSH2 0x3858 JUMPI POP PUSH1 0x1 PUSH2 0xC37 JUMP JUMPDEST DUP2 PUSH2 0x3864 JUMPI POP PUSH0 PUSH2 0xC37 JUMP JUMPDEST DUP2 PUSH1 0x1 DUP2 EQ PUSH2 0x387A JUMPI PUSH1 0x2 DUP2 EQ PUSH2 0x3884 JUMPI PUSH2 0x38A0 JUMP JUMPDEST PUSH1 0x1 SWAP2 POP POP PUSH2 0xC37 JUMP JUMPDEST PUSH1 0xFF DUP5 GT ISZERO PUSH2 0x3895 JUMPI PUSH2 0x3895 PUSH2 0x37F3 JUMP JUMPDEST POP POP PUSH1 0x1 DUP3 SHL PUSH2 0xC37 JUMP JUMPDEST POP PUSH1 0x20 DUP4 LT PUSH2 0x133 DUP4 LT AND PUSH1 0x4E DUP5 LT PUSH1 0xB DUP5 LT AND OR ISZERO PUSH2 0x38C3 JUMPI POP DUP2 DUP2 EXP PUSH2 0xC37 JUMP JUMPDEST PUSH2 0x38CF PUSH0 NOT DUP5 DUP5 PUSH2 0x3807 JUMP JUMPDEST DUP1 PUSH0 NOT DIV DUP3 GT ISZERO PUSH2 0x38E2 JUMPI PUSH2 0x38E2 PUSH2 0x37F3 JUMP JUMPDEST MUL SWAP4 SWAP3 POP POP POP JUMP JUMPDEST PUSH0 PUSH2 0xCD4 PUSH1 0xFF DUP5 AND DUP4 PUSH2 0x384A JUMP JUMPDEST DUP1 DUP3 MUL DUP2 ISZERO DUP3 DUP3 DIV DUP5 EQ OR PUSH2 0xC37 JUMPI PUSH2 0xC37 PUSH2 0x37F3 JUMP JUMPDEST PUSH1 0x60 DUP2 MSTORE PUSH0 PUSH2 0x3921 PUSH1 0x60 DUP4 ADD DUP7 PUSH2 0x3388 JUMP JUMPDEST PUSH1 0x20 DUP4 ADD SWAP5 SWAP1 SWAP5 MSTORE POP PUSH1 0x40 ADD MSTORE SWAP2 SWAP1 POP JUMP JUMPDEST PUSH4 0x4E487B71 PUSH1 0xE0 SHL PUSH0 MSTORE PUSH1 0x32 PUSH1 0x4 MSTORE PUSH1 0x24 PUSH0 REVERT JUMPDEST DUP1 DUP3 ADD DUP1 DUP3 GT ISZERO PUSH2 0xC37 JUMPI PUSH2 0xC37 PUSH2 0x37F3 JUMP JUMPDEST PUSH0 PUSH1 0x20 DUP3 DUP5 SUB SLT ISZERO PUSH2 0x396A JUMPI PUSH0 DUP1 REVERT JUMPDEST DUP2 MLOAD DUP1 ISZERO ISZERO DUP2 EQ PUSH2 0xCD4 JUMPI PUSH0 DUP1 REVERT JUMPDEST PUSH0 DUP3 PUSH2 0x3993 JUMPI PUSH4 0x4E487B71 PUSH1 0xE0 SHL PUSH0 MSTORE PUSH1 0x12 PUSH1 0x4 MSTORE PUSH1 0x24 PUSH0 REVERT JUMPDEST POP DIV SWAP1 JUMP JUMPDEST PUSH0 PUSH1 0x1 DUP3 ADD PUSH2 0x39A9 JUMPI PUSH2 0x39A9 PUSH2 0x37F3 JUMP JUMPDEST POP PUSH1 0x1 ADD SWAP1 JUMP JUMPDEST PUSH0 DUP3 MLOAD DUP1 PUSH1 0x20 DUP6 ADD DUP5 MCOPY PUSH0 SWAP3 ADD SWAP2 DUP3 MSTORE POP SWAP2 SWAP1 POP JUMP JUMPDEST PUSH0 DUP1 DUP4 SLOAD PUSH0 DUP2 PUSH1 0x1 SHR SWAP1 POP PUSH1 0x1 DUP3 AND DUP1 PUSH2 0x39E1 JUMPI PUSH1 0x7F DUP3 AND SWAP2 POP JUMPDEST PUSH1 0x20 DUP3 LT DUP2 SUB PUSH2 0x39FF JUMPI PUSH4 0x4E487B71 PUSH1 0xE0 SHL PUSH0 MSTORE PUSH1 0x22 PUSH1 0x4 MSTORE PUSH1 0x24 PUSH0 REVERT JUMPDEST DUP1 DUP1 ISZERO PUSH2 0x3A13 JUMPI PUSH1 0x1 DUP2 EQ PUSH2 0x3A28 JUMPI PUSH2 0x3A56 JUMP JUMPDEST PUSH1 0xFF NOT DUP5 AND DUP8 MSTORE DUP3 ISZERO ISZERO DUP4 MUL DUP8 ADD SWAP5 POP PUSH2 0x3A56 JUMP JUMPDEST PUSH0 DUP9 DUP2 MSTORE PUSH1 0x20 SWAP1 KECCAK256 PUSH0 JUMPDEST DUP5 DUP2 LT ISZERO PUSH2 0x3A4E JUMPI DUP2 SLOAD DUP10 DUP3 ADD MSTORE PUSH1 0x1 SWAP1 SWAP2 ADD SWAP1 PUSH1 0x20 ADD PUSH2 0x3A32 JUMP JUMPDEST POP POP DUP3 DUP8 ADD SWAP5 POP JUMPDEST POP SWAP3 SWAP7 SWAP6 POP POP POP POP POP POP JUMP JUMPDEST DUP1 MLOAD PUSH10 0xFFFFFFFFFFFFFFFFFFFF DUP2 AND DUP2 EQ PUSH2 0x336A JUMPI PUSH0 DUP1 REVERT JUMPDEST PUSH0 DUP1 PUSH0 DUP1 PUSH0 PUSH1 0xA0 DUP7 DUP9 SUB SLT ISZERO PUSH2 0x3A8F JUMPI PUSH0 DUP1 REVERT JUMPDEST PUSH2 0x3A98 DUP7 PUSH2 0x3A62 JUMP JUMPDEST PUSH1 0x20 DUP8 ADD MLOAD PUSH1 0x40 DUP9 ADD MLOAD PUSH1 0x60 DUP10 ADD MLOAD SWAP3 SWAP8 POP SWAP1 SWAP6 POP SWAP4 POP SWAP2 POP PUSH2 0x3ABD PUSH1 0x80 DUP8 ADD PUSH2 0x3A62 JUMP JUMPDEST SWAP1 POP SWAP3 SWAP6 POP SWAP3 SWAP6 SWAP1 SWAP4 POP JUMP JUMPDEST PUSH0 PUSH1 0x20 DUP3 DUP5 SUB SLT ISZERO PUSH2 0x3AD9 JUMPI PUSH0 DUP1 REVERT JUMPDEST POP MLOAD SWAP2 SWAP1 POP JUMP JUMPDEST DUP2 DUP2 SUB DUP2 DUP2 GT ISZERO PUSH2 0xC37 JUMPI PUSH2 0xC37 PUSH2 0x37F3 JUMP INVALID LOG2 PUSH5 0x6970667358 0x22 SLT KECCAK256 TLOAD BLOBBASEFEE 0xBF LOG1 0xF8 PUSH14 0xA5C4E16065EE892B74575696A12 DUP16 0x25 SUB CREATE DUP8 DUP14 0x26 0xD1 PUSH3 0x538B60 PUSH5 0x736F6C6343 STOP ADDMOD BYTE STOP CALLER "
		},
		"gasEstimates": {
			"creation": {
				"codeDepositCost": "3029000",
				"executionCost": "infinite",
				"totalCost": "infinite"
			},
			"external": {
				"ETH_TO_USD_RATE()": "307",
				"INTEREST_RATE()": "306",
				"LOAN_DURATION()": "284",
				"LTV_RATIO()": "284",
				"MIN_LOCK_PERIOD()": "285",
				"TOKEN_PRICE_IN_USD()": "283",
				"_initDepositLogic(address)": "113112",
				"allowance(address,address)": "infinite",
				"approve(address,uint256)": "24826",
				"balanceOf(address)": "2627",
				"baseCurrency()": "infinite",
				"calculateInterest(address)": "infinite",
				"calculateInterestForDeposit(address,uint256)": "infinite",
				"calculateRepaymentAmounts(address)": "15509",
				"convertAndMint(string,uint256)": "infinite",
				"convertAndRepay(string,uint256)": "infinite",
				"currencyLockedBalances(address,string)": "infinite",
				"decimals()": "288",
				"depositFlexible(uint256)": "infinite",
				"depositLockup(uint256,uint256)": "infinite",
				"getActiveDeposits(address)": "infinite",
				"getAllUserDeposits(address)": "infinite",
				"getBalanceOfAccount(address)": "infinite",
				"getDepositCount(address)": "2625",
				"getExchangeRate(string)": "infinite",
				"getLoan()": "infinite",
				"getPriceFeedAddress(string)": "infinite",
				"getRateForCurrency(string)": "infinite",
				"getTotalSupplyInTokens()": "2832",
				"getUserDeposit(address,uint256)": "11301",
				"interestForDepositCalculation(address,uint256)": "infinite",
				"lockupDeposit(uint256,uint256)": "infinite",
				"mint(address,uint256)": "infinite",
				"name()": "infinite",
				"openDeposit(uint256)": "infinite",
				"owner()": "2452",
				"previewConversion(string,string,uint256)": "infinite",
				"redeemTokens(string,uint256)": "infinite",
				"renounceOwnership()": "infinite",
				"setPriceFeed(string,address)": "infinite",
				"symbol()": "infinite",
				"token()": "2446",
				"totalSupply()": "2404",
				"transfer(address,uint256)": "51284",
				"transferFrom(address,address,uint256)": "infinite",
				"transferOwnership(address)": "28444",
				"transferTokens(address,uint256)": "infinite",
				"userLoans(address)": "15432",
				"withdraw(uint256)": "infinite",
				"withdrawDeposit(uint256)": "infinite"
			}
		},
		"methodIdentifiers": {
			"ETH_TO_USD_RATE()": "28774994",
			"INTEREST_RATE()": "5b72a33a",
			"LOAN_DURATION()": "e02a4dfd",
			"LTV_RATIO()": "5696b189",
			"MIN_LOCK_PERIOD()": "385dc3df",
			"TOKEN_PRICE_IN_USD()": "82d5e7b8",
			"_initDepositLogic(address)": "88bd4cea",
			"allowance(address,address)": "dd62ed3e",
			"approve(address,uint256)": "095ea7b3",
			"balanceOf(address)": "70a08231",
			"baseCurrency()": "92a85fde",
			"calculateInterest(address)": "e11932cf",
			"calculateInterestForDeposit(address,uint256)": "db40f828",
			"calculateRepaymentAmounts(address)": "046ad586",
			"convertAndMint(string,uint256)": "f92881a3",
			"convertAndRepay(string,uint256)": "98fb5fc8",
			"currencyLockedBalances(address,string)": "29c9cead",
			"decimals()": "313ce567",
			"depositFlexible(uint256)": "7fc35ceb",
			"depositLockup(uint256,uint256)": "f500d9da",
			"getActiveDeposits(address)": "d2d48ee3",
			"getAllUserDeposits(address)": "2516b3c1",
			"getBalanceOfAccount(address)": "936710bf",
			"getDepositCount(address)": "13fcaf54",
			"getExchangeRate(string)": "f4b54314",
			"getLoan()": "4859b3f4",
			"getPriceFeedAddress(string)": "f6ccbadd",
			"getRateForCurrency(string)": "c0531580",
			"getTotalSupplyInTokens()": "fe4e61df",
			"getUserDeposit(address,uint256)": "60711058",
			"interestForDepositCalculation(address,uint256)": "a11e685a",
			"lockupDeposit(uint256,uint256)": "a8fbdd3a",
			"mint(address,uint256)": "40c10f19",
			"name()": "06fdde03",
			"openDeposit(uint256)": "d1d95588",
			"owner()": "8da5cb5b",
			"previewConversion(string,string,uint256)": "eb9d794a",
			"redeemTokens(string,uint256)": "136a2ca7",
			"renounceOwnership()": "715018a6",
			"setPriceFeed(string,address)": "f3b3347e",
			"symbol()": "95d89b41",
			"token()": "fc0c546a",
			"totalSupply()": "18160ddd",
			"transfer(address,uint256)": "a9059cbb",
			"transferFrom(address,address,uint256)": "23b872dd",
			"transferOwnership(address)": "f2fde38b",
			"transferTokens(address,uint256)": "bec3fa17",
			"userLoans(address)": "e9e190a3",
			"withdraw(uint256)": "2e1a7d4d",
			"withdrawDeposit(uint256)": "33289a46"
		}
	},
	"abi": [
		{
			"inputs": [],
			"stateMutability": "nonpayable",
			"type": "constructor"
		},
		{
			"inputs": [
				{
					"internalType": "address",
					"name": "spender",
					"type": "address"
				},
				{
					"internalType": "uint256",
					"name": "allowance",
					"type": "uint256"
				},
				{
					"internalType": "uint256",
					"name": "needed",
					"type": "uint256"
				}
			],
			"name": "ERC20InsufficientAllowance",
			"type": "error"
		},
		{
			"inputs": [
				{
					"internalType": "address",
					"name": "sender",
					"type": "address"
				},
				{
					"internalType": "uint256",
					"name": "balance",
					"type": "uint256"
				},
				{
					"internalType": "uint256",
					"name": "needed",
					"type": "uint256"
				}
			],
			"name": "ERC20InsufficientBalance",
			"type": "error"
		},
		{
			"inputs": [
				{
					"internalType": "address",
					"name": "approver",
					"type": "address"
				}
			],
			"name": "ERC20InvalidApprover",
			"type": "error"
		},
		{
			"inputs": [
				{
					"internalType": "address",
					"name": "receiver",
					"type": "address"
				}
			],
			"name": "ERC20InvalidReceiver",
			"type": "error"
		},
		{
			"inputs": [
				{
					"internalType": "address",
					"name": "sender",
					"type": "address"
				}
			],
			"name": "ERC20InvalidSender",
			"type": "error"
		},
		{
			"inputs": [
				{
					"internalType": "address",
					"name": "spender",
					"type": "address"
				}
			],
			"name": "ERC20InvalidSpender",
			"type": "error"
		},
		{
			"inputs": [
				{
					"internalType": "address",
					"name": "owner",
					"type": "address"
				}
			],
			"name": "OwnableInvalidOwner",
			"type": "error"
		},
		{
			"inputs": [
				{
					"internalType": "address",
					"name": "account",
					"type": "address"
				}
			],
			"name": "OwnableUnauthorizedAccount",
			"type": "error"
		},
		{
			"anonymous": false,
			"inputs": [
				{
					"indexed": true,
					"internalType": "address",
					"name": "owner",
					"type": "address"
				},
				{
					"indexed": true,
					"internalType": "address",
					"name": "spender",
					"type": "address"
				},
				{
					"indexed": false,
					"internalType": "uint256",
					"name": "value",
					"type": "uint256"
				}
			],
			"name": "Approval",
			"type": "event"
		},
		{
			"anonymous": false,
			"inputs": [
				{
					"indexed": true,
					"internalType": "address",
					"name": "user",
					"type": "address"
				},
				{
					"indexed": false,
					"internalType": "string",
					"name": "fromCurrency",
					"type": "string"
				},
				{
					"indexed": false,
					"internalType": "uint256",
					"name": "amount",
					"type": "uint256"
				},
				{
					"indexed": false,
					"internalType": "uint256",
					"name": "tokenAmount",
					"type": "uint256"
				}
			],
			"name": "Converted",
			"type": "event"
		},
		{
			"anonymous": false,
			"inputs": [
				{
					"indexed": false,
					"internalType": "string",
					"name": "message",
					"type": "string"
				},
				{
					"indexed": false,
					"internalType": "uint256",
					"name": "value",
					"type": "uint256"
				}
			],
			"name": "Debug",
			"type": "event"
		},
		{
			"anonymous": false,
			"inputs": [
				{
					"indexed": true,
					"internalType": "address",
					"name": "borrower",
					"type": "address"
				},
				{
					"indexed": false,
					"internalType": "uint256",
					"name": "collateralETH",
					"type": "uint256"
				},
				{
					"indexed": false,
					"internalType": "uint256",
					"name": "loanFTGP",
					"type": "uint256"
				},
				{
					"indexed": false,
					"internalType": "uint256",
					"name": "timestamp",
					"type": "uint256"
				}
			],
			"name": "LoanIssued",
			"type": "event"
		},
		{
			"anonymous": false,
			"inputs": [
				{
					"indexed": true,
					"internalType": "address",
					"name": "borrower",
					"type": "address"
				},
				{
					"indexed": false,
					"internalType": "uint256",
					"name": "totalRepaid",
					"type": "uint256"
				},
				{
					"indexed": false,
					"internalType": "uint256",
					"name": "timestamp",
					"type": "uint256"
				}
			],
			"name": "LoanRepaid",
			"type": "event"
		},
		{
			"anonymous": false,
			"inputs": [
				{
					"indexed": true,
					"internalType": "address",
					"name": "previousOwner",
					"type": "address"
				},
				{
					"indexed": true,
					"internalType": "address",
					"name": "newOwner",
					"type": "address"
				}
			],
			"name": "OwnershipTransferred",
			"type": "event"
		},
		{
			"anonymous": false,
			"inputs": [
				{
					"indexed": true,
					"internalType": "address",
					"name": "user",
					"type": "address"
				},
				{
					"indexed": false,
					"internalType": "string",
					"name": "toCurrency",
					"type": "string"
				},
				{
					"indexed": false,
					"internalType": "uint256",
					"name": "tokenAmount",
					"type": "uint256"
				},
				{
					"indexed": false,
					"internalType": "uint256",
					"name": "currencyAmount",
					"type": "uint256"
				}
			],
			"name": "Redeemed",
			"type": "event"
		},
		{
			"anonymous": false,
			"inputs": [
				{
					"indexed": true,
					"internalType": "address",
					"name": "user",
					"type": "address"
				},
				{
					"indexed": false,
					"internalType": "string",
					"name": "toCurrency",
					"type": "string"
				},
				{
					"indexed": false,
					"internalType": "uint256",
					"name": "tokenAmount",
					"type": "uint256"
				},
				{
					"indexed": false,
					"internalType": "uint256",
					"name": "currencyAmount",
					"type": "uint256"
				}
			],
			"name": "TokensRedeemed",
			"type": "event"
		},
		{
			"anonymous": false,
			"inputs": [
				{
					"indexed": true,
					"internalType": "address",
					"name": "from",
					"type": "address"
				},
				{
					"indexed": true,
					"internalType": "address",
					"name": "to",
					"type": "address"
				},
				{
					"indexed": false,
					"internalType": "uint256",
					"name": "value",
					"type": "uint256"
				}
			],
			"name": "Transfer",
			"type": "event"
		},
		{
			"anonymous": false,
			"inputs": [
				{
					"indexed": true,
					"internalType": "address",
					"name": "from",
					"type": "address"
				},
				{
					"indexed": true,
					"internalType": "address",
					"name": "to",
					"type": "address"
				},
				{
					"indexed": false,
					"internalType": "uint256",
					"name": "amount",
					"type": "uint256"
				}
			],
			"name": "TransferRequested",
			"type": "event"
		},
		{
			"inputs": [],
			"name": "ETH_TO_USD_RATE",
			"outputs": [
				{
					"internalType": "uint256",
					"name": "",
					"type": "uint256"
				}
			],
			"stateMutability": "view",
			"type": "function"
		},
		{
			"inputs": [],
			"name": "INTEREST_RATE",
			"outputs": [
				{
					"internalType": "uint256",
					"name": "",
					"type": "uint256"
				}
			],
			"stateMutability": "view",
			"type": "function"
		},
		{
			"inputs": [],
			"name": "LOAN_DURATION",
			"outputs": [
				{
					"internalType": "uint256",
					"name": "",
					"type": "uint256"
				}
			],
			"stateMutability": "view",
			"type": "function"
		},
		{
			"inputs": [],
			"name": "LTV_RATIO",
			"outputs": [
				{
					"internalType": "uint256",
					"name": "",
					"type": "uint256"
				}
			],
			"stateMutability": "view",
			"type": "function"
		},
		{
			"inputs": [],
			"name": "MIN_LOCK_PERIOD",
			"outputs": [
				{
					"internalType": "uint256",
					"name": "",
					"type": "uint256"
				}
			],
			"stateMutability": "view",
			"type": "function"
		},
		{
			"inputs": [],
			"name": "TOKEN_PRICE_IN_USD",
			"outputs": [
				{
					"internalType": "uint256",
					"name": "",
					"type": "uint256"
				}
			],
			"stateMutability": "view",
			"type": "function"
		},
		{
			"inputs": [
				{
					"internalType": "address",
					"name": "_ftgpToken",
					"type": "address"
				}
			],
			"name": "_initDepositLogic",
			"outputs": [],
			"stateMutability": "nonpayable",
			"type": "function"
		},
		{
			"inputs": [
				{
					"internalType": "address",
					"name": "owner",
					"type": "address"
				},
				{
					"internalType": "address",
					"name": "spender",
					"type": "address"
				}
			],
			"name": "allowance",
			"outputs": [
				{
					"internalType": "uint256",
					"name": "",
					"type": "uint256"
				}
			],
			"stateMutability": "view",
			"type": "function"
		},
		{
			"inputs": [
				{
					"internalType": "address",
					"name": "spender",
					"type": "address"
				},
				{
					"internalType": "uint256",
					"name": "value",
					"type": "uint256"
				}
			],
			"name": "approve",
			"outputs": [
				{
					"internalType": "bool",
					"name": "",
					"type": "bool"
				}
			],
			"stateMutability": "nonpayable",
			"type": "function"
		},
		{
			"inputs": [
				{
					"internalType": "address",
					"name": "account",
					"type": "address"
				}
			],
			"name": "balanceOf",
			"outputs": [
				{
					"internalType": "uint256",
					"name": "",
					"type": "uint256"
				}
			],
			"stateMutability": "view",
			"type": "function"
		},
		{
			"inputs": [],
			"name": "baseCurrency",
			"outputs": [
				{
					"internalType": "string",
					"name": "",
					"type": "string"
				}
			],
			"stateMutability": "view",
			"type": "function"
		},
		{
			"inputs": [
				{
					"internalType": "address",
					"name": "user",
					"type": "address"
				}
			],
			"name": "calculateInterest",
			"outputs": [
				{
					"internalType": "uint256",
					"name": "totalInterest",
					"type": "uint256"
				}
			],
			"stateMutability": "view",
			"type": "function"
		},
		{
			"inputs": [
				{
					"internalType": "address",
					"name": "user",
					"type": "address"
				},
				{
					"internalType": "uint256",
					"name": "index",
					"type": "uint256"
				}
			],
			"name": "calculateInterestForDeposit",
			"outputs": [
				{
					"internalType": "uint256",
					"name": "",
					"type": "uint256"
				}
			],
			"stateMutability": "view",
			"type": "function"
		},
		{
			"inputs": [
				{
					"internalType": "address",
					"name": "borrower",
					"type": "address"
				}
			],
			"name": "calculateRepaymentAmounts",
			"outputs": [
				{
					"internalType": "uint256",
					"name": "monthly",
					"type": "uint256"
				},
				{
					"internalType": "uint256",
					"name": "total",
					"type": "uint256"
				}
			],
			"stateMutability": "view",
			"type": "function"
		},
		{
			"inputs": [
				{
					"internalType": "string",
					"name": "fromCurrency",
					"type": "string"
				},
				{
					"internalType": "uint256",
					"name": "amount",
					"type": "uint256"
				}
			],
			"name": "convertAndMint",
			"outputs": [],
			"stateMutability": "nonpayable",
			"type": "function"
		},
		{
			"inputs": [
				{
					"internalType": "string",
					"name": "fromCurrency",
					"type": "string"
				},
				{
					"internalType": "uint256",
					"name": "amountInCurrency",
					"type": "uint256"
				}
			],
			"name": "convertAndRepay",
			"outputs": [],
			"stateMutability": "nonpayable",
			"type": "function"
		},
		{
			"inputs": [
				{
					"internalType": "address",
					"name": "",
					"type": "address"
				},
				{
					"internalType": "string",
					"name": "",
					"type": "string"
				}
			],
			"name": "currencyLockedBalances",
			"outputs": [
				{
					"internalType": "uint256",
					"name": "",
					"type": "uint256"
				}
			],
			"stateMutability": "view",
			"type": "function"
		},
		{
			"inputs": [],
			"name": "decimals",
			"outputs": [
				{
					"internalType": "uint8",
					"name": "",
					"type": "uint8"
				}
			],
			"stateMutability": "view",
			"type": "function"
		},
		{
			"inputs": [
				{
					"internalType": "uint256",
					"name": "amount",
					"type": "uint256"
				}
			],
			"name": "depositFlexible",
			"outputs": [],
			"stateMutability": "nonpayable",
			"type": "function"
		},
		{
			"inputs": [
				{
					"internalType": "uint256",
					"name": "amount",
					"type": "uint256"
				},
				{
					"internalType": "uint256",
					"name": "period",
					"type": "uint256"
				}
			],
			"name": "depositLockup",
			"outputs": [],
			"stateMutability": "nonpayable",
			"type": "function"
		},
		{
			"inputs": [
				{
					"internalType": "address",
					"name": "user",
					"type": "address"
				}
			],
			"name": "getActiveDeposits",
			"outputs": [
				{
					"internalType": "uint256[]",
					"name": "indexes",
					"type": "uint256[]"
				},
				{
					"internalType": "uint256[]",
					"name": "amounts",
					"type": "uint256[]"
				},
				{
					"internalType": "uint256[]",
					"name": "startTimes",
					"type": "uint256[]"
				},
				{
					"internalType": "uint256[]",
					"name": "lockPeriods",
					"type": "uint256[]"
				}
			],
			"stateMutability": "view",
			"type": "function"
		},
		{
			"inputs": [
				{
					"internalType": "address",
					"name": "user",
					"type": "address"
				}
			],
			"name": "getAllUserDeposits",
			"outputs": [
				{
					"internalType": "uint256[]",
					"name": "indexes",
					"type": "uint256[]"
				},
				{
					"internalType": "uint256[]",
					"name": "amounts",
					"type": "uint256[]"
				},
				{
					"internalType": "uint256[]",
					"name": "startTimes",
					"type": "uint256[]"
				},
				{
					"internalType": "uint256[]",
					"name": "lockPeriods",
					"type": "uint256[]"
				},
				{
					"internalType": "bool[]",
					"name": "withdrawnFlags",
					"type": "bool[]"
				}
			],
			"stateMutability": "view",
			"type": "function"
		},
		{
			"inputs": [
				{
					"internalType": "address",
					"name": "account",
					"type": "address"
				}
			],
			"name": "getBalanceOfAccount",
			"outputs": [
				{
					"internalType": "uint256",
					"name": "",
					"type": "uint256"
				}
			],
			"stateMutability": "view",
			"type": "function"
		},
		{
			"inputs": [
				{
					"internalType": "address",
					"name": "user",
					"type": "address"
				}
			],
			"name": "getDepositCount",
			"outputs": [
				{
					"internalType": "uint256",
					"name": "",
					"type": "uint256"
				}
			],
			"stateMutability": "view",
			"type": "function"
		},
		{
			"inputs": [
				{
					"internalType": "string",
					"name": "currency",
					"type": "string"
				}
			],
			"name": "getExchangeRate",
			"outputs": [
				{
					"internalType": "uint256",
					"name": "",
					"type": "uint256"
				}
			],
			"stateMutability": "view",
			"type": "function"
		},
		{
			"inputs": [],
			"name": "getLoan",
			"outputs": [],
			"stateMutability": "payable",
			"type": "function"
		},
		{
			"inputs": [
				{
					"internalType": "string",
					"name": "currency",
					"type": "string"
				}
			],
			"name": "getPriceFeedAddress",
			"outputs": [
				{
					"internalType": "address",
					"name": "",
					"type": "address"
				}
			],
			"stateMutability": "view",
			"type": "function"
		},
		{
			"inputs": [
				{
					"internalType": "string",
					"name": "currency",
					"type": "string"
				}
			],
			"name": "getRateForCurrency",
			"outputs": [
				{
					"internalType": "uint256",
					"name": "",
					"type": "uint256"
				}
			],
			"stateMutability": "view",
			"type": "function"
		},
		{
			"inputs": [],
			"name": "getTotalSupplyInTokens",
			"outputs": [
				{
					"internalType": "uint256",
					"name": "",
					"type": "uint256"
				}
			],
			"stateMutability": "view",
			"type": "function"
		},
		{
			"inputs": [
				{
					"internalType": "address",
					"name": "user",
					"type": "address"
				},
				{
					"internalType": "uint256",
					"name": "index",
					"type": "uint256"
				}
			],
			"name": "getUserDeposit",
			"outputs": [
				{
					"internalType": "uint256",
					"name": "amount",
					"type": "uint256"
				},
				{
					"internalType": "uint256",
					"name": "startTime",
					"type": "uint256"
				},
				{
					"internalType": "uint256",
					"name": "lockPeriod",
					"type": "uint256"
				},
				{
					"internalType": "bool",
					"name": "withdrawn",
					"type": "bool"
				}
			],
			"stateMutability": "view",
			"type": "function"
		},
		{
			"inputs": [
				{
					"internalType": "address",
					"name": "user",
					"type": "address"
				},
				{
					"internalType": "uint256",
					"name": "index",
					"type": "uint256"
				}
			],
			"name": "interestForDepositCalculation",
			"outputs": [
				{
					"internalType": "uint256",
					"name": "",
					"type": "uint256"
				}
			],
			"stateMutability": "view",
			"type": "function"
		},
		{
			"inputs": [
				{
					"internalType": "uint256",
					"name": "amount",
					"type": "uint256"
				},
				{
					"internalType": "uint256",
					"name": "period",
					"type": "uint256"
				}
			],
			"name": "lockupDeposit",
			"outputs": [],
			"stateMutability": "nonpayable",
			"type": "function"
		},
		{
			"inputs": [
				{
					"internalType": "address",
					"name": "to",
					"type": "address"
				},
				{
					"internalType": "uint256",
					"name": "amount",
					"type": "uint256"
				}
			],
			"name": "mint",
			"outputs": [],
			"stateMutability": "nonpayable",
			"type": "function"
		},
		{
			"inputs": [],
			"name": "name",
			"outputs": [
				{
					"internalType": "string",
					"name": "",
					"type": "string"
				}
			],
			"stateMutability": "view",
			"type": "function"
		},
		{
			"inputs": [
				{
					"internalType": "uint256",
					"name": "amount",
					"type": "uint256"
				}
			],
			"name": "openDeposit",
			"outputs": [],
			"stateMutability": "nonpayable",
			"type": "function"
		},
		{
			"inputs": [],
			"name": "owner",
			"outputs": [
				{
					"internalType": "address",
					"name": "",
					"type": "address"
				}
			],
			"stateMutability": "view",
			"type": "function"
		},
		{
			"inputs": [
				{
					"internalType": "string",
					"name": "fromCurrency",
					"type": "string"
				},
				{
					"internalType": "string",
					"name": "toCurrency",
					"type": "string"
				},
				{
					"internalType": "uint256",
					"name": "amount",
					"type": "uint256"
				}
			],
			"name": "previewConversion",
			"outputs": [
				{
					"internalType": "uint256",
					"name": "displayAmount",
					"type": "uint256"
				}
			],
			"stateMutability": "view",
			"type": "function"
		},
		{
			"inputs": [
				{
					"internalType": "string",
					"name": "toCurrency",
					"type": "string"
				},
				{
					"internalType": "uint256",
					"name": "amount",
					"type": "uint256"
				}
			],
			"name": "redeemTokens",
			"outputs": [
				{
					"internalType": "uint256",
					"name": "",
					"type": "uint256"
				}
			],
			"stateMutability": "nonpayable",
			"type": "function"
		},
		{
			"inputs": [],
			"name": "renounceOwnership",
			"outputs": [],
			"stateMutability": "nonpayable",
			"type": "function"
		},
		{
			"inputs": [
				{
					"internalType": "string",
					"name": "currency",
					"type": "string"
				},
				{
					"internalType": "address",
					"name": "priceFeedAddress",
					"type": "address"
				}
			],
			"name": "setPriceFeed",
			"outputs": [],
			"stateMutability": "nonpayable",
			"type": "function"
		},
		{
			"inputs": [],
			"name": "symbol",
			"outputs": [
				{
					"internalType": "string",
					"name": "",
					"type": "string"
				}
			],
			"stateMutability": "view",
			"type": "function"
		},
		{
			"inputs": [],
			"name": "token",
			"outputs": [
				{
					"internalType": "contract IERC20",
					"name": "",
					"type": "address"
				}
			],
			"stateMutability": "view",
			"type": "function"
		},
		{
			"inputs": [],
			"name": "totalSupply",
			"outputs": [
				{
					"internalType": "uint256",
					"name": "",
					"type": "uint256"
				}
			],
			"stateMutability": "view",
			"type": "function"
		},
		{
			"inputs": [
				{
					"internalType": "address",
					"name": "to",
					"type": "address"
				},
				{
					"internalType": "uint256",
					"name": "value",
					"type": "uint256"
				}
			],
			"name": "transfer",
			"outputs": [
				{
					"internalType": "bool",
					"name": "",
					"type": "bool"
				}
			],
			"stateMutability": "nonpayable",
			"type": "function"
		},
		{
			"inputs": [
				{
					"internalType": "address",
					"name": "from",
					"type": "address"
				},
				{
					"internalType": "address",
					"name": "to",
					"type": "address"
				},
				{
					"internalType": "uint256",
					"name": "value",
					"type": "uint256"
				}
			],
			"name": "transferFrom",
			"outputs": [
				{
					"internalType": "bool",
					"name": "",
					"type": "bool"
				}
			],
			"stateMutability": "nonpayable",
			"type": "function"
		},
		{
			"inputs": [
				{
					"internalType": "address",
					"name": "newOwner",
					"type": "address"
				}
			],
			"name": "transferOwnership",
			"outputs": [],
			"stateMutability": "nonpayable",
			"type": "function"
		},
		{
			"inputs": [
				{
					"internalType": "address",
					"name": "receiver",
					"type": "address"
				},
				{
					"internalType": "uint256",
					"name": "amount",
					"type": "uint256"
				}
			],
			"name": "transferTokens",
			"outputs": [
				{
					"internalType": "bool",
					"name": "",
					"type": "bool"
				}
			],
			"stateMutability": "nonpayable",
			"type": "function"
		},
		{
			"inputs": [
				{
					"internalType": "address",
					"name": "",
					"type": "address"
				}
			],
			"name": "userLoans",
			"outputs": [
				{
					"internalType": "uint256",
					"name": "collateralAmountInETH",
					"type": "uint256"
				},
				{
					"internalType": "uint256",
					"name": "loanAmountInFTGP",
					"type": "uint256"
				},
				{
					"internalType": "uint256",
					"name": "timestamp",
					"type": "uint256"
				},
				{
					"internalType": "uint256",
					"name": "repaymentDue",
					"type": "uint256"
				},
				{
					"internalType": "uint256",
					"name": "monthlyInstallment",
					"type": "uint256"
				},
				{
					"internalType": "uint256",
					"name": "repaidAmount",
					"type": "uint256"
				},
				{
					"internalType": "address",
					"name": "borrower",
					"type": "address"
				}
			],
			"stateMutability": "view",
			"type": "function"
		},
		{
			"inputs": [
				{
					"internalType": "uint256",
					"name": "index",
					"type": "uint256"
				}
			],
			"name": "withdraw",
			"outputs": [],
			"stateMutability": "nonpayable",
			"type": "function"
		},
		{
			"inputs": [
				{
					"internalType": "uint256",
					"name": "index",
					"type": "uint256"
				}
			],
			"name": "withdrawDeposit",
			"outputs": [],
			"stateMutability": "nonpayable",
			"type": "function"
		}
	]
}